{
  "_format": "hh-sol-artifact-1",
  "contractName": "Admin",
  "sourceName": "contracts/defi/utils/Admin.sol",
  "abi": [
    {
      "inputs": [],
      "stateMutability": "nonpayable",
      "type": "constructor"
    },
    {
      "inputs": [],
      "name": "acceptPendingAdmin",
      "outputs": [],
      "stateMutability": "nonpayable",
      "type": "function"
    },
    {
      "inputs": [],
      "name": "admin",
      "outputs": [
        {
          "internalType": "address",
          "name": "",
          "type": "address"
        }
      ],
      "stateMutability": "view",
      "type": "function"
    },
    {
      "inputs": [],
      "name": "pendingAdmin",
      "outputs": [
        {
          "internalType": "address",
          "name": "",
          "type": "address"
        }
      ],
      "stateMutability": "view",
      "type": "function"
    },
    {
      "inputs": [
        {
          "internalType": "address",
          "name": "newAdmin",
          "type": "address"
        }
      ],
      "name": "setPendingAdmin",
      "outputs": [],
      "stateMutability": "nonpayable",
      "type": "function"
    }
  ],
  "bytecode": "0x608060405234801561001057600080fd5b50336000806101000a81548173ffffffffffffffffffffffffffffffffffffffff021916908373ffffffffffffffffffffffffffffffffffffffff160217905550610539806100606000396000f3fe608060405234801561001057600080fd5b506004361061004c5760003560e01c806326782247146100515780634dd18bf51461006f578063709920c11461008b578063f851a44014610095575b600080fd5b6100596100b3565b60405161006691906103a1565b60405180910390f35b610089600480360381019061008491906103ed565b6100d9565b005b6100936101ab565b005b61009d61033c565b6040516100aa91906103a1565b60405180910390f35b600160009054906101000a900473ffffffffffffffffffffffffffffffffffffffff1681565b60008054906101000a900473ffffffffffffffffffffffffffffffffffffffff1673ffffffffffffffffffffffffffffffffffffffff163373ffffffffffffffffffffffffffffffffffffffff1614610167576040517f08c379a000000000000000000000000000000000000000000000000000000000815260040161015e90610477565b60405180910390fd5b80600160006101000a81548173ffffffffffffffffffffffffffffffffffffffff021916908373ffffffffffffffffffffffffffffffffffffffff16021790555050565b600160009054906101000a900473ffffffffffffffffffffffffffffffffffffffff1673ffffffffffffffffffffffffffffffffffffffff163373ffffffffffffffffffffffffffffffffffffffff161480156102575750600073ffffffffffffffffffffffffffffffffffffffff16600160009054906101000a900473ffffffffffffffffffffffffffffffffffffffff1673ffffffffffffffffffffffffffffffffffffffff1614155b610296576040517f08c379a000000000000000000000000000000000000000000000000000000000815260040161028d906104e3565b60405180910390fd5b600160009054906101000a900473ffffffffffffffffffffffffffffffffffffffff166000806101000a81548173ffffffffffffffffffffffffffffffffffffffff021916908373ffffffffffffffffffffffffffffffffffffffff1602179055506000600160006101000a81548173ffffffffffffffffffffffffffffffffffffffff021916908373ffffffffffffffffffffffffffffffffffffffff160217905550565b60008054906101000a900473ffffffffffffffffffffffffffffffffffffffff1681565b600073ffffffffffffffffffffffffffffffffffffffff82169050919050565b600061038b82610360565b9050919050565b61039b81610380565b82525050565b60006020820190506103b66000830184610392565b92915050565b600080fd5b6103ca81610380565b81146103d557600080fd5b50565b6000813590506103e7816103c1565b92915050565b600060208284031215610403576104026103bc565b5b6000610411848285016103d8565b91505092915050565b600082825260208201905092915050565b7f61646d696e206f6e6c7900000000000000000000000000000000000000000000600082015250565b6000610461600a8361041a565b915061046c8261042b565b602082019050919050565b6000602082019050818103600083015261049081610454565b9050919050565b7f43616c6c6572206d757374206265207468652070656e64696e672061646d696e600082015250565b60006104cd60208361041a565b91506104d882610497565b602082019050919050565b600060208201905081810360008301526104fc816104c0565b905091905056fea26469706673582212208c998f412185b51bcc77bfc7fe611704e21f44b24edebf7bce4200de52179b5364736f6c634300080c0033",
  "linkReferences": {},
  "deployedLinkReferences": {}
}