{
  "_format": "hh-sol-artifact-1",
  "contractName": "StakeRouter",
  "sourceName": "contracts/defi/routers/StakeRouter.sol",
  "abi": [
    {
      "inputs": [
        {
          "internalType": "address",
          "name": "_feeCalc",
          "type": "address"
        }
      ],
      "stateMutability": "nonpayable",
      "type": "constructor"
    },
    {
      "anonymous": false,
      "inputs": [
        {
          "indexed": true,
          "internalType": "address",
          "name": "referrer",
          "type": "address"
        },
        {
          "indexed": true,
          "internalType": "address",
          "name": "token",
          "type": "address"
        },
        {
          "indexed": false,
          "internalType": "uint256",
          "name": "claimedAmout",
          "type": "uint256"
        }
      ],
      "name": "ReferralFeesClaimed",
      "type": "event"
    },
    {
      "anonymous": false,
      "inputs": [
        {
          "indexed": true,
          "internalType": "address",
          "name": "pool",
          "type": "address"
        },
        {
          "indexed": true,
          "internalType": "address",
          "name": "beneficiary",
          "type": "address"
        },
        {
          "indexed": false,
          "internalType": "address",
          "name": "referrer",
          "type": "address"
        },
        {
          "indexed": false,
          "internalType": "uint256",
          "name": "amountInETH",
          "type": "uint256"
        },
        {
          "indexed": false,
          "internalType": "uint256",
          "name": "amountInBasetoken",
          "type": "uint256"
        }
      ],
      "name": "StakedETHInPool",
      "type": "event"
    },
    {
      "anonymous": false,
      "inputs": [
        {
          "indexed": true,
          "internalType": "address",
          "name": "pool",
          "type": "address"
        },
        {
          "indexed": true,
          "internalType": "address",
          "name": "token",
          "type": "address"
        },
        {
          "indexed": true,
          "internalType": "address",
          "name": "beneficiary",
          "type": "address"
        },
        {
          "indexed": false,
          "internalType": "address",
          "name": "referrer",
          "type": "address"
        },
        {
          "indexed": false,
          "internalType": "uint256",
          "name": "amountInToken",
          "type": "uint256"
        },
        {
          "indexed": false,
          "internalType": "uint256",
          "name": "amountInBasetoken",
          "type": "uint256"
        }
      ],
      "name": "StakedTokenInPool",
      "type": "event"
    },
    {
      "anonymous": false,
      "inputs": [
        {
          "indexed": true,
          "internalType": "address",
          "name": "pool",
          "type": "address"
        },
        {
          "indexed": true,
          "internalType": "address",
          "name": "beneficiary",
          "type": "address"
        },
        {
          "indexed": false,
          "internalType": "address",
          "name": "referrer",
          "type": "address"
        },
        {
          "indexed": false,
          "internalType": "uint256",
          "name": "amountInETH",
          "type": "uint256"
        },
        {
          "indexed": false,
          "internalType": "uint256",
          "name": "amountInBasetoken",
          "type": "uint256"
        }
      ],
      "name": "UnstakedETHFromPool",
      "type": "event"
    },
    {
      "anonymous": false,
      "inputs": [
        {
          "indexed": true,
          "internalType": "address",
          "name": "pool",
          "type": "address"
        },
        {
          "indexed": true,
          "internalType": "address",
          "name": "token",
          "type": "address"
        },
        {
          "indexed": true,
          "internalType": "address",
          "name": "beneficiary",
          "type": "address"
        },
        {
          "indexed": false,
          "internalType": "address",
          "name": "referrer",
          "type": "address"
        },
        {
          "indexed": false,
          "internalType": "uint256",
          "name": "amountInToken",
          "type": "uint256"
        },
        {
          "indexed": false,
          "internalType": "uint256",
          "name": "amountInBasetoken",
          "type": "uint256"
        }
      ],
      "name": "UnstakedTokenFromPool",
      "type": "event"
    },
    {
      "inputs": [],
      "name": "BONE",
      "outputs": [
        {
          "internalType": "uint256",
          "name": "",
          "type": "uint256"
        }
      ],
      "stateMutability": "view",
      "type": "function"
    },
    {
      "inputs": [],
      "name": "MAX_INT",
      "outputs": [
        {
          "internalType": "uint256",
          "name": "",
          "type": "uint256"
        }
      ],
      "stateMutability": "view",
      "type": "function"
    },
    {
      "inputs": [],
      "name": "STAKE_FEE_TYPE",
      "outputs": [
        {
          "internalType": "string",
          "name": "",
          "type": "string"
        }
      ],
      "stateMutability": "view",
      "type": "function"
    },
    {
      "inputs": [],
      "name": "TRADE_FEE_TYPE",
      "outputs": [
        {
          "internalType": "string",
          "name": "",
          "type": "string"
        }
      ],
      "stateMutability": "view",
      "type": "function"
    },
    {
      "inputs": [],
      "name": "UNSTAKE_FEE_TYPE",
      "outputs": [
        {
          "internalType": "string",
          "name": "",
          "type": "string"
        }
      ],
      "stateMutability": "view",
      "type": "function"
    },
    {
      "inputs": [],
      "name": "ZERO_FEES",
      "outputs": [
        {
          "internalType": "uint256",
          "name": "",
          "type": "uint256"
        }
      ],
      "stateMutability": "view",
      "type": "function"
    },
    {
      "inputs": [],
      "name": "acceptPendingAdmin",
      "outputs": [],
      "stateMutability": "nonpayable",
      "type": "function"
    },
    {
      "inputs": [],
      "name": "admin",
      "outputs": [
        {
          "internalType": "address",
          "name": "",
          "type": "address"
        }
      ],
      "stateMutability": "view",
      "type": "function"
    },
    {
      "inputs": [
        {
          "internalType": "address",
          "name": "token",
          "type": "address"
        },
        {
          "internalType": "address",
          "name": "referrer",
          "type": "address"
        }
      ],
      "name": "claimRefFees",
      "outputs": [
        {
          "internalType": "uint256",
          "name": "claimAmount",
          "type": "uint256"
        }
      ],
      "stateMutability": "nonpayable",
      "type": "function"
    },
    {
      "inputs": [],
      "name": "pendingAdmin",
      "outputs": [
        {
          "internalType": "address",
          "name": "",
          "type": "address"
        }
      ],
      "stateMutability": "view",
      "type": "function"
    },
    {
      "inputs": [
        {
          "internalType": "address",
          "name": "",
          "type": "address"
        },
        {
          "internalType": "address",
          "name": "",
          "type": "address"
        }
      ],
      "name": "referralFees",
      "outputs": [
        {
          "internalType": "uint256",
          "name": "",
          "type": "uint256"
        }
      ],
      "stateMutability": "view",
      "type": "function"
    },
    {
      "inputs": [
        {
          "internalType": "address",
          "name": "newAdmin",
          "type": "address"
        }
      ],
      "name": "setPendingAdmin",
      "outputs": [],
      "stateMutability": "nonpayable",
      "type": "function"
    },
    {
      "inputs": [
        {
          "components": [
            {
              "internalType": "address[4]",
              "name": "meta",
              "type": "address[4]"
            },
            {
              "internalType": "uint256[3]",
              "name": "uints",
              "type": "uint256[3]"
            },
            {
              "internalType": "address[]",
              "name": "path",
              "type": "address[]"
            }
          ],
          "internalType": "struct StakeRouter.StakeInfo",
          "name": "info",
          "type": "tuple"
        }
      ],
      "name": "stakeETHInDTPool",
      "outputs": [
        {
          "internalType": "uint256",
          "name": "poolTokensOut",
          "type": "uint256"
        }
      ],
      "stateMutability": "payable",
      "type": "function"
    },
    {
      "inputs": [
        {
          "components": [
            {
              "internalType": "address[4]",
              "name": "meta",
              "type": "address[4]"
            },
            {
              "internalType": "uint256[3]",
              "name": "uints",
              "type": "uint256[3]"
            },
            {
              "internalType": "address[]",
              "name": "path",
              "type": "address[]"
            }
          ],
          "internalType": "struct StakeRouter.StakeInfo",
          "name": "info",
          "type": "tuple"
        }
      ],
      "name": "stakeTokenInDTPool",
      "outputs": [
        {
          "internalType": "uint256",
          "name": "poolTokensOut",
          "type": "uint256"
        }
      ],
      "stateMutability": "nonpayable",
      "type": "function"
    },
    {
      "inputs": [
        {
          "components": [
            {
              "internalType": "address[4]",
              "name": "meta",
              "type": "address[4]"
            },
            {
              "internalType": "uint256[3]",
              "name": "uints",
              "type": "uint256[3]"
            },
            {
              "internalType": "address[]",
              "name": "path",
              "type": "address[]"
            }
          ],
          "internalType": "struct StakeRouter.StakeInfo",
          "name": "info",
          "type": "tuple"
        }
      ],
      "name": "unstakeETHFromDTPool",
      "outputs": [
        {
          "internalType": "uint256",
          "name": "ethAmountOut",
          "type": "uint256"
        }
      ],
      "stateMutability": "nonpayable",
      "type": "function"
    },
    {
      "inputs": [
        {
          "components": [
            {
              "internalType": "address[4]",
              "name": "meta",
              "type": "address[4]"
            },
            {
              "internalType": "uint256[3]",
              "name": "uints",
              "type": "uint256[3]"
            },
            {
              "internalType": "address[]",
              "name": "path",
              "type": "address[]"
            }
          ],
          "internalType": "struct StakeRouter.StakeInfo",
          "name": "info",
          "type": "tuple"
        }
      ],
      "name": "unstakeTokenFromDTPool",
      "outputs": [
        {
          "internalType": "uint256",
          "name": "tokenAmountOut",
          "type": "uint256"
        }
      ],
      "stateMutability": "nonpayable",
      "type": "function"
    },
    {
      "stateMutability": "payable",
      "type": "receive"
    }
  ],
  "bytecode": "0x60806040523480156200001157600080fd5b506040516200545938038062005459833981810160405281019062000037919062000132565b600160008190555033600160006101000a81548173ffffffffffffffffffffffffffffffffffffffff021916908373ffffffffffffffffffffffffffffffffffffffff16021790555080600360006101000a81548173ffffffffffffffffffffffffffffffffffffffff021916908373ffffffffffffffffffffffffffffffffffffffff1602179055505062000164565b600080fd5b600073ffffffffffffffffffffffffffffffffffffffff82169050919050565b6000620000fa82620000cd565b9050919050565b6200010c81620000ed565b81146200011857600080fd5b50565b6000815190506200012c8162000101565b92915050565b6000602082840312156200014b576200014a620000c8565b5b60006200015b848285016200011b565b91505092915050565b6152e580620001746000396000f3fe6080604052600436106100f75760003560e01c80639ea878621161008a578063d6fd2da511610059578063d6fd2da51461031a578063e279110b14610357578063f851a44014610394578063f9e9f584146103bf576100fe565b80639ea8786214610257578063c1ac027914610294578063c36596a6146102c4578063d09484c2146102ef576100fe565b80634dd18bf5116100c65780634dd18bf5146101af578063709920c1146101d857806385166676146101ef5780639cac5bc31461022c576100fe565b8063098d322814610103578063220ab80c1461012e57806326782247146101595780632b6e01db14610184576100fe565b366100fe57005b600080fd5b34801561010f57600080fd5b506101186103fc565b604051610125919061437d565b60405180910390f35b34801561013a57600080fd5b50610143610420565b6040516101509190614431565b60405180910390f35b34801561016557600080fd5b5061016e610459565b60405161017b9190614494565b60405180910390f35b34801561019057600080fd5b5061019961047f565b6040516101a6919061437d565b60405180910390f35b3480156101bb57600080fd5b506101d660048036038101906101d191906144ef565b610484565b005b3480156101e457600080fd5b506101ed610558565b005b3480156101fb57600080fd5b5061021660048036038101906102119190614541565b6106ea565b604051610223919061437d565b60405180910390f35b34801561023857600080fd5b506102416113c9565b60405161024e9190614431565b60405180910390f35b34801561026357600080fd5b5061027e60048036038101906102799190614541565b611402565b60405161028b919061437d565b60405180910390f35b6102ae60048036038101906102a99190614541565b612169565b6040516102bb919061437d565b60405180910390f35b3480156102d057600080fd5b506102d9612c91565b6040516102e6919061437d565b60405180910390f35b3480156102fb57600080fd5b50610304612c9d565b6040516103119190614431565b60405180910390f35b34801561032657600080fd5b50610341600480360381019061033c9190614541565b612cd6565b60405161034e919061437d565b60405180910390f35b34801561036357600080fd5b5061037e6004803603810190610379919061458a565b613bea565b60405161038b919061437d565b60405180910390f35b3480156103a057600080fd5b506103a9613c0f565b6040516103b69190614494565b60405180910390f35b3480156103cb57600080fd5b506103e660048036038101906103e1919061458a565b613c35565b6040516103f3919061437d565b60405180910390f35b7fffffffffffffffffffffffffffffffffffffffffffffffffffffffffffffffff81565b6040518060400160405280600581526020017f5354414b4500000000000000000000000000000000000000000000000000000081525081565b600260009054906101000a900473ffffffffffffffffffffffffffffffffffffffff1681565b600081565b600160009054906101000a900473ffffffffffffffffffffffffffffffffffffffff1673ffffffffffffffffffffffffffffffffffffffff163373ffffffffffffffffffffffffffffffffffffffff1614610514576040517f08c379a000000000000000000000000000000000000000000000000000000000815260040161050b90614616565b60405180910390fd5b80600260006101000a81548173ffffffffffffffffffffffffffffffffffffffff021916908373ffffffffffffffffffffffffffffffffffffffff16021790555050565b600260009054906101000a900473ffffffffffffffffffffffffffffffffffffffff1673ffffffffffffffffffffffffffffffffffffffff163373ffffffffffffffffffffffffffffffffffffffff161480156106045750600073ffffffffffffffffffffffffffffffffffffffff16600260009054906101000a900473ffffffffffffffffffffffffffffffffffffffff1673ffffffffffffffffffffffffffffffffffffffff1614155b610643576040517f08c379a000000000000000000000000000000000000000000000000000000000815260040161063a90614682565b60405180910390fd5b600260009054906101000a900473ffffffffffffffffffffffffffffffffffffffff16600160006101000a81548173ffffffffffffffffffffffffffffffffffffffff021916908373ffffffffffffffffffffffffffffffffffffffff1602179055506000600260006101000a81548173ffffffffffffffffffffffffffffffffffffffff021916908373ffffffffffffffffffffffffffffffffffffffff160217905550565b600060026000541415610732576040517f08c379a0000000000000000000000000000000000000000000000000000000008152600401610729906146ee565b60405180910390fd5b6002600081905550600073ffffffffffffffffffffffffffffffffffffffff16826000016002600481106107695761076861470e565b5b60200201602081019061077c91906144ef565b73ffffffffffffffffffffffffffffffffffffffff1614156107d3576040517f08c379a00000000000000000000000000000000000000000000000000000000081526004016107ca906147af565b60405180910390fd5b816000016000600481106107ea576107e961470e565b5b6020020160208101906107fd91906144ef565b73ffffffffffffffffffffffffffffffffffffffff1663dd62ed3e33306040518363ffffffff1660e01b81526004016108379291906147cf565b602060405180830381865afa158015610854573d6000803e3d6000fd5b505050506040513d601f19601f820116820180604052508101906108789190614824565b8260800160006003811061088f5761088e61470e565b5b602002013511156108d5576040517f08c379a00000000000000000000000000000000000000000000000000000000081526004016108cc906148c3565b60405180910390fd5b6001828060e001906108e791906148f2565b905011610929576040517f08c379a0000000000000000000000000000000000000000000000000000000008152600401610920906149a1565b60405180910390fd5b6000828060e0019061093b91906148f2565b600081811061094d5761094c61470e565b5b905060200201602081019061096291906144ef565b905060008360000160006004811061097d5761097c61470e565b5b60200201602081019061099091906144ef565b9050610a033330866080016000600381106109ae576109ad61470e565b5b6020020135876000016000600481106109ca576109c961470e565b5b6020020160208101906109dd91906144ef565b73ffffffffffffffffffffffffffffffffffffffff16613e6d909392919063ffffffff16565b610a728185608001600060038110610a1e57610a1d61470e565b5b602002013586600001600060048110610a3a57610a3961470e565b5b602002016020810190610a4d91906144ef565b73ffffffffffffffffffffffffffffffffffffffff16613ef69092919063ffffffff16565b60008173ffffffffffffffffffffffffffffffffffffffff16631298926086608001600060038110610aa757610aa661470e565b5b602002013587608001600260038110610ac357610ac261470e565b5b60200201356040518363ffffffff1660e01b8152600401610ae59291906149c1565b6020604051808303816000875af1158015610b04573d6000803e3d6000fd5b505050506040513d601f19601f82011682018060405250810190610b289190614824565b9050600080600360009054906101000a900473ffffffffffffffffffffffffffffffffffffffff1673ffffffffffffffffffffffffffffffffffffffff1663f8702fe1846040518060400160405280600781526020017f554e5354414b45000000000000000000000000000000000000000000000000008152508a608001600160038110610bb957610bb861470e565b5b60200201356040518463ffffffff1660e01b8152600401610bdc939291906149ea565b6040805180830381865afa158015610bf8573d6000803e3d6000fd5b505050506040513d601f19601f82011682018060405250810190610c1c9190614a28565b91509150600073ffffffffffffffffffffffffffffffffffffffff1687600001600260048110610c4f57610c4e61470e565b5b602002016020810190610c6291906144ef565b73ffffffffffffffffffffffffffffffffffffffff1614610f3657610d3581600460008a600001600260048110610c9c57610c9b61470e565b5b602002016020810190610caf91906144ef565b73ffffffffffffffffffffffffffffffffffffffff1673ffffffffffffffffffffffffffffffffffffffff16815260200190815260200160002060008873ffffffffffffffffffffffffffffffffffffffff1673ffffffffffffffffffffffffffffffffffffffff1681526020019081526020016000205461404590919063ffffffff16565b6004600089600001600260048110610d5057610d4f61470e565b5b602002016020810190610d6391906144ef565b73ffffffffffffffffffffffffffffffffffffffff1673ffffffffffffffffffffffffffffffffffffffff16815260200190815260200160002060008773ffffffffffffffffffffffffffffffffffffffff1673ffffffffffffffffffffffffffffffffffffffff16815260200190815260200160002081905550610e8f8260046000600160009054906101000a900473ffffffffffffffffffffffffffffffffffffffff1673ffffffffffffffffffffffffffffffffffffffff1673ffffffffffffffffffffffffffffffffffffffff16815260200190815260200160002060008873ffffffffffffffffffffffffffffffffffffffff1673ffffffffffffffffffffffffffffffffffffffff1681526020019081526020016000205461404590919063ffffffff16565b60046000600160009054906101000a900473ffffffffffffffffffffffffffffffffffffffff1673ffffffffffffffffffffffffffffffffffffffff1673ffffffffffffffffffffffffffffffffffffffff16815260200190815260200160002060008773ffffffffffffffffffffffffffffffffffffffff1673ffffffffffffffffffffffffffffffffffffffff1681526020019081526020016000208190555061109c565b610ff9610f4c828461404590919063ffffffff16565b60046000600160009054906101000a900473ffffffffffffffffffffffffffffffffffffffff1673ffffffffffffffffffffffffffffffffffffffff1673ffffffffffffffffffffffffffffffffffffffff16815260200190815260200160002060008873ffffffffffffffffffffffffffffffffffffffff1673ffffffffffffffffffffffffffffffffffffffff1681526020019081526020016000205461404590919063ffffffff16565b60046000600160009054906101000a900473ffffffffffffffffffffffffffffffffffffffff1673ffffffffffffffffffffffffffffffffffffffff1673ffffffffffffffffffffffffffffffffffffffff16815260200190815260200160002060008773ffffffffffffffffffffffffffffffffffffffff1673ffffffffffffffffffffffffffffffffffffffff168152602001908152602001600020819055505b60006110c36110b4838561404590919063ffffffff16565b8561405b90919063ffffffff16565b9050611119886000016003600481106110df576110de61470e565b5b6020020160208101906110f291906144ef565b828873ffffffffffffffffffffffffffffffffffffffff16613ef69092919063ffffffff16565b6000886000016003600481106111325761113161470e565b5b60200201602081019061114591906144ef565b905060008173ffffffffffffffffffffffffffffffffffffffff1663d06ca61f848c8060e0019061117691906148f2565b6040518463ffffffff1660e01b815260040161119493929190614b2b565b600060405180830381865afa1580156111b1573d6000803e3d6000fd5b505050506040513d6000823e3d601f19601f820116820180604052508101906111da9190614ca5565b90508173ffffffffffffffffffffffffffffffffffffffff1663363db5c6848360018e8060e0019061120c91906148f2565b90506112189190614d1d565b815181106112295761122861470e565b5b60200260200101518d8060e0019061124191906148f2565b8f6000016001600481106112585761125761470e565b5b60200201602081019061126b91906144ef565b6040518663ffffffff1660e01b815260040161128b959493929190614d51565b6020604051808303816000875af11580156112aa573d6000803e3d6000fd5b505050506040513d601f19601f820116820180604052508101906112ce9190614824565b9850896000016001600481106112e7576112e661470e565b5b6020020160208101906112fa91906144ef565b73ffffffffffffffffffffffffffffffffffffffff168a6000016000600481106113275761132661470e565b5b60200201602081019061133a91906144ef565b73ffffffffffffffffffffffffffffffffffffffff167f21f34002cdf6729881e8fb2897e3f2ac7547910b6d6e6eeaf6b2076d4396caec8c6000016002600481106113885761138761470e565b5b60200201602081019061139b91906144ef565b8c876040516113ac93929190614d9f565b60405180910390a350505050505050506001600081905550919050565b6040518060400160405280600581526020017f545241444500000000000000000000000000000000000000000000000000000081525081565b60006002600054141561144a576040517f08c379a0000000000000000000000000000000000000000000000000000000008152600401611441906146ee565b60405180910390fd5b6002600081905550600073ffffffffffffffffffffffffffffffffffffffff16826000016002600481106114815761148061470e565b5b60200201602081019061149491906144ef565b73ffffffffffffffffffffffffffffffffffffffff1614156114eb576040517f08c379a00000000000000000000000000000000000000000000000000000000081526004016114e2906147af565b60405180910390fd5b816000016000600481106115025761150161470e565b5b60200201602081019061151591906144ef565b73ffffffffffffffffffffffffffffffffffffffff1663dd62ed3e33306040518363ffffffff1660e01b815260040161154f9291906147cf565b602060405180830381865afa15801561156c573d6000803e3d6000fd5b505050506040513d601f19601f820116820180604052508101906115909190614824565b826080016000600381106115a7576115a661470e565b5b602002013511156115ed576040517f08c379a00000000000000000000000000000000000000000000000000000000081526004016115e4906148c3565b60405180910390fd5b6000826000016000600481106116065761160561470e565b5b60200201602081019061161991906144ef565b905061168c3330856080016000600381106116375761163661470e565b5b6020020135866000016000600481106116535761165261470e565b5b60200201602081019061166691906144ef565b73ffffffffffffffffffffffffffffffffffffffff16613e6d909392919063ffffffff16565b6116fb81846080016000600381106116a7576116a661470e565b5b6020020135856000016000600481106116c3576116c261470e565b5b6020020160208101906116d691906144ef565b73ffffffffffffffffffffffffffffffffffffffff16613ef69092919063ffffffff16565b60008173ffffffffffffffffffffffffffffffffffffffff166312989260856080016000600381106117305761172f61470e565b5b60200201358660800160026003811061174c5761174b61470e565b5b60200201356040518363ffffffff1660e01b815260040161176e9291906149c1565b6020604051808303816000875af115801561178d573d6000803e3d6000fd5b505050506040513d601f19601f820116820180604052508101906117b19190614824565b90506000848060e001906117c591906148f2565b60008181106117d7576117d661470e565b5b90506020020160208101906117ec91906144ef565b9050600080600360009054906101000a900473ffffffffffffffffffffffffffffffffffffffff1673ffffffffffffffffffffffffffffffffffffffff1663f8702fe1856040518060400160405280600781526020017f554e5354414b45000000000000000000000000000000000000000000000000008152508a60800160016003811061187d5761187c61470e565b5b60200201356040518463ffffffff1660e01b81526004016118a0939291906149ea565b6040805180830381865afa1580156118bc573d6000803e3d6000fd5b505050506040513d601f19601f820116820180604052508101906118e09190614a28565b91509150600073ffffffffffffffffffffffffffffffffffffffff16876000016002600481106119135761191261470e565b5b60200201602081019061192691906144ef565b73ffffffffffffffffffffffffffffffffffffffff1614611bfa576119f981600460008a6000016002600481106119605761195f61470e565b5b60200201602081019061197391906144ef565b73ffffffffffffffffffffffffffffffffffffffff1673ffffffffffffffffffffffffffffffffffffffff16815260200190815260200160002060008673ffffffffffffffffffffffffffffffffffffffff1673ffffffffffffffffffffffffffffffffffffffff1681526020019081526020016000205461404590919063ffffffff16565b6004600089600001600260048110611a1457611a1361470e565b5b602002016020810190611a2791906144ef565b73ffffffffffffffffffffffffffffffffffffffff1673ffffffffffffffffffffffffffffffffffffffff16815260200190815260200160002060008573ffffffffffffffffffffffffffffffffffffffff1673ffffffffffffffffffffffffffffffffffffffff16815260200190815260200160002081905550611b538260046000600160009054906101000a900473ffffffffffffffffffffffffffffffffffffffff1673ffffffffffffffffffffffffffffffffffffffff1673ffffffffffffffffffffffffffffffffffffffff16815260200190815260200160002060008673ffffffffffffffffffffffffffffffffffffffff1673ffffffffffffffffffffffffffffffffffffffff1681526020019081526020016000205461404590919063ffffffff16565b60046000600160009054906101000a900473ffffffffffffffffffffffffffffffffffffffff1673ffffffffffffffffffffffffffffffffffffffff1673ffffffffffffffffffffffffffffffffffffffff16815260200190815260200160002060008573ffffffffffffffffffffffffffffffffffffffff1673ffffffffffffffffffffffffffffffffffffffff16815260200190815260200160002081905550611d60565b611cbd611c10828461404590919063ffffffff16565b60046000600160009054906101000a900473ffffffffffffffffffffffffffffffffffffffff1673ffffffffffffffffffffffffffffffffffffffff1673ffffffffffffffffffffffffffffffffffffffff16815260200190815260200160002060008673ffffffffffffffffffffffffffffffffffffffff1673ffffffffffffffffffffffffffffffffffffffff1681526020019081526020016000205461404590919063ffffffff16565b60046000600160009054906101000a900473ffffffffffffffffffffffffffffffffffffffff1673ffffffffffffffffffffffffffffffffffffffff1673ffffffffffffffffffffffffffffffffffffffff16815260200190815260200160002060008573ffffffffffffffffffffffffffffffffffffffff1673ffffffffffffffffffffffffffffffffffffffff168152602001908152602001600020819055505b6000611d87611d78838561404590919063ffffffff16565b8661405b90919063ffffffff16565b90506001888060e00190611d9b91906148f2565b90501115611fb557611df788600001600360048110611dbd57611dbc61470e565b5b602002016020810190611dd091906144ef565b828673ffffffffffffffffffffffffffffffffffffffff16613ef69092919063ffffffff16565b600088600001600360048110611e1057611e0f61470e565b5b602002016020810190611e2391906144ef565b905060008173ffffffffffffffffffffffffffffffffffffffff1663d06ca61f848c8060e00190611e5491906148f2565b6040518463ffffffff1660e01b8152600401611e7293929190614b2b565b600060405180830381865afa158015611e8f573d6000803e3d6000fd5b505050506040513d6000823e3d601f19601f82011682018060405250810190611eb89190614ca5565b90508173ffffffffffffffffffffffffffffffffffffffff1663472b43f3848360018e8060e00190611eea91906148f2565b9050611ef69190614d1d565b81518110611f0757611f0661470e565b5b60200260200101518d8060e00190611f1f91906148f2565b8f600001600160048110611f3657611f3561470e565b5b602002016020810190611f4991906144ef565b6040518663ffffffff1660e01b8152600401611f69959493929190614d51565b6020604051808303816000875af1158015611f88573d6000803e3d6000fd5b505050506040513d601f19601f82011682018060405250810190611fac9190614824565b9850505061200a565b61200988600001600160048110611fcf57611fce61470e565b5b602002016020810190611fe291906144ef565b828673ffffffffffffffffffffffffffffffffffffffff166140719092919063ffffffff16565b5b876000016001600481106120215761202061470e565b5b60200201602081019061203491906144ef565b73ffffffffffffffffffffffffffffffffffffffff16888060e0019061205a91906148f2565b600081811061206c5761206b61470e565b5b905060200201602081019061208191906144ef565b73ffffffffffffffffffffffffffffffffffffffff16896000016000600481106120ae576120ad61470e565b5b6020020160208101906120c191906144ef565b73ffffffffffffffffffffffffffffffffffffffff167f1027ffcf3a7a994eaed678fe5a9c4c08f9514c3b2b527c48bb41508607f62d918b60000160026004811061210f5761210e61470e565b5b60200201602081019061212291906144ef565b8c6080016000600381106121395761213861470e565b5b60200201358660405161214e93929190614d9f565b60405180910390a45050505050506001600081905550919050565b6000600260005414156121b1576040517f08c379a00000000000000000000000000000000000000000000000000000000081526004016121a8906146ee565b60405180910390fd5b6002600081905550600073ffffffffffffffffffffffffffffffffffffffff16826000016002600481106121e8576121e761470e565b5b6020020160208101906121fb91906144ef565b73ffffffffffffffffffffffffffffffffffffffff161415612252576040517f08c379a0000000000000000000000000000000000000000000000000000000008152600401612249906147af565b60405180910390fd5b6001828060e0019061226491906148f2565b9050116122a6576040517f08c379a000000000000000000000000000000000000000000000000000000000815260040161229d906149a1565b60405180910390fd5b6000826000016003600481106122bf576122be61470e565b5b6020020160208101906122d291906144ef565b90506000838060e001906122e691906148f2565b6001868060e001906122f891906148f2565b90506123049190614d1d565b8181106123145761231361470e565b5b905060200201602081019061232991906144ef565b90506000846000016000600481106123445761234361470e565b5b60200201602081019061235791906144ef565b905060008373ffffffffffffffffffffffffffffffffffffffff1663d06ca61f34888060e0019061238891906148f2565b6040518463ffffffff1660e01b81526004016123a693929190614b2b565b600060405180830381865afa1580156123c3573d6000803e3d6000fd5b505050506040513d6000823e3d601f19601f820116820180604052508101906123ec9190614ca5565b905060008473ffffffffffffffffffffffffffffffffffffffff166312c6442f348460018b8060e0019061242091906148f2565b905061242c9190614d1d565b8151811061243d5761243c61470e565b5b60200260200101518a8060e0019061245591906148f2565b306040518663ffffffff1660e01b81526004016124759493929190614dd6565b60206040518083038185885af1158015612493573d6000803e3d6000fd5b50505050506040513d601f19601f820116820180604052508101906124b89190614824565b9050600080600360009054906101000a900473ffffffffffffffffffffffffffffffffffffffff1673ffffffffffffffffffffffffffffffffffffffff1663f8702fe1846040518060400160405280600581526020017f5354414b450000000000000000000000000000000000000000000000000000008152508c6080016001600381106125495761254861470e565b5b60200201356040518463ffffffff1660e01b815260040161256c939291906149ea565b6040805180830381865afa158015612588573d6000803e3d6000fd5b505050506040513d601f19601f820116820180604052508101906125ac9190614a28565b91509150600073ffffffffffffffffffffffffffffffffffffffff16896000016002600481106125df576125de61470e565b5b6020020160208101906125f291906144ef565b73ffffffffffffffffffffffffffffffffffffffff16146128c6576126c581600460008c60000160026004811061262c5761262b61470e565b5b60200201602081019061263f91906144ef565b73ffffffffffffffffffffffffffffffffffffffff1673ffffffffffffffffffffffffffffffffffffffff16815260200190815260200160002060008973ffffffffffffffffffffffffffffffffffffffff1673ffffffffffffffffffffffffffffffffffffffff1681526020019081526020016000205461404590919063ffffffff16565b600460008b6000016002600481106126e0576126df61470e565b5b6020020160208101906126f391906144ef565b73ffffffffffffffffffffffffffffffffffffffff1673ffffffffffffffffffffffffffffffffffffffff16815260200190815260200160002060008873ffffffffffffffffffffffffffffffffffffffff1673ffffffffffffffffffffffffffffffffffffffff1681526020019081526020016000208190555061281f8260046000600160009054906101000a900473ffffffffffffffffffffffffffffffffffffffff1673ffffffffffffffffffffffffffffffffffffffff1673ffffffffffffffffffffffffffffffffffffffff16815260200190815260200160002060008973ffffffffffffffffffffffffffffffffffffffff1673ffffffffffffffffffffffffffffffffffffffff1681526020019081526020016000205461404590919063ffffffff16565b60046000600160009054906101000a900473ffffffffffffffffffffffffffffffffffffffff1673ffffffffffffffffffffffffffffffffffffffff1673ffffffffffffffffffffffffffffffffffffffff16815260200190815260200160002060008873ffffffffffffffffffffffffffffffffffffffff1673ffffffffffffffffffffffffffffffffffffffff16815260200190815260200160002081905550612a2c565b6129896128dc828461404590919063ffffffff16565b60046000600160009054906101000a900473ffffffffffffffffffffffffffffffffffffffff1673ffffffffffffffffffffffffffffffffffffffff1673ffffffffffffffffffffffffffffffffffffffff16815260200190815260200160002060008973ffffffffffffffffffffffffffffffffffffffff1673ffffffffffffffffffffffffffffffffffffffff1681526020019081526020016000205461404590919063ffffffff16565b60046000600160009054906101000a900473ffffffffffffffffffffffffffffffffffffffff1673ffffffffffffffffffffffffffffffffffffffff1673ffffffffffffffffffffffffffffffffffffffff16815260200190815260200160002060008873ffffffffffffffffffffffffffffffffffffffff1673ffffffffffffffffffffffffffffffffffffffff168152602001908152602001600020819055505b6000612a53612a44838561404590919063ffffffff16565b8561405b90919063ffffffff16565b9050612a8086828973ffffffffffffffffffffffffffffffffffffffff16613ef69092919063ffffffff16565b8573ffffffffffffffffffffffffffffffffffffffff16638329ab33828c608001600260038110612ab457612ab361470e565b5b60200201356040518363ffffffff1660e01b8152600401612ad69291906149c1565b6020604051808303816000875af1158015612af5573d6000803e3d6000fd5b505050506040513d601f19601f82011682018060405250810190612b199190614824565b9850612b988a600001600160048110612b3557612b3461470e565b5b602002016020810190612b4891906144ef565b8a8c600001600060048110612b6057612b5f61470e565b5b602002016020810190612b7391906144ef565b73ffffffffffffffffffffffffffffffffffffffff166140719092919063ffffffff16565b89600001600160048110612baf57612bae61470e565b5b602002016020810190612bc291906144ef565b73ffffffffffffffffffffffffffffffffffffffff168a600001600060048110612bef57612bee61470e565b5b602002016020810190612c0291906144ef565b73ffffffffffffffffffffffffffffffffffffffff167f9910ecaf42f056af81719fea3ce6fbc87dd3e3241b1d94e61e53be0148d05cb58c600001600260048110612c5057612c4f61470e565b5b602002016020810190612c6391906144ef565b3485604051612c7493929190614d9f565b60405180910390a350505050505050506001600081905550919050565b670de0b6b3a764000081565b6040518060400160405280600781526020017f554e5354414b450000000000000000000000000000000000000000000000000081525081565b600060026000541415612d1e576040517f08c379a0000000000000000000000000000000000000000000000000000000008152600401612d15906146ee565b60405180910390fd5b6002600081905550600073ffffffffffffffffffffffffffffffffffffffff1682600001600260048110612d5557612d5461470e565b5b602002016020810190612d6891906144ef565b73ffffffffffffffffffffffffffffffffffffffff161415612dbf576040517f08c379a0000000000000000000000000000000000000000000000000000000008152600401612db6906147af565b60405180910390fd5b818060e00190612dcf91906148f2565b6000818110612de157612de061470e565b5b9050602002016020810190612df691906144ef565b73ffffffffffffffffffffffffffffffffffffffff1663dd62ed3e33306040518363ffffffff1660e01b8152600401612e309291906147cf565b602060405180830381865afa158015612e4d573d6000803e3d6000fd5b505050506040513d601f19601f82011682018060405250810190612e719190614824565b82608001600060038110612e8857612e8761470e565b5b60200201351115612ece576040517f08c379a0000000000000000000000000000000000000000000000000000000008152600401612ec5906148c3565b60405180910390fd5b6000828060e00190612ee091906148f2565b6001858060e00190612ef291906148f2565b9050612efe9190614d1d565b818110612f0e57612f0d61470e565b5b9050602002016020810190612f2391906144ef565b9050600083608001600060038110612f3e57612f3d61470e565b5b6020020135905083608001600060038110612f5c57612f5b61470e565b5b6020020135848060e00190612f7191906148f2565b6000818110612f8357612f8261470e565b5b9050602002016020810190612f9891906144ef565b73ffffffffffffffffffffffffffffffffffffffff166370a08231336040518263ffffffff1660e01b8152600401612fd09190614494565b602060405180830381865afa158015612fed573d6000803e3d6000fd5b505050506040513d601f19601f820116820180604052508101906130119190614824565b1015613052576040517f08c379a000000000000000000000000000000000000000000000000000000000815260040161304990614e88565b60405180910390fd5b6130d033308660800160006003811061306e5761306d61470e565b5b6020020135878060e0019061308391906148f2565b60008181106130955761309461470e565b5b90506020020160208101906130aa91906144ef565b73ffffffffffffffffffffffffffffffffffffffff16613e6d909392919063ffffffff16565b6001848060e001906130e291906148f2565b90501115613356576000846000016003600481106131035761310261470e565b5b60200201602081019061311691906144ef565b905060008173ffffffffffffffffffffffffffffffffffffffff1663d06ca61f8760800160006003811061314d5761314c61470e565b5b6020020135888060e0019061316291906148f2565b6040518463ffffffff1660e01b815260040161318093929190614b2b565b600060405180830381865afa15801561319d573d6000803e3d6000fd5b505050506040513d6000823e3d601f19601f820116820180604052508101906131c69190614ca5565b905061326d866000016003600481106131e2576131e161470e565b5b6020020160208101906131f591906144ef565b8760800160006003811061320c5761320b61470e565b5b6020020135888060e0019061322191906148f2565b60008181106132335761323261470e565b5b905060200201602081019061324891906144ef565b73ffffffffffffffffffffffffffffffffffffffff16613ef69092919063ffffffff16565b8173ffffffffffffffffffffffffffffffffffffffff1663472b43f3876080016000600381106132a05761329f61470e565b5b60200201358360018a8060e001906132b891906148f2565b90506132c49190614d1d565b815181106132d5576132d461470e565b5b6020026020010151898060e001906132ed91906148f2565b306040518663ffffffff1660e01b815260040161330e959493929190614d51565b6020604051808303816000875af115801561332d573d6000803e3d6000fd5b505050506040513d601f19601f820116820180604052508101906133519190614824565b925050505b600080600360009054906101000a900473ffffffffffffffffffffffffffffffffffffffff1673ffffffffffffffffffffffffffffffffffffffff1663f8702fe1846040518060400160405280600581526020017f5354414b45000000000000000000000000000000000000000000000000000000815250896080016001600381106133e5576133e461470e565b5b60200201356040518463ffffffff1660e01b8152600401613408939291906149ea565b6040805180830381865afa158015613424573d6000803e3d6000fd5b505050506040513d601f19601f820116820180604052508101906134489190614a28565b91509150600073ffffffffffffffffffffffffffffffffffffffff168660000160026004811061347b5761347a61470e565b5b60200201602081019061348e91906144ef565b73ffffffffffffffffffffffffffffffffffffffff1614613762576135618160046000896000016002600481106134c8576134c761470e565b5b6020020160208101906134db91906144ef565b73ffffffffffffffffffffffffffffffffffffffff1673ffffffffffffffffffffffffffffffffffffffff16815260200190815260200160002060008773ffffffffffffffffffffffffffffffffffffffff1673ffffffffffffffffffffffffffffffffffffffff1681526020019081526020016000205461404590919063ffffffff16565b600460008860000160026004811061357c5761357b61470e565b5b60200201602081019061358f91906144ef565b73ffffffffffffffffffffffffffffffffffffffff1673ffffffffffffffffffffffffffffffffffffffff16815260200190815260200160002060008673ffffffffffffffffffffffffffffffffffffffff1673ffffffffffffffffffffffffffffffffffffffff168152602001908152602001600020819055506136bb8260046000600160009054906101000a900473ffffffffffffffffffffffffffffffffffffffff1673ffffffffffffffffffffffffffffffffffffffff1673ffffffffffffffffffffffffffffffffffffffff16815260200190815260200160002060008773ffffffffffffffffffffffffffffffffffffffff1673ffffffffffffffffffffffffffffffffffffffff1681526020019081526020016000205461404590919063ffffffff16565b60046000600160009054906101000a900473ffffffffffffffffffffffffffffffffffffffff1673ffffffffffffffffffffffffffffffffffffffff1673ffffffffffffffffffffffffffffffffffffffff16815260200190815260200160002060008673ffffffffffffffffffffffffffffffffffffffff1673ffffffffffffffffffffffffffffffffffffffff168152602001908152602001600020819055506138c8565b613825613778828461404590919063ffffffff16565b60046000600160009054906101000a900473ffffffffffffffffffffffffffffffffffffffff1673ffffffffffffffffffffffffffffffffffffffff1673ffffffffffffffffffffffffffffffffffffffff16815260200190815260200160002060008773ffffffffffffffffffffffffffffffffffffffff1673ffffffffffffffffffffffffffffffffffffffff1681526020019081526020016000205461404590919063ffffffff16565b60046000600160009054906101000a900473ffffffffffffffffffffffffffffffffffffffff1673ffffffffffffffffffffffffffffffffffffffff1673ffffffffffffffffffffffffffffffffffffffff16815260200190815260200160002060008673ffffffffffffffffffffffffffffffffffffffff1673ffffffffffffffffffffffffffffffffffffffff168152602001908152602001600020819055505b60006138ef6138e0838561404590919063ffffffff16565b8561405b90919063ffffffff16565b905060008760000160006004811061390a5761390961470e565b5b60200201602081019061391d91906144ef565b9050613973886000016000600481106139395761393861470e565b5b60200201602081019061394c91906144ef565b838873ffffffffffffffffffffffffffffffffffffffff16613ef69092919063ffffffff16565b8073ffffffffffffffffffffffffffffffffffffffff16638329ab33838a6080016002600381106139a7576139a661470e565b5b60200201356040518363ffffffff1660e01b81526004016139c99291906149c1565b6020604051808303816000875af11580156139e8573d6000803e3d6000fd5b505050506040513d601f19601f82011682018060405250810190613a0c9190614824565b9650613a8b88600001600160048110613a2857613a2761470e565b5b602002016020810190613a3b91906144ef565b888a600001600060048110613a5357613a5261470e565b5b602002016020810190613a6691906144ef565b73ffffffffffffffffffffffffffffffffffffffff166140719092919063ffffffff16565b87600001600160048110613aa257613aa161470e565b5b602002016020810190613ab591906144ef565b73ffffffffffffffffffffffffffffffffffffffff16888060e00190613adb91906148f2565b6000818110613aed57613aec61470e565b5b9050602002016020810190613b0291906144ef565b73ffffffffffffffffffffffffffffffffffffffff1689600001600060048110613b2f57613b2e61470e565b5b602002016020810190613b4291906144ef565b73ffffffffffffffffffffffffffffffffffffffff167f9741dda0fcdfbb5d6b679f62c97ae5835e4325962f36cc9e6731a6476d5421358b600001600260048110613b9057613b8f61470e565b5b602002016020810190613ba391906144ef565b8c608001600060038110613bba57613bb961470e565b5b602002013587604051613bcf93929190614d9f565b60405180910390a45050505050506001600081905550919050565b6004602052816000526040600020602052806000526040600020600091509150505481565b600160009054906101000a900473ffffffffffffffffffffffffffffffffffffffff1681565b600060026000541415613c7d576040517f08c379a0000000000000000000000000000000000000000000000000000000008152600401613c74906146ee565b60405180910390fd5b60026000819055506000839050600460008473ffffffffffffffffffffffffffffffffffffffff1673ffffffffffffffffffffffffffffffffffffffff16815260200190815260200160002060008573ffffffffffffffffffffffffffffffffffffffff1673ffffffffffffffffffffffffffffffffffffffff16815260200190815260200160002054915060008211613d4c576040517f08c379a0000000000000000000000000000000000000000000000000000000008152600401613d4390614ef4565b60405180910390fd5b6000600460008573ffffffffffffffffffffffffffffffffffffffff1673ffffffffffffffffffffffffffffffffffffffff16815260200190815260200160002060008673ffffffffffffffffffffffffffffffffffffffff1673ffffffffffffffffffffffffffffffffffffffff16815260200190815260200160002081905550613df983838373ffffffffffffffffffffffffffffffffffffffff166140719092919063ffffffff16565b8373ffffffffffffffffffffffffffffffffffffffff168373ffffffffffffffffffffffffffffffffffffffff167f4931b6b0ef1b80f8ca6e6b27159d606870fbf438438d14aa8f01abb25e79eb1284604051613e56919061437d565b60405180910390a350600160008190555092915050565b613ef0846323b872dd60e01b858585604051602401613e8e93929190614f14565b604051602081830303815290604052907bffffffffffffffffffffffffffffffffffffffffffffffffffffffff19166020820180517bffffffffffffffffffffffffffffffffffffffffffffffffffffffff83818316178352505050506140f7565b50505050565b6000811480613f80575060008373ffffffffffffffffffffffffffffffffffffffff1663dd62ed3e30856040518363ffffffff1660e01b8152600401613f3d9291906147cf565b602060405180830381865afa158015613f5a573d6000803e3d6000fd5b505050506040513d601f19601f82011682018060405250810190613f7e9190614824565b145b613fbf576040517f08c379a0000000000000000000000000000000000000000000000000000000008152600401613fb690614fbd565b60405180910390fd5b6140408363095ea7b360e01b8484604051602401613fde929190614fdd565b604051602081830303815290604052907bffffffffffffffffffffffffffffffffffffffffffffffffffffffff19166020820180517bffffffffffffffffffffffffffffffffffffffffffffffffffffffff83818316178352505050506140f7565b505050565b600081836140539190615006565b905092915050565b600081836140699190614d1d565b905092915050565b6140f28363a9059cbb60e01b8484604051602401614090929190614fdd565b604051602081830303815290604052907bffffffffffffffffffffffffffffffffffffffffffffffffffffffff19166020820180517bffffffffffffffffffffffffffffffffffffffffffffffffffffffff83818316178352505050506140f7565b505050565b6000614159826040518060400160405280602081526020017f5361666545524332303a206c6f772d6c6576656c2063616c6c206661696c65648152508573ffffffffffffffffffffffffffffffffffffffff166141be9092919063ffffffff16565b90506000815111156141b957808060200190518101906141799190615094565b6141b8576040517f08c379a00000000000000000000000000000000000000000000000000000000081526004016141af90615133565b60405180910390fd5b5b505050565b60606141cd84846000856141d6565b90509392505050565b60608247101561421b576040517f08c379a0000000000000000000000000000000000000000000000000000000008152600401614212906151c5565b60405180910390fd5b614224856142ea565b614263576040517f08c379a000000000000000000000000000000000000000000000000000000000815260040161425a90615231565b60405180910390fd5b6000808673ffffffffffffffffffffffffffffffffffffffff16858760405161428c9190615298565b60006040518083038185875af1925050503d80600081146142c9576040519150601f19603f3d011682016040523d82523d6000602084013e6142ce565b606091505b50915091506142de8282866142fd565b92505050949350505050565b600080823b905060008111915050919050565b6060831561430d5782905061435d565b6000835111156143205782518084602001fd5b816040517f08c379a00000000000000000000000000000000000000000000000000000000081526004016143549190614431565b60405180910390fd5b9392505050565b6000819050919050565b61437781614364565b82525050565b6000602082019050614392600083018461436e565b92915050565b600081519050919050565b600082825260208201905092915050565b60005b838110156143d25780820151818401526020810190506143b7565b838111156143e1576000848401525b50505050565b6000601f19601f8301169050919050565b600061440382614398565b61440d81856143a3565b935061441d8185602086016143b4565b614426816143e7565b840191505092915050565b6000602082019050818103600083015261444b81846143f8565b905092915050565b600073ffffffffffffffffffffffffffffffffffffffff82169050919050565b600061447e82614453565b9050919050565b61448e81614473565b82525050565b60006020820190506144a96000830184614485565b92915050565b6000604051905090565b600080fd5b600080fd5b6144cc81614473565b81146144d757600080fd5b50565b6000813590506144e9816144c3565b92915050565b600060208284031215614505576145046144b9565b5b6000614513848285016144da565b91505092915050565b600080fd5b600061010082840312156145385761453761451c565b5b81905092915050565b600060208284031215614557576145566144b9565b5b600082013567ffffffffffffffff811115614575576145746144be565b5b61458184828501614521565b91505092915050565b600080604083850312156145a1576145a06144b9565b5b60006145af858286016144da565b92505060206145c0858286016144da565b9150509250929050565b7f61646d696e206f6e6c7900000000000000000000000000000000000000000000600082015250565b6000614600600a836143a3565b915061460b826145ca565b602082019050919050565b6000602082019050818103600083015261462f816145f3565b9050919050565b7f43616c6c6572206d757374206265207468652070656e64696e672061646d696e600082015250565b600061466c6020836143a3565b915061467782614636565b602082019050919050565b6000602082019050818103600083015261469b8161465f565b9050919050565b7f5265656e7472616e637947756172643a207265656e7472616e742063616c6c00600082015250565b60006146d8601f836143a3565b91506146e3826146a2565b602082019050919050565b60006020820190508181036000830152614707816146cb565b9050919050565b7f4e487b7100000000000000000000000000000000000000000000000000000000600052603260045260246000fd5b7f5374616b65526f757465723a2044657374696e6174696f6e206164647265737360008201527f206e6f742070726f766964656400000000000000000000000000000000000000602082015250565b6000614799602d836143a3565b91506147a48261473d565b604082019050919050565b600060208201905081810360008301526147c88161478c565b9050919050565b60006040820190506147e46000830185614485565b6147f16020830184614485565b9392505050565b61480181614364565b811461480c57600080fd5b50565b60008151905061481e816147f8565b92915050565b60006020828403121561483a576148396144b9565b5b60006148488482850161480f565b91505092915050565b7f5374616b65526f757465723a204e6f7420656e6f75676820746f6b656e20616c60008201527f6c6f77616e636500000000000000000000000000000000000000000000000000602082015250565b60006148ad6027836143a3565b91506148b882614851565b604082019050919050565b600060208201905081810360008301526148dc816148a0565b9050919050565b600080fd5b600080fd5b600080fd5b6000808335600160200384360303811261490f5761490e6148e3565b5b80840192508235915067ffffffffffffffff821115614931576149306148e8565b5b60208301925060208202360383131561494d5761494c6148ed565b5b509250929050565b7f5374616b65526f757465723a205061746820746f6f2073686f72740000000000600082015250565b600061498b601b836143a3565b915061499682614955565b602082019050919050565b600060208201905081810360008301526149ba8161497e565b9050919050565b60006040820190506149d6600083018561436e565b6149e3602083018461436e565b9392505050565b60006060820190506149ff600083018661436e565b8181036020830152614a1181856143f8565b9050614a20604083018461436e565b949350505050565b60008060408385031215614a3f57614a3e6144b9565b5b6000614a4d8582860161480f565b9250506020614a5e8582860161480f565b9150509250929050565b600082825260208201905092915050565b6000819050919050565b614a8c81614473565b82525050565b6000614a9e8383614a83565b60208301905092915050565b6000614ab960208401846144da565b905092915050565b6000602082019050919050565b6000614ada8385614a68565b9350614ae582614a79565b8060005b85811015614b1e57614afb8284614aaa565b614b058882614a92565b9750614b1083614ac1565b925050600181019050614ae9565b5085925050509392505050565b6000604082019050614b40600083018661436e565b8181036020830152614b53818486614ace565b9050949350505050565b600080fd5b7f4e487b7100000000000000000000000000000000000000000000000000000000600052604160045260246000fd5b614b9a826143e7565b810181811067ffffffffffffffff82111715614bb957614bb8614b62565b5b80604052505050565b6000614bcc6144af565b9050614bd88282614b91565b919050565b600067ffffffffffffffff821115614bf857614bf7614b62565b5b602082029050602081019050919050565b600080fd5b6000614c21614c1c84614bdd565b614bc2565b90508083825260208201905060208402830185811115614c4457614c43614c09565b5b835b81811015614c6d5780614c59888261480f565b845260208401935050602081019050614c46565b5050509392505050565b600082601f830112614c8c57614c8b614b5d565b5b8151614c9c848260208601614c0e565b91505092915050565b600060208284031215614cbb57614cba6144b9565b5b600082015167ffffffffffffffff811115614cd957614cd86144be565b5b614ce584828501614c77565b91505092915050565b7f4e487b7100000000000000000000000000000000000000000000000000000000600052601160045260246000fd5b6000614d2882614364565b9150614d3383614364565b925082821015614d4657614d45614cee565b5b828203905092915050565b6000608082019050614d66600083018861436e565b614d73602083018761436e565b8181036040830152614d86818587614ace565b9050614d956060830184614485565b9695505050505050565b6000606082019050614db46000830186614485565b614dc1602083018561436e565b614dce604083018461436e565b949350505050565b6000606082019050614deb600083018761436e565b8181036020830152614dfe818587614ace565b9050614e0d6040830184614485565b95945050505050565b7f5374616b65526f757465723a204e6f7420656e6f75676820746f6b656e496e2060008201527f62616c616e636500000000000000000000000000000000000000000000000000602082015250565b6000614e726027836143a3565b9150614e7d82614e16565b604082019050919050565b60006020820190508181036000830152614ea181614e65565b9050919050565b7f5374616b65526f757465723a204e6f20746f6b656e7320746f20636c61696d00600082015250565b6000614ede601f836143a3565b9150614ee982614ea8565b602082019050919050565b60006020820190508181036000830152614f0d81614ed1565b9050919050565b6000606082019050614f296000830186614485565b614f366020830185614485565b614f43604083018461436e565b949350505050565b7f5361666545524332303a20617070726f76652066726f6d206e6f6e2d7a65726f60008201527f20746f206e6f6e2d7a65726f20616c6c6f77616e636500000000000000000000602082015250565b6000614fa76036836143a3565b9150614fb282614f4b565b604082019050919050565b60006020820190508181036000830152614fd681614f9a565b9050919050565b6000604082019050614ff26000830185614485565b614fff602083018461436e565b9392505050565b600061501182614364565b915061501c83614364565b9250827fffffffffffffffffffffffffffffffffffffffffffffffffffffffffffffffff0382111561505157615050614cee565b5b828201905092915050565b60008115159050919050565b6150718161505c565b811461507c57600080fd5b50565b60008151905061508e81615068565b92915050565b6000602082840312156150aa576150a96144b9565b5b60006150b88482850161507f565b91505092915050565b7f5361666545524332303a204552433230206f7065726174696f6e20646964206e60008201527f6f74207375636365656400000000000000000000000000000000000000000000602082015250565b600061511d602a836143a3565b9150615128826150c1565b604082019050919050565b6000602082019050818103600083015261514c81615110565b9050919050565b7f416464726573733a20696e73756666696369656e742062616c616e636520666f60008201527f722063616c6c0000000000000000000000000000000000000000000000000000602082015250565b60006151af6026836143a3565b91506151ba82615153565b604082019050919050565b600060208201905081810360008301526151de816151a2565b9050919050565b7f416464726573733a2063616c6c20746f206e6f6e2d636f6e7472616374000000600082015250565b600061521b601d836143a3565b9150615226826151e5565b602082019050919050565b6000602082019050818103600083015261524a8161520e565b9050919050565b600081519050919050565b600081905092915050565b600061527282615251565b61527c818561525c565b935061528c8185602086016143b4565b80840191505092915050565b60006152a48284615267565b91508190509291505056fea264697066735822122006652306f4b3af7da84e927521602d09235283939d4009820eb5d37605b3ac5464736f6c634300080c0033",
  "linkReferences": {},
  "deployedLinkReferences": {}
}