{
  "_format": "hh-sol-artifact-1",
  "contractName": "StakeRouter",
  "sourceName": "contracts/defi/routers/StakeRouter.sol",
  "abi": [
    {
      "inputs": [
        {
          "internalType": "address",
          "name": "_feeCalc",
          "type": "address"
        }
      ],
      "stateMutability": "nonpayable",
      "type": "constructor"
    },
    {
      "anonymous": false,
      "inputs": [
        {
          "indexed": true,
          "internalType": "address",
          "name": "referrer",
          "type": "address"
        },
        {
          "indexed": true,
          "internalType": "address",
          "name": "token",
          "type": "address"
        },
        {
          "indexed": false,
          "internalType": "uint256",
          "name": "claimedAmout",
          "type": "uint256"
        }
      ],
      "name": "ReferralFeesClaimed",
      "type": "event"
    },
    {
      "anonymous": false,
      "inputs": [
        {
          "indexed": true,
          "internalType": "address",
          "name": "pool",
          "type": "address"
        },
        {
          "indexed": true,
          "internalType": "address",
          "name": "beneficiary",
          "type": "address"
        },
        {
          "indexed": false,
          "internalType": "address",
          "name": "referrer",
          "type": "address"
        },
        {
          "indexed": false,
          "internalType": "uint256",
          "name": "amountInETH",
          "type": "uint256"
        },
        {
          "indexed": false,
          "internalType": "uint256",
          "name": "amountInBasetoken",
          "type": "uint256"
        }
      ],
      "name": "StakedETHInPool",
      "type": "event"
    },
    {
      "anonymous": false,
      "inputs": [
        {
          "indexed": true,
          "internalType": "address",
          "name": "pool",
          "type": "address"
        },
        {
          "indexed": true,
          "internalType": "address",
          "name": "token",
          "type": "address"
        },
        {
          "indexed": true,
          "internalType": "address",
          "name": "beneficiary",
          "type": "address"
        },
        {
          "indexed": false,
          "internalType": "address",
          "name": "referrer",
          "type": "address"
        },
        {
          "indexed": false,
          "internalType": "uint256",
          "name": "amountInToken",
          "type": "uint256"
        },
        {
          "indexed": false,
          "internalType": "uint256",
          "name": "amountInBasetoken",
          "type": "uint256"
        }
      ],
      "name": "StakedTokenInPool",
      "type": "event"
    },
    {
      "anonymous": false,
      "inputs": [
        {
          "indexed": true,
          "internalType": "address",
          "name": "pool",
          "type": "address"
        },
        {
          "indexed": true,
          "internalType": "address",
          "name": "beneficiary",
          "type": "address"
        },
        {
          "indexed": false,
          "internalType": "address",
          "name": "referrer",
          "type": "address"
        },
        {
          "indexed": false,
          "internalType": "uint256",
          "name": "amountInETH",
          "type": "uint256"
        },
        {
          "indexed": false,
          "internalType": "uint256",
          "name": "amountInBasetoken",
          "type": "uint256"
        }
      ],
      "name": "UnstakedETHFromPool",
      "type": "event"
    },
    {
      "anonymous": false,
      "inputs": [
        {
          "indexed": true,
          "internalType": "address",
          "name": "pool",
          "type": "address"
        },
        {
          "indexed": true,
          "internalType": "address",
          "name": "token",
          "type": "address"
        },
        {
          "indexed": true,
          "internalType": "address",
          "name": "beneficiary",
          "type": "address"
        },
        {
          "indexed": false,
          "internalType": "address",
          "name": "referrer",
          "type": "address"
        },
        {
          "indexed": false,
          "internalType": "uint256",
          "name": "amountInToken",
          "type": "uint256"
        },
        {
          "indexed": false,
          "internalType": "uint256",
          "name": "amountInBasetoken",
          "type": "uint256"
        }
      ],
      "name": "UnstakedTokenFromPool",
      "type": "event"
    },
    {
      "inputs": [],
      "name": "BONE",
      "outputs": [
        {
          "internalType": "uint256",
          "name": "",
          "type": "uint256"
        }
      ],
      "stateMutability": "view",
      "type": "function"
    },
    {
      "inputs": [],
      "name": "BPOW_PRECISION",
      "outputs": [
        {
          "internalType": "uint256",
          "name": "",
          "type": "uint256"
        }
      ],
      "stateMutability": "view",
      "type": "function"
    },
    {
      "inputs": [],
      "name": "MAX_BPOW_BASE",
      "outputs": [
        {
          "internalType": "uint256",
          "name": "",
          "type": "uint256"
        }
      ],
      "stateMutability": "view",
      "type": "function"
    },
    {
      "inputs": [],
      "name": "MAX_INT",
      "outputs": [
        {
          "internalType": "uint256",
          "name": "",
          "type": "uint256"
        }
      ],
      "stateMutability": "view",
      "type": "function"
    },
    {
      "inputs": [],
      "name": "MIN_BPOW_BASE",
      "outputs": [
        {
          "internalType": "uint256",
          "name": "",
          "type": "uint256"
        }
      ],
      "stateMutability": "view",
      "type": "function"
    },
    {
      "inputs": [],
      "name": "STAKE_FEE_TYPE",
      "outputs": [
        {
          "internalType": "string",
          "name": "",
          "type": "string"
        }
      ],
      "stateMutability": "view",
      "type": "function"
    },
    {
      "inputs": [],
      "name": "TRADE_FEE_TYPE",
      "outputs": [
        {
          "internalType": "string",
          "name": "",
          "type": "string"
        }
      ],
      "stateMutability": "view",
      "type": "function"
    },
    {
      "inputs": [],
      "name": "UNSTAKE_FEE_TYPE",
      "outputs": [
        {
          "internalType": "string",
          "name": "",
          "type": "string"
        }
      ],
      "stateMutability": "view",
      "type": "function"
    },
    {
      "inputs": [],
      "name": "ZERO_FEES",
      "outputs": [
        {
          "internalType": "uint256",
          "name": "",
          "type": "uint256"
        }
      ],
      "stateMutability": "view",
      "type": "function"
    },
    {
      "inputs": [],
      "name": "acceptPendingAdmin",
      "outputs": [],
      "stateMutability": "nonpayable",
      "type": "function"
    },
    {
      "inputs": [],
      "name": "admin",
      "outputs": [
        {
          "internalType": "address",
          "name": "",
          "type": "address"
        }
      ],
      "stateMutability": "view",
      "type": "function"
    },
    {
      "inputs": [
        {
          "internalType": "address",
          "name": "token",
          "type": "address"
        },
        {
          "internalType": "address",
          "name": "referrer",
          "type": "address"
        }
      ],
      "name": "claimRefFees",
      "outputs": [
        {
          "internalType": "uint256",
          "name": "claimAmount",
          "type": "uint256"
        }
      ],
      "stateMutability": "nonpayable",
      "type": "function"
    },
    {
      "inputs": [],
      "name": "pendingAdmin",
      "outputs": [
        {
          "internalType": "address",
          "name": "",
          "type": "address"
        }
      ],
      "stateMutability": "view",
      "type": "function"
    },
    {
      "inputs": [
        {
          "internalType": "address",
          "name": "",
          "type": "address"
        },
        {
          "internalType": "address",
          "name": "",
          "type": "address"
        }
      ],
      "name": "referralFees",
      "outputs": [
        {
          "internalType": "uint256",
          "name": "",
          "type": "uint256"
        }
      ],
      "stateMutability": "view",
      "type": "function"
    },
    {
      "inputs": [
        {
          "internalType": "address",
          "name": "newAdmin",
          "type": "address"
        }
      ],
      "name": "setPendingAdmin",
      "outputs": [],
      "stateMutability": "nonpayable",
      "type": "function"
    },
    {
      "inputs": [
        {
          "components": [
            {
              "internalType": "address[4]",
              "name": "meta",
              "type": "address[4]"
            },
            {
              "internalType": "uint256[3]",
              "name": "uints",
              "type": "uint256[3]"
            },
            {
              "internalType": "address[]",
              "name": "path",
              "type": "address[]"
            }
          ],
          "internalType": "struct StakeRouter.StakeInfo",
          "name": "info",
          "type": "tuple"
        }
      ],
      "name": "stakeETHInDTPool",
      "outputs": [
        {
          "internalType": "uint256",
          "name": "poolTokensOut",
          "type": "uint256"
        }
      ],
      "stateMutability": "payable",
      "type": "function"
    },
    {
      "inputs": [
        {
          "components": [
            {
              "internalType": "address[4]",
              "name": "meta",
              "type": "address[4]"
            },
            {
              "internalType": "uint256[3]",
              "name": "uints",
              "type": "uint256[3]"
            },
            {
              "internalType": "address[]",
              "name": "path",
              "type": "address[]"
            }
          ],
          "internalType": "struct StakeRouter.StakeInfo",
          "name": "info",
          "type": "tuple"
        }
      ],
      "name": "stakeTokenInDTPool",
      "outputs": [
        {
          "internalType": "uint256",
          "name": "poolTokensOut",
          "type": "uint256"
        }
      ],
      "stateMutability": "nonpayable",
      "type": "function"
    },
    {
      "inputs": [
        {
          "components": [
            {
              "internalType": "address[4]",
              "name": "meta",
              "type": "address[4]"
            },
            {
              "internalType": "uint256[3]",
              "name": "uints",
              "type": "uint256[3]"
            },
            {
              "internalType": "address[]",
              "name": "path",
              "type": "address[]"
            }
          ],
          "internalType": "struct StakeRouter.StakeInfo",
          "name": "info",
          "type": "tuple"
        }
      ],
      "name": "unstakeETHFromDTPool",
      "outputs": [
        {
          "internalType": "uint256",
          "name": "ethAmountOut",
          "type": "uint256"
        }
      ],
      "stateMutability": "nonpayable",
      "type": "function"
    },
    {
      "inputs": [
        {
          "components": [
            {
              "internalType": "address[4]",
              "name": "meta",
              "type": "address[4]"
            },
            {
              "internalType": "uint256[3]",
              "name": "uints",
              "type": "uint256[3]"
            },
            {
              "internalType": "address[]",
              "name": "path",
              "type": "address[]"
            }
          ],
          "internalType": "struct StakeRouter.StakeInfo",
          "name": "info",
          "type": "tuple"
        }
      ],
      "name": "unstakeTokenFromDTPool",
      "outputs": [
        {
          "internalType": "uint256",
          "name": "tokenAmountOut",
          "type": "uint256"
        }
      ],
      "stateMutability": "nonpayable",
      "type": "function"
    },
    {
      "stateMutability": "payable",
      "type": "receive"
    }
  ],
  "bytecode": "0x60806040523480156200001157600080fd5b506040516200552b3803806200552b833981810160405281019062000037919062000132565b600160008190555033600160006101000a81548173ffffffffffffffffffffffffffffffffffffffff021916908373ffffffffffffffffffffffffffffffffffffffff16021790555080600360006101000a81548173ffffffffffffffffffffffffffffffffffffffff021916908373ffffffffffffffffffffffffffffffffffffffff1602179055505062000164565b600080fd5b600073ffffffffffffffffffffffffffffffffffffffff82169050919050565b6000620000fa82620000cd565b9050919050565b6200010c81620000ed565b81146200011857600080fd5b50565b6000815190506200012c8162000101565b92915050565b6000602082840312156200014b576200014a620000c8565b5b60006200015b848285016200011b565b91505092915050565b6153b780620001746000396000f3fe6080604052600436106101185760003560e01c80639ea87862116100a0578063d09484c211610064578063d09484c214610391578063d6fd2da5146103bc578063e279110b146103f9578063f851a44014610436578063f9e9f584146104615761011f565b80639ea87862146102a3578063ba019dab146102e0578063bc694ea21461030b578063c1ac027914610336578063c36596a6146103665761011f565b80632b6e01db116100e75780632b6e01db146101d05780634dd18bf5146101fb578063709920c114610224578063851666761461023b5780639cac5bc3146102785761011f565b8063098d322814610124578063189d00ca1461014f578063220ab80c1461017a57806326782247146101a55761011f565b3661011f57005b600080fd5b34801561013057600080fd5b5061013961049e565b6040516101469190614427565b60405180910390f35b34801561015b57600080fd5b506101646104c2565b6040516101719190614427565b60405180910390f35b34801561018657600080fd5b5061018f6104de565b60405161019c91906144db565b60405180910390f35b3480156101b157600080fd5b506101ba610517565b6040516101c7919061453e565b60405180910390f35b3480156101dc57600080fd5b506101e561053d565b6040516101f29190614427565b60405180910390f35b34801561020757600080fd5b50610222600480360381019061021d9190614599565b610542565b005b34801561023057600080fd5b50610239610616565b005b34801561024757600080fd5b50610262600480360381019061025d91906145eb565b6107a8565b60405161026f9190614427565b60405180910390f35b34801561028457600080fd5b5061028d611487565b60405161029a91906144db565b60405180910390f35b3480156102af57600080fd5b506102ca60048036038101906102c591906145eb565b6114c0565b6040516102d79190614427565b60405180910390f35b3480156102ec57600080fd5b506102f5612227565b6040516103029190614427565b60405180910390f35b34801561031757600080fd5b5061032061222c565b60405161032d9190614427565b60405180910390f35b610350600480360381019061034b91906145eb565b612250565b60405161035d9190614427565b60405180910390f35b34801561037257600080fd5b5061037b612d78565b6040516103889190614427565b60405180910390f35b34801561039d57600080fd5b506103a6612d84565b6040516103b391906144db565b60405180910390f35b3480156103c857600080fd5b506103e360048036038101906103de91906145eb565b612dbd565b6040516103f09190614427565b60405180910390f35b34801561040557600080fd5b50610420600480360381019061041b9190614634565b613cd1565b60405161042d9190614427565b60405180910390f35b34801561044257600080fd5b5061044b613cf6565b604051610458919061453e565b60405180910390f35b34801561046d57600080fd5b5061048860048036038101906104839190614634565b613d1c565b6040516104959190614427565b60405180910390f35b7fffffffffffffffffffffffffffffffffffffffffffffffffffffffffffffffff81565b6402540be400670de0b6b3a76400006104db91906146d2565b81565b6040518060400160405280600581526020017f5354414b4500000000000000000000000000000000000000000000000000000081525081565b600260009054906101000a900473ffffffffffffffffffffffffffffffffffffffff1681565b600081565b600160009054906101000a900473ffffffffffffffffffffffffffffffffffffffff1673ffffffffffffffffffffffffffffffffffffffff163373ffffffffffffffffffffffffffffffffffffffff16146105d2576040517f08c379a00000000000000000000000000000000000000000000000000000000081526004016105c99061474f565b60405180910390fd5b80600260006101000a81548173ffffffffffffffffffffffffffffffffffffffff021916908373ffffffffffffffffffffffffffffffffffffffff16021790555050565b600260009054906101000a900473ffffffffffffffffffffffffffffffffffffffff1673ffffffffffffffffffffffffffffffffffffffff163373ffffffffffffffffffffffffffffffffffffffff161480156106c25750600073ffffffffffffffffffffffffffffffffffffffff16600260009054906101000a900473ffffffffffffffffffffffffffffffffffffffff1673ffffffffffffffffffffffffffffffffffffffff1614155b610701576040517f08c379a00000000000000000000000000000000000000000000000000000000081526004016106f8906147bb565b60405180910390fd5b600260009054906101000a900473ffffffffffffffffffffffffffffffffffffffff16600160006101000a81548173ffffffffffffffffffffffffffffffffffffffff021916908373ffffffffffffffffffffffffffffffffffffffff1602179055506000600260006101000a81548173ffffffffffffffffffffffffffffffffffffffff021916908373ffffffffffffffffffffffffffffffffffffffff160217905550565b6000600260005414156107f0576040517f08c379a00000000000000000000000000000000000000000000000000000000081526004016107e790614827565b60405180910390fd5b6002600081905550600073ffffffffffffffffffffffffffffffffffffffff168260000160026004811061082757610826614847565b5b60200201602081019061083a9190614599565b73ffffffffffffffffffffffffffffffffffffffff161415610891576040517f08c379a0000000000000000000000000000000000000000000000000000000008152600401610888906148e8565b60405180910390fd5b816000016000600481106108a8576108a7614847565b5b6020020160208101906108bb9190614599565b73ffffffffffffffffffffffffffffffffffffffff1663dd62ed3e33306040518363ffffffff1660e01b81526004016108f5929190614908565b602060405180830381865afa158015610912573d6000803e3d6000fd5b505050506040513d601f19601f82011682018060405250810190610936919061495d565b8260800160006003811061094d5761094c614847565b5b60200201351115610993576040517f08c379a000000000000000000000000000000000000000000000000000000000815260040161098a906149fc565b60405180910390fd5b6001828060e001906109a59190614a2b565b9050116109e7576040517f08c379a00000000000000000000000000000000000000000000000000000000081526004016109de90614ada565b60405180910390fd5b6000828060e001906109f99190614a2b565b6000818110610a0b57610a0a614847565b5b9050602002016020810190610a209190614599565b9050600083600001600060048110610a3b57610a3a614847565b5b602002016020810190610a4e9190614599565b9050610ac1333086608001600060038110610a6c57610a6b614847565b5b602002013587600001600060048110610a8857610a87614847565b5b602002016020810190610a9b9190614599565b73ffffffffffffffffffffffffffffffffffffffff16613f54909392919063ffffffff16565b610b308185608001600060038110610adc57610adb614847565b5b602002013586600001600060048110610af857610af7614847565b5b602002016020810190610b0b9190614599565b73ffffffffffffffffffffffffffffffffffffffff16613fdd9092919063ffffffff16565b60008173ffffffffffffffffffffffffffffffffffffffff16631298926086608001600060038110610b6557610b64614847565b5b602002013587608001600260038110610b8157610b80614847565b5b60200201356040518363ffffffff1660e01b8152600401610ba3929190614afa565b6020604051808303816000875af1158015610bc2573d6000803e3d6000fd5b505050506040513d601f19601f82011682018060405250810190610be6919061495d565b9050600080600360009054906101000a900473ffffffffffffffffffffffffffffffffffffffff1673ffffffffffffffffffffffffffffffffffffffff1663f8702fe1846040518060400160405280600781526020017f554e5354414b45000000000000000000000000000000000000000000000000008152508a608001600160038110610c7757610c76614847565b5b60200201356040518463ffffffff1660e01b8152600401610c9a93929190614b23565b6040805180830381865afa158015610cb6573d6000803e3d6000fd5b505050506040513d601f19601f82011682018060405250810190610cda9190614b61565b91509150600073ffffffffffffffffffffffffffffffffffffffff1687600001600260048110610d0d57610d0c614847565b5b602002016020810190610d209190614599565b73ffffffffffffffffffffffffffffffffffffffff1614610ff457610df381600460008a600001600260048110610d5a57610d59614847565b5b602002016020810190610d6d9190614599565b73ffffffffffffffffffffffffffffffffffffffff1673ffffffffffffffffffffffffffffffffffffffff16815260200190815260200160002060008873ffffffffffffffffffffffffffffffffffffffff1673ffffffffffffffffffffffffffffffffffffffff168152602001908152602001600020546140ef90919063ffffffff16565b6004600089600001600260048110610e0e57610e0d614847565b5b602002016020810190610e219190614599565b73ffffffffffffffffffffffffffffffffffffffff1673ffffffffffffffffffffffffffffffffffffffff16815260200190815260200160002060008773ffffffffffffffffffffffffffffffffffffffff1673ffffffffffffffffffffffffffffffffffffffff16815260200190815260200160002081905550610f4d8260046000600160009054906101000a900473ffffffffffffffffffffffffffffffffffffffff1673ffffffffffffffffffffffffffffffffffffffff1673ffffffffffffffffffffffffffffffffffffffff16815260200190815260200160002060008873ffffffffffffffffffffffffffffffffffffffff1673ffffffffffffffffffffffffffffffffffffffff168152602001908152602001600020546140ef90919063ffffffff16565b60046000600160009054906101000a900473ffffffffffffffffffffffffffffffffffffffff1673ffffffffffffffffffffffffffffffffffffffff1673ffffffffffffffffffffffffffffffffffffffff16815260200190815260200160002060008773ffffffffffffffffffffffffffffffffffffffff1673ffffffffffffffffffffffffffffffffffffffff1681526020019081526020016000208190555061115a565b6110b761100a82846140ef90919063ffffffff16565b60046000600160009054906101000a900473ffffffffffffffffffffffffffffffffffffffff1673ffffffffffffffffffffffffffffffffffffffff1673ffffffffffffffffffffffffffffffffffffffff16815260200190815260200160002060008873ffffffffffffffffffffffffffffffffffffffff1673ffffffffffffffffffffffffffffffffffffffff168152602001908152602001600020546140ef90919063ffffffff16565b60046000600160009054906101000a900473ffffffffffffffffffffffffffffffffffffffff1673ffffffffffffffffffffffffffffffffffffffff1673ffffffffffffffffffffffffffffffffffffffff16815260200190815260200160002060008773ffffffffffffffffffffffffffffffffffffffff1673ffffffffffffffffffffffffffffffffffffffff168152602001908152602001600020819055505b600061118161117283856140ef90919063ffffffff16565b8561410590919063ffffffff16565b90506111d78860000160036004811061119d5761119c614847565b5b6020020160208101906111b09190614599565b828873ffffffffffffffffffffffffffffffffffffffff16613fdd9092919063ffffffff16565b6000886000016003600481106111f0576111ef614847565b5b6020020160208101906112039190614599565b905060008173ffffffffffffffffffffffffffffffffffffffff1663d06ca61f848c8060e001906112349190614a2b565b6040518463ffffffff1660e01b815260040161125293929190614c64565b600060405180830381865afa15801561126f573d6000803e3d6000fd5b505050506040513d6000823e3d601f19601f820116820180604052508101906112989190614dde565b90508173ffffffffffffffffffffffffffffffffffffffff1663363db5c6848360018e8060e001906112ca9190614a2b565b90506112d69190614e27565b815181106112e7576112e6614847565b5b60200260200101518d8060e001906112ff9190614a2b565b8f60000160016004811061131657611315614847565b5b6020020160208101906113299190614599565b6040518663ffffffff1660e01b8152600401611349959493929190614e5b565b6020604051808303816000875af1158015611368573d6000803e3d6000fd5b505050506040513d601f19601f8201168201806040525081019061138c919061495d565b9850896000016001600481106113a5576113a4614847565b5b6020020160208101906113b89190614599565b73ffffffffffffffffffffffffffffffffffffffff168a6000016000600481106113e5576113e4614847565b5b6020020160208101906113f89190614599565b73ffffffffffffffffffffffffffffffffffffffff167f21f34002cdf6729881e8fb2897e3f2ac7547910b6d6e6eeaf6b2076d4396caec8c60000160026004811061144657611445614847565b5b6020020160208101906114599190614599565b8c8760405161146a93929190614ea9565b60405180910390a350505050505050506001600081905550919050565b6040518060400160405280600581526020017f545241444500000000000000000000000000000000000000000000000000000081525081565b600060026000541415611508576040517f08c379a00000000000000000000000000000000000000000000000000000000081526004016114ff90614827565b60405180910390fd5b6002600081905550600073ffffffffffffffffffffffffffffffffffffffff168260000160026004811061153f5761153e614847565b5b6020020160208101906115529190614599565b73ffffffffffffffffffffffffffffffffffffffff1614156115a9576040517f08c379a00000000000000000000000000000000000000000000000000000000081526004016115a0906148e8565b60405180910390fd5b816000016000600481106115c0576115bf614847565b5b6020020160208101906115d39190614599565b73ffffffffffffffffffffffffffffffffffffffff1663dd62ed3e33306040518363ffffffff1660e01b815260040161160d929190614908565b602060405180830381865afa15801561162a573d6000803e3d6000fd5b505050506040513d601f19601f8201168201806040525081019061164e919061495d565b8260800160006003811061166557611664614847565b5b602002013511156116ab576040517f08c379a00000000000000000000000000000000000000000000000000000000081526004016116a2906149fc565b60405180910390fd5b6000826000016000600481106116c4576116c3614847565b5b6020020160208101906116d79190614599565b905061174a3330856080016000600381106116f5576116f4614847565b5b60200201358660000160006004811061171157611710614847565b5b6020020160208101906117249190614599565b73ffffffffffffffffffffffffffffffffffffffff16613f54909392919063ffffffff16565b6117b9818460800160006003811061176557611764614847565b5b60200201358560000160006004811061178157611780614847565b5b6020020160208101906117949190614599565b73ffffffffffffffffffffffffffffffffffffffff16613fdd9092919063ffffffff16565b60008173ffffffffffffffffffffffffffffffffffffffff166312989260856080016000600381106117ee576117ed614847565b5b60200201358660800160026003811061180a57611809614847565b5b60200201356040518363ffffffff1660e01b815260040161182c929190614afa565b6020604051808303816000875af115801561184b573d6000803e3d6000fd5b505050506040513d601f19601f8201168201806040525081019061186f919061495d565b90506000848060e001906118839190614a2b565b600081811061189557611894614847565b5b90506020020160208101906118aa9190614599565b9050600080600360009054906101000a900473ffffffffffffffffffffffffffffffffffffffff1673ffffffffffffffffffffffffffffffffffffffff1663f8702fe1856040518060400160405280600781526020017f554e5354414b45000000000000000000000000000000000000000000000000008152508a60800160016003811061193b5761193a614847565b5b60200201356040518463ffffffff1660e01b815260040161195e93929190614b23565b6040805180830381865afa15801561197a573d6000803e3d6000fd5b505050506040513d601f19601f8201168201806040525081019061199e9190614b61565b91509150600073ffffffffffffffffffffffffffffffffffffffff16876000016002600481106119d1576119d0614847565b5b6020020160208101906119e49190614599565b73ffffffffffffffffffffffffffffffffffffffff1614611cb857611ab781600460008a600001600260048110611a1e57611a1d614847565b5b602002016020810190611a319190614599565b73ffffffffffffffffffffffffffffffffffffffff1673ffffffffffffffffffffffffffffffffffffffff16815260200190815260200160002060008673ffffffffffffffffffffffffffffffffffffffff1673ffffffffffffffffffffffffffffffffffffffff168152602001908152602001600020546140ef90919063ffffffff16565b6004600089600001600260048110611ad257611ad1614847565b5b602002016020810190611ae59190614599565b73ffffffffffffffffffffffffffffffffffffffff1673ffffffffffffffffffffffffffffffffffffffff16815260200190815260200160002060008573ffffffffffffffffffffffffffffffffffffffff1673ffffffffffffffffffffffffffffffffffffffff16815260200190815260200160002081905550611c118260046000600160009054906101000a900473ffffffffffffffffffffffffffffffffffffffff1673ffffffffffffffffffffffffffffffffffffffff1673ffffffffffffffffffffffffffffffffffffffff16815260200190815260200160002060008673ffffffffffffffffffffffffffffffffffffffff1673ffffffffffffffffffffffffffffffffffffffff168152602001908152602001600020546140ef90919063ffffffff16565b60046000600160009054906101000a900473ffffffffffffffffffffffffffffffffffffffff1673ffffffffffffffffffffffffffffffffffffffff1673ffffffffffffffffffffffffffffffffffffffff16815260200190815260200160002060008573ffffffffffffffffffffffffffffffffffffffff1673ffffffffffffffffffffffffffffffffffffffff16815260200190815260200160002081905550611e1e565b611d7b611cce82846140ef90919063ffffffff16565b60046000600160009054906101000a900473ffffffffffffffffffffffffffffffffffffffff1673ffffffffffffffffffffffffffffffffffffffff1673ffffffffffffffffffffffffffffffffffffffff16815260200190815260200160002060008673ffffffffffffffffffffffffffffffffffffffff1673ffffffffffffffffffffffffffffffffffffffff168152602001908152602001600020546140ef90919063ffffffff16565b60046000600160009054906101000a900473ffffffffffffffffffffffffffffffffffffffff1673ffffffffffffffffffffffffffffffffffffffff1673ffffffffffffffffffffffffffffffffffffffff16815260200190815260200160002060008573ffffffffffffffffffffffffffffffffffffffff1673ffffffffffffffffffffffffffffffffffffffff168152602001908152602001600020819055505b6000611e45611e3683856140ef90919063ffffffff16565b8661410590919063ffffffff16565b90506001888060e00190611e599190614a2b565b9050111561207357611eb588600001600360048110611e7b57611e7a614847565b5b602002016020810190611e8e9190614599565b828673ffffffffffffffffffffffffffffffffffffffff16613fdd9092919063ffffffff16565b600088600001600360048110611ece57611ecd614847565b5b602002016020810190611ee19190614599565b905060008173ffffffffffffffffffffffffffffffffffffffff1663d06ca61f848c8060e00190611f129190614a2b565b6040518463ffffffff1660e01b8152600401611f3093929190614c64565b600060405180830381865afa158015611f4d573d6000803e3d6000fd5b505050506040513d6000823e3d601f19601f82011682018060405250810190611f769190614dde565b90508173ffffffffffffffffffffffffffffffffffffffff1663472b43f3848360018e8060e00190611fa89190614a2b565b9050611fb49190614e27565b81518110611fc557611fc4614847565b5b60200260200101518d8060e00190611fdd9190614a2b565b8f600001600160048110611ff457611ff3614847565b5b6020020160208101906120079190614599565b6040518663ffffffff1660e01b8152600401612027959493929190614e5b565b6020604051808303816000875af1158015612046573d6000803e3d6000fd5b505050506040513d601f19601f8201168201806040525081019061206a919061495d565b985050506120c8565b6120c78860000160016004811061208d5761208c614847565b5b6020020160208101906120a09190614599565b828673ffffffffffffffffffffffffffffffffffffffff1661411b9092919063ffffffff16565b5b876000016001600481106120df576120de614847565b5b6020020160208101906120f29190614599565b73ffffffffffffffffffffffffffffffffffffffff16888060e001906121189190614a2b565b600081811061212a57612129614847565b5b905060200201602081019061213f9190614599565b73ffffffffffffffffffffffffffffffffffffffff168960000160006004811061216c5761216b614847565b5b60200201602081019061217f9190614599565b73ffffffffffffffffffffffffffffffffffffffff167f1027ffcf3a7a994eaed678fe5a9c4c08f9514c3b2b527c48bb41508607f62d918b6000016002600481106121cd576121cc614847565b5b6020020160208101906121e09190614599565b8c6080016000600381106121f7576121f6614847565b5b60200201358660405161220c93929190614ea9565b60405180910390a45050505050506001600081905550919050565b600181565b6001670de0b6b3a764000060026122439190614ee0565b61224d9190614e27565b81565b600060026000541415612298576040517f08c379a000000000000000000000000000000000000000000000000000000000815260040161228f90614827565b60405180910390fd5b6002600081905550600073ffffffffffffffffffffffffffffffffffffffff16826000016002600481106122cf576122ce614847565b5b6020020160208101906122e29190614599565b73ffffffffffffffffffffffffffffffffffffffff161415612339576040517f08c379a0000000000000000000000000000000000000000000000000000000008152600401612330906148e8565b60405180910390fd5b6001828060e0019061234b9190614a2b565b90501161238d576040517f08c379a000000000000000000000000000000000000000000000000000000000815260040161238490614ada565b60405180910390fd5b6000826000016003600481106123a6576123a5614847565b5b6020020160208101906123b99190614599565b90506000838060e001906123cd9190614a2b565b6001868060e001906123df9190614a2b565b90506123eb9190614e27565b8181106123fb576123fa614847565b5b90506020020160208101906124109190614599565b905060008460000160006004811061242b5761242a614847565b5b60200201602081019061243e9190614599565b905060008373ffffffffffffffffffffffffffffffffffffffff1663d06ca61f34888060e0019061246f9190614a2b565b6040518463ffffffff1660e01b815260040161248d93929190614c64565b600060405180830381865afa1580156124aa573d6000803e3d6000fd5b505050506040513d6000823e3d601f19601f820116820180604052508101906124d39190614dde565b905060008473ffffffffffffffffffffffffffffffffffffffff166312c6442f348460018b8060e001906125079190614a2b565b90506125139190614e27565b8151811061252457612523614847565b5b60200260200101518a8060e0019061253c9190614a2b565b306040518663ffffffff1660e01b815260040161255c9493929190614f3a565b60206040518083038185885af115801561257a573d6000803e3d6000fd5b50505050506040513d601f19601f8201168201806040525081019061259f919061495d565b9050600080600360009054906101000a900473ffffffffffffffffffffffffffffffffffffffff1673ffffffffffffffffffffffffffffffffffffffff1663f8702fe1846040518060400160405280600581526020017f5354414b450000000000000000000000000000000000000000000000000000008152508c6080016001600381106126305761262f614847565b5b60200201356040518463ffffffff1660e01b815260040161265393929190614b23565b6040805180830381865afa15801561266f573d6000803e3d6000fd5b505050506040513d601f19601f820116820180604052508101906126939190614b61565b91509150600073ffffffffffffffffffffffffffffffffffffffff16896000016002600481106126c6576126c5614847565b5b6020020160208101906126d99190614599565b73ffffffffffffffffffffffffffffffffffffffff16146129ad576127ac81600460008c60000160026004811061271357612712614847565b5b6020020160208101906127269190614599565b73ffffffffffffffffffffffffffffffffffffffff1673ffffffffffffffffffffffffffffffffffffffff16815260200190815260200160002060008973ffffffffffffffffffffffffffffffffffffffff1673ffffffffffffffffffffffffffffffffffffffff168152602001908152602001600020546140ef90919063ffffffff16565b600460008b6000016002600481106127c7576127c6614847565b5b6020020160208101906127da9190614599565b73ffffffffffffffffffffffffffffffffffffffff1673ffffffffffffffffffffffffffffffffffffffff16815260200190815260200160002060008873ffffffffffffffffffffffffffffffffffffffff1673ffffffffffffffffffffffffffffffffffffffff168152602001908152602001600020819055506129068260046000600160009054906101000a900473ffffffffffffffffffffffffffffffffffffffff1673ffffffffffffffffffffffffffffffffffffffff1673ffffffffffffffffffffffffffffffffffffffff16815260200190815260200160002060008973ffffffffffffffffffffffffffffffffffffffff1673ffffffffffffffffffffffffffffffffffffffff168152602001908152602001600020546140ef90919063ffffffff16565b60046000600160009054906101000a900473ffffffffffffffffffffffffffffffffffffffff1673ffffffffffffffffffffffffffffffffffffffff1673ffffffffffffffffffffffffffffffffffffffff16815260200190815260200160002060008873ffffffffffffffffffffffffffffffffffffffff1673ffffffffffffffffffffffffffffffffffffffff16815260200190815260200160002081905550612b13565b612a706129c382846140ef90919063ffffffff16565b60046000600160009054906101000a900473ffffffffffffffffffffffffffffffffffffffff1673ffffffffffffffffffffffffffffffffffffffff1673ffffffffffffffffffffffffffffffffffffffff16815260200190815260200160002060008973ffffffffffffffffffffffffffffffffffffffff1673ffffffffffffffffffffffffffffffffffffffff168152602001908152602001600020546140ef90919063ffffffff16565b60046000600160009054906101000a900473ffffffffffffffffffffffffffffffffffffffff1673ffffffffffffffffffffffffffffffffffffffff1673ffffffffffffffffffffffffffffffffffffffff16815260200190815260200160002060008873ffffffffffffffffffffffffffffffffffffffff1673ffffffffffffffffffffffffffffffffffffffff168152602001908152602001600020819055505b6000612b3a612b2b83856140ef90919063ffffffff16565b8561410590919063ffffffff16565b9050612b6786828973ffffffffffffffffffffffffffffffffffffffff16613fdd9092919063ffffffff16565b8573ffffffffffffffffffffffffffffffffffffffff16638329ab33828c608001600260038110612b9b57612b9a614847565b5b60200201356040518363ffffffff1660e01b8152600401612bbd929190614afa565b6020604051808303816000875af1158015612bdc573d6000803e3d6000fd5b505050506040513d601f19601f82011682018060405250810190612c00919061495d565b9850612c7f8a600001600160048110612c1c57612c1b614847565b5b602002016020810190612c2f9190614599565b8a8c600001600060048110612c4757612c46614847565b5b602002016020810190612c5a9190614599565b73ffffffffffffffffffffffffffffffffffffffff1661411b9092919063ffffffff16565b89600001600160048110612c9657612c95614847565b5b602002016020810190612ca99190614599565b73ffffffffffffffffffffffffffffffffffffffff168a600001600060048110612cd657612cd5614847565b5b602002016020810190612ce99190614599565b73ffffffffffffffffffffffffffffffffffffffff167f9910ecaf42f056af81719fea3ce6fbc87dd3e3241b1d94e61e53be0148d05cb58c600001600260048110612d3757612d36614847565b5b602002016020810190612d4a9190614599565b3485604051612d5b93929190614ea9565b60405180910390a350505050505050506001600081905550919050565b670de0b6b3a764000081565b6040518060400160405280600781526020017f554e5354414b450000000000000000000000000000000000000000000000000081525081565b600060026000541415612e05576040517f08c379a0000000000000000000000000000000000000000000000000000000008152600401612dfc90614827565b60405180910390fd5b6002600081905550600073ffffffffffffffffffffffffffffffffffffffff1682600001600260048110612e3c57612e3b614847565b5b602002016020810190612e4f9190614599565b73ffffffffffffffffffffffffffffffffffffffff161415612ea6576040517f08c379a0000000000000000000000000000000000000000000000000000000008152600401612e9d906148e8565b60405180910390fd5b818060e00190612eb69190614a2b565b6000818110612ec857612ec7614847565b5b9050602002016020810190612edd9190614599565b73ffffffffffffffffffffffffffffffffffffffff1663dd62ed3e33306040518363ffffffff1660e01b8152600401612f17929190614908565b602060405180830381865afa158015612f34573d6000803e3d6000fd5b505050506040513d601f19601f82011682018060405250810190612f58919061495d565b82608001600060038110612f6f57612f6e614847565b5b60200201351115612fb5576040517f08c379a0000000000000000000000000000000000000000000000000000000008152600401612fac906149fc565b60405180910390fd5b6000828060e00190612fc79190614a2b565b6001858060e00190612fd99190614a2b565b9050612fe59190614e27565b818110612ff557612ff4614847565b5b905060200201602081019061300a9190614599565b905060008360800160006003811061302557613024614847565b5b602002013590508360800160006003811061304357613042614847565b5b6020020135848060e001906130589190614a2b565b600081811061306a57613069614847565b5b905060200201602081019061307f9190614599565b73ffffffffffffffffffffffffffffffffffffffff166370a08231336040518263ffffffff1660e01b81526004016130b7919061453e565b602060405180830381865afa1580156130d4573d6000803e3d6000fd5b505050506040513d601f19601f820116820180604052508101906130f8919061495d565b1015613139576040517f08c379a000000000000000000000000000000000000000000000000000000000815260040161313090614fec565b60405180910390fd5b6131b733308660800160006003811061315557613154614847565b5b6020020135878060e0019061316a9190614a2b565b600081811061317c5761317b614847565b5b90506020020160208101906131919190614599565b73ffffffffffffffffffffffffffffffffffffffff16613f54909392919063ffffffff16565b6001848060e001906131c99190614a2b565b9050111561343d576000846000016003600481106131ea576131e9614847565b5b6020020160208101906131fd9190614599565b905060008173ffffffffffffffffffffffffffffffffffffffff1663d06ca61f8760800160006003811061323457613233614847565b5b6020020135888060e001906132499190614a2b565b6040518463ffffffff1660e01b815260040161326793929190614c64565b600060405180830381865afa158015613284573d6000803e3d6000fd5b505050506040513d6000823e3d601f19601f820116820180604052508101906132ad9190614dde565b9050613354866000016003600481106132c9576132c8614847565b5b6020020160208101906132dc9190614599565b876080016000600381106132f3576132f2614847565b5b6020020135888060e001906133089190614a2b565b600081811061331a57613319614847565b5b905060200201602081019061332f9190614599565b73ffffffffffffffffffffffffffffffffffffffff16613fdd9092919063ffffffff16565b8173ffffffffffffffffffffffffffffffffffffffff1663472b43f38760800160006003811061338757613386614847565b5b60200201358360018a8060e0019061339f9190614a2b565b90506133ab9190614e27565b815181106133bc576133bb614847565b5b6020026020010151898060e001906133d49190614a2b565b306040518663ffffffff1660e01b81526004016133f5959493929190614e5b565b6020604051808303816000875af1158015613414573d6000803e3d6000fd5b505050506040513d601f19601f82011682018060405250810190613438919061495d565b925050505b600080600360009054906101000a900473ffffffffffffffffffffffffffffffffffffffff1673ffffffffffffffffffffffffffffffffffffffff1663f8702fe1846040518060400160405280600581526020017f5354414b45000000000000000000000000000000000000000000000000000000815250896080016001600381106134cc576134cb614847565b5b60200201356040518463ffffffff1660e01b81526004016134ef93929190614b23565b6040805180830381865afa15801561350b573d6000803e3d6000fd5b505050506040513d601f19601f8201168201806040525081019061352f9190614b61565b91509150600073ffffffffffffffffffffffffffffffffffffffff168660000160026004811061356257613561614847565b5b6020020160208101906135759190614599565b73ffffffffffffffffffffffffffffffffffffffff1614613849576136488160046000896000016002600481106135af576135ae614847565b5b6020020160208101906135c29190614599565b73ffffffffffffffffffffffffffffffffffffffff1673ffffffffffffffffffffffffffffffffffffffff16815260200190815260200160002060008773ffffffffffffffffffffffffffffffffffffffff1673ffffffffffffffffffffffffffffffffffffffff168152602001908152602001600020546140ef90919063ffffffff16565b600460008860000160026004811061366357613662614847565b5b6020020160208101906136769190614599565b73ffffffffffffffffffffffffffffffffffffffff1673ffffffffffffffffffffffffffffffffffffffff16815260200190815260200160002060008673ffffffffffffffffffffffffffffffffffffffff1673ffffffffffffffffffffffffffffffffffffffff168152602001908152602001600020819055506137a28260046000600160009054906101000a900473ffffffffffffffffffffffffffffffffffffffff1673ffffffffffffffffffffffffffffffffffffffff1673ffffffffffffffffffffffffffffffffffffffff16815260200190815260200160002060008773ffffffffffffffffffffffffffffffffffffffff1673ffffffffffffffffffffffffffffffffffffffff168152602001908152602001600020546140ef90919063ffffffff16565b60046000600160009054906101000a900473ffffffffffffffffffffffffffffffffffffffff1673ffffffffffffffffffffffffffffffffffffffff1673ffffffffffffffffffffffffffffffffffffffff16815260200190815260200160002060008673ffffffffffffffffffffffffffffffffffffffff1673ffffffffffffffffffffffffffffffffffffffff168152602001908152602001600020819055506139af565b61390c61385f82846140ef90919063ffffffff16565b60046000600160009054906101000a900473ffffffffffffffffffffffffffffffffffffffff1673ffffffffffffffffffffffffffffffffffffffff1673ffffffffffffffffffffffffffffffffffffffff16815260200190815260200160002060008773ffffffffffffffffffffffffffffffffffffffff1673ffffffffffffffffffffffffffffffffffffffff168152602001908152602001600020546140ef90919063ffffffff16565b60046000600160009054906101000a900473ffffffffffffffffffffffffffffffffffffffff1673ffffffffffffffffffffffffffffffffffffffff1673ffffffffffffffffffffffffffffffffffffffff16815260200190815260200160002060008673ffffffffffffffffffffffffffffffffffffffff1673ffffffffffffffffffffffffffffffffffffffff168152602001908152602001600020819055505b60006139d66139c783856140ef90919063ffffffff16565b8561410590919063ffffffff16565b90506000876000016000600481106139f1576139f0614847565b5b602002016020810190613a049190614599565b9050613a5a88600001600060048110613a2057613a1f614847565b5b602002016020810190613a339190614599565b838873ffffffffffffffffffffffffffffffffffffffff16613fdd9092919063ffffffff16565b8073ffffffffffffffffffffffffffffffffffffffff16638329ab33838a608001600260038110613a8e57613a8d614847565b5b60200201356040518363ffffffff1660e01b8152600401613ab0929190614afa565b6020604051808303816000875af1158015613acf573d6000803e3d6000fd5b505050506040513d601f19601f82011682018060405250810190613af3919061495d565b9650613b7288600001600160048110613b0f57613b0e614847565b5b602002016020810190613b229190614599565b888a600001600060048110613b3a57613b39614847565b5b602002016020810190613b4d9190614599565b73ffffffffffffffffffffffffffffffffffffffff1661411b9092919063ffffffff16565b87600001600160048110613b8957613b88614847565b5b602002016020810190613b9c9190614599565b73ffffffffffffffffffffffffffffffffffffffff16888060e00190613bc29190614a2b565b6000818110613bd457613bd3614847565b5b9050602002016020810190613be99190614599565b73ffffffffffffffffffffffffffffffffffffffff1689600001600060048110613c1657613c15614847565b5b602002016020810190613c299190614599565b73ffffffffffffffffffffffffffffffffffffffff167f9741dda0fcdfbb5d6b679f62c97ae5835e4325962f36cc9e6731a6476d5421358b600001600260048110613c7757613c76614847565b5b602002016020810190613c8a9190614599565b8c608001600060038110613ca157613ca0614847565b5b602002013587604051613cb693929190614ea9565b60405180910390a45050505050506001600081905550919050565b6004602052816000526040600020602052806000526040600020600091509150505481565b600160009054906101000a900473ffffffffffffffffffffffffffffffffffffffff1681565b600060026000541415613d64576040517f08c379a0000000000000000000000000000000000000000000000000000000008152600401613d5b90614827565b60405180910390fd5b60026000819055506000839050600460008473ffffffffffffffffffffffffffffffffffffffff1673ffffffffffffffffffffffffffffffffffffffff16815260200190815260200160002060008573ffffffffffffffffffffffffffffffffffffffff1673ffffffffffffffffffffffffffffffffffffffff16815260200190815260200160002054915060008211613e33576040517f08c379a0000000000000000000000000000000000000000000000000000000008152600401613e2a90615058565b60405180910390fd5b6000600460008573ffffffffffffffffffffffffffffffffffffffff1673ffffffffffffffffffffffffffffffffffffffff16815260200190815260200160002060008673ffffffffffffffffffffffffffffffffffffffff1673ffffffffffffffffffffffffffffffffffffffff16815260200190815260200160002081905550613ee083838373ffffffffffffffffffffffffffffffffffffffff1661411b9092919063ffffffff16565b8373ffffffffffffffffffffffffffffffffffffffff168373ffffffffffffffffffffffffffffffffffffffff167f4931b6b0ef1b80f8ca6e6b27159d606870fbf438438d14aa8f01abb25e79eb1284604051613f3d9190614427565b60405180910390a350600160008190555092915050565b613fd7846323b872dd60e01b858585604051602401613f7593929190615078565b604051602081830303815290604052907bffffffffffffffffffffffffffffffffffffffffffffffffffffffff19166020820180517bffffffffffffffffffffffffffffffffffffffffffffffffffffffff83818316178352505050506141a1565b50505050565b6000818473ffffffffffffffffffffffffffffffffffffffff1663dd62ed3e30866040518363ffffffff1660e01b815260040161401b929190614908565b602060405180830381865afa158015614038573d6000803e3d6000fd5b505050506040513d601f19601f8201168201806040525081019061405c919061495d565b61406691906150af565b90506140e98463095ea7b360e01b8584604051602401614087929190615105565b604051602081830303815290604052907bffffffffffffffffffffffffffffffffffffffffffffffffffffffff19166020820180517bffffffffffffffffffffffffffffffffffffffffffffffffffffffff83818316178352505050506141a1565b50505050565b600081836140fd91906150af565b905092915050565b600081836141139190614e27565b905092915050565b61419c8363a9059cbb60e01b848460405160240161413a929190615105565b604051602081830303815290604052907bffffffffffffffffffffffffffffffffffffffffffffffffffffffff19166020820180517bffffffffffffffffffffffffffffffffffffffffffffffffffffffff83818316178352505050506141a1565b505050565b6000614203826040518060400160405280602081526020017f5361666545524332303a206c6f772d6c6576656c2063616c6c206661696c65648152508573ffffffffffffffffffffffffffffffffffffffff166142689092919063ffffffff16565b905060008151111561426357808060200190518101906142239190615166565b614262576040517f08c379a000000000000000000000000000000000000000000000000000000000815260040161425990615205565b60405180910390fd5b5b505050565b60606142778484600085614280565b90509392505050565b6060824710156142c5576040517f08c379a00000000000000000000000000000000000000000000000000000000081526004016142bc90615297565b60405180910390fd5b6142ce85614394565b61430d576040517f08c379a000000000000000000000000000000000000000000000000000000000815260040161430490615303565b60405180910390fd5b6000808673ffffffffffffffffffffffffffffffffffffffff168587604051614336919061536a565b60006040518083038185875af1925050503d8060008114614373576040519150601f19603f3d011682016040523d82523d6000602084013e614378565b606091505b50915091506143888282866143a7565b92505050949350505050565b600080823b905060008111915050919050565b606083156143b757829050614407565b6000835111156143ca5782518084602001fd5b816040517f08c379a00000000000000000000000000000000000000000000000000000000081526004016143fe91906144db565b60405180910390fd5b9392505050565b6000819050919050565b6144218161440e565b82525050565b600060208201905061443c6000830184614418565b92915050565b600081519050919050565b600082825260208201905092915050565b60005b8381101561447c578082015181840152602081019050614461565b8381111561448b576000848401525b50505050565b6000601f19601f8301169050919050565b60006144ad82614442565b6144b7818561444d565b93506144c781856020860161445e565b6144d081614491565b840191505092915050565b600060208201905081810360008301526144f581846144a2565b905092915050565b600073ffffffffffffffffffffffffffffffffffffffff82169050919050565b6000614528826144fd565b9050919050565b6145388161451d565b82525050565b6000602082019050614553600083018461452f565b92915050565b6000604051905090565b600080fd5b600080fd5b6145768161451d565b811461458157600080fd5b50565b6000813590506145938161456d565b92915050565b6000602082840312156145af576145ae614563565b5b60006145bd84828501614584565b91505092915050565b600080fd5b600061010082840312156145e2576145e16145c6565b5b81905092915050565b60006020828403121561460157614600614563565b5b600082013567ffffffffffffffff81111561461f5761461e614568565b5b61462b848285016145cb565b91505092915050565b6000806040838503121561464b5761464a614563565b5b600061465985828601614584565b925050602061466a85828601614584565b9150509250929050565b7f4e487b7100000000000000000000000000000000000000000000000000000000600052601260045260246000fd5b7f4e487b7100000000000000000000000000000000000000000000000000000000600052601160045260246000fd5b60006146dd8261440e565b91506146e88361440e565b9250826146f8576146f7614674565b5b828204905092915050565b7f61646d696e206f6e6c7900000000000000000000000000000000000000000000600082015250565b6000614739600a8361444d565b915061474482614703565b602082019050919050565b600060208201905081810360008301526147688161472c565b9050919050565b7f43616c6c6572206d757374206265207468652070656e64696e672061646d696e600082015250565b60006147a560208361444d565b91506147b08261476f565b602082019050919050565b600060208201905081810360008301526147d481614798565b9050919050565b7f5265656e7472616e637947756172643a207265656e7472616e742063616c6c00600082015250565b6000614811601f8361444d565b915061481c826147db565b602082019050919050565b6000602082019050818103600083015261484081614804565b9050919050565b7f4e487b7100000000000000000000000000000000000000000000000000000000600052603260045260246000fd5b7f5374616b65526f757465723a2044657374696e6174696f6e206164647265737360008201527f206e6f742070726f766964656400000000000000000000000000000000000000602082015250565b60006148d2602d8361444d565b91506148dd82614876565b604082019050919050565b60006020820190508181036000830152614901816148c5565b9050919050565b600060408201905061491d600083018561452f565b61492a602083018461452f565b9392505050565b61493a8161440e565b811461494557600080fd5b50565b60008151905061495781614931565b92915050565b60006020828403121561497357614972614563565b5b600061498184828501614948565b91505092915050565b7f5374616b65526f757465723a204e6f7420656e6f75676820746f6b656e20616c60008201527f6c6f77616e636500000000000000000000000000000000000000000000000000602082015250565b60006149e660278361444d565b91506149f18261498a565b604082019050919050565b60006020820190508181036000830152614a15816149d9565b9050919050565b600080fd5b600080fd5b600080fd5b60008083356001602003843603038112614a4857614a47614a1c565b5b80840192508235915067ffffffffffffffff821115614a6a57614a69614a21565b5b602083019250602082023603831315614a8657614a85614a26565b5b509250929050565b7f5374616b65526f757465723a205061746820746f6f2073686f72740000000000600082015250565b6000614ac4601b8361444d565b9150614acf82614a8e565b602082019050919050565b60006020820190508181036000830152614af381614ab7565b9050919050565b6000604082019050614b0f6000830185614418565b614b1c6020830184614418565b9392505050565b6000606082019050614b386000830186614418565b8181036020830152614b4a81856144a2565b9050614b596040830184614418565b949350505050565b60008060408385031215614b7857614b77614563565b5b6000614b8685828601614948565b9250506020614b9785828601614948565b9150509250929050565b600082825260208201905092915050565b6000819050919050565b614bc58161451d565b82525050565b6000614bd78383614bbc565b60208301905092915050565b6000614bf26020840184614584565b905092915050565b6000602082019050919050565b6000614c138385614ba1565b9350614c1e82614bb2565b8060005b85811015614c5757614c348284614be3565b614c3e8882614bcb565b9750614c4983614bfa565b925050600181019050614c22565b5085925050509392505050565b6000604082019050614c796000830186614418565b8181036020830152614c8c818486614c07565b9050949350505050565b600080fd5b7f4e487b7100000000000000000000000000000000000000000000000000000000600052604160045260246000fd5b614cd382614491565b810181811067ffffffffffffffff82111715614cf257614cf1614c9b565b5b80604052505050565b6000614d05614559565b9050614d118282614cca565b919050565b600067ffffffffffffffff821115614d3157614d30614c9b565b5b602082029050602081019050919050565b600080fd5b6000614d5a614d5584614d16565b614cfb565b90508083825260208201905060208402830185811115614d7d57614d7c614d42565b5b835b81811015614da65780614d928882614948565b845260208401935050602081019050614d7f565b5050509392505050565b600082601f830112614dc557614dc4614c96565b5b8151614dd5848260208601614d47565b91505092915050565b600060208284031215614df457614df3614563565b5b600082015167ffffffffffffffff811115614e1257614e11614568565b5b614e1e84828501614db0565b91505092915050565b6000614e328261440e565b9150614e3d8361440e565b925082821015614e5057614e4f6146a3565b5b828203905092915050565b6000608082019050614e706000830188614418565b614e7d6020830187614418565b8181036040830152614e90818587614c07565b9050614e9f606083018461452f565b9695505050505050565b6000606082019050614ebe600083018661452f565b614ecb6020830185614418565b614ed86040830184614418565b949350505050565b6000614eeb8261440e565b9150614ef68361440e565b9250817fffffffffffffffffffffffffffffffffffffffffffffffffffffffffffffffff0483118215151615614f2f57614f2e6146a3565b5b828202905092915050565b6000606082019050614f4f6000830187614418565b8181036020830152614f62818587614c07565b9050614f71604083018461452f565b95945050505050565b7f5374616b65526f757465723a204e6f7420656e6f75676820746f6b656e496e2060008201527f62616c616e636500000000000000000000000000000000000000000000000000602082015250565b6000614fd660278361444d565b9150614fe182614f7a565b604082019050919050565b6000602082019050818103600083015261500581614fc9565b9050919050565b7f5374616b65526f757465723a204e6f20746f6b656e7320746f20636c61696d00600082015250565b6000615042601f8361444d565b915061504d8261500c565b602082019050919050565b6000602082019050818103600083015261507181615035565b9050919050565b600060608201905061508d600083018661452f565b61509a602083018561452f565b6150a76040830184614418565b949350505050565b60006150ba8261440e565b91506150c58361440e565b9250827fffffffffffffffffffffffffffffffffffffffffffffffffffffffffffffffff038211156150fa576150f96146a3565b5b828201905092915050565b600060408201905061511a600083018561452f565b6151276020830184614418565b9392505050565b60008115159050919050565b6151438161512e565b811461514e57600080fd5b50565b6000815190506151608161513a565b92915050565b60006020828403121561517c5761517b614563565b5b600061518a84828501615151565b91505092915050565b7f5361666545524332303a204552433230206f7065726174696f6e20646964206e60008201527f6f74207375636365656400000000000000000000000000000000000000000000602082015250565b60006151ef602a8361444d565b91506151fa82615193565b604082019050919050565b6000602082019050818103600083015261521e816151e2565b9050919050565b7f416464726573733a20696e73756666696369656e742062616c616e636520666f60008201527f722063616c6c0000000000000000000000000000000000000000000000000000602082015250565b600061528160268361444d565b915061528c82615225565b604082019050919050565b600060208201905081810360008301526152b081615274565b9050919050565b7f416464726573733a2063616c6c20746f206e6f6e2d636f6e7472616374000000600082015250565b60006152ed601d8361444d565b91506152f8826152b7565b602082019050919050565b6000602082019050818103600083015261531c816152e0565b9050919050565b600081519050919050565b600081905092915050565b600061534482615323565b61534e818561532e565b935061535e81856020860161445e565b80840191505092915050565b60006153768284615339565b91508190509291505056fea2646970667358221220f527cbabdd59faa0e83437548a817721993fe7de7c89c63ebecad0d4c04aa47264736f6c634300080c0033",
  "linkReferences": {},
  "deployedLinkReferences": {}
}