{
  "_format": "hh-sol-artifact-1",
  "contractName": "StakeRouter",
  "sourceName": "contracts/defi/routers/StakeRouter.sol",
  "abi": [
    {
      "inputs": [],
      "stateMutability": "nonpayable",
      "type": "constructor"
    },
    {
      "anonymous": false,
      "inputs": [
        {
          "indexed": true,
          "internalType": "address",
          "name": "referrer",
          "type": "address"
        },
        {
          "indexed": true,
          "internalType": "address",
          "name": "token",
          "type": "address"
        },
        {
          "indexed": false,
          "internalType": "uint256",
          "name": "claimedAmout",
          "type": "uint256"
        }
      ],
      "name": "ReferralFeesClaimed",
      "type": "event"
    },
    {
      "anonymous": false,
      "inputs": [
        {
          "indexed": true,
          "internalType": "address",
          "name": "pool",
          "type": "address"
        },
        {
          "indexed": true,
          "internalType": "address",
          "name": "beneficiary",
          "type": "address"
        },
        {
          "indexed": false,
          "internalType": "address",
          "name": "referrer",
          "type": "address"
        },
        {
          "indexed": false,
          "internalType": "uint256",
          "name": "amountInETH",
          "type": "uint256"
        },
        {
          "indexed": false,
          "internalType": "uint256",
          "name": "amountInBasetoken",
          "type": "uint256"
        }
      ],
      "name": "StakedETHInPool",
      "type": "event"
    },
    {
      "anonymous": false,
      "inputs": [
        {
          "indexed": true,
          "internalType": "address",
          "name": "pool",
          "type": "address"
        },
        {
          "indexed": true,
          "internalType": "address",
          "name": "token",
          "type": "address"
        },
        {
          "indexed": true,
          "internalType": "address",
          "name": "beneficiary",
          "type": "address"
        },
        {
          "indexed": false,
          "internalType": "address",
          "name": "referrer",
          "type": "address"
        },
        {
          "indexed": false,
          "internalType": "uint256",
          "name": "amountInToken",
          "type": "uint256"
        },
        {
          "indexed": false,
          "internalType": "uint256",
          "name": "amountInBasetoken",
          "type": "uint256"
        }
      ],
      "name": "StakedTokenInPool",
      "type": "event"
    },
    {
      "anonymous": false,
      "inputs": [
        {
          "indexed": true,
          "internalType": "address",
          "name": "pool",
          "type": "address"
        },
        {
          "indexed": true,
          "internalType": "address",
          "name": "beneficiary",
          "type": "address"
        },
        {
          "indexed": false,
          "internalType": "address",
          "name": "referrer",
          "type": "address"
        },
        {
          "indexed": false,
          "internalType": "uint256",
          "name": "amountInETH",
          "type": "uint256"
        },
        {
          "indexed": false,
          "internalType": "uint256",
          "name": "amountInBasetoken",
          "type": "uint256"
        }
      ],
      "name": "UnstakedETHFromPool",
      "type": "event"
    },
    {
      "anonymous": false,
      "inputs": [
        {
          "indexed": true,
          "internalType": "address",
          "name": "pool",
          "type": "address"
        },
        {
          "indexed": true,
          "internalType": "address",
          "name": "token",
          "type": "address"
        },
        {
          "indexed": true,
          "internalType": "address",
          "name": "beneficiary",
          "type": "address"
        },
        {
          "indexed": false,
          "internalType": "address",
          "name": "referrer",
          "type": "address"
        },
        {
          "indexed": false,
          "internalType": "uint256",
          "name": "amountInToken",
          "type": "uint256"
        },
        {
          "indexed": false,
          "internalType": "uint256",
          "name": "amountInBasetoken",
          "type": "uint256"
        }
      ],
      "name": "UnstakedTokenFromPool",
      "type": "event"
    },
    {
      "inputs": [],
      "name": "BONE",
      "outputs": [
        {
          "internalType": "uint256",
          "name": "",
          "type": "uint256"
        }
      ],
      "stateMutability": "view",
      "type": "function"
    },
    {
      "inputs": [],
      "name": "BPOW_PRECISION",
      "outputs": [
        {
          "internalType": "uint256",
          "name": "",
          "type": "uint256"
        }
      ],
      "stateMutability": "view",
      "type": "function"
    },
    {
      "inputs": [],
      "name": "MAX_BPOW_BASE",
      "outputs": [
        {
          "internalType": "uint256",
          "name": "",
          "type": "uint256"
        }
      ],
      "stateMutability": "view",
      "type": "function"
    },
    {
      "inputs": [],
      "name": "MAX_INT",
      "outputs": [
        {
          "internalType": "uint256",
          "name": "",
          "type": "uint256"
        }
      ],
      "stateMutability": "view",
      "type": "function"
    },
    {
      "inputs": [],
      "name": "MIN_BPOW_BASE",
      "outputs": [
        {
          "internalType": "uint256",
          "name": "",
          "type": "uint256"
        }
      ],
      "stateMutability": "view",
      "type": "function"
    },
    {
      "inputs": [],
      "name": "ZERO_FEES",
      "outputs": [
        {
          "internalType": "uint256",
          "name": "",
          "type": "uint256"
        }
      ],
      "stateMutability": "view",
      "type": "function"
    },
    {
      "inputs": [],
      "name": "acceptPendingAdmin",
      "outputs": [],
      "stateMutability": "nonpayable",
      "type": "function"
    },
    {
      "inputs": [],
      "name": "admin",
      "outputs": [
        {
          "internalType": "address",
          "name": "",
          "type": "address"
        }
      ],
      "stateMutability": "view",
      "type": "function"
    },
    {
      "inputs": [
        {
          "internalType": "uint256",
          "name": "baseAmount",
          "type": "uint256"
        },
        {
          "internalType": "string",
          "name": "feeType",
          "type": "string"
        },
        {
          "internalType": "uint256",
          "name": "refFeeRate",
          "type": "uint256"
        }
      ],
      "name": "calcFees",
      "outputs": [
        {
          "internalType": "uint256",
          "name": "dataxFee",
          "type": "uint256"
        },
        {
          "internalType": "uint256",
          "name": "refFee",
          "type": "uint256"
        }
      ],
      "stateMutability": "view",
      "type": "function"
    },
    {
      "inputs": [
        {
          "components": [
            {
              "internalType": "address[4]",
              "name": "meta",
              "type": "address[4]"
            },
            {
              "internalType": "uint256[3]",
              "name": "uints",
              "type": "uint256[3]"
            },
            {
              "internalType": "address[]",
              "name": "path",
              "type": "address[]"
            }
          ],
          "internalType": "struct StakeRouter.StakeInfo",
          "name": "info",
          "type": "tuple"
        }
      ],
      "name": "calcPoolInGivenTokenOut",
      "outputs": [
        {
          "internalType": "uint256",
          "name": "poolAmountIn",
          "type": "uint256"
        },
        {
          "internalType": "uint256",
          "name": "dataxFee",
          "type": "uint256"
        },
        {
          "internalType": "uint256",
          "name": "refFee",
          "type": "uint256"
        }
      ],
      "stateMutability": "view",
      "type": "function"
    },
    {
      "inputs": [
        {
          "components": [
            {
              "internalType": "address[4]",
              "name": "meta",
              "type": "address[4]"
            },
            {
              "internalType": "uint256[3]",
              "name": "uints",
              "type": "uint256[3]"
            },
            {
              "internalType": "address[]",
              "name": "path",
              "type": "address[]"
            }
          ],
          "internalType": "struct StakeRouter.StakeInfo",
          "name": "info",
          "type": "tuple"
        }
      ],
      "name": "calcPoolOutGivenTokenIn",
      "outputs": [
        {
          "internalType": "uint256",
          "name": "poolAmountOut",
          "type": "uint256"
        },
        {
          "internalType": "uint256",
          "name": "dataxFee",
          "type": "uint256"
        },
        {
          "internalType": "uint256",
          "name": "refFee",
          "type": "uint256"
        }
      ],
      "stateMutability": "view",
      "type": "function"
    },
    {
      "inputs": [
        {
          "components": [
            {
              "internalType": "address[4]",
              "name": "meta",
              "type": "address[4]"
            },
            {
              "internalType": "uint256[3]",
              "name": "uints",
              "type": "uint256[3]"
            },
            {
              "internalType": "address[]",
              "name": "path",
              "type": "address[]"
            }
          ],
          "internalType": "struct StakeRouter.StakeInfo",
          "name": "info",
          "type": "tuple"
        }
      ],
      "name": "calcTokenOutGivenPoolIn",
      "outputs": [
        {
          "internalType": "uint256",
          "name": "baseAmountOut",
          "type": "uint256"
        },
        {
          "internalType": "uint256",
          "name": "dataxFee",
          "type": "uint256"
        },
        {
          "internalType": "uint256",
          "name": "refFee",
          "type": "uint256"
        }
      ],
      "stateMutability": "view",
      "type": "function"
    },
    {
      "inputs": [
        {
          "internalType": "address",
          "name": "token",
          "type": "address"
        },
        {
          "internalType": "address",
          "name": "referrer",
          "type": "address"
        }
      ],
      "name": "claimRefFees",
      "outputs": [
        {
          "internalType": "uint256",
          "name": "claimAmount",
          "type": "uint256"
        }
      ],
      "stateMutability": "nonpayable",
      "type": "function"
    },
    {
      "inputs": [
        {
          "internalType": "bytes32",
          "name": "",
          "type": "bytes32"
        }
      ],
      "name": "fees",
      "outputs": [
        {
          "internalType": "uint256",
          "name": "",
          "type": "uint256"
        }
      ],
      "stateMutability": "view",
      "type": "function"
    },
    {
      "inputs": [
        {
          "internalType": "string",
          "name": "key",
          "type": "string"
        }
      ],
      "name": "getFees",
      "outputs": [
        {
          "internalType": "uint256",
          "name": "",
          "type": "uint256"
        }
      ],
      "stateMutability": "view",
      "type": "function"
    },
    {
      "inputs": [],
      "name": "pendingAdmin",
      "outputs": [
        {
          "internalType": "address",
          "name": "",
          "type": "address"
        }
      ],
      "stateMutability": "view",
      "type": "function"
    },
    {
      "inputs": [
        {
          "internalType": "address",
          "name": "",
          "type": "address"
        },
        {
          "internalType": "address",
          "name": "",
          "type": "address"
        }
      ],
      "name": "referralFees",
      "outputs": [
        {
          "internalType": "uint256",
          "name": "",
          "type": "uint256"
        }
      ],
      "stateMutability": "view",
      "type": "function"
    },
    {
      "inputs": [
        {
          "internalType": "address",
          "name": "newAdmin",
          "type": "address"
        }
      ],
      "name": "setPendingAdmin",
      "outputs": [],
      "stateMutability": "nonpayable",
      "type": "function"
    },
    {
      "inputs": [
        {
          "components": [
            {
              "internalType": "address[4]",
              "name": "meta",
              "type": "address[4]"
            },
            {
              "internalType": "uint256[3]",
              "name": "uints",
              "type": "uint256[3]"
            },
            {
              "internalType": "address[]",
              "name": "path",
              "type": "address[]"
            }
          ],
          "internalType": "struct StakeRouter.StakeInfo",
          "name": "info",
          "type": "tuple"
        }
      ],
      "name": "stakeETHInDTPool",
      "outputs": [
        {
          "internalType": "uint256",
          "name": "poolTokensOut",
          "type": "uint256"
        }
      ],
      "stateMutability": "payable",
      "type": "function"
    },
    {
      "inputs": [
        {
          "components": [
            {
              "internalType": "address[4]",
              "name": "meta",
              "type": "address[4]"
            },
            {
              "internalType": "uint256[3]",
              "name": "uints",
              "type": "uint256[3]"
            },
            {
              "internalType": "address[]",
              "name": "path",
              "type": "address[]"
            }
          ],
          "internalType": "struct StakeRouter.StakeInfo",
          "name": "info",
          "type": "tuple"
        }
      ],
      "name": "stakeTokenInDTPool",
      "outputs": [
        {
          "internalType": "uint256",
          "name": "poolTokensOut",
          "type": "uint256"
        }
      ],
      "stateMutability": "nonpayable",
      "type": "function"
    },
    {
      "inputs": [
        {
          "components": [
            {
              "internalType": "address[4]",
              "name": "meta",
              "type": "address[4]"
            },
            {
              "internalType": "uint256[3]",
              "name": "uints",
              "type": "uint256[3]"
            },
            {
              "internalType": "address[]",
              "name": "path",
              "type": "address[]"
            }
          ],
          "internalType": "struct StakeRouter.StakeInfo",
          "name": "info",
          "type": "tuple"
        }
      ],
      "name": "unstakeETHFromDTPool",
      "outputs": [
        {
          "internalType": "uint256",
          "name": "ethAmountOut",
          "type": "uint256"
        }
      ],
      "stateMutability": "nonpayable",
      "type": "function"
    },
    {
      "inputs": [
        {
          "components": [
            {
              "internalType": "address[4]",
              "name": "meta",
              "type": "address[4]"
            },
            {
              "internalType": "uint256[3]",
              "name": "uints",
              "type": "uint256[3]"
            },
            {
              "internalType": "address[]",
              "name": "path",
              "type": "address[]"
            }
          ],
          "internalType": "struct StakeRouter.StakeInfo",
          "name": "info",
          "type": "tuple"
        }
      ],
      "name": "unstakeTokenFromDTPool",
      "outputs": [
        {
          "internalType": "uint256",
          "name": "tokenAmountOut",
          "type": "uint256"
        }
      ],
      "stateMutability": "nonpayable",
      "type": "function"
    },
    {
      "inputs": [
        {
          "internalType": "string",
          "name": "key",
          "type": "string"
        },
        {
          "internalType": "uint256",
          "name": "value",
          "type": "uint256"
        }
      ],
      "name": "updateFees",
      "outputs": [],
      "stateMutability": "nonpayable",
      "type": "function"
    },
    {
      "inputs": [
        {
          "internalType": "uint256",
          "name": "amount",
          "type": "uint256"
        }
      ],
      "name": "withdrawETH",
      "outputs": [],
      "stateMutability": "nonpayable",
      "type": "function"
    },
    {
      "inputs": [
        {
          "internalType": "address",
          "name": "tokenAddress",
          "type": "address"
        },
        {
          "internalType": "uint256",
          "name": "amount",
          "type": "uint256"
        }
      ],
      "name": "withdrawToken",
      "outputs": [],
      "stateMutability": "nonpayable",
      "type": "function"
    },
    {
      "stateMutability": "payable",
      "type": "receive"
    }
  ],
  "bytecode": "0x608060405234801561001057600080fd5b50600160008190555033600160006101000a81548173ffffffffffffffffffffffffffffffffffffffff021916908373ffffffffffffffffffffffffffffffffffffffff16021790555033600160006101000a81548173ffffffffffffffffffffffffffffffffffffffff021916908373ffffffffffffffffffffffffffffffffffffffff16021790555033600160006101000a81548173ffffffffffffffffffffffffffffffffffffffff021916908373ffffffffffffffffffffffffffffffffffffffff1602179055506166f280620000ec6000396000f3fe60806040526004361061016a5760003560e01c8063bc694ea2116100d1578063e279110b1161008a578063f3dd696011610064578063f3dd696014610590578063f851a440146105b9578063f8702fe1146105e4578063f9e9f5841461062257610171565b8063e279110b146104ed578063eb90b2bc1461052a578063f14210a61461056757610171565b8063bc694ea2146103ae578063c1ac0279146103d9578063c36596a614610409578063cdb5661f14610434578063d6fd2da514610471578063db76bfe4146104ae57610171565b8063709920c111610123578063709920c11461028a57806385166676146102a15780639e281a98146102de5780639ea8786214610307578063b9b2891614610344578063ba019dab1461038357610171565b806304bedd6814610176578063098d3228146101b5578063189d00ca146101e0578063267822471461020b5780632b6e01db146102365780634dd18bf51461026157610171565b3661017157005b600080fd5b34801561018257600080fd5b5061019d600480360381019061019891906151a0565b61065f565b6040516101ac93929190615202565b60405180910390f35b3480156101c157600080fd5b506101ca6108ff565b6040516101d79190615239565b60405180910390f35b3480156101ec57600080fd5b506101f5610923565b6040516102029190615239565b60405180910390f35b34801561021757600080fd5b5061022061093f565b60405161022d9190615295565b60405180910390f35b34801561024257600080fd5b5061024b610965565b6040516102589190615239565b60405180910390f35b34801561026d57600080fd5b50610288600480360381019061028391906152dc565b61096a565b005b34801561029657600080fd5b5061029f610a3e565b005b3480156102ad57600080fd5b506102c860048036038101906102c391906151a0565b610bd0565b6040516102d59190615239565b60405180910390f35b3480156102ea57600080fd5b5061030560048036038101906103009190615335565b611800565b005b34801561031357600080fd5b5061032e600480360381019061032991906151a0565b611951565b60405161033b9190615239565b60405180910390f35b34801561035057600080fd5b5061036b600480360381019061036691906151a0565b612609565b60405161037a93929190615202565b60405180910390f35b34801561038f57600080fd5b506103986128e6565b6040516103a59190615239565b60405180910390f35b3480156103ba57600080fd5b506103c36128eb565b6040516103d09190615239565b60405180910390f35b6103f360048036038101906103ee91906151a0565b61290f565b6040516104009190615239565b60405180910390f35b34801561041557600080fd5b5061041e613388565b60405161042b9190615239565b60405180910390f35b34801561044057600080fd5b5061045b600480360381019061045691906153ab565b613394565b6040516104689190615239565b60405180910390f35b34801561047d57600080fd5b50610498600480360381019061049391906151a0565b6133ac565b6040516104a59190615239565b60405180910390f35b3480156104ba57600080fd5b506104d560048036038101906104d091906151a0565b614211565b6040516104e493929190615202565b60405180910390f35b3480156104f957600080fd5b50610514600480360381019061050f91906153d8565b6144c6565b6040516105219190615239565b60405180910390f35b34801561053657600080fd5b50610551600480360381019061054c919061555e565b6144eb565b60405161055e9190615239565b60405180910390f35b34801561057357600080fd5b5061058e600480360381019061058991906155a7565b614515565b005b34801561059c57600080fd5b506105b760048036038101906105b291906155d4565b614677565b005b3480156105c557600080fd5b506105ce614731565b6040516105db9190615295565b60405180910390f35b3480156105f057600080fd5b5061060b60048036038101906106069190615630565b614757565b60405161061992919061569f565b60405180910390f35b34801561062e57600080fd5b50610649600480360381019061064491906153d8565b614822565b6040516106569190615239565b60405180910390f35b6000806000808460000160006004811061067c5761067b6156c8565b5b60200201602081019061068f91906152dc565b905060008173ffffffffffffffffffffffffffffffffffffffff1663430ed5d0878060e001906106bf9190615706565b60008181106106d1576106d06156c8565b5b90506020020160208101906106e691906152dc565b886080016000600381106106fd576106fc6156c8565b5b60200201356040518363ffffffff1660e01b815260040161071f929190615769565b602060405180830381865afa15801561073c573d6000803e3d6000fd5b505050506040513d601f19601f8201168201806040525081019061076091906157a7565b90506107bd816040518060400160405280600581526020017f5354414b45000000000000000000000000000000000000000000000000000000815250886080016001600381106107b3576107b26156c8565b5b6020020135614757565b80945081955050506107ea6107db8486614a5a90919063ffffffff16565b82614a7090919063ffffffff16565b94506001868060e001906107fe9190615706565b905011156108f65760008660000160036004811061081f5761081e6156c8565b5b60200201602081019061083291906152dc565b905060008173ffffffffffffffffffffffffffffffffffffffff1663d06ca61f888a8060e001906108639190615706565b6040518463ffffffff1660e01b815260040161088193929190615897565b600060405180830381865afa15801561089e573d6000803e3d6000fd5b505050506040513d6000823e3d601f19601f820116820180604052508101906108c79190615991565b905080600182516108d89190615a09565b815181106108e9576108e86156c8565b5b6020026020010151965050505b50509193909250565b7fffffffffffffffffffffffffffffffffffffffffffffffffffffffffffffffff81565b6402540be400670de0b6b3a764000061093c9190615a6c565b81565b600260009054906101000a900473ffffffffffffffffffffffffffffffffffffffff1681565b600081565b600160009054906101000a900473ffffffffffffffffffffffffffffffffffffffff1673ffffffffffffffffffffffffffffffffffffffff163373ffffffffffffffffffffffffffffffffffffffff16146109fa576040517f08c379a00000000000000000000000000000000000000000000000000000000081526004016109f190615afa565b60405180910390fd5b80600260006101000a81548173ffffffffffffffffffffffffffffffffffffffff021916908373ffffffffffffffffffffffffffffffffffffffff16021790555050565b600260009054906101000a900473ffffffffffffffffffffffffffffffffffffffff1673ffffffffffffffffffffffffffffffffffffffff163373ffffffffffffffffffffffffffffffffffffffff16148015610aea5750600073ffffffffffffffffffffffffffffffffffffffff16600260009054906101000a900473ffffffffffffffffffffffffffffffffffffffff1673ffffffffffffffffffffffffffffffffffffffff1614155b610b29576040517f08c379a0000000000000000000000000000000000000000000000000000000008152600401610b2090615b66565b60405180910390fd5b600260009054906101000a900473ffffffffffffffffffffffffffffffffffffffff16600160006101000a81548173ffffffffffffffffffffffffffffffffffffffff021916908373ffffffffffffffffffffffffffffffffffffffff1602179055506000600260006101000a81548173ffffffffffffffffffffffffffffffffffffffff021916908373ffffffffffffffffffffffffffffffffffffffff160217905550565b600060026000541415610c18576040517f08c379a0000000000000000000000000000000000000000000000000000000008152600401610c0f90615bd2565b60405180910390fd5b6002600081905550600073ffffffffffffffffffffffffffffffffffffffff1682600001600260048110610c4f57610c4e6156c8565b5b602002016020810190610c6291906152dc565b73ffffffffffffffffffffffffffffffffffffffff161415610cb9576040517f08c379a0000000000000000000000000000000000000000000000000000000008152600401610cb090615c64565b60405180910390fd5b81600001600060048110610cd057610ccf6156c8565b5b602002016020810190610ce391906152dc565b73ffffffffffffffffffffffffffffffffffffffff1663dd62ed3e33306040518363ffffffff1660e01b8152600401610d1d929190615c84565b602060405180830381865afa158015610d3a573d6000803e3d6000fd5b505050506040513d601f19601f82011682018060405250810190610d5e91906157a7565b82608001600060038110610d7557610d746156c8565b5b60200201351115610dbb576040517f08c379a0000000000000000000000000000000000000000000000000000000008152600401610db290615d1f565b60405180910390fd5b6001828060e00190610dcd9190615706565b905011610e0f576040517f08c379a0000000000000000000000000000000000000000000000000000000008152600401610e0690615d8b565b60405180910390fd5b6000828060e00190610e219190615706565b6000818110610e3357610e326156c8565b5b9050602002016020810190610e4891906152dc565b9050600083600001600060048110610e6357610e626156c8565b5b602002016020810190610e7691906152dc565b9050610ee9333086608001600060038110610e9457610e936156c8565b5b602002013587600001600060048110610eb057610eaf6156c8565b5b602002016020810190610ec391906152dc565b73ffffffffffffffffffffffffffffffffffffffff16614a86909392919063ffffffff16565b610f588185608001600060038110610f0457610f036156c8565b5b602002013586600001600060048110610f2057610f1f6156c8565b5b602002016020810190610f3391906152dc565b73ffffffffffffffffffffffffffffffffffffffff16614b0f9092919063ffffffff16565b60008173ffffffffffffffffffffffffffffffffffffffff16631298926086608001600060038110610f8d57610f8c6156c8565b5b602002013587608001600260038110610fa957610fa86156c8565b5b60200201356040518363ffffffff1660e01b8152600401610fcb92919061569f565b6020604051808303816000875af1158015610fea573d6000803e3d6000fd5b505050506040513d601f19601f8201168201806040525081019061100e91906157a7565b905060008061106e836040518060400160405280600781526020017f554e5354414b450000000000000000000000000000000000000000000000000081525089608001600160038110611064576110636156c8565b5b6020020135614757565b91509150600073ffffffffffffffffffffffffffffffffffffffff16876000016002600481106110a1576110a06156c8565b5b6020020160208101906110b491906152dc565b73ffffffffffffffffffffffffffffffffffffffff16146113885761118781600460008a6000016002600481106110ee576110ed6156c8565b5b60200201602081019061110191906152dc565b73ffffffffffffffffffffffffffffffffffffffff1673ffffffffffffffffffffffffffffffffffffffff16815260200190815260200160002060008873ffffffffffffffffffffffffffffffffffffffff1673ffffffffffffffffffffffffffffffffffffffff16815260200190815260200160002054614a5a90919063ffffffff16565b60046000896000016002600481106111a2576111a16156c8565b5b6020020160208101906111b591906152dc565b73ffffffffffffffffffffffffffffffffffffffff1673ffffffffffffffffffffffffffffffffffffffff16815260200190815260200160002060008773ffffffffffffffffffffffffffffffffffffffff1673ffffffffffffffffffffffffffffffffffffffff168152602001908152602001600020819055506112e18260046000600160009054906101000a900473ffffffffffffffffffffffffffffffffffffffff1673ffffffffffffffffffffffffffffffffffffffff1673ffffffffffffffffffffffffffffffffffffffff16815260200190815260200160002060008873ffffffffffffffffffffffffffffffffffffffff1673ffffffffffffffffffffffffffffffffffffffff16815260200190815260200160002054614a5a90919063ffffffff16565b60046000600160009054906101000a900473ffffffffffffffffffffffffffffffffffffffff1673ffffffffffffffffffffffffffffffffffffffff1673ffffffffffffffffffffffffffffffffffffffff16815260200190815260200160002060008773ffffffffffffffffffffffffffffffffffffffff1673ffffffffffffffffffffffffffffffffffffffff168152602001908152602001600020819055506114e5565b6114426113958383614c5e565b60046000600160009054906101000a900473ffffffffffffffffffffffffffffffffffffffff1673ffffffffffffffffffffffffffffffffffffffff1673ffffffffffffffffffffffffffffffffffffffff16815260200190815260200160002060008873ffffffffffffffffffffffffffffffffffffffff1673ffffffffffffffffffffffffffffffffffffffff16815260200190815260200160002054614a5a90919063ffffffff16565b60046000600160009054906101000a900473ffffffffffffffffffffffffffffffffffffffff1673ffffffffffffffffffffffffffffffffffffffff1673ffffffffffffffffffffffffffffffffffffffff16815260200190815260200160002060008773ffffffffffffffffffffffffffffffffffffffff1673ffffffffffffffffffffffffffffffffffffffff168152602001908152602001600020819055505b60006114fa846114f58585614c5e565b614cbc565b905061155088600001600360048110611516576115156156c8565b5b60200201602081019061152991906152dc565b828873ffffffffffffffffffffffffffffffffffffffff16614b0f9092919063ffffffff16565b600088600001600360048110611569576115686156c8565b5b60200201602081019061157c91906152dc565b905060008173ffffffffffffffffffffffffffffffffffffffff1663d06ca61f848c8060e001906115ad9190615706565b6040518463ffffffff1660e01b81526004016115cb93929190615897565b600060405180830381865afa1580156115e8573d6000803e3d6000fd5b505050506040513d6000823e3d601f19601f820116820180604052508101906116119190615991565b90508173ffffffffffffffffffffffffffffffffffffffff1663363db5c6848360018e8060e001906116439190615706565b905061164f9190615a09565b815181106116605761165f6156c8565b5b60200260200101518d8060e001906116789190615706565b8f60000160016004811061168f5761168e6156c8565b5b6020020160208101906116a291906152dc565b6040518663ffffffff1660e01b81526004016116c2959493929190615dab565b6020604051808303816000875af11580156116e1573d6000803e3d6000fd5b505050506040513d601f19601f8201168201806040525081019061170591906157a7565b98508960000160016004811061171e5761171d6156c8565b5b60200201602081019061173191906152dc565b73ffffffffffffffffffffffffffffffffffffffff168a60000160006004811061175e5761175d6156c8565b5b60200201602081019061177191906152dc565b73ffffffffffffffffffffffffffffffffffffffff167f21f34002cdf6729881e8fb2897e3f2ac7547910b6d6e6eeaf6b2076d4396caec8c6000016002600481106117bf576117be6156c8565b5b6020020160208101906117d291906152dc565b8c876040516117e393929190615df9565b60405180910390a350505050505050506001600081905550919050565b600160009054906101000a900473ffffffffffffffffffffffffffffffffffffffff1673ffffffffffffffffffffffffffffffffffffffff163373ffffffffffffffffffffffffffffffffffffffff1614611890576040517f08c379a000000000000000000000000000000000000000000000000000000000815260040161188790615afa565b60405180910390fd5b600073ffffffffffffffffffffffffffffffffffffffff168273ffffffffffffffffffffffffffffffffffffffff161415611900576040517f08c379a00000000000000000000000000000000000000000000000000000000081526004016118f790615ea2565b60405180910390fd5b61194d600160009054906101000a900473ffffffffffffffffffffffffffffffffffffffff16828473ffffffffffffffffffffffffffffffffffffffff16614d1b9092919063ffffffff16565b5050565b600060026000541415611999576040517f08c379a000000000000000000000000000000000000000000000000000000000815260040161199090615bd2565b60405180910390fd5b6002600081905550600073ffffffffffffffffffffffffffffffffffffffff16826000016002600481106119d0576119cf6156c8565b5b6020020160208101906119e391906152dc565b73ffffffffffffffffffffffffffffffffffffffff161415611a3a576040517f08c379a0000000000000000000000000000000000000000000000000000000008152600401611a3190615c64565b60405180910390fd5b81600001600060048110611a5157611a506156c8565b5b602002016020810190611a6491906152dc565b73ffffffffffffffffffffffffffffffffffffffff1663dd62ed3e33306040518363ffffffff1660e01b8152600401611a9e929190615c84565b602060405180830381865afa158015611abb573d6000803e3d6000fd5b505050506040513d601f19601f82011682018060405250810190611adf91906157a7565b82608001600060038110611af657611af56156c8565b5b60200201351115611b3c576040517f08c379a0000000000000000000000000000000000000000000000000000000008152600401611b3390615d1f565b60405180910390fd5b600082600001600060048110611b5557611b546156c8565b5b602002016020810190611b6891906152dc565b9050611bdb333085608001600060038110611b8657611b856156c8565b5b602002013586600001600060048110611ba257611ba16156c8565b5b602002016020810190611bb591906152dc565b73ffffffffffffffffffffffffffffffffffffffff16614a86909392919063ffffffff16565b611c4a8184608001600060038110611bf657611bf56156c8565b5b602002013585600001600060048110611c1257611c116156c8565b5b602002016020810190611c2591906152dc565b73ffffffffffffffffffffffffffffffffffffffff16614b0f9092919063ffffffff16565b60008173ffffffffffffffffffffffffffffffffffffffff16631298926085608001600060038110611c7f57611c7e6156c8565b5b602002013586608001600260038110611c9b57611c9a6156c8565b5b60200201356040518363ffffffff1660e01b8152600401611cbd92919061569f565b6020604051808303816000875af1158015611cdc573d6000803e3d6000fd5b505050506040513d601f19601f82011682018060405250810190611d0091906157a7565b90506000848060e00190611d149190615706565b6000818110611d2657611d256156c8565b5b9050602002016020810190611d3b91906152dc565b9050600080611d9b846040518060400160405280600781526020017f554e5354414b450000000000000000000000000000000000000000000000000081525089608001600160038110611d9157611d906156c8565b5b6020020135614757565b91509150600073ffffffffffffffffffffffffffffffffffffffff1687600001600260048110611dce57611dcd6156c8565b5b602002016020810190611de191906152dc565b73ffffffffffffffffffffffffffffffffffffffff16146120b557611eb481600460008a600001600260048110611e1b57611e1a6156c8565b5b602002016020810190611e2e91906152dc565b73ffffffffffffffffffffffffffffffffffffffff1673ffffffffffffffffffffffffffffffffffffffff16815260200190815260200160002060008673ffffffffffffffffffffffffffffffffffffffff1673ffffffffffffffffffffffffffffffffffffffff16815260200190815260200160002054614a5a90919063ffffffff16565b6004600089600001600260048110611ecf57611ece6156c8565b5b602002016020810190611ee291906152dc565b73ffffffffffffffffffffffffffffffffffffffff1673ffffffffffffffffffffffffffffffffffffffff16815260200190815260200160002060008573ffffffffffffffffffffffffffffffffffffffff1673ffffffffffffffffffffffffffffffffffffffff1681526020019081526020016000208190555061200e8260046000600160009054906101000a900473ffffffffffffffffffffffffffffffffffffffff1673ffffffffffffffffffffffffffffffffffffffff1673ffffffffffffffffffffffffffffffffffffffff16815260200190815260200160002060008673ffffffffffffffffffffffffffffffffffffffff1673ffffffffffffffffffffffffffffffffffffffff16815260200190815260200160002054614a5a90919063ffffffff16565b60046000600160009054906101000a900473ffffffffffffffffffffffffffffffffffffffff1673ffffffffffffffffffffffffffffffffffffffff1673ffffffffffffffffffffffffffffffffffffffff16815260200190815260200160002060008573ffffffffffffffffffffffffffffffffffffffff1673ffffffffffffffffffffffffffffffffffffffff16815260200190815260200160002081905550612212565b61216f6120c28383614c5e565b60046000600160009054906101000a900473ffffffffffffffffffffffffffffffffffffffff1673ffffffffffffffffffffffffffffffffffffffff1673ffffffffffffffffffffffffffffffffffffffff16815260200190815260200160002060008673ffffffffffffffffffffffffffffffffffffffff1673ffffffffffffffffffffffffffffffffffffffff16815260200190815260200160002054614a5a90919063ffffffff16565b60046000600160009054906101000a900473ffffffffffffffffffffffffffffffffffffffff1673ffffffffffffffffffffffffffffffffffffffff1673ffffffffffffffffffffffffffffffffffffffff16815260200190815260200160002060008573ffffffffffffffffffffffffffffffffffffffff1673ffffffffffffffffffffffffffffffffffffffff168152602001908152602001600020819055505b6000612227856122228585614c5e565b614cbc565b90506001888060e0019061223b9190615706565b90501115612455576122978860000160036004811061225d5761225c6156c8565b5b60200201602081019061227091906152dc565b828673ffffffffffffffffffffffffffffffffffffffff16614b0f9092919063ffffffff16565b6000886000016003600481106122b0576122af6156c8565b5b6020020160208101906122c391906152dc565b905060008173ffffffffffffffffffffffffffffffffffffffff1663d06ca61f848c8060e001906122f49190615706565b6040518463ffffffff1660e01b815260040161231293929190615897565b600060405180830381865afa15801561232f573d6000803e3d6000fd5b505050506040513d6000823e3d601f19601f820116820180604052508101906123589190615991565b90508173ffffffffffffffffffffffffffffffffffffffff1663472b43f3848360018e8060e0019061238a9190615706565b90506123969190615a09565b815181106123a7576123a66156c8565b5b60200260200101518d8060e001906123bf9190615706565b8f6000016001600481106123d6576123d56156c8565b5b6020020160208101906123e991906152dc565b6040518663ffffffff1660e01b8152600401612409959493929190615dab565b6020604051808303816000875af1158015612428573d6000803e3d6000fd5b505050506040513d601f19601f8201168201806040525081019061244c91906157a7565b985050506124aa565b6124a98860000160016004811061246f5761246e6156c8565b5b60200201602081019061248291906152dc565b828673ffffffffffffffffffffffffffffffffffffffff16614d1b9092919063ffffffff16565b5b876000016001600481106124c1576124c06156c8565b5b6020020160208101906124d491906152dc565b73ffffffffffffffffffffffffffffffffffffffff16888060e001906124fa9190615706565b600081811061250c5761250b6156c8565b5b905060200201602081019061252191906152dc565b73ffffffffffffffffffffffffffffffffffffffff168960000160006004811061254e5761254d6156c8565b5b60200201602081019061256191906152dc565b73ffffffffffffffffffffffffffffffffffffffff167f1027ffcf3a7a994eaed678fe5a9c4c08f9514c3b2b527c48bb41508607f62d918b6000016002600481106125af576125ae6156c8565b5b6020020160208101906125c291906152dc565b8c6080016000600381106125d9576125d86156c8565b5b6020020135866040516125ee93929190615df9565b60405180910390a45050505050506001600081905550919050565b60008060008084608001600060038110612626576126256156c8565b5b602002013590506001858060e0019061263f9190615706565b90501115612752576000856000016003600481106126605761265f6156c8565b5b60200201602081019061267391906152dc565b905060008173ffffffffffffffffffffffffffffffffffffffff1663d06ca61f886080016000600381106126aa576126a96156c8565b5b6020020135898060e001906126bf9190615706565b6040518463ffffffff1660e01b81526004016126dd93929190615897565b600060405180830381865afa1580156126fa573d6000803e3d6000fd5b505050506040513d6000823e3d601f19601f820116820180604052508101906127239190615991565b905080600182516127349190615a09565b81518110612745576127446156c8565b5b6020026020010151925050505b6127ad816040518060400160405280600581526020017f5354414b45000000000000000000000000000000000000000000000000000000815250876080016001600381106127a3576127a26156c8565b5b6020020135614757565b809350819450505060006127dc6127cd8486614a5a90919063ffffffff16565b83614a7090919063ffffffff16565b90506000866000016000600481106127f7576127f66156c8565b5b60200201602081019061280a91906152dc565b90508073ffffffffffffffffffffffffffffffffffffffff16633950b3fd888060e001906128389190615706565b60018b8060e0019061284a9190615706565b90506128569190615a09565b818110612866576128656156c8565b5b905060200201602081019061287b91906152dc565b846040518363ffffffff1660e01b8152600401612899929190615769565b602060405180830381865afa1580156128b6573d6000803e3d6000fd5b505050506040513d601f19601f820116820180604052508101906128da91906157a7565b95505050509193909250565b600181565b6001670de0b6b3a764000060026129029190615ec2565b61290c9190615a09565b81565b600060026000541415612957576040517f08c379a000000000000000000000000000000000000000000000000000000000815260040161294e90615bd2565b60405180910390fd5b6002600081905550600073ffffffffffffffffffffffffffffffffffffffff168260000160026004811061298e5761298d6156c8565b5b6020020160208101906129a191906152dc565b73ffffffffffffffffffffffffffffffffffffffff1614156129f8576040517f08c379a00000000000000000000000000000000000000000000000000000000081526004016129ef90615c64565b60405180910390fd5b6001828060e00190612a0a9190615706565b905011612a4c576040517f08c379a0000000000000000000000000000000000000000000000000000000008152600401612a4390615d8b565b60405180910390fd5b600082600001600360048110612a6557612a646156c8565b5b602002016020810190612a7891906152dc565b90506000838060e00190612a8c9190615706565b6001868060e00190612a9e9190615706565b9050612aaa9190615a09565b818110612aba57612ab96156c8565b5b9050602002016020810190612acf91906152dc565b9050600084600001600060048110612aea57612ae96156c8565b5b602002016020810190612afd91906152dc565b905060008373ffffffffffffffffffffffffffffffffffffffff1663d06ca61f34888060e00190612b2e9190615706565b6040518463ffffffff1660e01b8152600401612b4c93929190615897565b600060405180830381865afa158015612b69573d6000803e3d6000fd5b505050506040513d6000823e3d601f19601f82011682018060405250810190612b929190615991565b905060008473ffffffffffffffffffffffffffffffffffffffff166312c6442f348460018b8060e00190612bc69190615706565b9050612bd29190615a09565b81518110612be357612be26156c8565b5b60200260200101518a8060e00190612bfb9190615706565b306040518663ffffffff1660e01b8152600401612c1b9493929190615f1c565b60206040518083038185885af1158015612c39573d6000803e3d6000fd5b50505050506040513d601f19601f82011682018060405250810190612c5e91906157a7565b9050600080612cbe836040518060400160405280600581526020017f5354414b450000000000000000000000000000000000000000000000000000008152508b608001600160038110612cb457612cb36156c8565b5b6020020135614757565b91509150600073ffffffffffffffffffffffffffffffffffffffff1689600001600260048110612cf157612cf06156c8565b5b602002016020810190612d0491906152dc565b73ffffffffffffffffffffffffffffffffffffffff1614612fd857612dd781600460008c600001600260048110612d3e57612d3d6156c8565b5b602002016020810190612d5191906152dc565b73ffffffffffffffffffffffffffffffffffffffff1673ffffffffffffffffffffffffffffffffffffffff16815260200190815260200160002060008973ffffffffffffffffffffffffffffffffffffffff1673ffffffffffffffffffffffffffffffffffffffff16815260200190815260200160002054614a5a90919063ffffffff16565b600460008b600001600260048110612df257612df16156c8565b5b602002016020810190612e0591906152dc565b73ffffffffffffffffffffffffffffffffffffffff1673ffffffffffffffffffffffffffffffffffffffff16815260200190815260200160002060008873ffffffffffffffffffffffffffffffffffffffff1673ffffffffffffffffffffffffffffffffffffffff16815260200190815260200160002081905550612f318260046000600160009054906101000a900473ffffffffffffffffffffffffffffffffffffffff1673ffffffffffffffffffffffffffffffffffffffff1673ffffffffffffffffffffffffffffffffffffffff16815260200190815260200160002060008973ffffffffffffffffffffffffffffffffffffffff1673ffffffffffffffffffffffffffffffffffffffff16815260200190815260200160002054614a5a90919063ffffffff16565b60046000600160009054906101000a900473ffffffffffffffffffffffffffffffffffffffff1673ffffffffffffffffffffffffffffffffffffffff1673ffffffffffffffffffffffffffffffffffffffff16815260200190815260200160002060008873ffffffffffffffffffffffffffffffffffffffff1673ffffffffffffffffffffffffffffffffffffffff16815260200190815260200160002081905550613135565b613092612fe58383614c5e565b60046000600160009054906101000a900473ffffffffffffffffffffffffffffffffffffffff1673ffffffffffffffffffffffffffffffffffffffff1673ffffffffffffffffffffffffffffffffffffffff16815260200190815260200160002060008973ffffffffffffffffffffffffffffffffffffffff1673ffffffffffffffffffffffffffffffffffffffff16815260200190815260200160002054614a5a90919063ffffffff16565b60046000600160009054906101000a900473ffffffffffffffffffffffffffffffffffffffff1673ffffffffffffffffffffffffffffffffffffffff1673ffffffffffffffffffffffffffffffffffffffff16815260200190815260200160002060008873ffffffffffffffffffffffffffffffffffffffff1673ffffffffffffffffffffffffffffffffffffffff168152602001908152602001600020819055505b600061314a846131458585614c5e565b614cbc565b905061317786828973ffffffffffffffffffffffffffffffffffffffff16614b0f9092919063ffffffff16565b8573ffffffffffffffffffffffffffffffffffffffff16638329ab33828c6080016002600381106131ab576131aa6156c8565b5b60200201356040518363ffffffff1660e01b81526004016131cd92919061569f565b6020604051808303816000875af11580156131ec573d6000803e3d6000fd5b505050506040513d601f19601f8201168201806040525081019061321091906157a7565b985061328f8a60000160016004811061322c5761322b6156c8565b5b60200201602081019061323f91906152dc565b8a8c600001600060048110613257576132566156c8565b5b60200201602081019061326a91906152dc565b73ffffffffffffffffffffffffffffffffffffffff16614d1b9092919063ffffffff16565b896000016001600481106132a6576132a56156c8565b5b6020020160208101906132b991906152dc565b73ffffffffffffffffffffffffffffffffffffffff168a6000016000600481106132e6576132e56156c8565b5b6020020160208101906132f991906152dc565b73ffffffffffffffffffffffffffffffffffffffff167f9910ecaf42f056af81719fea3ce6fbc87dd3e3241b1d94e61e53be0148d05cb58c600001600260048110613347576133466156c8565b5b60200201602081019061335a91906152dc565b348560405161336b93929190615df9565b60405180910390a350505050505050506001600081905550919050565b670de0b6b3a764000081565b60036020528060005260406000206000915090505481565b6000600260005414156133f4576040517f08c379a00000000000000000000000000000000000000000000000000000000081526004016133eb90615bd2565b60405180910390fd5b6002600081905550600073ffffffffffffffffffffffffffffffffffffffff168260000160026004811061342b5761342a6156c8565b5b60200201602081019061343e91906152dc565b73ffffffffffffffffffffffffffffffffffffffff161415613495576040517f08c379a000000000000000000000000000000000000000000000000000000000815260040161348c90615c64565b60405180910390fd5b818060e001906134a59190615706565b60008181106134b7576134b66156c8565b5b90506020020160208101906134cc91906152dc565b73ffffffffffffffffffffffffffffffffffffffff1663dd62ed3e33306040518363ffffffff1660e01b8152600401613506929190615c84565b602060405180830381865afa158015613523573d6000803e3d6000fd5b505050506040513d601f19601f8201168201806040525081019061354791906157a7565b8260800160006003811061355e5761355d6156c8565b5b602002013511156135a4576040517f08c379a000000000000000000000000000000000000000000000000000000000815260040161359b90615d1f565b60405180910390fd5b6000828060e001906135b69190615706565b6001858060e001906135c89190615706565b90506135d49190615a09565b8181106135e4576135e36156c8565b5b90506020020160208101906135f991906152dc565b9050600083608001600060038110613614576136136156c8565b5b6020020135905083608001600060038110613632576136316156c8565b5b6020020135848060e001906136479190615706565b6000818110613659576136586156c8565b5b905060200201602081019061366e91906152dc565b73ffffffffffffffffffffffffffffffffffffffff166370a08231336040518263ffffffff1660e01b81526004016136a69190615295565b602060405180830381865afa1580156136c3573d6000803e3d6000fd5b505050506040513d601f19601f820116820180604052508101906136e791906157a7565b1015613728576040517f08c379a000000000000000000000000000000000000000000000000000000000815260040161371f90615fce565b60405180910390fd5b6137a6333086608001600060038110613744576137436156c8565b5b6020020135878060e001906137599190615706565b600081811061376b5761376a6156c8565b5b905060200201602081019061378091906152dc565b73ffffffffffffffffffffffffffffffffffffffff16614a86909392919063ffffffff16565b6001848060e001906137b89190615706565b90501115613a2c576000846000016003600481106137d9576137d86156c8565b5b6020020160208101906137ec91906152dc565b905060008173ffffffffffffffffffffffffffffffffffffffff1663d06ca61f87608001600060038110613823576138226156c8565b5b6020020135888060e001906138389190615706565b6040518463ffffffff1660e01b815260040161385693929190615897565b600060405180830381865afa158015613873573d6000803e3d6000fd5b505050506040513d6000823e3d601f19601f8201168201806040525081019061389c9190615991565b9050613943866000016003600481106138b8576138b76156c8565b5b6020020160208101906138cb91906152dc565b876080016000600381106138e2576138e16156c8565b5b6020020135888060e001906138f79190615706565b6000818110613909576139086156c8565b5b905060200201602081019061391e91906152dc565b73ffffffffffffffffffffffffffffffffffffffff16614b0f9092919063ffffffff16565b8173ffffffffffffffffffffffffffffffffffffffff1663472b43f387608001600060038110613976576139756156c8565b5b60200201358360018a8060e0019061398e9190615706565b905061399a9190615a09565b815181106139ab576139aa6156c8565b5b6020026020010151898060e001906139c39190615706565b306040518663ffffffff1660e01b81526004016139e4959493929190615dab565b6020604051808303816000875af1158015613a03573d6000803e3d6000fd5b505050506040513d601f19601f82011682018060405250810190613a2791906157a7565b925050505b600080613a8a836040518060400160405280600581526020017f5354414b4500000000000000000000000000000000000000000000000000000081525088608001600160038110613a8057613a7f6156c8565b5b6020020135614757565b91509150600073ffffffffffffffffffffffffffffffffffffffff1686600001600260048110613abd57613abc6156c8565b5b602002016020810190613ad091906152dc565b73ffffffffffffffffffffffffffffffffffffffff1614613da457613ba3816004600089600001600260048110613b0a57613b096156c8565b5b602002016020810190613b1d91906152dc565b73ffffffffffffffffffffffffffffffffffffffff1673ffffffffffffffffffffffffffffffffffffffff16815260200190815260200160002060008773ffffffffffffffffffffffffffffffffffffffff1673ffffffffffffffffffffffffffffffffffffffff16815260200190815260200160002054614a5a90919063ffffffff16565b6004600088600001600260048110613bbe57613bbd6156c8565b5b602002016020810190613bd191906152dc565b73ffffffffffffffffffffffffffffffffffffffff1673ffffffffffffffffffffffffffffffffffffffff16815260200190815260200160002060008673ffffffffffffffffffffffffffffffffffffffff1673ffffffffffffffffffffffffffffffffffffffff16815260200190815260200160002081905550613cfd8260046000600160009054906101000a900473ffffffffffffffffffffffffffffffffffffffff1673ffffffffffffffffffffffffffffffffffffffff1673ffffffffffffffffffffffffffffffffffffffff16815260200190815260200160002060008773ffffffffffffffffffffffffffffffffffffffff1673ffffffffffffffffffffffffffffffffffffffff16815260200190815260200160002054614a5a90919063ffffffff16565b60046000600160009054906101000a900473ffffffffffffffffffffffffffffffffffffffff1673ffffffffffffffffffffffffffffffffffffffff1673ffffffffffffffffffffffffffffffffffffffff16815260200190815260200160002060008673ffffffffffffffffffffffffffffffffffffffff1673ffffffffffffffffffffffffffffffffffffffff16815260200190815260200160002081905550613f01565b613e5e613db18383614c5e565b60046000600160009054906101000a900473ffffffffffffffffffffffffffffffffffffffff1673ffffffffffffffffffffffffffffffffffffffff1673ffffffffffffffffffffffffffffffffffffffff16815260200190815260200160002060008773ffffffffffffffffffffffffffffffffffffffff1673ffffffffffffffffffffffffffffffffffffffff16815260200190815260200160002054614a5a90919063ffffffff16565b60046000600160009054906101000a900473ffffffffffffffffffffffffffffffffffffffff1673ffffffffffffffffffffffffffffffffffffffff1673ffffffffffffffffffffffffffffffffffffffff16815260200190815260200160002060008673ffffffffffffffffffffffffffffffffffffffff1673ffffffffffffffffffffffffffffffffffffffff168152602001908152602001600020819055505b6000613f1684613f118585614c5e565b614cbc565b9050600087600001600060048110613f3157613f306156c8565b5b602002016020810190613f4491906152dc565b9050613f9a88600001600060048110613f6057613f5f6156c8565b5b602002016020810190613f7391906152dc565b838873ffffffffffffffffffffffffffffffffffffffff16614b0f9092919063ffffffff16565b8073ffffffffffffffffffffffffffffffffffffffff16638329ab33838a608001600260038110613fce57613fcd6156c8565b5b60200201356040518363ffffffff1660e01b8152600401613ff092919061569f565b6020604051808303816000875af115801561400f573d6000803e3d6000fd5b505050506040513d601f19601f8201168201806040525081019061403391906157a7565b96506140b28860000160016004811061404f5761404e6156c8565b5b60200201602081019061406291906152dc565b888a60000160006004811061407a576140796156c8565b5b60200201602081019061408d91906152dc565b73ffffffffffffffffffffffffffffffffffffffff16614d1b9092919063ffffffff16565b876000016001600481106140c9576140c86156c8565b5b6020020160208101906140dc91906152dc565b73ffffffffffffffffffffffffffffffffffffffff16888060e001906141029190615706565b6000818110614114576141136156c8565b5b905060200201602081019061412991906152dc565b73ffffffffffffffffffffffffffffffffffffffff1689600001600060048110614156576141556156c8565b5b60200201602081019061416991906152dc565b73ffffffffffffffffffffffffffffffffffffffff167f9741dda0fcdfbb5d6b679f62c97ae5835e4325962f36cc9e6731a6476d5421358b6000016002600481106141b7576141b66156c8565b5b6020020160208101906141ca91906152dc565b8c6080016000600381106141e1576141e06156c8565b5b6020020135876040516141f693929190615df9565b60405180910390a45050505050506001600081905550919050565b6000806000808460800160026003811061422e5761422d6156c8565b5b602002013590506001858060e001906142479190615706565b9050111561434e57600085600001600360048110614268576142676156c8565b5b60200201602081019061427b91906152dc565b905060008173ffffffffffffffffffffffffffffffffffffffff16631f00ca74886080016002600381106142b2576142b16156c8565b5b6020020135898060e001906142c79190615706565b6040518463ffffffff1660e01b81526004016142e593929190615897565b600060405180830381865afa158015614302573d6000803e3d6000fd5b505050506040513d6000823e3d601f19601f8201168201806040525081019061432b9190615991565b905080600081518110614341576143406156c8565b5b6020026020010151925050505b6143a9816040518060400160405280600581526020017f5354414b450000000000000000000000000000000000000000000000000000008152508760800160016003811061439f5761439e6156c8565b5b6020020135614757565b809350819450505060006143d86143c98486614a5a90919063ffffffff16565b83614a5a90919063ffffffff16565b90506000866000016000600481106143f3576143f26156c8565b5b60200201602081019061440691906152dc565b90508073ffffffffffffffffffffffffffffffffffffffff1663a3b3a16d888060e001906144349190615706565b6000818110614446576144456156c8565b5b905060200201602081019061445b91906152dc565b846040518363ffffffff1660e01b8152600401614479929190615769565b602060405180830381865afa158015614496573d6000803e3d6000fd5b505050506040513d601f19601f820116820180604052508101906144ba91906157a7565b95505050509193909250565b6004602052816000526040600020602052806000526040600020600091509150505481565b6000806144f783614da1565b90506003600082815260200190815260200160002054915050919050565b600160009054906101000a900473ffffffffffffffffffffffffffffffffffffffff1673ffffffffffffffffffffffffffffffffffffffff163373ffffffffffffffffffffffffffffffffffffffff16146145a5576040517f08c379a000000000000000000000000000000000000000000000000000000000815260040161459c90615afa565b60405180910390fd5b6000600160009054906101000a900473ffffffffffffffffffffffffffffffffffffffff1673ffffffffffffffffffffffffffffffffffffffff16826040516145ed9061601f565b60006040518083038185875af1925050503d806000811461462a576040519150601f19603f3d011682016040523d82523d6000602084013e61462f565b606091505b5050905080614673576040517f08c379a000000000000000000000000000000000000000000000000000000000815260040161466a90616080565b60405180910390fd5b5050565b600160009054906101000a900473ffffffffffffffffffffffffffffffffffffffff1673ffffffffffffffffffffffffffffffffffffffff163373ffffffffffffffffffffffffffffffffffffffff1614614707576040517f08c379a00000000000000000000000000000000000000000000000000000000081526004016146fe90615afa565b60405180910390fd5b600061471283614da1565b9050816003600083815260200190815260200160002081905550505050565b600160009054906101000a900473ffffffffffffffffffffffffffffffffffffffff1681565b6000806000614765856144eb565b9050614779670de0b6b3a764000082614cbc565b8411156147bb576040517f08c379a00000000000000000000000000000000000000000000000000000000081526004016147b2906160ec565b60405180910390fd5b600081146147ea576147e7866147e2886147dd670de0b6b3a764000086614cbc565b614dcb565b614cbc565b92505b6000841461481957614816866148118861480c670de0b6b3a764000089614cbc565b614dcb565b614cbc565b91505b50935093915050565b60006002600054141561486a576040517f08c379a000000000000000000000000000000000000000000000000000000000815260040161486190615bd2565b60405180910390fd5b60026000819055506000839050600460008473ffffffffffffffffffffffffffffffffffffffff1673ffffffffffffffffffffffffffffffffffffffff16815260200190815260200160002060008573ffffffffffffffffffffffffffffffffffffffff1673ffffffffffffffffffffffffffffffffffffffff16815260200190815260200160002054915060008211614939576040517f08c379a000000000000000000000000000000000000000000000000000000000815260040161493090616158565b60405180910390fd5b6000600460008573ffffffffffffffffffffffffffffffffffffffff1673ffffffffffffffffffffffffffffffffffffffff16815260200190815260200160002060008673ffffffffffffffffffffffffffffffffffffffff1673ffffffffffffffffffffffffffffffffffffffff168152602001908152602001600020819055506149e683838373ffffffffffffffffffffffffffffffffffffffff16614d1b9092919063ffffffff16565b8373ffffffffffffffffffffffffffffffffffffffff168373ffffffffffffffffffffffffffffffffffffffff167f4931b6b0ef1b80f8ca6e6b27159d606870fbf438438d14aa8f01abb25e79eb1284604051614a439190615239565b60405180910390a350600160008190555092915050565b60008183614a689190616178565b905092915050565b60008183614a7e9190615a09565b905092915050565b614b09846323b872dd60e01b858585604051602401614aa7939291906161ce565b604051602081830303815290604052907bffffffffffffffffffffffffffffffffffffffffffffffffffffffff19166020820180517bffffffffffffffffffffffffffffffffffffffffffffffffffffffff8381831617835250505050614ebf565b50505050565b6000811480614b99575060008373ffffffffffffffffffffffffffffffffffffffff1663dd62ed3e30856040518363ffffffff1660e01b8152600401614b56929190615c84565b602060405180830381865afa158015614b73573d6000803e3d6000fd5b505050506040513d601f19601f82011682018060405250810190614b9791906157a7565b145b614bd8576040517f08c379a0000000000000000000000000000000000000000000000000000000008152600401614bcf90616277565b60405180910390fd5b614c598363095ea7b360e01b8484604051602401614bf7929190615769565b604051602081830303815290604052907bffffffffffffffffffffffffffffffffffffffffffffffffffffffff19166020820180517bffffffffffffffffffffffffffffffffffffffffffffffffffffffff8381831617835250505050614ebf565b505050565b6000808284614c6d9190616178565b905083811015614cb2576040517f08c379a0000000000000000000000000000000000000000000000000000000008152600401614ca9906162e3565b60405180910390fd5b8091505092915050565b6000806000614ccb8585614f86565b915091508015614d10576040517f08c379a0000000000000000000000000000000000000000000000000000000008152600401614d079061634f565b60405180910390fd5b819250505092915050565b614d9c8363a9059cbb60e01b8484604051602401614d3a929190615769565b604051602081830303815290604052907bffffffffffffffffffffffffffffffffffffffffffffffffffffffff19166020820180517bffffffffffffffffffffffffffffffffffffffffffffffffffffffff8381831617835250505050614ebf565b505050565b600080829050600081511415614dbd576000801b915050614dc6565b60208301519150505b919050565b6000808284614dda9190615ec2565b90506000841480614df55750828482614df39190615a6c565b145b614e34576040517f08c379a0000000000000000000000000000000000000000000000000000000008152600401614e2b906163bb565b60405180910390fd5b60006002670de0b6b3a7640000614e4b9190615a6c565b82614e569190616178565b905081811015614e9b576040517f08c379a0000000000000000000000000000000000000000000000000000000008152600401614e92906163bb565b60405180910390fd5b6000670de0b6b3a764000082614eb19190615a6c565b905080935050505092915050565b6000614f21826040518060400160405280602081526020017f5361666545524332303a206c6f772d6c6576656c2063616c6c206661696c65648152508573ffffffffffffffffffffffffffffffffffffffff16614fc19092919063ffffffff16565b9050600081511115614f815780806020019051810190614f419190616413565b614f80576040517f08c379a0000000000000000000000000000000000000000000000000000000008152600401614f77906164b2565b60405180910390fd5b5b505050565b600080828410614fa7578284614f9c9190615a09565b600091509150614fba565b8383614fb39190615a09565b6001915091505b9250929050565b6060614fd08484600085614fd9565b90509392505050565b60608247101561501e576040517f08c379a000000000000000000000000000000000000000000000000000000000815260040161501590616544565b60405180910390fd5b615027856150ed565b615066576040517f08c379a000000000000000000000000000000000000000000000000000000000815260040161505d906165b0565b60405180910390fd5b6000808673ffffffffffffffffffffffffffffffffffffffff16858760405161508f919061663f565b60006040518083038185875af1925050503d80600081146150cc576040519150601f19603f3d011682016040523d82523d6000602084013e6150d1565b606091505b50915091506150e1828286615100565b92505050949350505050565b600080823b905060008111915050919050565b6060831561511057829050615160565b6000835111156151235782518084602001fd5b816040517f08c379a0000000000000000000000000000000000000000000000000000000008152600401615157919061669a565b60405180910390fd5b9392505050565b6000604051905090565b600080fd5b600080fd5b600080fd5b600061010082840312156151975761519661517b565b5b81905092915050565b6000602082840312156151b6576151b5615171565b5b600082013567ffffffffffffffff8111156151d4576151d3615176565b5b6151e084828501615180565b91505092915050565b6000819050919050565b6151fc816151e9565b82525050565b600060608201905061521760008301866151f3565b61522460208301856151f3565b61523160408301846151f3565b949350505050565b600060208201905061524e60008301846151f3565b92915050565b600073ffffffffffffffffffffffffffffffffffffffff82169050919050565b600061527f82615254565b9050919050565b61528f81615274565b82525050565b60006020820190506152aa6000830184615286565b92915050565b6152b981615274565b81146152c457600080fd5b50565b6000813590506152d6816152b0565b92915050565b6000602082840312156152f2576152f1615171565b5b6000615300848285016152c7565b91505092915050565b615312816151e9565b811461531d57600080fd5b50565b60008135905061532f81615309565b92915050565b6000806040838503121561534c5761534b615171565b5b600061535a858286016152c7565b925050602061536b85828601615320565b9150509250929050565b6000819050919050565b61538881615375565b811461539357600080fd5b50565b6000813590506153a58161537f565b92915050565b6000602082840312156153c1576153c0615171565b5b60006153cf84828501615396565b91505092915050565b600080604083850312156153ef576153ee615171565b5b60006153fd858286016152c7565b925050602061540e858286016152c7565b9150509250929050565b600080fd5b600080fd5b6000601f19601f8301169050919050565b7f4e487b7100000000000000000000000000000000000000000000000000000000600052604160045260246000fd5b61546b82615422565b810181811067ffffffffffffffff8211171561548a57615489615433565b5b80604052505050565b600061549d615167565b90506154a98282615462565b919050565b600067ffffffffffffffff8211156154c9576154c8615433565b5b6154d282615422565b9050602081019050919050565b82818337600083830152505050565b60006155016154fc846154ae565b615493565b90508281526020810184848401111561551d5761551c61541d565b5b6155288482856154df565b509392505050565b600082601f83011261554557615544615418565b5b81356155558482602086016154ee565b91505092915050565b60006020828403121561557457615573615171565b5b600082013567ffffffffffffffff81111561559257615591615176565b5b61559e84828501615530565b91505092915050565b6000602082840312156155bd576155bc615171565b5b60006155cb84828501615320565b91505092915050565b600080604083850312156155eb576155ea615171565b5b600083013567ffffffffffffffff81111561560957615608615176565b5b61561585828601615530565b925050602061562685828601615320565b9150509250929050565b60008060006060848603121561564957615648615171565b5b600061565786828701615320565b935050602084013567ffffffffffffffff81111561567857615677615176565b5b61568486828701615530565b925050604061569586828701615320565b9150509250925092565b60006040820190506156b460008301856151f3565b6156c160208301846151f3565b9392505050565b7f4e487b7100000000000000000000000000000000000000000000000000000000600052603260045260246000fd5b600080fd5b600080fd5b600080fd5b60008083356001602003843603038112615723576157226156f7565b5b80840192508235915067ffffffffffffffff821115615745576157446156fc565b5b60208301925060208202360383131561576157615760615701565b5b509250929050565b600060408201905061577e6000830185615286565b61578b60208301846151f3565b9392505050565b6000815190506157a181615309565b92915050565b6000602082840312156157bd576157bc615171565b5b60006157cb84828501615792565b91505092915050565b600082825260208201905092915050565b6000819050919050565b6157f881615274565b82525050565b600061580a83836157ef565b60208301905092915050565b600061582560208401846152c7565b905092915050565b6000602082019050919050565b600061584683856157d4565b9350615851826157e5565b8060005b8581101561588a576158678284615816565b61587188826157fe565b975061587c8361582d565b925050600181019050615855565b5085925050509392505050565b60006040820190506158ac60008301866151f3565b81810360208301526158bf81848661583a565b9050949350505050565b600067ffffffffffffffff8211156158e4576158e3615433565b5b602082029050602081019050919050565b600080fd5b600061590d615908846158c9565b615493565b905080838252602082019050602084028301858111156159305761592f6158f5565b5b835b8181101561595957806159458882615792565b845260208401935050602081019050615932565b5050509392505050565b600082601f83011261597857615977615418565b5b81516159888482602086016158fa565b91505092915050565b6000602082840312156159a7576159a6615171565b5b600082015167ffffffffffffffff8111156159c5576159c4615176565b5b6159d184828501615963565b91505092915050565b7f4e487b7100000000000000000000000000000000000000000000000000000000600052601160045260246000fd5b6000615a14826151e9565b9150615a1f836151e9565b925082821015615a3257615a316159da565b5b828203905092915050565b7f4e487b7100000000000000000000000000000000000000000000000000000000600052601260045260246000fd5b6000615a77826151e9565b9150615a82836151e9565b925082615a9257615a91615a3d565b5b828204905092915050565b600082825260208201905092915050565b7f61646d696e206f6e6c7900000000000000000000000000000000000000000000600082015250565b6000615ae4600a83615a9d565b9150615aef82615aae565b602082019050919050565b60006020820190508181036000830152615b1381615ad7565b9050919050565b7f43616c6c6572206d757374206265207468652070656e64696e672061646d696e600082015250565b6000615b50602083615a9d565b9150615b5b82615b1a565b602082019050919050565b60006020820190508181036000830152615b7f81615b43565b9050919050565b7f5265656e7472616e637947756172643a207265656e7472616e742063616c6c00600082015250565b6000615bbc601f83615a9d565b9150615bc782615b86565b602082019050919050565b60006020820190508181036000830152615beb81615baf565b9050919050565b7f5374616b65526f757465723a2044657374696e6174696f6e206164647265737360008201527f206e6f742070726f766964656400000000000000000000000000000000000000602082015250565b6000615c4e602d83615a9d565b9150615c5982615bf2565b604082019050919050565b60006020820190508181036000830152615c7d81615c41565b9050919050565b6000604082019050615c996000830185615286565b615ca66020830184615286565b9392505050565b7f5374616b65526f757465723a204e6f7420656e6f75676820746f6b656e20616c60008201527f6c6f77616e636500000000000000000000000000000000000000000000000000602082015250565b6000615d09602783615a9d565b9150615d1482615cad565b604082019050919050565b60006020820190508181036000830152615d3881615cfc565b9050919050565b7f5374616b65526f757465723a205061746820746f6f2073686f72740000000000600082015250565b6000615d75601b83615a9d565b9150615d8082615d3f565b602082019050919050565b60006020820190508181036000830152615da481615d68565b9050919050565b6000608082019050615dc060008301886151f3565b615dcd60208301876151f3565b8181036040830152615de081858761583a565b9050615def6060830184615286565b9695505050505050565b6000606082019050615e0e6000830186615286565b615e1b60208301856151f3565b615e2860408301846151f3565b949350505050565b7f4665653a20696e76616c696420746f6b656e20636f6e7472616374206164647260008201527f6573730000000000000000000000000000000000000000000000000000000000602082015250565b6000615e8c602383615a9d565b9150615e9782615e30565b604082019050919050565b60006020820190508181036000830152615ebb81615e7f565b9050919050565b6000615ecd826151e9565b9150615ed8836151e9565b9250817fffffffffffffffffffffffffffffffffffffffffffffffffffffffffffffffff0483118215151615615f1157615f106159da565b5b828202905092915050565b6000606082019050615f3160008301876151f3565b8181036020830152615f4481858761583a565b9050615f536040830184615286565b95945050505050565b7f5374616b65526f757465723a204e6f7420656e6f75676820746f6b656e496e2060008201527f62616c616e636500000000000000000000000000000000000000000000000000602082015250565b6000615fb8602783615a9d565b9150615fc382615f5c565b604082019050919050565b60006020820190508181036000830152615fe781615fab565b9050919050565b600081905092915050565b50565b6000616009600083615fee565b915061601482615ff9565b600082019050919050565b600061602a82615ffc565b9150819050919050565b7f4665653a20556e61626c6520746f207769746864726177204554482000000000600082015250565b600061606a601c83615a9d565b915061607582616034565b602082019050919050565b600060208201905081810360008301526160998161605d565b9050919050565b7f4665653a20526566204665657320746f6f206869676800000000000000000000600082015250565b60006160d6601683615a9d565b91506160e1826160a0565b602082019050919050565b60006020820190508181036000830152616105816160c9565b9050919050565b7f5374616b65526f757465723a204e6f20746f6b656e7320746f20636c61696d00600082015250565b6000616142601f83615a9d565b915061614d8261610c565b602082019050919050565b6000602082019050818103600083015261617181616135565b9050919050565b6000616183826151e9565b915061618e836151e9565b9250827fffffffffffffffffffffffffffffffffffffffffffffffffffffffffffffffff038211156161c3576161c26159da565b5b828201905092915050565b60006060820190506161e36000830186615286565b6161f06020830185615286565b6161fd60408301846151f3565b949350505050565b7f5361666545524332303a20617070726f76652066726f6d206e6f6e2d7a65726f60008201527f20746f206e6f6e2d7a65726f20616c6c6f77616e636500000000000000000000602082015250565b6000616261603683615a9d565b915061626c82616205565b604082019050919050565b6000602082019050818103600083015261629081616254565b9050919050565b7f4552525f4144445f4f564552464c4f5700000000000000000000000000000000600082015250565b60006162cd601083615a9d565b91506162d882616297565b602082019050919050565b600060208201905081810360008301526162fc816162c0565b9050919050565b7f4552525f5355425f554e444552464c4f57000000000000000000000000000000600082015250565b6000616339601183615a9d565b915061634482616303565b602082019050919050565b600060208201905081810360008301526163688161632c565b9050919050565b7f4552525f4d554c5f4f564552464c4f5700000000000000000000000000000000600082015250565b60006163a5601083615a9d565b91506163b08261636f565b602082019050919050565b600060208201905081810360008301526163d481616398565b9050919050565b60008115159050919050565b6163f0816163db565b81146163fb57600080fd5b50565b60008151905061640d816163e7565b92915050565b60006020828403121561642957616428615171565b5b6000616437848285016163fe565b91505092915050565b7f5361666545524332303a204552433230206f7065726174696f6e20646964206e60008201527f6f74207375636365656400000000000000000000000000000000000000000000602082015250565b600061649c602a83615a9d565b91506164a782616440565b604082019050919050565b600060208201905081810360008301526164cb8161648f565b9050919050565b7f416464726573733a20696e73756666696369656e742062616c616e636520666f60008201527f722063616c6c0000000000000000000000000000000000000000000000000000602082015250565b600061652e602683615a9d565b9150616539826164d2565b604082019050919050565b6000602082019050818103600083015261655d81616521565b9050919050565b7f416464726573733a2063616c6c20746f206e6f6e2d636f6e7472616374000000600082015250565b600061659a601d83615a9d565b91506165a582616564565b602082019050919050565b600060208201905081810360008301526165c98161658d565b9050919050565b600081519050919050565b60005b838110156165f95780820151818401526020810190506165de565b83811115616608576000848401525b50505050565b6000616619826165d0565b6166238185615fee565b93506166338185602086016165db565b80840191505092915050565b600061664b828461660e565b915081905092915050565b600081519050919050565b600061666c82616656565b6166768185615a9d565b93506166868185602086016165db565b61668f81615422565b840191505092915050565b600060208201905081810360008301526166b48184616661565b90509291505056fea2646970667358221220799291aab09ab0624328316408d8841aa51094fe48eca751f9553c2ffa050a9164736f6c634300080c0033",
  "linkReferences": {},
  "deployedLinkReferences": {}
}