{
  "_format": "hh-sol-artifact-1",
  "contractName": "FeeCalc",
  "sourceName": "contracts/defi/utils/FeeCalc.sol",
  "abi": [
    {
      "inputs": [
        {
          "internalType": "address",
          "name": "_feeAdmin",
          "type": "address"
        }
      ],
      "stateMutability": "nonpayable",
      "type": "constructor"
    },
    {
      "inputs": [],
      "name": "BONE",
      "outputs": [
        {
          "internalType": "uint256",
          "name": "",
          "type": "uint256"
        }
      ],
      "stateMutability": "view",
      "type": "function"
    },
    {
      "inputs": [],
      "name": "MAX_INT",
      "outputs": [
        {
          "internalType": "uint256",
          "name": "",
          "type": "uint256"
        }
      ],
      "stateMutability": "view",
      "type": "function"
    },
    {
      "inputs": [],
      "name": "STAKE_FEE_TYPE",
      "outputs": [
        {
          "internalType": "string",
          "name": "",
          "type": "string"
        }
      ],
      "stateMutability": "view",
      "type": "function"
    },
    {
      "inputs": [],
      "name": "TRADE_FEE_TYPE",
      "outputs": [
        {
          "internalType": "string",
          "name": "",
          "type": "string"
        }
      ],
      "stateMutability": "view",
      "type": "function"
    },
    {
      "inputs": [],
      "name": "UNSTAKE_FEE_TYPE",
      "outputs": [
        {
          "internalType": "string",
          "name": "",
          "type": "string"
        }
      ],
      "stateMutability": "view",
      "type": "function"
    },
    {
      "inputs": [],
      "name": "ZERO_FEES",
      "outputs": [
        {
          "internalType": "uint256",
          "name": "",
          "type": "uint256"
        }
      ],
      "stateMutability": "view",
      "type": "function"
    },
    {
      "inputs": [
        {
          "internalType": "uint256",
          "name": "baseAmount",
          "type": "uint256"
        },
        {
          "internalType": "string",
          "name": "feeType",
          "type": "string"
        },
        {
          "internalType": "uint256",
          "name": "refFeeRate",
          "type": "uint256"
        }
      ],
      "name": "calcFees",
      "outputs": [
        {
          "internalType": "uint256",
          "name": "dataxFee",
          "type": "uint256"
        },
        {
          "internalType": "uint256",
          "name": "refFee",
          "type": "uint256"
        }
      ],
      "stateMutability": "view",
      "type": "function"
    }
  ],
  "bytecode": "0x608060405234801561001057600080fd5b506040516109c33803806109c3833981810160405281019061003291906100db565b806000806101000a81548173ffffffffffffffffffffffffffffffffffffffff021916908373ffffffffffffffffffffffffffffffffffffffff16021790555050610108565b600080fd5b600073ffffffffffffffffffffffffffffffffffffffff82169050919050565b60006100a88261007d565b9050919050565b6100b88161009d565b81146100c357600080fd5b50565b6000815190506100d5816100af565b92915050565b6000602082840312156100f1576100f0610078565b5b60006100ff848285016100c6565b91505092915050565b6108ac806101176000396000f3fe608060405234801561001057600080fd5b506004361061007d5760003560e01c80639cac5bc31161005b5780639cac5bc3146100dc578063c36596a6146100fa578063d09484c214610118578063f8702fe1146101365761007d565b8063098d322814610082578063220ab80c146100a05780632b6e01db146100be575b600080fd5b61008a610167565b6040516100979190610428565b60405180910390f35b6100a861018b565b6040516100b591906104dc565b60405180910390f35b6100c66101c4565b6040516100d39190610428565b60405180910390f35b6100e46101c9565b6040516100f191906104dc565b60405180910390f35b610102610202565b60405161010f9190610428565b60405180910390f35b61012061020e565b60405161012d91906104dc565b60405180910390f35b610150600480360381019061014b9190610673565b610247565b60405161015e9291906106e2565b60405180910390f35b7fffffffffffffffffffffffffffffffffffffffffffffffffffffffffffffffff81565b6040518060400160405280600581526020017f5354414b4500000000000000000000000000000000000000000000000000000081525081565b600081565b6040518060400160405280600581526020017f545241444500000000000000000000000000000000000000000000000000000081525081565b670de0b6b3a764000081565b6040518060400160405280600781526020017f554e5354414b450000000000000000000000000000000000000000000000000081525081565b60008060008060009054906101000a900473ffffffffffffffffffffffffffffffffffffffff1673ffffffffffffffffffffffffffffffffffffffff1663eb90b2bc866040518263ffffffff1660e01b81526004016102a691906104dc565b602060405180830381865afa1580156102c3573d6000803e3d6000fd5b505050506040513d601f19601f820116820180604052508101906102e79190610720565b905061030481670de0b6b3a76400006103e390919063ffffffff16565b841115610346576040517f08c379a000000000000000000000000000000000000000000000000000000000815260040161033d90610799565b60405180910390fd5b600081146103905761038d61037e61036f83670de0b6b3a76400006103e390919063ffffffff16565b886103f990919063ffffffff16565b876103e390919063ffffffff16565b92505b600084146103da576103d76103c86103b986670de0b6b3a76400006103e390919063ffffffff16565b886103f990919063ffffffff16565b876103e390919063ffffffff16565b91505b50935093915050565b600081836103f191906107e8565b905092915050565b60008183610407919061081c565b905092915050565b6000819050919050565b6104228161040f565b82525050565b600060208201905061043d6000830184610419565b92915050565b600081519050919050565b600082825260208201905092915050565b60005b8381101561047d578082015181840152602081019050610462565b8381111561048c576000848401525b50505050565b6000601f19601f8301169050919050565b60006104ae82610443565b6104b8818561044e565b93506104c881856020860161045f565b6104d181610492565b840191505092915050565b600060208201905081810360008301526104f681846104a3565b905092915050565b6000604051905090565b600080fd5b600080fd5b61051b8161040f565b811461052657600080fd5b50565b60008135905061053881610512565b92915050565b600080fd5b600080fd5b7f4e487b7100000000000000000000000000000000000000000000000000000000600052604160045260246000fd5b61058082610492565b810181811067ffffffffffffffff8211171561059f5761059e610548565b5b80604052505050565b60006105b26104fe565b90506105be8282610577565b919050565b600067ffffffffffffffff8211156105de576105dd610548565b5b6105e782610492565b9050602081019050919050565b82818337600083830152505050565b6000610616610611846105c3565b6105a8565b90508281526020810184848401111561063257610631610543565b5b61063d8482856105f4565b509392505050565b600082601f83011261065a5761065961053e565b5b813561066a848260208601610603565b91505092915050565b60008060006060848603121561068c5761068b610508565b5b600061069a86828701610529565b935050602084013567ffffffffffffffff8111156106bb576106ba61050d565b5b6106c786828701610645565b92505060406106d886828701610529565b9150509250925092565b60006040820190506106f76000830185610419565b6107046020830184610419565b9392505050565b60008151905061071a81610512565b92915050565b60006020828403121561073657610735610508565b5b60006107448482850161070b565b91505092915050565b7f4665653a20526566204665657320746f6f206869676800000000000000000000600082015250565b600061078360168361044e565b915061078e8261074d565b602082019050919050565b600060208201905081810360008301526107b281610776565b9050919050565b7f4e487b7100000000000000000000000000000000000000000000000000000000600052601160045260246000fd5b60006107f38261040f565b91506107fe8361040f565b925082821015610811576108106107b9565b5b828203905092915050565b60006108278261040f565b91506108328361040f565b9250817fffffffffffffffffffffffffffffffffffffffffffffffffffffffffffffffff048311821515161561086b5761086a6107b9565b5b82820290509291505056fea264697066735822122000e1f5ed979e9422c5f464f31e9b7a9591b3cc304871da8c3602a96ccc6db88b64736f6c634300080c0033",
  "linkReferences": {},
  "deployedLinkReferences": {}
}