{
  "_format": "hh-sol-artifact-1",
  "contractName": "FeeCalc",
  "sourceName": "contracts/defi/utils/FeeCalc.sol",
  "abi": [
    {
      "inputs": [
        {
          "internalType": "address",
          "name": "_feeAdmin",
          "type": "address"
        }
      ],
      "stateMutability": "nonpayable",
      "type": "constructor"
    },
    {
      "inputs": [],
      "name": "BONE",
      "outputs": [
        {
          "internalType": "uint256",
          "name": "",
          "type": "uint256"
        }
      ],
      "stateMutability": "view",
      "type": "function"
    },
    {
      "inputs": [],
      "name": "BPOW_PRECISION",
      "outputs": [
        {
          "internalType": "uint256",
          "name": "",
          "type": "uint256"
        }
      ],
      "stateMutability": "view",
      "type": "function"
    },
    {
      "inputs": [],
      "name": "MAX_BPOW_BASE",
      "outputs": [
        {
          "internalType": "uint256",
          "name": "",
          "type": "uint256"
        }
      ],
      "stateMutability": "view",
      "type": "function"
    },
    {
      "inputs": [],
      "name": "MAX_INT",
      "outputs": [
        {
          "internalType": "uint256",
          "name": "",
          "type": "uint256"
        }
      ],
      "stateMutability": "view",
      "type": "function"
    },
    {
      "inputs": [],
      "name": "MIN_BPOW_BASE",
      "outputs": [
        {
          "internalType": "uint256",
          "name": "",
          "type": "uint256"
        }
      ],
      "stateMutability": "view",
      "type": "function"
    },
    {
      "inputs": [],
      "name": "STAKE_FEE_TYPE",
      "outputs": [
        {
          "internalType": "string",
          "name": "",
          "type": "string"
        }
      ],
      "stateMutability": "view",
      "type": "function"
    },
    {
      "inputs": [],
      "name": "TRADE_FEE_TYPE",
      "outputs": [
        {
          "internalType": "string",
          "name": "",
          "type": "string"
        }
      ],
      "stateMutability": "view",
      "type": "function"
    },
    {
      "inputs": [],
      "name": "UNSTAKE_FEE_TYPE",
      "outputs": [
        {
          "internalType": "string",
          "name": "",
          "type": "string"
        }
      ],
      "stateMutability": "view",
      "type": "function"
    },
    {
      "inputs": [],
      "name": "ZERO_FEES",
      "outputs": [
        {
          "internalType": "uint256",
          "name": "",
          "type": "uint256"
        }
      ],
      "stateMutability": "view",
      "type": "function"
    },
    {
      "inputs": [
        {
          "internalType": "uint256",
          "name": "baseAmount",
          "type": "uint256"
        },
        {
          "internalType": "string",
          "name": "feeType",
          "type": "string"
        },
        {
          "internalType": "uint256",
          "name": "refFeeRate",
          "type": "uint256"
        }
      ],
      "name": "calcFees",
      "outputs": [
        {
          "internalType": "uint256",
          "name": "dataxFee",
          "type": "uint256"
        },
        {
          "internalType": "uint256",
          "name": "refFee",
          "type": "uint256"
        }
      ],
      "stateMutability": "view",
      "type": "function"
    }
  ],
  "bytecode": "0x608060405234801561001057600080fd5b50604051610f0d380380610f0d833981810160405281019061003291906100db565b806000806101000a81548173ffffffffffffffffffffffffffffffffffffffff021916908373ffffffffffffffffffffffffffffffffffffffff16021790555050610108565b600080fd5b600073ffffffffffffffffffffffffffffffffffffffff82169050919050565b60006100a88261007d565b9050919050565b6100b88161009d565b81146100c357600080fd5b50565b6000815190506100d5816100af565b92915050565b6000602082840312156100f1576100f0610078565b5b60006100ff848285016100c6565b91505092915050565b610df6806101176000396000f3fe608060405234801561001057600080fd5b506004361061009e5760003560e01c8063ba019dab11610066578063ba019dab14610139578063bc694ea214610157578063c36596a614610175578063d09484c214610193578063f8702fe1146101b15761009e565b8063098d3228146100a3578063189d00ca146100c1578063220ab80c146100df5780632b6e01db146100fd5780639cac5bc31461011b575b600080fd5b6100ab6101e2565b6040516100b891906107e4565b60405180910390f35b6100c9610206565b6040516100d691906107e4565b60405180910390f35b6100e7610222565b6040516100f49190610898565b60405180910390f35b61010561025b565b60405161011291906107e4565b60405180910390f35b610123610260565b6040516101309190610898565b60405180910390f35b610141610299565b60405161014e91906107e4565b60405180910390f35b61015f61029e565b60405161016c91906107e4565b60405180910390f35b61017d6102c2565b60405161018a91906107e4565b60405180910390f35b61019b6102ce565b6040516101a89190610898565b60405180910390f35b6101cb60048036038101906101c69190610a2f565b610307565b6040516101d9929190610a9e565b60405180910390f35b7fffffffffffffffffffffffffffffffffffffffffffffffffffffffffffffffff81565b6402540be400670de0b6b3a764000061021f9190610b25565b81565b6040518060400160405280600581526020017f5354414b4500000000000000000000000000000000000000000000000000000081525081565b600081565b6040518060400160405280600581526020017f545241444500000000000000000000000000000000000000000000000000000081525081565b600181565b6001670de0b6b3a764000060026102b59190610b56565b6102bf9190610bb0565b81565b670de0b6b3a764000081565b6040518060400160405280600781526020017f554e5354414b450000000000000000000000000000000000000000000000000081525081565b60008060008060009054906101000a900473ffffffffffffffffffffffffffffffffffffffff1673ffffffffffffffffffffffffffffffffffffffff1663eb90b2bc866040518263ffffffff1660e01b81526004016103669190610898565b602060405180830381865afa158015610383573d6000803e3d6000fd5b505050506040513d601f19601f820116820180604052508101906103a79190610bf9565b90506103c481670de0b6b3a764000061056590919063ffffffff16565b841115610406576040517f08c379a00000000000000000000000000000000000000000000000000000000081526004016103fd90610c72565b60405180910390fd5b6104446040518060400160405280600b81526020017f574520617265204f4b415900000000000000000000000000000000000000000081525061057b565b600081146104b1576104708661046b88610466670de0b6b3a764000086610614565b610673565b610614565b92506104b06040518060400160405280601581526020017f5745206d616e616765642044415441582066656573000000000000000000000081525061057b565b5b6000841461051e576104dd866104d8886104d3670de0b6b3a764000089610614565b610673565b610614565b915061051d6040518060400160405280601381526020017f5745206d616e616765642052454620666565730000000000000000000000000081525061057b565b5b61055c6040518060400160405280600f81526020017f57452061726520616c6c20676f6f64000000000000000000000000000000000081525061057b565b50935093915050565b600081836105739190610bb0565b905092915050565b6106118160405160240161058f9190610898565b6040516020818303038152906040527f41304fac000000000000000000000000000000000000000000000000000000007bffffffffffffffffffffffffffffffffffffffffffffffffffffffff19166020820180517bffffffffffffffffffffffffffffffffffffffffffffffffffffffff8381831617835250505050610767565b50565b60008060006106238585610790565b915091508015610668576040517f08c379a000000000000000000000000000000000000000000000000000000000815260040161065f90610cde565b60405180910390fd5b819250505092915050565b60008082846106829190610b56565b9050600084148061069d575082848261069b9190610b25565b145b6106dc576040517f08c379a00000000000000000000000000000000000000000000000000000000081526004016106d390610d4a565b60405180910390fd5b60006002670de0b6b3a76400006106f39190610b25565b826106fe9190610d6a565b905081811015610743576040517f08c379a000000000000000000000000000000000000000000000000000000000815260040161073a90610d4a565b60405180910390fd5b6000670de0b6b3a7640000826107599190610b25565b905080935050505092915050565b60008151905060006a636f6e736f6c652e6c6f679050602083016000808483855afa5050505050565b6000808284106107b15782846107a69190610bb0565b6000915091506107c4565b83836107bd9190610bb0565b6001915091505b9250929050565b6000819050919050565b6107de816107cb565b82525050565b60006020820190506107f960008301846107d5565b92915050565b600081519050919050565b600082825260208201905092915050565b60005b8381101561083957808201518184015260208101905061081e565b83811115610848576000848401525b50505050565b6000601f19601f8301169050919050565b600061086a826107ff565b610874818561080a565b935061088481856020860161081b565b61088d8161084e565b840191505092915050565b600060208201905081810360008301526108b2818461085f565b905092915050565b6000604051905090565b600080fd5b600080fd5b6108d7816107cb565b81146108e257600080fd5b50565b6000813590506108f4816108ce565b92915050565b600080fd5b600080fd5b7f4e487b7100000000000000000000000000000000000000000000000000000000600052604160045260246000fd5b61093c8261084e565b810181811067ffffffffffffffff8211171561095b5761095a610904565b5b80604052505050565b600061096e6108ba565b905061097a8282610933565b919050565b600067ffffffffffffffff82111561099a57610999610904565b5b6109a38261084e565b9050602081019050919050565b82818337600083830152505050565b60006109d26109cd8461097f565b610964565b9050828152602081018484840111156109ee576109ed6108ff565b5b6109f98482856109b0565b509392505050565b600082601f830112610a1657610a156108fa565b5b8135610a268482602086016109bf565b91505092915050565b600080600060608486031215610a4857610a476108c4565b5b6000610a56868287016108e5565b935050602084013567ffffffffffffffff811115610a7757610a766108c9565b5b610a8386828701610a01565b9250506040610a94868287016108e5565b9150509250925092565b6000604082019050610ab360008301856107d5565b610ac060208301846107d5565b9392505050565b7f4e487b7100000000000000000000000000000000000000000000000000000000600052601260045260246000fd5b7f4e487b7100000000000000000000000000000000000000000000000000000000600052601160045260246000fd5b6000610b30826107cb565b9150610b3b836107cb565b925082610b4b57610b4a610ac7565b5b828204905092915050565b6000610b61826107cb565b9150610b6c836107cb565b9250817fffffffffffffffffffffffffffffffffffffffffffffffffffffffffffffffff0483118215151615610ba557610ba4610af6565b5b828202905092915050565b6000610bbb826107cb565b9150610bc6836107cb565b925082821015610bd957610bd8610af6565b5b828203905092915050565b600081519050610bf3816108ce565b92915050565b600060208284031215610c0f57610c0e6108c4565b5b6000610c1d84828501610be4565b91505092915050565b7f4665653a20526566204665657320746f6f206869676800000000000000000000600082015250565b6000610c5c60168361080a565b9150610c6782610c26565b602082019050919050565b60006020820190508181036000830152610c8b81610c4f565b9050919050565b7f4552525f5355425f554e444552464c4f57000000000000000000000000000000600082015250565b6000610cc860118361080a565b9150610cd382610c92565b602082019050919050565b60006020820190508181036000830152610cf781610cbb565b9050919050565b7f4552525f4d554c5f4f564552464c4f5700000000000000000000000000000000600082015250565b6000610d3460108361080a565b9150610d3f82610cfe565b602082019050919050565b60006020820190508181036000830152610d6381610d27565b9050919050565b6000610d75826107cb565b9150610d80836107cb565b9250827fffffffffffffffffffffffffffffffffffffffffffffffffffffffffffffffff03821115610db557610db4610af6565b5b82820190509291505056fea26469706673582212203d488bad1e7eb4513dcfa20f725249c73170f008853cadcccb3b6b1757e6570464736f6c634300080c0033",
  "linkReferences": {},
  "deployedLinkReferences": {}
}