{
  "_format": "hh-sol-artifact-1",
  "contractName": "PoolRouter",
  "sourceName": "contracts/defi/routers/PoolRouter.sol",
  "abi": [
    {
      "inputs": [],
      "stateMutability": "nonpayable",
      "type": "constructor"
    },
    {
      "inputs": [],
      "name": "BONE",
      "outputs": [
        {
          "internalType": "uint256",
          "name": "",
          "type": "uint256"
        }
      ],
      "stateMutability": "view",
      "type": "function"
    },
    {
      "inputs": [],
      "name": "MAX_INT",
      "outputs": [
        {
          "internalType": "uint256",
          "name": "",
          "type": "uint256"
        }
      ],
      "stateMutability": "view",
      "type": "function"
    },
    {
      "inputs": [],
      "name": "STAKE_FEE_TYPE",
      "outputs": [
        {
          "internalType": "string",
          "name": "",
          "type": "string"
        }
      ],
      "stateMutability": "view",
      "type": "function"
    },
    {
      "inputs": [],
      "name": "TRADE_FEE_TYPE",
      "outputs": [
        {
          "internalType": "string",
          "name": "",
          "type": "string"
        }
      ],
      "stateMutability": "view",
      "type": "function"
    },
    {
      "inputs": [],
      "name": "UNSTAKE_FEE_TYPE",
      "outputs": [
        {
          "internalType": "string",
          "name": "",
          "type": "string"
        }
      ],
      "stateMutability": "view",
      "type": "function"
    },
    {
      "inputs": [],
      "name": "ZERO_FEES",
      "outputs": [
        {
          "internalType": "uint256",
          "name": "",
          "type": "uint256"
        }
      ],
      "stateMutability": "view",
      "type": "function"
    },
    {
      "inputs": [
        {
          "internalType": "address",
          "name": "baseTokenAddress",
          "type": "address"
        },
        {
          "internalType": "address",
          "name": "datatokenAddress",
          "type": "address"
        },
        {
          "internalType": "address",
          "name": "to",
          "type": "address"
        },
        {
          "internalType": "address",
          "name": "poolAddress",
          "type": "address"
        },
        {
          "internalType": "uint256",
          "name": "maxBaseAmountIn",
          "type": "uint256"
        },
        {
          "internalType": "uint256",
          "name": "dtAmountOut",
          "type": "uint256"
        }
      ],
      "name": "swapBaseTokenToExactDatatoken",
      "outputs": [
        {
          "internalType": "uint256",
          "name": "baseAmountIn",
          "type": "uint256"
        },
        {
          "internalType": "uint256",
          "name": "toRefund",
          "type": "uint256"
        }
      ],
      "stateMutability": "nonpayable",
      "type": "function"
    },
    {
      "inputs": [
        {
          "internalType": "address",
          "name": "baseTokenAddress",
          "type": "address"
        },
        {
          "internalType": "address",
          "name": "datatokenAddress",
          "type": "address"
        },
        {
          "internalType": "address",
          "name": "to",
          "type": "address"
        },
        {
          "internalType": "address",
          "name": "poolAddress",
          "type": "address"
        },
        {
          "internalType": "uint256",
          "name": "maxDtAmountIn",
          "type": "uint256"
        },
        {
          "internalType": "uint256",
          "name": "baseAmountOut",
          "type": "uint256"
        }
      ],
      "name": "swapDatatokenToExactBaseToken",
      "outputs": [
        {
          "internalType": "uint256",
          "name": "dtAmountIn",
          "type": "uint256"
        },
        {
          "internalType": "uint256",
          "name": "toRefund",
          "type": "uint256"
        }
      ],
      "stateMutability": "nonpayable",
      "type": "function"
    },
    {
      "inputs": [
        {
          "internalType": "address",
          "name": "baseTokenAddress",
          "type": "address"
        },
        {
          "internalType": "address",
          "name": "datatokenAddress",
          "type": "address"
        },
        {
          "internalType": "address",
          "name": "to",
          "type": "address"
        },
        {
          "internalType": "address",
          "name": "poolAddress",
          "type": "address"
        },
        {
          "internalType": "uint256",
          "name": "baseAmountIn",
          "type": "uint256"
        },
        {
          "internalType": "uint256",
          "name": "minDtAmountOut",
          "type": "uint256"
        }
      ],
      "name": "swapExactBaseTokenToDatatoken",
      "outputs": [
        {
          "internalType": "uint256",
          "name": "dtAmountOut",
          "type": "uint256"
        }
      ],
      "stateMutability": "nonpayable",
      "type": "function"
    },
    {
      "inputs": [
        {
          "internalType": "address",
          "name": "baseTokenAddress",
          "type": "address"
        },
        {
          "internalType": "address",
          "name": "datatokenAddress",
          "type": "address"
        },
        {
          "internalType": "address",
          "name": "to",
          "type": "address"
        },
        {
          "internalType": "address",
          "name": "poolAddress",
          "type": "address"
        },
        {
          "internalType": "uint256",
          "name": "dtAmountIn",
          "type": "uint256"
        },
        {
          "internalType": "uint256",
          "name": "minBaseAmountOut",
          "type": "uint256"
        }
      ],
      "name": "swapExactDatatokenToBaseToken",
      "outputs": [
        {
          "internalType": "uint256",
          "name": "baseAmountOut",
          "type": "uint256"
        }
      ],
      "stateMutability": "nonpayable",
      "type": "function"
    }
  ],
  "bytecode": "0x608060405234801561001057600080fd5b5060016000819055506122dc806100286000396000f3fe608060405234801561001057600080fd5b506004361061009e5760003560e01c80637765740811610066578063776574081461015e5780639614b9be1461018e5780639cac5bc3146101bf578063c36596a6146101dd578063d09484c2146101fb5761009e565b8063098d3228146100a3578063220ab80c146100c157806327ccc152146100df5780632b6e01db1461011057806332d505da1461012e575b600080fd5b6100ab610219565b6040516100b891906117aa565b60405180910390f35b6100c961023d565b6040516100d6919061185e565b60405180910390f35b6100f960048036038101906100f4919061190f565b610276565b60405161010792919061199c565b60405180910390f35b610118610809565b60405161012591906117aa565b60405180910390f35b6101486004803603810190610143919061190f565b61080e565b60405161015591906117aa565b60405180910390f35b6101786004803603810190610173919061190f565b610cc2565b60405161018591906117aa565b60405180910390f35b6101a860048036038101906101a3919061190f565b611170565b6040516101b692919061199c565b60405180910390f35b6101c76116fd565b6040516101d4919061185e565b60405180910390f35b6101e5611736565b6040516101f291906117aa565b60405180910390f35b610203611742565b604051610210919061185e565b60405180910390f35b7fffffffffffffffffffffffffffffffffffffffffffffffffffffffffffffffff81565b6040518060400160405280600581526020017f5354414b4500000000000000000000000000000000000000000000000000000081525081565b6000806000879050848173ffffffffffffffffffffffffffffffffffffffff166370a08231336040518263ffffffff1660e01b81526004016102b891906119d4565b602060405180830381865afa1580156102d5573d6000803e3d6000fd5b505050506040513d601f19601f820116820180604052508101906102f99190611a04565b101561033a576040517f08c379a000000000000000000000000000000000000000000000000000000000815260040161033190611aa3565b60405180910390fd5b600089905060008790503073ffffffffffffffffffffffffffffffffffffffff163373ffffffffffffffffffffffffffffffffffffffff1614610437578273ffffffffffffffffffffffffffffffffffffffff166323b872dd33308a6040518463ffffffff1660e01b81526004016103b493929190611ac3565b6020604051808303816000875af11580156103d3573d6000803e3d6000fd5b505050506040513d601f19601f820116820180604052508101906103f79190611b32565b610436576040517f08c379a000000000000000000000000000000000000000000000000000000000815260040161042d90611bd1565b60405180910390fd5b5b8273ffffffffffffffffffffffffffffffffffffffff1663095ea7b389896040518363ffffffff1660e01b8152600401610472929190611bf1565b6020604051808303816000875af1158015610491573d6000803e3d6000fd5b505050506040513d601f19601f820116820180604052508101906104b59190611b32565b6104f4576040517f08c379a00000000000000000000000000000000000000000000000000000000081526004016104eb90611c8c565b60405180910390fd5b600060405180606001604052808c73ffffffffffffffffffffffffffffffffffffffff1673ffffffffffffffffffffffffffffffffffffffff1681526020018d73ffffffffffffffffffffffffffffffffffffffff1673ffffffffffffffffffffffffffffffffffffffff168152602001600073ffffffffffffffffffffffffffffffffffffffff1673ffffffffffffffffffffffffffffffffffffffff168152509050600060405180608001604052808a81526020018981526020017fffffffffffffffffffffffffffffffffffffffffffffffffffffffffffffffff8152602001600081525090508273ffffffffffffffffffffffffffffffffffffffff1663c98a59cf83836040518363ffffffff1660e01b8152600401610619929190611e02565b60408051808303816000875af1158015610637573d6000803e3d6000fd5b505050506040513d601f19601f8201168201806040525081019061065b9190611e2b565b50809750508373ffffffffffffffffffffffffffffffffffffffff1663a9059cbb8c8a6040518363ffffffff1660e01b815260040161069b929190611bf1565b6020604051808303816000875af11580156106ba573d6000803e3d6000fd5b505050506040513d601f19601f820116820180604052508101906106de9190611b32565b61071d576040517f08c379a000000000000000000000000000000000000000000000000000000000815260040161071490611edd565b60405180910390fd5b610730878a61177b90919063ffffffff16565b955060008611156107f9578473ffffffffffffffffffffffffffffffffffffffff1663a9059cbb8c886040518363ffffffff1660e01b8152600401610776929190611bf1565b6020604051808303816000875af1158015610795573d6000803e3d6000fd5b505050506040513d601f19601f820116820180604052508101906107b99190611b32565b6107f8576040517f08c379a00000000000000000000000000000000000000000000000000000000081526004016107ef90611f6f565b60405180910390fd5b5b5050505050965096945050505050565b600081565b600080869050838173ffffffffffffffffffffffffffffffffffffffff166370a08231336040518263ffffffff1660e01b815260040161084e91906119d4565b602060405180830381865afa15801561086b573d6000803e3d6000fd5b505050506040513d601f19601f8201168201806040525081019061088f9190611a04565b10156108d0576040517f08c379a00000000000000000000000000000000000000000000000000000000081526004016108c790611aa3565b60405180910390fd5b600088905060008690503073ffffffffffffffffffffffffffffffffffffffff163373ffffffffffffffffffffffffffffffffffffffff16146109cd578273ffffffffffffffffffffffffffffffffffffffff166323b872dd3330896040518463ffffffff1660e01b815260040161094a93929190611ac3565b6020604051808303816000875af1158015610969573d6000803e3d6000fd5b505050506040513d601f19601f8201168201806040525081019061098d9190611b32565b6109cc576040517f08c379a00000000000000000000000000000000000000000000000000000000081526004016109c390611bd1565b60405180910390fd5b5b8273ffffffffffffffffffffffffffffffffffffffff1663095ea7b388886040518363ffffffff1660e01b8152600401610a08929190611bf1565b6020604051808303816000875af1158015610a27573d6000803e3d6000fd5b505050506040513d601f19601f82011682018060405250810190610a4b9190611b32565b610a8a576040517f08c379a0000000000000000000000000000000000000000000000000000000008152600401610a8190611c8c565b60405180910390fd5b600060405180606001604052808b73ffffffffffffffffffffffffffffffffffffffff1673ffffffffffffffffffffffffffffffffffffffff1681526020018c73ffffffffffffffffffffffffffffffffffffffff1673ffffffffffffffffffffffffffffffffffffffff168152602001600073ffffffffffffffffffffffffffffffffffffffff1673ffffffffffffffffffffffffffffffffffffffff168152509050600060405180608001604052808981526020018881526020017fffffffffffffffffffffffffffffffffffffffffffffffffffffffffffffffff8152602001600081525090508273ffffffffffffffffffffffffffffffffffffffff1663c421a3fc83836040518363ffffffff1660e01b8152600401610baf929190611e02565b60408051808303816000875af1158015610bcd573d6000803e3d6000fd5b505050506040513d601f19601f82011682018060405250810190610bf19190611e2b565b50809650508373ffffffffffffffffffffffffffffffffffffffff1663a9059cbb8b886040518363ffffffff1660e01b8152600401610c31929190611bf1565b6020604051808303816000875af1158015610c50573d6000803e3d6000fd5b505050506040513d601f19601f82011682018060405250810190610c749190611b32565b610cb3576040517f08c379a0000000000000000000000000000000000000000000000000000000008152600401610caa90611edd565b60405180910390fd5b50505050509695505050505050565b600080879050838173ffffffffffffffffffffffffffffffffffffffff166370a08231336040518263ffffffff1660e01b8152600401610d0291906119d4565b602060405180830381865afa158015610d1f573d6000803e3d6000fd5b505050506040513d601f19601f82011682018060405250810190610d439190611a04565b1015610d84576040517f08c379a0000000000000000000000000000000000000000000000000000000008152600401610d7b90612001565b60405180910390fd5b3073ffffffffffffffffffffffffffffffffffffffff163373ffffffffffffffffffffffffffffffffffffffff1614610e77578073ffffffffffffffffffffffffffffffffffffffff166323b872dd3330876040518463ffffffff1660e01b8152600401610df493929190611ac3565b6020604051808303816000875af1158015610e13573d6000803e3d6000fd5b505050506040513d601f19601f82011682018060405250810190610e379190611b32565b610e76576040517f08c379a0000000000000000000000000000000000000000000000000000000008152600401610e6d90612093565b60405180910390fd5b5b8073ffffffffffffffffffffffffffffffffffffffff1663095ea7b386866040518363ffffffff1660e01b8152600401610eb2929190611bf1565b6020604051808303816000875af1158015610ed1573d6000803e3d6000fd5b505050506040513d601f19601f82011682018060405250810190610ef59190611b32565b610f34576040517f08c379a0000000000000000000000000000000000000000000000000000000008152600401610f2b90612125565b60405180910390fd5b600060405180606001604052808a73ffffffffffffffffffffffffffffffffffffffff1673ffffffffffffffffffffffffffffffffffffffff1681526020018973ffffffffffffffffffffffffffffffffffffffff1673ffffffffffffffffffffffffffffffffffffffff168152602001600073ffffffffffffffffffffffffffffffffffffffff1673ffffffffffffffffffffffffffffffffffffffff168152509050600060405180608001604052808781526020018681526020017fffffffffffffffffffffffffffffffffffffffffffffffffffffffffffffffff81526020016000815250905060008790508073ffffffffffffffffffffffffffffffffffffffff1663c421a3fc84846040518363ffffffff1660e01b815260040161105e929190611e02565b60408051808303816000875af115801561107c573d6000803e3d6000fd5b505050506040513d601f19601f820116820180604052508101906110a09190611e2b565b50809550508973ffffffffffffffffffffffffffffffffffffffff1663a9059cbb8a876040518363ffffffff1660e01b81526004016110e0929190611bf1565b6020604051808303816000875af11580156110ff573d6000803e3d6000fd5b505050506040513d601f19601f820116820180604052508101906111239190611b32565b611162576040517f08c379a000000000000000000000000000000000000000000000000000000000815260040161115990612191565b60405180910390fd5b505050509695505050505050565b6000806000889050848173ffffffffffffffffffffffffffffffffffffffff166370a08231336040518263ffffffff1660e01b81526004016111b291906119d4565b602060405180830381865afa1580156111cf573d6000803e3d6000fd5b505050506040513d601f19601f820116820180604052508101906111f39190611a04565b1015611234576040517f08c379a000000000000000000000000000000000000000000000000000000000815260040161122b90612001565b60405180910390fd5b60008690503073ffffffffffffffffffffffffffffffffffffffff163373ffffffffffffffffffffffffffffffffffffffff161461132c578173ffffffffffffffffffffffffffffffffffffffff166323b872dd3330896040518463ffffffff1660e01b81526004016112a993929190611ac3565b6020604051808303816000875af11580156112c8573d6000803e3d6000fd5b505050506040513d601f19601f820116820180604052508101906112ec9190611b32565b61132b576040517f08c379a000000000000000000000000000000000000000000000000000000000815260040161132290612093565b60405180910390fd5b5b8173ffffffffffffffffffffffffffffffffffffffff1663095ea7b388886040518363ffffffff1660e01b8152600401611367929190611bf1565b6020604051808303816000875af1158015611386573d6000803e3d6000fd5b505050506040513d601f19601f820116820180604052508101906113aa9190611b32565b6113e9576040517f08c379a00000000000000000000000000000000000000000000000000000000081526004016113e090612125565b60405180910390fd5b600060405180606001604052808c73ffffffffffffffffffffffffffffffffffffffff1673ffffffffffffffffffffffffffffffffffffffff1681526020018b73ffffffffffffffffffffffffffffffffffffffff1673ffffffffffffffffffffffffffffffffffffffff168152602001600073ffffffffffffffffffffffffffffffffffffffff1673ffffffffffffffffffffffffffffffffffffffff168152509050600060405180608001604052808981526020018881526020017fffffffffffffffffffffffffffffffffffffffffffffffffffffffffffffffff8152602001600081525090508273ffffffffffffffffffffffffffffffffffffffff1663c98a59cf83836040518363ffffffff1660e01b815260040161150e929190611e02565b60408051808303816000875af115801561152c573d6000803e3d6000fd5b505050506040513d601f19601f820116820180604052508101906115509190611e2b565b50809650508a73ffffffffffffffffffffffffffffffffffffffff1663a9059cbb8b896040518363ffffffff1660e01b8152600401611590929190611bf1565b6020604051808303816000875af11580156115af573d6000803e3d6000fd5b505050506040513d601f19601f820116820180604052508101906115d39190611b32565b611612576040517f08c379a000000000000000000000000000000000000000000000000000000000815260040161160990612191565b60405180910390fd5b611625868961177b90919063ffffffff16565b945060008511156116ee578373ffffffffffffffffffffffffffffffffffffffff1663a9059cbb8b876040518363ffffffff1660e01b815260040161166b929190611bf1565b6020604051808303816000875af115801561168a573d6000803e3d6000fd5b505050506040513d601f19601f820116820180604052508101906116ae9190611b32565b6116ed576040517f08c379a00000000000000000000000000000000000000000000000000000000081526004016116e490612223565b60405180910390fd5b5b50505050965096945050505050565b6040518060400160405280600581526020017f545241444500000000000000000000000000000000000000000000000000000081525081565b670de0b6b3a764000081565b6040518060400160405280600781526020017f554e5354414b450000000000000000000000000000000000000000000000000081525081565b600081836117899190612272565b905092915050565b6000819050919050565b6117a481611791565b82525050565b60006020820190506117bf600083018461179b565b92915050565b600081519050919050565b600082825260208201905092915050565b60005b838110156117ff5780820151818401526020810190506117e4565b8381111561180e576000848401525b50505050565b6000601f19601f8301169050919050565b6000611830826117c5565b61183a81856117d0565b935061184a8185602086016117e1565b61185381611814565b840191505092915050565b600060208201905081810360008301526118788184611825565b905092915050565b600080fd5b600073ffffffffffffffffffffffffffffffffffffffff82169050919050565b60006118b082611885565b9050919050565b6118c0816118a5565b81146118cb57600080fd5b50565b6000813590506118dd816118b7565b92915050565b6118ec81611791565b81146118f757600080fd5b50565b600081359050611909816118e3565b92915050565b60008060008060008060c0878903121561192c5761192b611880565b5b600061193a89828a016118ce565b965050602061194b89828a016118ce565b955050604061195c89828a016118ce565b945050606061196d89828a016118ce565b935050608061197e89828a016118fa565b92505060a061198f89828a016118fa565b9150509295509295509295565b60006040820190506119b1600083018561179b565b6119be602083018461179b565b9392505050565b6119ce816118a5565b82525050565b60006020820190506119e960008301846119c5565b92915050565b6000815190506119fe816118e3565b92915050565b600060208284031215611a1a57611a19611880565b5b6000611a28848285016119ef565b91505092915050565b7f5472616465526f757465723a204e6f7420656e6f7567682044617461746f6b6560008201527f6e00000000000000000000000000000000000000000000000000000000000000602082015250565b6000611a8d6021836117d0565b9150611a9882611a31565b604082019050919050565b60006020820190508181036000830152611abc81611a80565b9050919050565b6000606082019050611ad860008301866119c5565b611ae560208301856119c5565b611af2604083018461179b565b949350505050565b60008115159050919050565b611b0f81611afa565b8114611b1a57600080fd5b50565b600081519050611b2c81611b06565b92915050565b600060208284031215611b4857611b47611880565b5b6000611b5684828501611b1d565b91505092915050565b7f5472616465526f757465723a2053656c662d7472616e7366657220446174617460008201527f6f6b656e204661696c6564000000000000000000000000000000000000000000602082015250565b6000611bbb602b836117d0565b9150611bc682611b5f565b604082019050919050565b60006020820190508181036000830152611bea81611bae565b9050919050565b6000604082019050611c0660008301856119c5565b611c13602083018461179b565b9392505050565b7f5472616465526f757465723a204661696c656420746f20617070726f7665204460008201527f617461746f6b656e206f6e20506f6f6c00000000000000000000000000000000602082015250565b6000611c766030836117d0565b9150611c8182611c1a565b604082019050919050565b60006020820190508181036000830152611ca581611c69565b9050919050565b600060039050919050565b600081905092915050565b6000819050919050565b611cd5816118a5565b82525050565b6000611ce78383611ccc565b60208301905092915050565b6000602082019050919050565b611d0981611cac565b611d138184611cb7565b9250611d1e82611cc2565b8060005b83811015611d4f578151611d368782611cdb565b9650611d4183611cf3565b925050600181019050611d22565b505050505050565b600060049050919050565b600081905092915050565b6000819050919050565b611d8081611791565b82525050565b6000611d928383611d77565b60208301905092915050565b6000602082019050919050565b611db481611d57565b611dbe8184611d62565b9250611dc982611d6d565b8060005b83811015611dfa578151611de18782611d86565b9650611dec83611d9e565b925050600181019050611dcd565b505050505050565b600060e082019050611e176000830185611d00565b611e246060830184611dab565b9392505050565b60008060408385031215611e4257611e41611880565b5b6000611e50858286016119ef565b9250506020611e61858286016119ef565b9150509250929050565b7f5472616465526f757465723a2042617365546f6b656e207472616e736665722060008201527f6661696c65640000000000000000000000000000000000000000000000000000602082015250565b6000611ec76026836117d0565b9150611ed282611e6b565b604082019050919050565b60006020820190508181036000830152611ef681611eba565b9050919050565b7f5472616465526f757465723a2044617461746f6b656e20726566756e6420666160008201527f696c656400000000000000000000000000000000000000000000000000000000602082015250565b6000611f596024836117d0565b9150611f6482611efd565b604082019050919050565b60006020820190508181036000830152611f8881611f4c565b9050919050565b7f5472616465526f757465723a204e6f7420656e6f7567682042617365546f6b6560008201527f6e00000000000000000000000000000000000000000000000000000000000000602082015250565b6000611feb6021836117d0565b9150611ff682611f8f565b604082019050919050565b6000602082019050818103600083015261201a81611fde565b9050919050565b7f5472616465526f757465723a2053656c662d7472616e7366657220426173657460008201527f6f6b656e204661696c6564000000000000000000000000000000000000000000602082015250565b600061207d602b836117d0565b915061208882612021565b604082019050919050565b600060208201905081810360008301526120ac81612070565b9050919050565b7f5472616465526f757465723a204661696c656420746f20617070726f7665204260008201527f617365746f6b656e206f6e20506f6f6c00000000000000000000000000000000602082015250565b600061210f6030836117d0565b915061211a826120b3565b604082019050919050565b6000602082019050818103600083015261213e81612102565b9050919050565b7f5472616465526f757465723a204454207472616e73666572206661696c656400600082015250565b600061217b601f836117d0565b915061218682612145565b602082019050919050565b600060208201905081810360008301526121aa8161216e565b9050919050565b7f5472616465526f757465723a2042617365546f6b656e20726566756e6420666160008201527f696c656400000000000000000000000000000000000000000000000000000000602082015250565b600061220d6024836117d0565b9150612218826121b1565b604082019050919050565b6000602082019050818103600083015261223c81612200565b9050919050565b7f4e487b7100000000000000000000000000000000000000000000000000000000600052601160045260246000fd5b600061227d82611791565b915061228883611791565b92508282101561229b5761229a612243565b5b82820390509291505056fea26469706673582212205bab536553f716894f99f24d4680f3ddcb68a95aa434e058565931afff30bcee64736f6c634300080c0033",
  "linkReferences": {},
  "deployedLinkReferences": {}
}