{
  "_format": "hh-sol-artifact-1",
  "contractName": "PoolRouter",
  "sourceName": "contracts/defi/routers/PoolRouter.sol",
  "abi": [
    {
      "inputs": [],
      "stateMutability": "nonpayable",
      "type": "constructor"
    },
    {
      "inputs": [],
      "name": "BONE",
      "outputs": [
        {
          "internalType": "uint256",
          "name": "",
          "type": "uint256"
        }
      ],
      "stateMutability": "view",
      "type": "function"
    },
    {
      "inputs": [],
      "name": "BPOW_PRECISION",
      "outputs": [
        {
          "internalType": "uint256",
          "name": "",
          "type": "uint256"
        }
      ],
      "stateMutability": "view",
      "type": "function"
    },
    {
      "inputs": [],
      "name": "MAX_BPOW_BASE",
      "outputs": [
        {
          "internalType": "uint256",
          "name": "",
          "type": "uint256"
        }
      ],
      "stateMutability": "view",
      "type": "function"
    },
    {
      "inputs": [],
      "name": "MAX_INT",
      "outputs": [
        {
          "internalType": "uint256",
          "name": "",
          "type": "uint256"
        }
      ],
      "stateMutability": "view",
      "type": "function"
    },
    {
      "inputs": [],
      "name": "MIN_BPOW_BASE",
      "outputs": [
        {
          "internalType": "uint256",
          "name": "",
          "type": "uint256"
        }
      ],
      "stateMutability": "view",
      "type": "function"
    },
    {
      "inputs": [],
      "name": "ZERO_FEES",
      "outputs": [
        {
          "internalType": "uint256",
          "name": "",
          "type": "uint256"
        }
      ],
      "stateMutability": "view",
      "type": "function"
    },
    {
      "inputs": [
        {
          "internalType": "address",
          "name": "baseTokenAddress",
          "type": "address"
        },
        {
          "internalType": "address",
          "name": "datatokenAddress",
          "type": "address"
        },
        {
          "internalType": "address",
          "name": "to",
          "type": "address"
        },
        {
          "internalType": "address",
          "name": "poolAddress",
          "type": "address"
        },
        {
          "internalType": "uint256",
          "name": "maxBaseAmountIn",
          "type": "uint256"
        },
        {
          "internalType": "uint256",
          "name": "dtAmountOut",
          "type": "uint256"
        }
      ],
      "name": "swapBaseTokenToExactDatatoken",
      "outputs": [
        {
          "internalType": "uint256",
          "name": "baseAmountIn",
          "type": "uint256"
        },
        {
          "internalType": "uint256",
          "name": "toRefund",
          "type": "uint256"
        }
      ],
      "stateMutability": "nonpayable",
      "type": "function"
    },
    {
      "inputs": [
        {
          "internalType": "address",
          "name": "baseTokenAddress",
          "type": "address"
        },
        {
          "internalType": "address",
          "name": "datatokenAddress",
          "type": "address"
        },
        {
          "internalType": "address",
          "name": "to",
          "type": "address"
        },
        {
          "internalType": "address",
          "name": "poolAddress",
          "type": "address"
        },
        {
          "internalType": "uint256",
          "name": "maxDtAmountIn",
          "type": "uint256"
        },
        {
          "internalType": "uint256",
          "name": "baseAmountOut",
          "type": "uint256"
        }
      ],
      "name": "swapDatatokenToExactBaseToken",
      "outputs": [
        {
          "internalType": "uint256",
          "name": "dtAmountIn",
          "type": "uint256"
        },
        {
          "internalType": "uint256",
          "name": "toRefund",
          "type": "uint256"
        }
      ],
      "stateMutability": "nonpayable",
      "type": "function"
    },
    {
      "inputs": [
        {
          "internalType": "address",
          "name": "baseTokenAddress",
          "type": "address"
        },
        {
          "internalType": "address",
          "name": "datatokenAddress",
          "type": "address"
        },
        {
          "internalType": "address",
          "name": "to",
          "type": "address"
        },
        {
          "internalType": "address",
          "name": "poolAddress",
          "type": "address"
        },
        {
          "internalType": "uint256",
          "name": "baseAmountIn",
          "type": "uint256"
        },
        {
          "internalType": "uint256",
          "name": "minDtAmountOut",
          "type": "uint256"
        }
      ],
      "name": "swapExactBaseTokenToDatatoken",
      "outputs": [
        {
          "internalType": "uint256",
          "name": "dtAmountOut",
          "type": "uint256"
        }
      ],
      "stateMutability": "nonpayable",
      "type": "function"
    },
    {
      "inputs": [
        {
          "internalType": "address",
          "name": "baseTokenAddress",
          "type": "address"
        },
        {
          "internalType": "address",
          "name": "datatokenAddress",
          "type": "address"
        },
        {
          "internalType": "address",
          "name": "to",
          "type": "address"
        },
        {
          "internalType": "address",
          "name": "poolAddress",
          "type": "address"
        },
        {
          "internalType": "uint256",
          "name": "dtAmountIn",
          "type": "uint256"
        },
        {
          "internalType": "uint256",
          "name": "minBaseAmountOut",
          "type": "uint256"
        }
      ],
      "name": "swapExactDatatokenToBaseToken",
      "outputs": [
        {
          "internalType": "uint256",
          "name": "baseAmountOut",
          "type": "uint256"
        }
      ],
      "stateMutability": "nonpayable",
      "type": "function"
    }
  ],
  "bytecode": "0x608060405234801561001057600080fd5b506001600081905550612286806100286000396000f3fe608060405234801561001057600080fd5b506004361061009e5760003560e01c80637765740811610066578063776574081461015e5780639614b9be1461018e578063ba019dab146101bf578063bc694ea2146101dd578063c36596a6146101fb5761009e565b8063098d3228146100a3578063189d00ca146100c157806327ccc152146100df5780632b6e01db1461011057806332d505da1461012e575b600080fd5b6100ab610219565b6040516100b89190611744565b60405180910390f35b6100c961023d565b6040516100d69190611744565b60405180910390f35b6100f960048036038101906100f491906117ee565b610259565b60405161010792919061187b565b60405180910390f35b6101186107ec565b6040516101259190611744565b60405180910390f35b610148600480360381019061014391906117ee565b6107f1565b6040516101559190611744565b60405180910390f35b610178600480360381019061017391906117ee565b610ca5565b6040516101859190611744565b60405180910390f35b6101a860048036038101906101a391906117ee565b611153565b6040516101b692919061187b565b60405180910390f35b6101c76116e0565b6040516101d49190611744565b60405180910390f35b6101e56116e5565b6040516101f29190611744565b60405180910390f35b610203611709565b6040516102109190611744565b60405180910390f35b7fffffffffffffffffffffffffffffffffffffffffffffffffffffffffffffffff81565b6402540be400670de0b6b3a76400006102569190611902565b81565b6000806000879050848173ffffffffffffffffffffffffffffffffffffffff166370a08231336040518263ffffffff1660e01b815260040161029b9190611942565b602060405180830381865afa1580156102b8573d6000803e3d6000fd5b505050506040513d601f19601f820116820180604052508101906102dc9190611972565b101561031d576040517f08c379a000000000000000000000000000000000000000000000000000000000815260040161031490611a22565b60405180910390fd5b600089905060008790503073ffffffffffffffffffffffffffffffffffffffff163373ffffffffffffffffffffffffffffffffffffffff161461041a578273ffffffffffffffffffffffffffffffffffffffff166323b872dd33308a6040518463ffffffff1660e01b815260040161039793929190611a42565b6020604051808303816000875af11580156103b6573d6000803e3d6000fd5b505050506040513d601f19601f820116820180604052508101906103da9190611ab1565b610419576040517f08c379a000000000000000000000000000000000000000000000000000000000815260040161041090611b50565b60405180910390fd5b5b8273ffffffffffffffffffffffffffffffffffffffff1663095ea7b389896040518363ffffffff1660e01b8152600401610455929190611b70565b6020604051808303816000875af1158015610474573d6000803e3d6000fd5b505050506040513d601f19601f820116820180604052508101906104989190611ab1565b6104d7576040517f08c379a00000000000000000000000000000000000000000000000000000000081526004016104ce90611c0b565b60405180910390fd5b600060405180606001604052808c73ffffffffffffffffffffffffffffffffffffffff1673ffffffffffffffffffffffffffffffffffffffff1681526020018d73ffffffffffffffffffffffffffffffffffffffff1673ffffffffffffffffffffffffffffffffffffffff168152602001600073ffffffffffffffffffffffffffffffffffffffff1673ffffffffffffffffffffffffffffffffffffffff168152509050600060405180608001604052808a81526020018981526020017fffffffffffffffffffffffffffffffffffffffffffffffffffffffffffffffff8152602001600081525090508273ffffffffffffffffffffffffffffffffffffffff1663c98a59cf83836040518363ffffffff1660e01b81526004016105fc929190611d81565b60408051808303816000875af115801561061a573d6000803e3d6000fd5b505050506040513d601f19601f8201168201806040525081019061063e9190611daa565b50809750508373ffffffffffffffffffffffffffffffffffffffff1663a9059cbb8c8a6040518363ffffffff1660e01b815260040161067e929190611b70565b6020604051808303816000875af115801561069d573d6000803e3d6000fd5b505050506040513d601f19601f820116820180604052508101906106c19190611ab1565b610700576040517f08c379a00000000000000000000000000000000000000000000000000000000081526004016106f790611e5c565b60405180910390fd5b610713878a61171590919063ffffffff16565b955060008611156107dc578473ffffffffffffffffffffffffffffffffffffffff1663a9059cbb8c886040518363ffffffff1660e01b8152600401610759929190611b70565b6020604051808303816000875af1158015610778573d6000803e3d6000fd5b505050506040513d601f19601f8201168201806040525081019061079c9190611ab1565b6107db576040517f08c379a00000000000000000000000000000000000000000000000000000000081526004016107d290611eee565b60405180910390fd5b5b5050505050965096945050505050565b600081565b600080869050838173ffffffffffffffffffffffffffffffffffffffff166370a08231336040518263ffffffff1660e01b81526004016108319190611942565b602060405180830381865afa15801561084e573d6000803e3d6000fd5b505050506040513d601f19601f820116820180604052508101906108729190611972565b10156108b3576040517f08c379a00000000000000000000000000000000000000000000000000000000081526004016108aa90611a22565b60405180910390fd5b600088905060008690503073ffffffffffffffffffffffffffffffffffffffff163373ffffffffffffffffffffffffffffffffffffffff16146109b0578273ffffffffffffffffffffffffffffffffffffffff166323b872dd3330896040518463ffffffff1660e01b815260040161092d93929190611a42565b6020604051808303816000875af115801561094c573d6000803e3d6000fd5b505050506040513d601f19601f820116820180604052508101906109709190611ab1565b6109af576040517f08c379a00000000000000000000000000000000000000000000000000000000081526004016109a690611b50565b60405180910390fd5b5b8273ffffffffffffffffffffffffffffffffffffffff1663095ea7b388886040518363ffffffff1660e01b81526004016109eb929190611b70565b6020604051808303816000875af1158015610a0a573d6000803e3d6000fd5b505050506040513d601f19601f82011682018060405250810190610a2e9190611ab1565b610a6d576040517f08c379a0000000000000000000000000000000000000000000000000000000008152600401610a6490611c0b565b60405180910390fd5b600060405180606001604052808b73ffffffffffffffffffffffffffffffffffffffff1673ffffffffffffffffffffffffffffffffffffffff1681526020018c73ffffffffffffffffffffffffffffffffffffffff1673ffffffffffffffffffffffffffffffffffffffff168152602001600073ffffffffffffffffffffffffffffffffffffffff1673ffffffffffffffffffffffffffffffffffffffff168152509050600060405180608001604052808981526020018881526020017fffffffffffffffffffffffffffffffffffffffffffffffffffffffffffffffff8152602001600081525090508273ffffffffffffffffffffffffffffffffffffffff1663c421a3fc83836040518363ffffffff1660e01b8152600401610b92929190611d81565b60408051808303816000875af1158015610bb0573d6000803e3d6000fd5b505050506040513d601f19601f82011682018060405250810190610bd49190611daa565b50809650508373ffffffffffffffffffffffffffffffffffffffff1663a9059cbb8b886040518363ffffffff1660e01b8152600401610c14929190611b70565b6020604051808303816000875af1158015610c33573d6000803e3d6000fd5b505050506040513d601f19601f82011682018060405250810190610c579190611ab1565b610c96576040517f08c379a0000000000000000000000000000000000000000000000000000000008152600401610c8d90611e5c565b60405180910390fd5b50505050509695505050505050565b600080879050838173ffffffffffffffffffffffffffffffffffffffff166370a08231336040518263ffffffff1660e01b8152600401610ce59190611942565b602060405180830381865afa158015610d02573d6000803e3d6000fd5b505050506040513d601f19601f82011682018060405250810190610d269190611972565b1015610d67576040517f08c379a0000000000000000000000000000000000000000000000000000000008152600401610d5e90611f80565b60405180910390fd5b3073ffffffffffffffffffffffffffffffffffffffff163373ffffffffffffffffffffffffffffffffffffffff1614610e5a578073ffffffffffffffffffffffffffffffffffffffff166323b872dd3330876040518463ffffffff1660e01b8152600401610dd793929190611a42565b6020604051808303816000875af1158015610df6573d6000803e3d6000fd5b505050506040513d601f19601f82011682018060405250810190610e1a9190611ab1565b610e59576040517f08c379a0000000000000000000000000000000000000000000000000000000008152600401610e5090612012565b60405180910390fd5b5b8073ffffffffffffffffffffffffffffffffffffffff1663095ea7b386866040518363ffffffff1660e01b8152600401610e95929190611b70565b6020604051808303816000875af1158015610eb4573d6000803e3d6000fd5b505050506040513d601f19601f82011682018060405250810190610ed89190611ab1565b610f17576040517f08c379a0000000000000000000000000000000000000000000000000000000008152600401610f0e906120a4565b60405180910390fd5b600060405180606001604052808a73ffffffffffffffffffffffffffffffffffffffff1673ffffffffffffffffffffffffffffffffffffffff1681526020018973ffffffffffffffffffffffffffffffffffffffff1673ffffffffffffffffffffffffffffffffffffffff168152602001600073ffffffffffffffffffffffffffffffffffffffff1673ffffffffffffffffffffffffffffffffffffffff168152509050600060405180608001604052808781526020018681526020017fffffffffffffffffffffffffffffffffffffffffffffffffffffffffffffffff81526020016000815250905060008790508073ffffffffffffffffffffffffffffffffffffffff1663c421a3fc84846040518363ffffffff1660e01b8152600401611041929190611d81565b60408051808303816000875af115801561105f573d6000803e3d6000fd5b505050506040513d601f19601f820116820180604052508101906110839190611daa565b50809550508973ffffffffffffffffffffffffffffffffffffffff1663a9059cbb8a876040518363ffffffff1660e01b81526004016110c3929190611b70565b6020604051808303816000875af11580156110e2573d6000803e3d6000fd5b505050506040513d601f19601f820116820180604052508101906111069190611ab1565b611145576040517f08c379a000000000000000000000000000000000000000000000000000000000815260040161113c90612110565b60405180910390fd5b505050509695505050505050565b6000806000889050848173ffffffffffffffffffffffffffffffffffffffff166370a08231336040518263ffffffff1660e01b81526004016111959190611942565b602060405180830381865afa1580156111b2573d6000803e3d6000fd5b505050506040513d601f19601f820116820180604052508101906111d69190611972565b1015611217576040517f08c379a000000000000000000000000000000000000000000000000000000000815260040161120e90611f80565b60405180910390fd5b60008690503073ffffffffffffffffffffffffffffffffffffffff163373ffffffffffffffffffffffffffffffffffffffff161461130f578173ffffffffffffffffffffffffffffffffffffffff166323b872dd3330896040518463ffffffff1660e01b815260040161128c93929190611a42565b6020604051808303816000875af11580156112ab573d6000803e3d6000fd5b505050506040513d601f19601f820116820180604052508101906112cf9190611ab1565b61130e576040517f08c379a000000000000000000000000000000000000000000000000000000000815260040161130590612012565b60405180910390fd5b5b8173ffffffffffffffffffffffffffffffffffffffff1663095ea7b388886040518363ffffffff1660e01b815260040161134a929190611b70565b6020604051808303816000875af1158015611369573d6000803e3d6000fd5b505050506040513d601f19601f8201168201806040525081019061138d9190611ab1565b6113cc576040517f08c379a00000000000000000000000000000000000000000000000000000000081526004016113c3906120a4565b60405180910390fd5b600060405180606001604052808c73ffffffffffffffffffffffffffffffffffffffff1673ffffffffffffffffffffffffffffffffffffffff1681526020018b73ffffffffffffffffffffffffffffffffffffffff1673ffffffffffffffffffffffffffffffffffffffff168152602001600073ffffffffffffffffffffffffffffffffffffffff1673ffffffffffffffffffffffffffffffffffffffff168152509050600060405180608001604052808981526020018881526020017fffffffffffffffffffffffffffffffffffffffffffffffffffffffffffffffff8152602001600081525090508273ffffffffffffffffffffffffffffffffffffffff1663c98a59cf83836040518363ffffffff1660e01b81526004016114f1929190611d81565b60408051808303816000875af115801561150f573d6000803e3d6000fd5b505050506040513d601f19601f820116820180604052508101906115339190611daa565b50809650508a73ffffffffffffffffffffffffffffffffffffffff1663a9059cbb8b896040518363ffffffff1660e01b8152600401611573929190611b70565b6020604051808303816000875af1158015611592573d6000803e3d6000fd5b505050506040513d601f19601f820116820180604052508101906115b69190611ab1565b6115f5576040517f08c379a00000000000000000000000000000000000000000000000000000000081526004016115ec90612110565b60405180910390fd5b611608868961171590919063ffffffff16565b945060008511156116d1578373ffffffffffffffffffffffffffffffffffffffff1663a9059cbb8b876040518363ffffffff1660e01b815260040161164e929190611b70565b6020604051808303816000875af115801561166d573d6000803e3d6000fd5b505050506040513d601f19601f820116820180604052508101906116919190611ab1565b6116d0576040517f08c379a00000000000000000000000000000000000000000000000000000000081526004016116c7906121a2565b60405180910390fd5b5b50505050965096945050505050565b600181565b6001670de0b6b3a764000060026116fc91906121c2565b611706919061221c565b81565b670de0b6b3a764000081565b60008183611723919061221c565b905092915050565b6000819050919050565b61173e8161172b565b82525050565b60006020820190506117596000830184611735565b92915050565b600080fd5b600073ffffffffffffffffffffffffffffffffffffffff82169050919050565b600061178f82611764565b9050919050565b61179f81611784565b81146117aa57600080fd5b50565b6000813590506117bc81611796565b92915050565b6117cb8161172b565b81146117d657600080fd5b50565b6000813590506117e8816117c2565b92915050565b60008060008060008060c0878903121561180b5761180a61175f565b5b600061181989828a016117ad565b965050602061182a89828a016117ad565b955050604061183b89828a016117ad565b945050606061184c89828a016117ad565b935050608061185d89828a016117d9565b92505060a061186e89828a016117d9565b9150509295509295509295565b60006040820190506118906000830185611735565b61189d6020830184611735565b9392505050565b7f4e487b7100000000000000000000000000000000000000000000000000000000600052601260045260246000fd5b7f4e487b7100000000000000000000000000000000000000000000000000000000600052601160045260246000fd5b600061190d8261172b565b91506119188361172b565b925082611928576119276118a4565b5b828204905092915050565b61193c81611784565b82525050565b60006020820190506119576000830184611933565b92915050565b60008151905061196c816117c2565b92915050565b6000602082840312156119885761198761175f565b5b60006119968482850161195d565b91505092915050565b600082825260208201905092915050565b7f5472616465526f757465723a204e6f7420656e6f7567682044617461746f6b6560008201527f6e00000000000000000000000000000000000000000000000000000000000000602082015250565b6000611a0c60218361199f565b9150611a17826119b0565b604082019050919050565b60006020820190508181036000830152611a3b816119ff565b9050919050565b6000606082019050611a576000830186611933565b611a646020830185611933565b611a716040830184611735565b949350505050565b60008115159050919050565b611a8e81611a79565b8114611a9957600080fd5b50565b600081519050611aab81611a85565b92915050565b600060208284031215611ac757611ac661175f565b5b6000611ad584828501611a9c565b91505092915050565b7f5472616465526f757465723a2053656c662d7472616e7366657220446174617460008201527f6f6b656e204661696c6564000000000000000000000000000000000000000000602082015250565b6000611b3a602b8361199f565b9150611b4582611ade565b604082019050919050565b60006020820190508181036000830152611b6981611b2d565b9050919050565b6000604082019050611b856000830185611933565b611b926020830184611735565b9392505050565b7f5472616465526f757465723a204661696c656420746f20617070726f7665204460008201527f617461746f6b656e206f6e20506f6f6c00000000000000000000000000000000602082015250565b6000611bf560308361199f565b9150611c0082611b99565b604082019050919050565b60006020820190508181036000830152611c2481611be8565b9050919050565b600060039050919050565b600081905092915050565b6000819050919050565b611c5481611784565b82525050565b6000611c668383611c4b565b60208301905092915050565b6000602082019050919050565b611c8881611c2b565b611c928184611c36565b9250611c9d82611c41565b8060005b83811015611cce578151611cb58782611c5a565b9650611cc083611c72565b925050600181019050611ca1565b505050505050565b600060049050919050565b600081905092915050565b6000819050919050565b611cff8161172b565b82525050565b6000611d118383611cf6565b60208301905092915050565b6000602082019050919050565b611d3381611cd6565b611d3d8184611ce1565b9250611d4882611cec565b8060005b83811015611d79578151611d608782611d05565b9650611d6b83611d1d565b925050600181019050611d4c565b505050505050565b600060e082019050611d966000830185611c7f565b611da36060830184611d2a565b9392505050565b60008060408385031215611dc157611dc061175f565b5b6000611dcf8582860161195d565b9250506020611de08582860161195d565b9150509250929050565b7f5472616465526f757465723a2042617365546f6b656e207472616e736665722060008201527f6661696c65640000000000000000000000000000000000000000000000000000602082015250565b6000611e4660268361199f565b9150611e5182611dea565b604082019050919050565b60006020820190508181036000830152611e7581611e39565b9050919050565b7f5472616465526f757465723a2044617461746f6b656e20726566756e6420666160008201527f696c656400000000000000000000000000000000000000000000000000000000602082015250565b6000611ed860248361199f565b9150611ee382611e7c565b604082019050919050565b60006020820190508181036000830152611f0781611ecb565b9050919050565b7f5472616465526f757465723a204e6f7420656e6f7567682042617365546f6b6560008201527f6e00000000000000000000000000000000000000000000000000000000000000602082015250565b6000611f6a60218361199f565b9150611f7582611f0e565b604082019050919050565b60006020820190508181036000830152611f9981611f5d565b9050919050565b7f5472616465526f757465723a2053656c662d7472616e7366657220426173657460008201527f6f6b656e204661696c6564000000000000000000000000000000000000000000602082015250565b6000611ffc602b8361199f565b915061200782611fa0565b604082019050919050565b6000602082019050818103600083015261202b81611fef565b9050919050565b7f5472616465526f757465723a204661696c656420746f20617070726f7665204260008201527f617365746f6b656e206f6e20506f6f6c00000000000000000000000000000000602082015250565b600061208e60308361199f565b915061209982612032565b604082019050919050565b600060208201905081810360008301526120bd81612081565b9050919050565b7f5472616465526f757465723a204454207472616e73666572206661696c656400600082015250565b60006120fa601f8361199f565b9150612105826120c4565b602082019050919050565b60006020820190508181036000830152612129816120ed565b9050919050565b7f5472616465526f757465723a2042617365546f6b656e20726566756e6420666160008201527f696c656400000000000000000000000000000000000000000000000000000000602082015250565b600061218c60248361199f565b915061219782612130565b604082019050919050565b600060208201905081810360008301526121bb8161217f565b9050919050565b60006121cd8261172b565b91506121d88361172b565b9250817fffffffffffffffffffffffffffffffffffffffffffffffffffffffffffffffff0483118215151615612211576122106118d3565b5b828202905092915050565b60006122278261172b565b91506122328361172b565b925082821015612245576122446118d3565b5b82820390509291505056fea2646970667358221220a4602d043b15d60419bc878b0490c46274990a8e8f70701b13a2ee8767a7eb0564736f6c634300080c0033",
  "linkReferences": {},
  "deployedLinkReferences": {}
}