{
  "_format": "hh-sol-artifact-1",
  "contractName": "PoolRouter",
  "sourceName": "contracts/defi/routers/PoolRouter.sol",
  "abi": [
    {
      "inputs": [],
      "stateMutability": "nonpayable",
      "type": "constructor"
    },
    {
      "inputs": [],
      "name": "BONE",
      "outputs": [
        {
          "internalType": "uint256",
          "name": "",
          "type": "uint256"
        }
      ],
      "stateMutability": "view",
      "type": "function"
    },
    {
      "inputs": [],
      "name": "BPOW_PRECISION",
      "outputs": [
        {
          "internalType": "uint256",
          "name": "",
          "type": "uint256"
        }
      ],
      "stateMutability": "view",
      "type": "function"
    },
    {
      "inputs": [],
      "name": "MAX_BPOW_BASE",
      "outputs": [
        {
          "internalType": "uint256",
          "name": "",
          "type": "uint256"
        }
      ],
      "stateMutability": "view",
      "type": "function"
    },
    {
      "inputs": [],
      "name": "MAX_INT",
      "outputs": [
        {
          "internalType": "uint256",
          "name": "",
          "type": "uint256"
        }
      ],
      "stateMutability": "view",
      "type": "function"
    },
    {
      "inputs": [],
      "name": "MIN_BPOW_BASE",
      "outputs": [
        {
          "internalType": "uint256",
          "name": "",
          "type": "uint256"
        }
      ],
      "stateMutability": "view",
      "type": "function"
    },
    {
      "inputs": [],
      "name": "STAKE_FEE_TYPE",
      "outputs": [
        {
          "internalType": "string",
          "name": "",
          "type": "string"
        }
      ],
      "stateMutability": "view",
      "type": "function"
    },
    {
      "inputs": [],
      "name": "TRADE_FEE_TYPE",
      "outputs": [
        {
          "internalType": "string",
          "name": "",
          "type": "string"
        }
      ],
      "stateMutability": "view",
      "type": "function"
    },
    {
      "inputs": [],
      "name": "UNSTAKE_FEE_TYPE",
      "outputs": [
        {
          "internalType": "string",
          "name": "",
          "type": "string"
        }
      ],
      "stateMutability": "view",
      "type": "function"
    },
    {
      "inputs": [],
      "name": "ZERO_FEES",
      "outputs": [
        {
          "internalType": "uint256",
          "name": "",
          "type": "uint256"
        }
      ],
      "stateMutability": "view",
      "type": "function"
    },
    {
      "inputs": [
        {
          "internalType": "address",
          "name": "baseTokenAddress",
          "type": "address"
        },
        {
          "internalType": "address",
          "name": "datatokenAddress",
          "type": "address"
        },
        {
          "internalType": "address",
          "name": "to",
          "type": "address"
        },
        {
          "internalType": "address",
          "name": "poolAddress",
          "type": "address"
        },
        {
          "internalType": "uint256",
          "name": "maxBaseAmountIn",
          "type": "uint256"
        },
        {
          "internalType": "uint256",
          "name": "dtAmountOut",
          "type": "uint256"
        }
      ],
      "name": "swapBaseTokenToExactDatatoken",
      "outputs": [
        {
          "internalType": "uint256",
          "name": "baseAmountIn",
          "type": "uint256"
        },
        {
          "internalType": "uint256",
          "name": "toRefund",
          "type": "uint256"
        }
      ],
      "stateMutability": "nonpayable",
      "type": "function"
    },
    {
      "inputs": [
        {
          "internalType": "address",
          "name": "baseTokenAddress",
          "type": "address"
        },
        {
          "internalType": "address",
          "name": "datatokenAddress",
          "type": "address"
        },
        {
          "internalType": "address",
          "name": "to",
          "type": "address"
        },
        {
          "internalType": "address",
          "name": "poolAddress",
          "type": "address"
        },
        {
          "internalType": "uint256",
          "name": "maxDtAmountIn",
          "type": "uint256"
        },
        {
          "internalType": "uint256",
          "name": "baseAmountOut",
          "type": "uint256"
        }
      ],
      "name": "swapDatatokenToExactBaseToken",
      "outputs": [
        {
          "internalType": "uint256",
          "name": "dtAmountIn",
          "type": "uint256"
        },
        {
          "internalType": "uint256",
          "name": "toRefund",
          "type": "uint256"
        }
      ],
      "stateMutability": "nonpayable",
      "type": "function"
    },
    {
      "inputs": [
        {
          "internalType": "address",
          "name": "baseTokenAddress",
          "type": "address"
        },
        {
          "internalType": "address",
          "name": "datatokenAddress",
          "type": "address"
        },
        {
          "internalType": "address",
          "name": "to",
          "type": "address"
        },
        {
          "internalType": "address",
          "name": "poolAddress",
          "type": "address"
        },
        {
          "internalType": "uint256",
          "name": "baseAmountIn",
          "type": "uint256"
        },
        {
          "internalType": "uint256",
          "name": "minDtAmountOut",
          "type": "uint256"
        }
      ],
      "name": "swapExactBaseTokenToDatatoken",
      "outputs": [
        {
          "internalType": "uint256",
          "name": "dtAmountOut",
          "type": "uint256"
        }
      ],
      "stateMutability": "nonpayable",
      "type": "function"
    },
    {
      "inputs": [
        {
          "internalType": "address",
          "name": "baseTokenAddress",
          "type": "address"
        },
        {
          "internalType": "address",
          "name": "datatokenAddress",
          "type": "address"
        },
        {
          "internalType": "address",
          "name": "to",
          "type": "address"
        },
        {
          "internalType": "address",
          "name": "poolAddress",
          "type": "address"
        },
        {
          "internalType": "uint256",
          "name": "dtAmountIn",
          "type": "uint256"
        },
        {
          "internalType": "uint256",
          "name": "minBaseAmountOut",
          "type": "uint256"
        }
      ],
      "name": "swapExactDatatokenToBaseToken",
      "outputs": [
        {
          "internalType": "uint256",
          "name": "baseAmountOut",
          "type": "uint256"
        }
      ],
      "stateMutability": "nonpayable",
      "type": "function"
    }
  ],
  "bytecode": "0x608060405234801561001057600080fd5b506001600081905550612466806100286000396000f3fe608060405234801561001057600080fd5b50600436106100cf5760003560e01c8063776574081161008c578063ba019dab11610066578063ba019dab1461022c578063bc694ea21461024a578063c36596a614610268578063d09484c214610286576100cf565b806377657408146101ad5780639614b9be146101dd5780639cac5bc31461020e576100cf565b8063098d3228146100d4578063189d00ca146100f2578063220ab80c1461011057806327ccc1521461012e5780632b6e01db1461015f57806332d505da1461017d575b600080fd5b6100dc6102a4565b6040516100e9919061187a565b60405180910390f35b6100fa6102c8565b604051610107919061187a565b60405180910390f35b6101186102e4565b604051610125919061192e565b60405180910390f35b610148600480360381019061014391906119df565b61031d565b604051610156929190611a6c565b60405180910390f35b6101676108b0565b604051610174919061187a565b60405180910390f35b610197600480360381019061019291906119df565b6108b5565b6040516101a4919061187a565b60405180910390f35b6101c760048036038101906101c291906119df565b610d69565b6040516101d4919061187a565b60405180910390f35b6101f760048036038101906101f291906119df565b611217565b604051610205929190611a6c565b60405180910390f35b6102166117a4565b604051610223919061192e565b60405180910390f35b6102346117dd565b604051610241919061187a565b60405180910390f35b6102526117e2565b60405161025f919061187a565b60405180910390f35b610270611806565b60405161027d919061187a565b60405180910390f35b61028e611812565b60405161029b919061192e565b60405180910390f35b7fffffffffffffffffffffffffffffffffffffffffffffffffffffffffffffffff81565b6402540be400670de0b6b3a76400006102e19190611af3565b81565b6040518060400160405280600581526020017f5354414b4500000000000000000000000000000000000000000000000000000081525081565b6000806000879050848173ffffffffffffffffffffffffffffffffffffffff166370a08231336040518263ffffffff1660e01b815260040161035f9190611b33565b602060405180830381865afa15801561037c573d6000803e3d6000fd5b505050506040513d601f19601f820116820180604052508101906103a09190611b63565b10156103e1576040517f08c379a00000000000000000000000000000000000000000000000000000000081526004016103d890611c02565b60405180910390fd5b600089905060008790503073ffffffffffffffffffffffffffffffffffffffff163373ffffffffffffffffffffffffffffffffffffffff16146104de578273ffffffffffffffffffffffffffffffffffffffff166323b872dd33308a6040518463ffffffff1660e01b815260040161045b93929190611c22565b6020604051808303816000875af115801561047a573d6000803e3d6000fd5b505050506040513d601f19601f8201168201806040525081019061049e9190611c91565b6104dd576040517f08c379a00000000000000000000000000000000000000000000000000000000081526004016104d490611d30565b60405180910390fd5b5b8273ffffffffffffffffffffffffffffffffffffffff1663095ea7b389896040518363ffffffff1660e01b8152600401610519929190611d50565b6020604051808303816000875af1158015610538573d6000803e3d6000fd5b505050506040513d601f19601f8201168201806040525081019061055c9190611c91565b61059b576040517f08c379a000000000000000000000000000000000000000000000000000000000815260040161059290611deb565b60405180910390fd5b600060405180606001604052808c73ffffffffffffffffffffffffffffffffffffffff1673ffffffffffffffffffffffffffffffffffffffff1681526020018d73ffffffffffffffffffffffffffffffffffffffff1673ffffffffffffffffffffffffffffffffffffffff168152602001600073ffffffffffffffffffffffffffffffffffffffff1673ffffffffffffffffffffffffffffffffffffffff168152509050600060405180608001604052808a81526020018981526020017fffffffffffffffffffffffffffffffffffffffffffffffffffffffffffffffff8152602001600081525090508273ffffffffffffffffffffffffffffffffffffffff1663c98a59cf83836040518363ffffffff1660e01b81526004016106c0929190611f61565b60408051808303816000875af11580156106de573d6000803e3d6000fd5b505050506040513d601f19601f820116820180604052508101906107029190611f8a565b50809750508373ffffffffffffffffffffffffffffffffffffffff1663a9059cbb8c8a6040518363ffffffff1660e01b8152600401610742929190611d50565b6020604051808303816000875af1158015610761573d6000803e3d6000fd5b505050506040513d601f19601f820116820180604052508101906107859190611c91565b6107c4576040517f08c379a00000000000000000000000000000000000000000000000000000000081526004016107bb9061203c565b60405180910390fd5b6107d7878a61184b90919063ffffffff16565b955060008611156108a0578473ffffffffffffffffffffffffffffffffffffffff1663a9059cbb8c886040518363ffffffff1660e01b815260040161081d929190611d50565b6020604051808303816000875af115801561083c573d6000803e3d6000fd5b505050506040513d601f19601f820116820180604052508101906108609190611c91565b61089f576040517f08c379a0000000000000000000000000000000000000000000000000000000008152600401610896906120ce565b60405180910390fd5b5b5050505050965096945050505050565b600081565b600080869050838173ffffffffffffffffffffffffffffffffffffffff166370a08231336040518263ffffffff1660e01b81526004016108f59190611b33565b602060405180830381865afa158015610912573d6000803e3d6000fd5b505050506040513d601f19601f820116820180604052508101906109369190611b63565b1015610977576040517f08c379a000000000000000000000000000000000000000000000000000000000815260040161096e90611c02565b60405180910390fd5b600088905060008690503073ffffffffffffffffffffffffffffffffffffffff163373ffffffffffffffffffffffffffffffffffffffff1614610a74578273ffffffffffffffffffffffffffffffffffffffff166323b872dd3330896040518463ffffffff1660e01b81526004016109f193929190611c22565b6020604051808303816000875af1158015610a10573d6000803e3d6000fd5b505050506040513d601f19601f82011682018060405250810190610a349190611c91565b610a73576040517f08c379a0000000000000000000000000000000000000000000000000000000008152600401610a6a90611d30565b60405180910390fd5b5b8273ffffffffffffffffffffffffffffffffffffffff1663095ea7b388886040518363ffffffff1660e01b8152600401610aaf929190611d50565b6020604051808303816000875af1158015610ace573d6000803e3d6000fd5b505050506040513d601f19601f82011682018060405250810190610af29190611c91565b610b31576040517f08c379a0000000000000000000000000000000000000000000000000000000008152600401610b2890611deb565b60405180910390fd5b600060405180606001604052808b73ffffffffffffffffffffffffffffffffffffffff1673ffffffffffffffffffffffffffffffffffffffff1681526020018c73ffffffffffffffffffffffffffffffffffffffff1673ffffffffffffffffffffffffffffffffffffffff168152602001600073ffffffffffffffffffffffffffffffffffffffff1673ffffffffffffffffffffffffffffffffffffffff168152509050600060405180608001604052808981526020018881526020017fffffffffffffffffffffffffffffffffffffffffffffffffffffffffffffffff8152602001600081525090508273ffffffffffffffffffffffffffffffffffffffff1663c421a3fc83836040518363ffffffff1660e01b8152600401610c56929190611f61565b60408051808303816000875af1158015610c74573d6000803e3d6000fd5b505050506040513d601f19601f82011682018060405250810190610c989190611f8a565b50809650508373ffffffffffffffffffffffffffffffffffffffff1663a9059cbb8b886040518363ffffffff1660e01b8152600401610cd8929190611d50565b6020604051808303816000875af1158015610cf7573d6000803e3d6000fd5b505050506040513d601f19601f82011682018060405250810190610d1b9190611c91565b610d5a576040517f08c379a0000000000000000000000000000000000000000000000000000000008152600401610d519061203c565b60405180910390fd5b50505050509695505050505050565b600080879050838173ffffffffffffffffffffffffffffffffffffffff166370a08231336040518263ffffffff1660e01b8152600401610da99190611b33565b602060405180830381865afa158015610dc6573d6000803e3d6000fd5b505050506040513d601f19601f82011682018060405250810190610dea9190611b63565b1015610e2b576040517f08c379a0000000000000000000000000000000000000000000000000000000008152600401610e2290612160565b60405180910390fd5b3073ffffffffffffffffffffffffffffffffffffffff163373ffffffffffffffffffffffffffffffffffffffff1614610f1e578073ffffffffffffffffffffffffffffffffffffffff166323b872dd3330876040518463ffffffff1660e01b8152600401610e9b93929190611c22565b6020604051808303816000875af1158015610eba573d6000803e3d6000fd5b505050506040513d601f19601f82011682018060405250810190610ede9190611c91565b610f1d576040517f08c379a0000000000000000000000000000000000000000000000000000000008152600401610f14906121f2565b60405180910390fd5b5b8073ffffffffffffffffffffffffffffffffffffffff1663095ea7b386866040518363ffffffff1660e01b8152600401610f59929190611d50565b6020604051808303816000875af1158015610f78573d6000803e3d6000fd5b505050506040513d601f19601f82011682018060405250810190610f9c9190611c91565b610fdb576040517f08c379a0000000000000000000000000000000000000000000000000000000008152600401610fd290612284565b60405180910390fd5b600060405180606001604052808a73ffffffffffffffffffffffffffffffffffffffff1673ffffffffffffffffffffffffffffffffffffffff1681526020018973ffffffffffffffffffffffffffffffffffffffff1673ffffffffffffffffffffffffffffffffffffffff168152602001600073ffffffffffffffffffffffffffffffffffffffff1673ffffffffffffffffffffffffffffffffffffffff168152509050600060405180608001604052808781526020018681526020017fffffffffffffffffffffffffffffffffffffffffffffffffffffffffffffffff81526020016000815250905060008790508073ffffffffffffffffffffffffffffffffffffffff1663c421a3fc84846040518363ffffffff1660e01b8152600401611105929190611f61565b60408051808303816000875af1158015611123573d6000803e3d6000fd5b505050506040513d601f19601f820116820180604052508101906111479190611f8a565b50809550508973ffffffffffffffffffffffffffffffffffffffff1663a9059cbb8a876040518363ffffffff1660e01b8152600401611187929190611d50565b6020604051808303816000875af11580156111a6573d6000803e3d6000fd5b505050506040513d601f19601f820116820180604052508101906111ca9190611c91565b611209576040517f08c379a0000000000000000000000000000000000000000000000000000000008152600401611200906122f0565b60405180910390fd5b505050509695505050505050565b6000806000889050848173ffffffffffffffffffffffffffffffffffffffff166370a08231336040518263ffffffff1660e01b81526004016112599190611b33565b602060405180830381865afa158015611276573d6000803e3d6000fd5b505050506040513d601f19601f8201168201806040525081019061129a9190611b63565b10156112db576040517f08c379a00000000000000000000000000000000000000000000000000000000081526004016112d290612160565b60405180910390fd5b60008690503073ffffffffffffffffffffffffffffffffffffffff163373ffffffffffffffffffffffffffffffffffffffff16146113d3578173ffffffffffffffffffffffffffffffffffffffff166323b872dd3330896040518463ffffffff1660e01b815260040161135093929190611c22565b6020604051808303816000875af115801561136f573d6000803e3d6000fd5b505050506040513d601f19601f820116820180604052508101906113939190611c91565b6113d2576040517f08c379a00000000000000000000000000000000000000000000000000000000081526004016113c9906121f2565b60405180910390fd5b5b8173ffffffffffffffffffffffffffffffffffffffff1663095ea7b388886040518363ffffffff1660e01b815260040161140e929190611d50565b6020604051808303816000875af115801561142d573d6000803e3d6000fd5b505050506040513d601f19601f820116820180604052508101906114519190611c91565b611490576040517f08c379a000000000000000000000000000000000000000000000000000000000815260040161148790612284565b60405180910390fd5b600060405180606001604052808c73ffffffffffffffffffffffffffffffffffffffff1673ffffffffffffffffffffffffffffffffffffffff1681526020018b73ffffffffffffffffffffffffffffffffffffffff1673ffffffffffffffffffffffffffffffffffffffff168152602001600073ffffffffffffffffffffffffffffffffffffffff1673ffffffffffffffffffffffffffffffffffffffff168152509050600060405180608001604052808981526020018881526020017fffffffffffffffffffffffffffffffffffffffffffffffffffffffffffffffff8152602001600081525090508273ffffffffffffffffffffffffffffffffffffffff1663c98a59cf83836040518363ffffffff1660e01b81526004016115b5929190611f61565b60408051808303816000875af11580156115d3573d6000803e3d6000fd5b505050506040513d601f19601f820116820180604052508101906115f79190611f8a565b50809650508a73ffffffffffffffffffffffffffffffffffffffff1663a9059cbb8b896040518363ffffffff1660e01b8152600401611637929190611d50565b6020604051808303816000875af1158015611656573d6000803e3d6000fd5b505050506040513d601f19601f8201168201806040525081019061167a9190611c91565b6116b9576040517f08c379a00000000000000000000000000000000000000000000000000000000081526004016116b0906122f0565b60405180910390fd5b6116cc868961184b90919063ffffffff16565b94506000851115611795578373ffffffffffffffffffffffffffffffffffffffff1663a9059cbb8b876040518363ffffffff1660e01b8152600401611712929190611d50565b6020604051808303816000875af1158015611731573d6000803e3d6000fd5b505050506040513d601f19601f820116820180604052508101906117559190611c91565b611794576040517f08c379a000000000000000000000000000000000000000000000000000000000815260040161178b90612382565b60405180910390fd5b5b50505050965096945050505050565b6040518060400160405280600581526020017f545241444500000000000000000000000000000000000000000000000000000081525081565b600181565b6001670de0b6b3a764000060026117f991906123a2565b61180391906123fc565b81565b670de0b6b3a764000081565b6040518060400160405280600781526020017f554e5354414b450000000000000000000000000000000000000000000000000081525081565b6000818361185991906123fc565b905092915050565b6000819050919050565b61187481611861565b82525050565b600060208201905061188f600083018461186b565b92915050565b600081519050919050565b600082825260208201905092915050565b60005b838110156118cf5780820151818401526020810190506118b4565b838111156118de576000848401525b50505050565b6000601f19601f8301169050919050565b600061190082611895565b61190a81856118a0565b935061191a8185602086016118b1565b611923816118e4565b840191505092915050565b6000602082019050818103600083015261194881846118f5565b905092915050565b600080fd5b600073ffffffffffffffffffffffffffffffffffffffff82169050919050565b600061198082611955565b9050919050565b61199081611975565b811461199b57600080fd5b50565b6000813590506119ad81611987565b92915050565b6119bc81611861565b81146119c757600080fd5b50565b6000813590506119d9816119b3565b92915050565b60008060008060008060c087890312156119fc576119fb611950565b5b6000611a0a89828a0161199e565b9650506020611a1b89828a0161199e565b9550506040611a2c89828a0161199e565b9450506060611a3d89828a0161199e565b9350506080611a4e89828a016119ca565b92505060a0611a5f89828a016119ca565b9150509295509295509295565b6000604082019050611a81600083018561186b565b611a8e602083018461186b565b9392505050565b7f4e487b7100000000000000000000000000000000000000000000000000000000600052601260045260246000fd5b7f4e487b7100000000000000000000000000000000000000000000000000000000600052601160045260246000fd5b6000611afe82611861565b9150611b0983611861565b925082611b1957611b18611a95565b5b828204905092915050565b611b2d81611975565b82525050565b6000602082019050611b486000830184611b24565b92915050565b600081519050611b5d816119b3565b92915050565b600060208284031215611b7957611b78611950565b5b6000611b8784828501611b4e565b91505092915050565b7f5472616465526f757465723a204e6f7420656e6f7567682044617461746f6b6560008201527f6e00000000000000000000000000000000000000000000000000000000000000602082015250565b6000611bec6021836118a0565b9150611bf782611b90565b604082019050919050565b60006020820190508181036000830152611c1b81611bdf565b9050919050565b6000606082019050611c376000830186611b24565b611c446020830185611b24565b611c51604083018461186b565b949350505050565b60008115159050919050565b611c6e81611c59565b8114611c7957600080fd5b50565b600081519050611c8b81611c65565b92915050565b600060208284031215611ca757611ca6611950565b5b6000611cb584828501611c7c565b91505092915050565b7f5472616465526f757465723a2053656c662d7472616e7366657220446174617460008201527f6f6b656e204661696c6564000000000000000000000000000000000000000000602082015250565b6000611d1a602b836118a0565b9150611d2582611cbe565b604082019050919050565b60006020820190508181036000830152611d4981611d0d565b9050919050565b6000604082019050611d656000830185611b24565b611d72602083018461186b565b9392505050565b7f5472616465526f757465723a204661696c656420746f20617070726f7665204460008201527f617461746f6b656e206f6e20506f6f6c00000000000000000000000000000000602082015250565b6000611dd56030836118a0565b9150611de082611d79565b604082019050919050565b60006020820190508181036000830152611e0481611dc8565b9050919050565b600060039050919050565b600081905092915050565b6000819050919050565b611e3481611975565b82525050565b6000611e468383611e2b565b60208301905092915050565b6000602082019050919050565b611e6881611e0b565b611e728184611e16565b9250611e7d82611e21565b8060005b83811015611eae578151611e958782611e3a565b9650611ea083611e52565b925050600181019050611e81565b505050505050565b600060049050919050565b600081905092915050565b6000819050919050565b611edf81611861565b82525050565b6000611ef18383611ed6565b60208301905092915050565b6000602082019050919050565b611f1381611eb6565b611f1d8184611ec1565b9250611f2882611ecc565b8060005b83811015611f59578151611f408782611ee5565b9650611f4b83611efd565b925050600181019050611f2c565b505050505050565b600060e082019050611f766000830185611e5f565b611f836060830184611f0a565b9392505050565b60008060408385031215611fa157611fa0611950565b5b6000611faf85828601611b4e565b9250506020611fc085828601611b4e565b9150509250929050565b7f5472616465526f757465723a2042617365546f6b656e207472616e736665722060008201527f6661696c65640000000000000000000000000000000000000000000000000000602082015250565b60006120266026836118a0565b915061203182611fca565b604082019050919050565b6000602082019050818103600083015261205581612019565b9050919050565b7f5472616465526f757465723a2044617461746f6b656e20726566756e6420666160008201527f696c656400000000000000000000000000000000000000000000000000000000602082015250565b60006120b86024836118a0565b91506120c38261205c565b604082019050919050565b600060208201905081810360008301526120e7816120ab565b9050919050565b7f5472616465526f757465723a204e6f7420656e6f7567682042617365546f6b6560008201527f6e00000000000000000000000000000000000000000000000000000000000000602082015250565b600061214a6021836118a0565b9150612155826120ee565b604082019050919050565b600060208201905081810360008301526121798161213d565b9050919050565b7f5472616465526f757465723a2053656c662d7472616e7366657220426173657460008201527f6f6b656e204661696c6564000000000000000000000000000000000000000000602082015250565b60006121dc602b836118a0565b91506121e782612180565b604082019050919050565b6000602082019050818103600083015261220b816121cf565b9050919050565b7f5472616465526f757465723a204661696c656420746f20617070726f7665204260008201527f617365746f6b656e206f6e20506f6f6c00000000000000000000000000000000602082015250565b600061226e6030836118a0565b915061227982612212565b604082019050919050565b6000602082019050818103600083015261229d81612261565b9050919050565b7f5472616465526f757465723a204454207472616e73666572206661696c656400600082015250565b60006122da601f836118a0565b91506122e5826122a4565b602082019050919050565b60006020820190508181036000830152612309816122cd565b9050919050565b7f5472616465526f757465723a2042617365546f6b656e20726566756e6420666160008201527f696c656400000000000000000000000000000000000000000000000000000000602082015250565b600061236c6024836118a0565b915061237782612310565b604082019050919050565b6000602082019050818103600083015261239b8161235f565b9050919050565b60006123ad82611861565b91506123b883611861565b9250817fffffffffffffffffffffffffffffffffffffffffffffffffffffffffffffffff04831182151516156123f1576123f0611ac4565b5b828202905092915050565b600061240782611861565b915061241283611861565b92508282101561242557612424611ac4565b5b82820390509291505056fea264697066735822122057aff0f0f67865bcbe4d264532c5bb5d10d4dd1b8d933fe8166a53ff456f257164736f6c634300080c0033",
  "linkReferences": {},
  "deployedLinkReferences": {}
}