{
  "_format": "hh-sol-artifact-1",
  "contractName": "StakeCalc",
  "sourceName": "contracts/defi/routers/StakeCalc.sol",
  "abi": [
    {
      "inputs": [
        {
          "internalType": "address",
          "name": "_feeCalc",
          "type": "address"
        }
      ],
      "stateMutability": "nonpayable",
      "type": "constructor"
    },
    {
      "inputs": [],
      "name": "BONE",
      "outputs": [
        {
          "internalType": "uint256",
          "name": "",
          "type": "uint256"
        }
      ],
      "stateMutability": "view",
      "type": "function"
    },
    {
      "inputs": [],
      "name": "MAX_INT",
      "outputs": [
        {
          "internalType": "uint256",
          "name": "",
          "type": "uint256"
        }
      ],
      "stateMutability": "view",
      "type": "function"
    },
    {
      "inputs": [],
      "name": "STAKE_FEE_TYPE",
      "outputs": [
        {
          "internalType": "string",
          "name": "",
          "type": "string"
        }
      ],
      "stateMutability": "view",
      "type": "function"
    },
    {
      "inputs": [],
      "name": "TRADE_FEE_TYPE",
      "outputs": [
        {
          "internalType": "string",
          "name": "",
          "type": "string"
        }
      ],
      "stateMutability": "view",
      "type": "function"
    },
    {
      "inputs": [],
      "name": "UNSTAKE_FEE_TYPE",
      "outputs": [
        {
          "internalType": "string",
          "name": "",
          "type": "string"
        }
      ],
      "stateMutability": "view",
      "type": "function"
    },
    {
      "inputs": [],
      "name": "ZERO_FEES",
      "outputs": [
        {
          "internalType": "uint256",
          "name": "",
          "type": "uint256"
        }
      ],
      "stateMutability": "view",
      "type": "function"
    },
    {
      "inputs": [
        {
          "components": [
            {
              "internalType": "address[4]",
              "name": "meta",
              "type": "address[4]"
            },
            {
              "internalType": "uint256[3]",
              "name": "uints",
              "type": "uint256[3]"
            },
            {
              "internalType": "address[]",
              "name": "path",
              "type": "address[]"
            }
          ],
          "internalType": "struct StakeCalc.StakeInfo",
          "name": "info",
          "type": "tuple"
        }
      ],
      "name": "calcPoolInGivenTokenOut",
      "outputs": [
        {
          "internalType": "uint256",
          "name": "poolAmountIn",
          "type": "uint256"
        },
        {
          "internalType": "uint256",
          "name": "dataxFee",
          "type": "uint256"
        },
        {
          "internalType": "uint256",
          "name": "refFee",
          "type": "uint256"
        }
      ],
      "stateMutability": "view",
      "type": "function"
    },
    {
      "inputs": [
        {
          "components": [
            {
              "internalType": "address[4]",
              "name": "meta",
              "type": "address[4]"
            },
            {
              "internalType": "uint256[3]",
              "name": "uints",
              "type": "uint256[3]"
            },
            {
              "internalType": "address[]",
              "name": "path",
              "type": "address[]"
            }
          ],
          "internalType": "struct StakeCalc.StakeInfo",
          "name": "info",
          "type": "tuple"
        }
      ],
      "name": "calcPoolOutGivenTokenIn",
      "outputs": [
        {
          "internalType": "uint256",
          "name": "poolAmountOut",
          "type": "uint256"
        },
        {
          "internalType": "uint256",
          "name": "dataxFee",
          "type": "uint256"
        },
        {
          "internalType": "uint256",
          "name": "refFee",
          "type": "uint256"
        }
      ],
      "stateMutability": "view",
      "type": "function"
    },
    {
      "inputs": [
        {
          "components": [
            {
              "internalType": "address[4]",
              "name": "meta",
              "type": "address[4]"
            },
            {
              "internalType": "uint256[3]",
              "name": "uints",
              "type": "uint256[3]"
            },
            {
              "internalType": "address[]",
              "name": "path",
              "type": "address[]"
            }
          ],
          "internalType": "struct StakeCalc.StakeInfo",
          "name": "info",
          "type": "tuple"
        }
      ],
      "name": "calcTokenOutGivenPoolIn",
      "outputs": [
        {
          "internalType": "uint256",
          "name": "baseAmountOut",
          "type": "uint256"
        },
        {
          "internalType": "uint256",
          "name": "dataxFee",
          "type": "uint256"
        },
        {
          "internalType": "uint256",
          "name": "refFee",
          "type": "uint256"
        }
      ],
      "stateMutability": "view",
      "type": "function"
    }
  ],
  "bytecode": "0x60806040523480156200001157600080fd5b5060405162001558380380620015588339818101604052810190620000379190620000e8565b806000806101000a81548173ffffffffffffffffffffffffffffffffffffffff021916908373ffffffffffffffffffffffffffffffffffffffff160217905550506200011a565b600080fd5b600073ffffffffffffffffffffffffffffffffffffffff82169050919050565b6000620000b08262000083565b9050919050565b620000c281620000a3565b8114620000ce57600080fd5b50565b600081519050620000e281620000b7565b92915050565b6000602082840312156200010157620001006200007e565b5b60006200011184828501620000d1565b91505092915050565b61142e806200012a6000396000f3fe608060405234801561001057600080fd5b50600436106100935760003560e01c80639cac5bc3116100665780639cac5bc314610124578063b9b2891614610142578063c36596a614610174578063d09484c214610192578063db76bfe4146101b057610093565b806304bedd6814610098578063098d3228146100ca578063220ab80c146100e85780632b6e01db14610106575b600080fd5b6100b260048036038101906100ad9190610d0f565b6101e2565b6040516100c193929190610d71565b60405180910390f35b6100d2610514565b6040516100df9190610da8565b60405180910390f35b6100f0610538565b6040516100fd9190610e5c565b60405180910390f35b61010e610571565b60405161011b9190610da8565b60405180910390f35b61012c610576565b6040516101399190610e5c565b60405180910390f35b61015c60048036038101906101579190610d0f565b6105af565b60405161016b93929190610d71565b60405180910390f35b61017c61091e565b6040516101899190610da8565b60405180910390f35b61019a61092a565b6040516101a79190610e5c565b60405180910390f35b6101ca60048036038101906101c59190610d0f565b610963565b6040516101d993929190610d71565b60405180910390f35b600080600080846000016000600481106101ff576101fe610e7e565b5b6020020160208101906102129190610f0b565b905060008173ffffffffffffffffffffffffffffffffffffffff1663430ed5d0878060e001906102429190610f47565b600081811061025457610253610e7e565b5b90506020020160208101906102699190610f0b565b886080016000600381106102805761027f610e7e565b5b60200201356040518363ffffffff1660e01b81526004016102a2929190610fb9565b602060405180830381865afa1580156102bf573d6000803e3d6000fd5b505050506040513d601f19601f820116820180604052508101906102e3919061100e565b905060008054906101000a900473ffffffffffffffffffffffffffffffffffffffff1673ffffffffffffffffffffffffffffffffffffffff1663f8702fe1826040518060400160405280600581526020017f5354414b450000000000000000000000000000000000000000000000000000008152508960800160016003811061036f5761036e610e7e565b5b60200201356040518463ffffffff1660e01b81526004016103929392919061103b565b6040805180830381865afa1580156103ae573d6000803e3d6000fd5b505050506040513d601f19601f820116820180604052508101906103d29190611079565b80945081955050506103ff6103f08486610caa90919063ffffffff16565b82610cc090919063ffffffff16565b94506001868060e001906104139190610f47565b9050111561050b5760008660000160036004811061043457610433610e7e565b5b6020020160208101906104479190610f0b565b905060008173ffffffffffffffffffffffffffffffffffffffff1663d06ca61f888a8060e001906104789190610f47565b6040518463ffffffff1660e01b81526004016104969392919061117c565b600060405180830381865afa1580156104b3573d6000803e3d6000fd5b505050506040513d6000823e3d601f19601f820116820180604052508101906104dc91906112f6565b905080600182516104ed919061136e565b815181106104fe576104fd610e7e565b5b6020026020010151965050505b50509193909250565b7fffffffffffffffffffffffffffffffffffffffffffffffffffffffffffffffff81565b6040518060400160405280600581526020017f5354414b4500000000000000000000000000000000000000000000000000000081525081565b600081565b6040518060400160405280600581526020017f545241444500000000000000000000000000000000000000000000000000000081525081565b600080600080846080016000600381106105cc576105cb610e7e565b5b602002013590506001858060e001906105e59190610f47565b905011156106f85760008560000160036004811061060657610605610e7e565b5b6020020160208101906106199190610f0b565b905060008173ffffffffffffffffffffffffffffffffffffffff1663d06ca61f886080016000600381106106505761064f610e7e565b5b6020020135898060e001906106659190610f47565b6040518463ffffffff1660e01b81526004016106839392919061117c565b600060405180830381865afa1580156106a0573d6000803e3d6000fd5b505050506040513d6000823e3d601f19601f820116820180604052508101906106c991906112f6565b905080600182516106da919061136e565b815181106106eb576106ea610e7e565b5b6020026020010151925050505b60008054906101000a900473ffffffffffffffffffffffffffffffffffffffff1673ffffffffffffffffffffffffffffffffffffffff1663f8702fe1826040518060400160405280600581526020017f5354414b450000000000000000000000000000000000000000000000000000008152508860800160016003811061078257610781610e7e565b5b60200201356040518463ffffffff1660e01b81526004016107a59392919061103b565b6040805180830381865afa1580156107c1573d6000803e3d6000fd5b505050506040513d601f19601f820116820180604052508101906107e59190611079565b809350819450505060006108146108058486610caa90919063ffffffff16565b83610cc090919063ffffffff16565b905060008660000160006004811061082f5761082e610e7e565b5b6020020160208101906108429190610f0b565b90508073ffffffffffffffffffffffffffffffffffffffff16633950b3fd888060e001906108709190610f47565b60018b8060e001906108829190610f47565b905061088e919061136e565b81811061089e5761089d610e7e565b5b90506020020160208101906108b39190610f0b565b846040518363ffffffff1660e01b81526004016108d1929190610fb9565b602060405180830381865afa1580156108ee573d6000803e3d6000fd5b505050506040513d601f19601f82011682018060405250810190610912919061100e565b95505050509193909250565b670de0b6b3a764000081565b6040518060400160405280600781526020017f554e5354414b450000000000000000000000000000000000000000000000000081525081565b600080600080846080016002600381106109805761097f610e7e565b5b602002013590506001858060e001906109999190610f47565b90501115610aa0576000856000016003600481106109ba576109b9610e7e565b5b6020020160208101906109cd9190610f0b565b905060008173ffffffffffffffffffffffffffffffffffffffff16631f00ca7488608001600260038110610a0457610a03610e7e565b5b6020020135898060e00190610a199190610f47565b6040518463ffffffff1660e01b8152600401610a379392919061117c565b600060405180830381865afa158015610a54573d6000803e3d6000fd5b505050506040513d6000823e3d601f19601f82011682018060405250810190610a7d91906112f6565b905080600081518110610a9357610a92610e7e565b5b6020026020010151925050505b60008054906101000a900473ffffffffffffffffffffffffffffffffffffffff1673ffffffffffffffffffffffffffffffffffffffff1663f8702fe1826040518060400160405280600581526020017f5354414b4500000000000000000000000000000000000000000000000000000081525088608001600160038110610b2a57610b29610e7e565b5b60200201356040518463ffffffff1660e01b8152600401610b4d9392919061103b565b6040805180830381865afa158015610b69573d6000803e3d6000fd5b505050506040513d601f19601f82011682018060405250810190610b8d9190611079565b80935081945050506000610bbc610bad8486610caa90919063ffffffff16565b83610caa90919063ffffffff16565b9050600086600001600060048110610bd757610bd6610e7e565b5b602002016020810190610bea9190610f0b565b90508073ffffffffffffffffffffffffffffffffffffffff1663a3b3a16d888060e00190610c189190610f47565b6000818110610c2a57610c29610e7e565b5b9050602002016020810190610c3f9190610f0b565b846040518363ffffffff1660e01b8152600401610c5d929190610fb9565b602060405180830381865afa158015610c7a573d6000803e3d6000fd5b505050506040513d601f19601f82011682018060405250810190610c9e919061100e565b95505050509193909250565b60008183610cb891906113a2565b905092915050565b60008183610cce919061136e565b905092915050565b6000604051905090565b600080fd5b600080fd5b600080fd5b60006101008284031215610d0657610d05610cea565b5b81905092915050565b600060208284031215610d2557610d24610ce0565b5b600082013567ffffffffffffffff811115610d4357610d42610ce5565b5b610d4f84828501610cef565b91505092915050565b6000819050919050565b610d6b81610d58565b82525050565b6000606082019050610d866000830186610d62565b610d936020830185610d62565b610da06040830184610d62565b949350505050565b6000602082019050610dbd6000830184610d62565b92915050565b600081519050919050565b600082825260208201905092915050565b60005b83811015610dfd578082015181840152602081019050610de2565b83811115610e0c576000848401525b50505050565b6000601f19601f8301169050919050565b6000610e2e82610dc3565b610e388185610dce565b9350610e48818560208601610ddf565b610e5181610e12565b840191505092915050565b60006020820190508181036000830152610e768184610e23565b905092915050565b7f4e487b7100000000000000000000000000000000000000000000000000000000600052603260045260246000fd5b600073ffffffffffffffffffffffffffffffffffffffff82169050919050565b6000610ed882610ead565b9050919050565b610ee881610ecd565b8114610ef357600080fd5b50565b600081359050610f0581610edf565b92915050565b600060208284031215610f2157610f20610ce0565b5b6000610f2f84828501610ef6565b91505092915050565b600080fd5b600080fd5b600080fd5b60008083356001602003843603038112610f6457610f63610f38565b5b80840192508235915067ffffffffffffffff821115610f8657610f85610f3d565b5b602083019250602082023603831315610fa257610fa1610f42565b5b509250929050565b610fb381610ecd565b82525050565b6000604082019050610fce6000830185610faa565b610fdb6020830184610d62565b9392505050565b610feb81610d58565b8114610ff657600080fd5b50565b60008151905061100881610fe2565b92915050565b60006020828403121561102457611023610ce0565b5b600061103284828501610ff9565b91505092915050565b60006060820190506110506000830186610d62565b81810360208301526110628185610e23565b90506110716040830184610d62565b949350505050565b600080604083850312156110905761108f610ce0565b5b600061109e85828601610ff9565b92505060206110af85828601610ff9565b9150509250929050565b600082825260208201905092915050565b6000819050919050565b6110dd81610ecd565b82525050565b60006110ef83836110d4565b60208301905092915050565b600061110a6020840184610ef6565b905092915050565b6000602082019050919050565b600061112b83856110b9565b9350611136826110ca565b8060005b8581101561116f5761114c82846110fb565b61115688826110e3565b975061116183611112565b92505060018101905061113a565b5085925050509392505050565b60006040820190506111916000830186610d62565b81810360208301526111a481848661111f565b9050949350505050565b600080fd5b7f4e487b7100000000000000000000000000000000000000000000000000000000600052604160045260246000fd5b6111eb82610e12565b810181811067ffffffffffffffff8211171561120a576112096111b3565b5b80604052505050565b600061121d610cd6565b905061122982826111e2565b919050565b600067ffffffffffffffff821115611249576112486111b3565b5b602082029050602081019050919050565b600080fd5b600061127261126d8461122e565b611213565b905080838252602082019050602084028301858111156112955761129461125a565b5b835b818110156112be57806112aa8882610ff9565b845260208401935050602081019050611297565b5050509392505050565b600082601f8301126112dd576112dc6111ae565b5b81516112ed84826020860161125f565b91505092915050565b60006020828403121561130c5761130b610ce0565b5b600082015167ffffffffffffffff81111561132a57611329610ce5565b5b611336848285016112c8565b91505092915050565b7f4e487b7100000000000000000000000000000000000000000000000000000000600052601160045260246000fd5b600061137982610d58565b915061138483610d58565b9250828210156113975761139661133f565b5b828203905092915050565b60006113ad82610d58565b91506113b883610d58565b9250827fffffffffffffffffffffffffffffffffffffffffffffffffffffffffffffffff038211156113ed576113ec61133f565b5b82820190509291505056fea264697066735822122022c0bb577ad2ed5bb1598f669f49f01d18949c25f5221a3fa33f915c17c3999164736f6c634300080c0033",
  "linkReferences": {},
  "deployedLinkReferences": {}
}