{
  "_format": "hh-sol-artifact-1",
  "contractName": "StakeCalc",
  "sourceName": "contracts/defi/routers/StakeCalc.sol",
  "abi": [
    {
      "inputs": [
        {
          "internalType": "address",
          "name": "_feeCalc",
          "type": "address"
        }
      ],
      "stateMutability": "nonpayable",
      "type": "constructor"
    },
    {
      "inputs": [],
      "name": "BONE",
      "outputs": [
        {
          "internalType": "uint256",
          "name": "",
          "type": "uint256"
        }
      ],
      "stateMutability": "view",
      "type": "function"
    },
    {
      "inputs": [],
      "name": "BPOW_PRECISION",
      "outputs": [
        {
          "internalType": "uint256",
          "name": "",
          "type": "uint256"
        }
      ],
      "stateMutability": "view",
      "type": "function"
    },
    {
      "inputs": [],
      "name": "MAX_BPOW_BASE",
      "outputs": [
        {
          "internalType": "uint256",
          "name": "",
          "type": "uint256"
        }
      ],
      "stateMutability": "view",
      "type": "function"
    },
    {
      "inputs": [],
      "name": "MAX_INT",
      "outputs": [
        {
          "internalType": "uint256",
          "name": "",
          "type": "uint256"
        }
      ],
      "stateMutability": "view",
      "type": "function"
    },
    {
      "inputs": [],
      "name": "MIN_BPOW_BASE",
      "outputs": [
        {
          "internalType": "uint256",
          "name": "",
          "type": "uint256"
        }
      ],
      "stateMutability": "view",
      "type": "function"
    },
    {
      "inputs": [],
      "name": "STAKE_FEE_TYPE",
      "outputs": [
        {
          "internalType": "string",
          "name": "",
          "type": "string"
        }
      ],
      "stateMutability": "view",
      "type": "function"
    },
    {
      "inputs": [],
      "name": "TRADE_FEE_TYPE",
      "outputs": [
        {
          "internalType": "string",
          "name": "",
          "type": "string"
        }
      ],
      "stateMutability": "view",
      "type": "function"
    },
    {
      "inputs": [],
      "name": "UNSTAKE_FEE_TYPE",
      "outputs": [
        {
          "internalType": "string",
          "name": "",
          "type": "string"
        }
      ],
      "stateMutability": "view",
      "type": "function"
    },
    {
      "inputs": [],
      "name": "ZERO_FEES",
      "outputs": [
        {
          "internalType": "uint256",
          "name": "",
          "type": "uint256"
        }
      ],
      "stateMutability": "view",
      "type": "function"
    },
    {
      "inputs": [
        {
          "components": [
            {
              "internalType": "address[4]",
              "name": "meta",
              "type": "address[4]"
            },
            {
              "internalType": "uint256[3]",
              "name": "uints",
              "type": "uint256[3]"
            },
            {
              "internalType": "address[]",
              "name": "path",
              "type": "address[]"
            }
          ],
          "internalType": "struct StakeCalc.StakeInfo",
          "name": "info",
          "type": "tuple"
        }
      ],
      "name": "calcPoolInGivenTokenOut",
      "outputs": [
        {
          "internalType": "uint256",
          "name": "poolAmountIn",
          "type": "uint256"
        },
        {
          "internalType": "uint256",
          "name": "dataxFee",
          "type": "uint256"
        },
        {
          "internalType": "uint256",
          "name": "refFee",
          "type": "uint256"
        }
      ],
      "stateMutability": "view",
      "type": "function"
    },
    {
      "inputs": [
        {
          "components": [
            {
              "internalType": "address[4]",
              "name": "meta",
              "type": "address[4]"
            },
            {
              "internalType": "uint256[3]",
              "name": "uints",
              "type": "uint256[3]"
            },
            {
              "internalType": "address[]",
              "name": "path",
              "type": "address[]"
            }
          ],
          "internalType": "struct StakeCalc.StakeInfo",
          "name": "info",
          "type": "tuple"
        }
      ],
      "name": "calcPoolOutGivenTokenIn",
      "outputs": [
        {
          "internalType": "uint256",
          "name": "poolAmountOut",
          "type": "uint256"
        },
        {
          "internalType": "uint256",
          "name": "dataxFee",
          "type": "uint256"
        },
        {
          "internalType": "uint256",
          "name": "refFee",
          "type": "uint256"
        }
      ],
      "stateMutability": "view",
      "type": "function"
    },
    {
      "inputs": [
        {
          "components": [
            {
              "internalType": "address[4]",
              "name": "meta",
              "type": "address[4]"
            },
            {
              "internalType": "uint256[3]",
              "name": "uints",
              "type": "uint256[3]"
            },
            {
              "internalType": "address[]",
              "name": "path",
              "type": "address[]"
            }
          ],
          "internalType": "struct StakeCalc.StakeInfo",
          "name": "info",
          "type": "tuple"
        }
      ],
      "name": "calcTokenOutGivenPoolIn",
      "outputs": [
        {
          "internalType": "uint256",
          "name": "baseAmountOut",
          "type": "uint256"
        },
        {
          "internalType": "uint256",
          "name": "dataxFee",
          "type": "uint256"
        },
        {
          "internalType": "uint256",
          "name": "refFee",
          "type": "uint256"
        }
      ],
      "stateMutability": "view",
      "type": "function"
    }
  ],
  "bytecode": "0x60806040523480156200001157600080fd5b50604051620016d2380380620016d28339818101604052810190620000379190620000e8565b806000806101000a81548173ffffffffffffffffffffffffffffffffffffffff021916908373ffffffffffffffffffffffffffffffffffffffff160217905550506200011a565b600080fd5b600073ffffffffffffffffffffffffffffffffffffffff82169050919050565b6000620000b08262000083565b9050919050565b620000c281620000a3565b8114620000ce57600080fd5b50565b600081519050620000e281620000b7565b92915050565b6000602082840312156200010157620001006200007e565b5b60006200011184828501620000d1565b91505092915050565b6115a8806200012a6000396000f3fe608060405234801561001057600080fd5b50600436106100b45760003560e01c8063b9b2891611610071578063b9b2891614610181578063ba019dab146101b3578063bc694ea2146101d1578063c36596a6146101ef578063d09484c21461020d578063db76bfe41461022b576100b4565b806304bedd68146100b9578063098d3228146100eb578063189d00ca14610109578063220ab80c146101275780632b6e01db146101455780639cac5bc314610163575b600080fd5b6100d360048036038101906100ce9190610dcf565b61025d565b6040516100e293929190610e31565b60405180910390f35b6100f361058f565b6040516101009190610e68565b60405180910390f35b6101116105b3565b60405161011e9190610e68565b60405180910390f35b61012f6105cf565b60405161013c9190610f1c565b60405180910390f35b61014d610608565b60405161015a9190610e68565b60405180910390f35b61016b61060d565b6040516101789190610f1c565b60405180910390f35b61019b60048036038101906101969190610dcf565b610646565b6040516101aa93929190610e31565b60405180910390f35b6101bb6109b5565b6040516101c89190610e68565b60405180910390f35b6101d96109ba565b6040516101e69190610e68565b60405180910390f35b6101f76109de565b6040516102049190610e68565b60405180910390f35b6102156109ea565b6040516102229190610f1c565b60405180910390f35b61024560048036038101906102409190610dcf565b610a23565b60405161025493929190610e31565b60405180910390f35b6000806000808460000160006004811061027a57610279610f3e565b5b60200201602081019061028d9190610fcb565b905060008173ffffffffffffffffffffffffffffffffffffffff1663430ed5d0878060e001906102bd9190611007565b60008181106102cf576102ce610f3e565b5b90506020020160208101906102e49190610fcb565b886080016000600381106102fb576102fa610f3e565b5b60200201356040518363ffffffff1660e01b815260040161031d929190611079565b602060405180830381865afa15801561033a573d6000803e3d6000fd5b505050506040513d601f19601f8201168201806040525081019061035e91906110ce565b905060008054906101000a900473ffffffffffffffffffffffffffffffffffffffff1673ffffffffffffffffffffffffffffffffffffffff1663f8702fe1826040518060400160405280600581526020017f5354414b45000000000000000000000000000000000000000000000000000000815250896080016001600381106103ea576103e9610f3e565b5b60200201356040518463ffffffff1660e01b815260040161040d939291906110fb565b6040805180830381865afa158015610429573d6000803e3d6000fd5b505050506040513d601f19601f8201168201806040525081019061044d9190611139565b809450819550505061047a61046b8486610d6a90919063ffffffff16565b82610d8090919063ffffffff16565b94506001868060e0019061048e9190611007565b90501115610586576000866000016003600481106104af576104ae610f3e565b5b6020020160208101906104c29190610fcb565b905060008173ffffffffffffffffffffffffffffffffffffffff1663d06ca61f888a8060e001906104f39190611007565b6040518463ffffffff1660e01b81526004016105119392919061123c565b600060405180830381865afa15801561052e573d6000803e3d6000fd5b505050506040513d6000823e3d601f19601f8201168201806040525081019061055791906113b6565b90508060018251610568919061142e565b8151811061057957610578610f3e565b5b6020026020010151965050505b50509193909250565b7fffffffffffffffffffffffffffffffffffffffffffffffffffffffffffffffff81565b6402540be400670de0b6b3a76400006105cc9190611491565b81565b6040518060400160405280600581526020017f5354414b4500000000000000000000000000000000000000000000000000000081525081565b600081565b6040518060400160405280600581526020017f545241444500000000000000000000000000000000000000000000000000000081525081565b6000806000808460800160006003811061066357610662610f3e565b5b602002013590506001858060e0019061067c9190611007565b9050111561078f5760008560000160036004811061069d5761069c610f3e565b5b6020020160208101906106b09190610fcb565b905060008173ffffffffffffffffffffffffffffffffffffffff1663d06ca61f886080016000600381106106e7576106e6610f3e565b5b6020020135898060e001906106fc9190611007565b6040518463ffffffff1660e01b815260040161071a9392919061123c565b600060405180830381865afa158015610737573d6000803e3d6000fd5b505050506040513d6000823e3d601f19601f8201168201806040525081019061076091906113b6565b90508060018251610771919061142e565b8151811061078257610781610f3e565b5b6020026020010151925050505b60008054906101000a900473ffffffffffffffffffffffffffffffffffffffff1673ffffffffffffffffffffffffffffffffffffffff1663f8702fe1826040518060400160405280600581526020017f5354414b450000000000000000000000000000000000000000000000000000008152508860800160016003811061081957610818610f3e565b5b60200201356040518463ffffffff1660e01b815260040161083c939291906110fb565b6040805180830381865afa158015610858573d6000803e3d6000fd5b505050506040513d601f19601f8201168201806040525081019061087c9190611139565b809350819450505060006108ab61089c8486610d6a90919063ffffffff16565b83610d8090919063ffffffff16565b90506000866000016000600481106108c6576108c5610f3e565b5b6020020160208101906108d99190610fcb565b90508073ffffffffffffffffffffffffffffffffffffffff16633950b3fd888060e001906109079190611007565b60018b8060e001906109199190611007565b9050610925919061142e565b81811061093557610934610f3e565b5b905060200201602081019061094a9190610fcb565b846040518363ffffffff1660e01b8152600401610968929190611079565b602060405180830381865afa158015610985573d6000803e3d6000fd5b505050506040513d601f19601f820116820180604052508101906109a991906110ce565b95505050509193909250565b600181565b6001670de0b6b3a764000060026109d191906114c2565b6109db919061142e565b81565b670de0b6b3a764000081565b6040518060400160405280600781526020017f554e5354414b450000000000000000000000000000000000000000000000000081525081565b60008060008084608001600260038110610a4057610a3f610f3e565b5b602002013590506001858060e00190610a599190611007565b90501115610b6057600085600001600360048110610a7a57610a79610f3e565b5b602002016020810190610a8d9190610fcb565b905060008173ffffffffffffffffffffffffffffffffffffffff16631f00ca7488608001600260038110610ac457610ac3610f3e565b5b6020020135898060e00190610ad99190611007565b6040518463ffffffff1660e01b8152600401610af79392919061123c565b600060405180830381865afa158015610b14573d6000803e3d6000fd5b505050506040513d6000823e3d601f19601f82011682018060405250810190610b3d91906113b6565b905080600081518110610b5357610b52610f3e565b5b6020026020010151925050505b60008054906101000a900473ffffffffffffffffffffffffffffffffffffffff1673ffffffffffffffffffffffffffffffffffffffff1663f8702fe1826040518060400160405280600581526020017f5354414b4500000000000000000000000000000000000000000000000000000081525088608001600160038110610bea57610be9610f3e565b5b60200201356040518463ffffffff1660e01b8152600401610c0d939291906110fb565b6040805180830381865afa158015610c29573d6000803e3d6000fd5b505050506040513d601f19601f82011682018060405250810190610c4d9190611139565b80935081945050506000610c7c610c6d8486610d6a90919063ffffffff16565b83610d6a90919063ffffffff16565b9050600086600001600060048110610c9757610c96610f3e565b5b602002016020810190610caa9190610fcb565b90508073ffffffffffffffffffffffffffffffffffffffff1663a3b3a16d888060e00190610cd89190611007565b6000818110610cea57610ce9610f3e565b5b9050602002016020810190610cff9190610fcb565b846040518363ffffffff1660e01b8152600401610d1d929190611079565b602060405180830381865afa158015610d3a573d6000803e3d6000fd5b505050506040513d601f19601f82011682018060405250810190610d5e91906110ce565b95505050509193909250565b60008183610d78919061151c565b905092915050565b60008183610d8e919061142e565b905092915050565b6000604051905090565b600080fd5b600080fd5b600080fd5b60006101008284031215610dc657610dc5610daa565b5b81905092915050565b600060208284031215610de557610de4610da0565b5b600082013567ffffffffffffffff811115610e0357610e02610da5565b5b610e0f84828501610daf565b91505092915050565b6000819050919050565b610e2b81610e18565b82525050565b6000606082019050610e466000830186610e22565b610e536020830185610e22565b610e606040830184610e22565b949350505050565b6000602082019050610e7d6000830184610e22565b92915050565b600081519050919050565b600082825260208201905092915050565b60005b83811015610ebd578082015181840152602081019050610ea2565b83811115610ecc576000848401525b50505050565b6000601f19601f8301169050919050565b6000610eee82610e83565b610ef88185610e8e565b9350610f08818560208601610e9f565b610f1181610ed2565b840191505092915050565b60006020820190508181036000830152610f368184610ee3565b905092915050565b7f4e487b7100000000000000000000000000000000000000000000000000000000600052603260045260246000fd5b600073ffffffffffffffffffffffffffffffffffffffff82169050919050565b6000610f9882610f6d565b9050919050565b610fa881610f8d565b8114610fb357600080fd5b50565b600081359050610fc581610f9f565b92915050565b600060208284031215610fe157610fe0610da0565b5b6000610fef84828501610fb6565b91505092915050565b600080fd5b600080fd5b600080fd5b6000808335600160200384360303811261102457611023610ff8565b5b80840192508235915067ffffffffffffffff82111561104657611045610ffd565b5b60208301925060208202360383131561106257611061611002565b5b509250929050565b61107381610f8d565b82525050565b600060408201905061108e600083018561106a565b61109b6020830184610e22565b9392505050565b6110ab81610e18565b81146110b657600080fd5b50565b6000815190506110c8816110a2565b92915050565b6000602082840312156110e4576110e3610da0565b5b60006110f2848285016110b9565b91505092915050565b60006060820190506111106000830186610e22565b81810360208301526111228185610ee3565b90506111316040830184610e22565b949350505050565b600080604083850312156111505761114f610da0565b5b600061115e858286016110b9565b925050602061116f858286016110b9565b9150509250929050565b600082825260208201905092915050565b6000819050919050565b61119d81610f8d565b82525050565b60006111af8383611194565b60208301905092915050565b60006111ca6020840184610fb6565b905092915050565b6000602082019050919050565b60006111eb8385611179565b93506111f68261118a565b8060005b8581101561122f5761120c82846111bb565b61121688826111a3565b9750611221836111d2565b9250506001810190506111fa565b5085925050509392505050565b60006040820190506112516000830186610e22565b81810360208301526112648184866111df565b9050949350505050565b600080fd5b7f4e487b7100000000000000000000000000000000000000000000000000000000600052604160045260246000fd5b6112ab82610ed2565b810181811067ffffffffffffffff821117156112ca576112c9611273565b5b80604052505050565b60006112dd610d96565b90506112e982826112a2565b919050565b600067ffffffffffffffff82111561130957611308611273565b5b602082029050602081019050919050565b600080fd5b600061133261132d846112ee565b6112d3565b905080838252602082019050602084028301858111156113555761135461131a565b5b835b8181101561137e578061136a88826110b9565b845260208401935050602081019050611357565b5050509392505050565b600082601f83011261139d5761139c61126e565b5b81516113ad84826020860161131f565b91505092915050565b6000602082840312156113cc576113cb610da0565b5b600082015167ffffffffffffffff8111156113ea576113e9610da5565b5b6113f684828501611388565b91505092915050565b7f4e487b7100000000000000000000000000000000000000000000000000000000600052601160045260246000fd5b600061143982610e18565b915061144483610e18565b925082821015611457576114566113ff565b5b828203905092915050565b7f4e487b7100000000000000000000000000000000000000000000000000000000600052601260045260246000fd5b600061149c82610e18565b91506114a783610e18565b9250826114b7576114b6611462565b5b828204905092915050565b60006114cd82610e18565b91506114d883610e18565b9250817fffffffffffffffffffffffffffffffffffffffffffffffffffffffffffffffff0483118215151615611511576115106113ff565b5b828202905092915050565b600061152782610e18565b915061153283610e18565b9250827fffffffffffffffffffffffffffffffffffffffffffffffffffffffffffffffff03821115611567576115666113ff565b5b82820190509291505056fea2646970667358221220aec17e2bb5c2fd1ba92e6ce8430cb7b9dc5aaba42b58630c6dff15d1bf85822764736f6c634300080c0033",
  "linkReferences": {},
  "deployedLinkReferences": {}
}