{
  "_format": "hh-sol-artifact-1",
  "contractName": "Fee",
  "sourceName": "contracts/defi/utils/Fee.sol",
  "abi": [
    {
      "inputs": [],
      "stateMutability": "nonpayable",
      "type": "constructor"
    },
    {
      "inputs": [],
      "name": "BONE",
      "outputs": [
        {
          "internalType": "uint256",
          "name": "",
          "type": "uint256"
        }
      ],
      "stateMutability": "view",
      "type": "function"
    },
    {
      "inputs": [],
      "name": "BPOW_PRECISION",
      "outputs": [
        {
          "internalType": "uint256",
          "name": "",
          "type": "uint256"
        }
      ],
      "stateMutability": "view",
      "type": "function"
    },
    {
      "inputs": [],
      "name": "MAX_BPOW_BASE",
      "outputs": [
        {
          "internalType": "uint256",
          "name": "",
          "type": "uint256"
        }
      ],
      "stateMutability": "view",
      "type": "function"
    },
    {
      "inputs": [],
      "name": "MAX_INT",
      "outputs": [
        {
          "internalType": "uint256",
          "name": "",
          "type": "uint256"
        }
      ],
      "stateMutability": "view",
      "type": "function"
    },
    {
      "inputs": [],
      "name": "MIN_BPOW_BASE",
      "outputs": [
        {
          "internalType": "uint256",
          "name": "",
          "type": "uint256"
        }
      ],
      "stateMutability": "view",
      "type": "function"
    },
    {
      "inputs": [],
      "name": "ZERO_FEES",
      "outputs": [
        {
          "internalType": "uint256",
          "name": "",
          "type": "uint256"
        }
      ],
      "stateMutability": "view",
      "type": "function"
    },
    {
      "inputs": [],
      "name": "acceptPendingAdmin",
      "outputs": [],
      "stateMutability": "nonpayable",
      "type": "function"
    },
    {
      "inputs": [],
      "name": "admin",
      "outputs": [
        {
          "internalType": "address",
          "name": "",
          "type": "address"
        }
      ],
      "stateMutability": "view",
      "type": "function"
    },
    {
      "inputs": [
        {
          "internalType": "uint256",
          "name": "baseAmount",
          "type": "uint256"
        },
        {
          "internalType": "string",
          "name": "feeType",
          "type": "string"
        },
        {
          "internalType": "uint256",
          "name": "refFeeRate",
          "type": "uint256"
        }
      ],
      "name": "calcFees",
      "outputs": [
        {
          "internalType": "uint256",
          "name": "dataxFee",
          "type": "uint256"
        },
        {
          "internalType": "uint256",
          "name": "refFee",
          "type": "uint256"
        }
      ],
      "stateMutability": "view",
      "type": "function"
    },
    {
      "inputs": [
        {
          "internalType": "bytes32",
          "name": "",
          "type": "bytes32"
        }
      ],
      "name": "fees",
      "outputs": [
        {
          "internalType": "uint256",
          "name": "",
          "type": "uint256"
        }
      ],
      "stateMutability": "view",
      "type": "function"
    },
    {
      "inputs": [
        {
          "internalType": "string",
          "name": "key",
          "type": "string"
        }
      ],
      "name": "getFees",
      "outputs": [
        {
          "internalType": "uint256",
          "name": "",
          "type": "uint256"
        }
      ],
      "stateMutability": "view",
      "type": "function"
    },
    {
      "inputs": [],
      "name": "pendingAdmin",
      "outputs": [
        {
          "internalType": "address",
          "name": "",
          "type": "address"
        }
      ],
      "stateMutability": "view",
      "type": "function"
    },
    {
      "inputs": [
        {
          "internalType": "address",
          "name": "newAdmin",
          "type": "address"
        }
      ],
      "name": "setPendingAdmin",
      "outputs": [],
      "stateMutability": "nonpayable",
      "type": "function"
    },
    {
      "inputs": [
        {
          "internalType": "string",
          "name": "key",
          "type": "string"
        },
        {
          "internalType": "uint256",
          "name": "value",
          "type": "uint256"
        }
      ],
      "name": "updateFees",
      "outputs": [],
      "stateMutability": "nonpayable",
      "type": "function"
    },
    {
      "inputs": [
        {
          "internalType": "uint256",
          "name": "amount",
          "type": "uint256"
        }
      ],
      "name": "withdrawETH",
      "outputs": [],
      "stateMutability": "nonpayable",
      "type": "function"
    },
    {
      "inputs": [
        {
          "internalType": "address",
          "name": "tokenAddress",
          "type": "address"
        },
        {
          "internalType": "uint256",
          "name": "amount",
          "type": "uint256"
        }
      ],
      "name": "withdrawToken",
      "outputs": [],
      "stateMutability": "nonpayable",
      "type": "function"
    }
  ],
  "bytecode": "0x608060405234801561001057600080fd5b50600160008190555033600160006101000a81548173ffffffffffffffffffffffffffffffffffffffff021916908373ffffffffffffffffffffffffffffffffffffffff16021790555033600160006101000a81548173ffffffffffffffffffffffffffffffffffffffff021916908373ffffffffffffffffffffffffffffffffffffffff160217905550611bf1806100aa6000396000f3fe608060405234801561001057600080fd5b50600436106101005760003560e01c8063bc694ea211610097578063f14210a611610066578063f14210a614610279578063f3dd696014610295578063f851a440146102b1578063f8702fe1146102cf57610100565b8063bc694ea2146101dd578063c36596a6146101fb578063cdb5661f14610219578063eb90b2bc1461024957610100565b80634dd18bf5116100d35780634dd18bf51461017d578063709920c1146101995780639e281a98146101a3578063ba019dab146101bf57610100565b8063098d322814610105578063189d00ca1461012357806326782247146101415780632b6e01db1461015f575b600080fd5b61010d610300565b60405161011a9190610f6a565b60405180910390f35b61012b610324565b6040516101389190610f6a565b60405180910390f35b610149610340565b6040516101569190610fc6565b60405180910390f35b610167610366565b6040516101749190610f6a565b60405180910390f35b61019760048036038101906101929190611021565b61036b565b005b6101a161043f565b005b6101bd60048036038101906101b8919061107a565b6105d1565b005b6101c7610722565b6040516101d49190610f6a565b60405180910390f35b6101e5610727565b6040516101f29190610f6a565b60405180910390f35b61020361074b565b6040516102109190610f6a565b60405180910390f35b610233600480360381019061022e91906110f0565b610757565b6040516102409190610f6a565b60405180910390f35b610263600480360381019061025e9190611263565b61076f565b6040516102709190610f6a565b60405180910390f35b610293600480360381019061028e91906112ac565b610799565b005b6102af60048036038101906102aa91906112d9565b6108fb565b005b6102b96109b5565b6040516102c69190610fc6565b60405180910390f35b6102e960048036038101906102e49190611335565b6109db565b6040516102f79291906113a4565b60405180910390f35b7fffffffffffffffffffffffffffffffffffffffffffffffffffffffffffffffff81565b6402540be400670de0b6b3a764000061033d919061142b565b81565b600260009054906101000a900473ffffffffffffffffffffffffffffffffffffffff1681565b600081565b600160009054906101000a900473ffffffffffffffffffffffffffffffffffffffff1673ffffffffffffffffffffffffffffffffffffffff163373ffffffffffffffffffffffffffffffffffffffff16146103fb576040517f08c379a00000000000000000000000000000000000000000000000000000000081526004016103f2906114b9565b60405180910390fd5b80600260006101000a81548173ffffffffffffffffffffffffffffffffffffffff021916908373ffffffffffffffffffffffffffffffffffffffff16021790555050565b600260009054906101000a900473ffffffffffffffffffffffffffffffffffffffff1673ffffffffffffffffffffffffffffffffffffffff163373ffffffffffffffffffffffffffffffffffffffff161480156104eb5750600073ffffffffffffffffffffffffffffffffffffffff16600260009054906101000a900473ffffffffffffffffffffffffffffffffffffffff1673ffffffffffffffffffffffffffffffffffffffff1614155b61052a576040517f08c379a000000000000000000000000000000000000000000000000000000000815260040161052190611525565b60405180910390fd5b600260009054906101000a900473ffffffffffffffffffffffffffffffffffffffff16600160006101000a81548173ffffffffffffffffffffffffffffffffffffffff021916908373ffffffffffffffffffffffffffffffffffffffff1602179055506000600260006101000a81548173ffffffffffffffffffffffffffffffffffffffff021916908373ffffffffffffffffffffffffffffffffffffffff160217905550565b600160009054906101000a900473ffffffffffffffffffffffffffffffffffffffff1673ffffffffffffffffffffffffffffffffffffffff163373ffffffffffffffffffffffffffffffffffffffff1614610661576040517f08c379a0000000000000000000000000000000000000000000000000000000008152600401610658906114b9565b60405180910390fd5b600073ffffffffffffffffffffffffffffffffffffffff168273ffffffffffffffffffffffffffffffffffffffff1614156106d1576040517f08c379a00000000000000000000000000000000000000000000000000000000081526004016106c8906115b7565b60405180910390fd5b61071e600160009054906101000a900473ffffffffffffffffffffffffffffffffffffffff16828473ffffffffffffffffffffffffffffffffffffffff16610aa69092919063ffffffff16565b5050565b600181565b6001670de0b6b3a7640000600261073e91906115d7565b6107489190611631565b81565b670de0b6b3a764000081565b60036020528060005260406000206000915090505481565b60008061077b83610b2c565b90506003600082815260200190815260200160002054915050919050565b600160009054906101000a900473ffffffffffffffffffffffffffffffffffffffff1673ffffffffffffffffffffffffffffffffffffffff163373ffffffffffffffffffffffffffffffffffffffff1614610829576040517f08c379a0000000000000000000000000000000000000000000000000000000008152600401610820906114b9565b60405180910390fd5b6000600160009054906101000a900473ffffffffffffffffffffffffffffffffffffffff1673ffffffffffffffffffffffffffffffffffffffff168260405161087190611696565b60006040518083038185875af1925050503d80600081146108ae576040519150601f19603f3d011682016040523d82523d6000602084013e6108b3565b606091505b50509050806108f7576040517f08c379a00000000000000000000000000000000000000000000000000000000081526004016108ee906116f7565b60405180910390fd5b5050565b600160009054906101000a900473ffffffffffffffffffffffffffffffffffffffff1673ffffffffffffffffffffffffffffffffffffffff163373ffffffffffffffffffffffffffffffffffffffff161461098b576040517f08c379a0000000000000000000000000000000000000000000000000000000008152600401610982906114b9565b60405180910390fd5b600061099683610b2c565b9050816003600083815260200190815260200160002081905550505050565b600160009054906101000a900473ffffffffffffffffffffffffffffffffffffffff1681565b60008060006109e98561076f565b90506109fd670de0b6b3a764000082610b56565b841115610a3f576040517f08c379a0000000000000000000000000000000000000000000000000000000008152600401610a3690611763565b60405180910390fd5b60008114610a6e57610a6b86610a6688610a61670de0b6b3a764000086610b56565b610bb5565b610b56565b92505b60008414610a9d57610a9a86610a9588610a90670de0b6b3a764000089610b56565b610bb5565b610b56565b91505b50935093915050565b610b278363a9059cbb60e01b8484604051602401610ac5929190611783565b604051602081830303815290604052907bffffffffffffffffffffffffffffffffffffffffffffffffffffffff19166020820180517bffffffffffffffffffffffffffffffffffffffffffffffffffffffff8381831617835250505050610ca9565b505050565b600080829050600081511415610b48576000801b915050610b51565b60208301519150505b919050565b6000806000610b658585610d70565b915091508015610baa576040517f08c379a0000000000000000000000000000000000000000000000000000000008152600401610ba1906117f8565b60405180910390fd5b819250505092915050565b6000808284610bc491906115d7565b90506000841480610bdf5750828482610bdd919061142b565b145b610c1e576040517f08c379a0000000000000000000000000000000000000000000000000000000008152600401610c1590611864565b60405180910390fd5b60006002670de0b6b3a7640000610c35919061142b565b82610c409190611884565b905081811015610c85576040517f08c379a0000000000000000000000000000000000000000000000000000000008152600401610c7c90611864565b60405180910390fd5b6000670de0b6b3a764000082610c9b919061142b565b905080935050505092915050565b6000610d0b826040518060400160405280602081526020017f5361666545524332303a206c6f772d6c6576656c2063616c6c206661696c65648152508573ffffffffffffffffffffffffffffffffffffffff16610dab9092919063ffffffff16565b9050600081511115610d6b5780806020019051810190610d2b9190611912565b610d6a576040517f08c379a0000000000000000000000000000000000000000000000000000000008152600401610d61906119b1565b60405180910390fd5b5b505050565b600080828410610d91578284610d869190611631565b600091509150610da4565b8383610d9d9190611631565b6001915091505b9250929050565b6060610dba8484600085610dc3565b90509392505050565b606082471015610e08576040517f08c379a0000000000000000000000000000000000000000000000000000000008152600401610dff90611a43565b60405180910390fd5b610e1185610ed7565b610e50576040517f08c379a0000000000000000000000000000000000000000000000000000000008152600401610e4790611aaf565b60405180910390fd5b6000808673ffffffffffffffffffffffffffffffffffffffff168587604051610e799190611b3e565b60006040518083038185875af1925050503d8060008114610eb6576040519150601f19603f3d011682016040523d82523d6000602084013e610ebb565b606091505b5091509150610ecb828286610eea565b92505050949350505050565b600080823b905060008111915050919050565b60608315610efa57829050610f4a565b600083511115610f0d5782518084602001fd5b816040517f08c379a0000000000000000000000000000000000000000000000000000000008152600401610f419190611b99565b60405180910390fd5b9392505050565b6000819050919050565b610f6481610f51565b82525050565b6000602082019050610f7f6000830184610f5b565b92915050565b600073ffffffffffffffffffffffffffffffffffffffff82169050919050565b6000610fb082610f85565b9050919050565b610fc081610fa5565b82525050565b6000602082019050610fdb6000830184610fb7565b92915050565b6000604051905090565b600080fd5b600080fd5b610ffe81610fa5565b811461100957600080fd5b50565b60008135905061101b81610ff5565b92915050565b60006020828403121561103757611036610feb565b5b60006110458482850161100c565b91505092915050565b61105781610f51565b811461106257600080fd5b50565b6000813590506110748161104e565b92915050565b6000806040838503121561109157611090610feb565b5b600061109f8582860161100c565b92505060206110b085828601611065565b9150509250929050565b6000819050919050565b6110cd816110ba565b81146110d857600080fd5b50565b6000813590506110ea816110c4565b92915050565b60006020828403121561110657611105610feb565b5b6000611114848285016110db565b91505092915050565b600080fd5b600080fd5b6000601f19601f8301169050919050565b7f4e487b7100000000000000000000000000000000000000000000000000000000600052604160045260246000fd5b61117082611127565b810181811067ffffffffffffffff8211171561118f5761118e611138565b5b80604052505050565b60006111a2610fe1565b90506111ae8282611167565b919050565b600067ffffffffffffffff8211156111ce576111cd611138565b5b6111d782611127565b9050602081019050919050565b82818337600083830152505050565b6000611206611201846111b3565b611198565b90508281526020810184848401111561122257611221611122565b5b61122d8482856111e4565b509392505050565b600082601f83011261124a5761124961111d565b5b813561125a8482602086016111f3565b91505092915050565b60006020828403121561127957611278610feb565b5b600082013567ffffffffffffffff81111561129757611296610ff0565b5b6112a384828501611235565b91505092915050565b6000602082840312156112c2576112c1610feb565b5b60006112d084828501611065565b91505092915050565b600080604083850312156112f0576112ef610feb565b5b600083013567ffffffffffffffff81111561130e5761130d610ff0565b5b61131a85828601611235565b925050602061132b85828601611065565b9150509250929050565b60008060006060848603121561134e5761134d610feb565b5b600061135c86828701611065565b935050602084013567ffffffffffffffff81111561137d5761137c610ff0565b5b61138986828701611235565b925050604061139a86828701611065565b9150509250925092565b60006040820190506113b96000830185610f5b565b6113c66020830184610f5b565b9392505050565b7f4e487b7100000000000000000000000000000000000000000000000000000000600052601260045260246000fd5b7f4e487b7100000000000000000000000000000000000000000000000000000000600052601160045260246000fd5b600061143682610f51565b915061144183610f51565b925082611451576114506113cd565b5b828204905092915050565b600082825260208201905092915050565b7f61646d696e206f6e6c7900000000000000000000000000000000000000000000600082015250565b60006114a3600a8361145c565b91506114ae8261146d565b602082019050919050565b600060208201905081810360008301526114d281611496565b9050919050565b7f43616c6c6572206d757374206265207468652070656e64696e672061646d696e600082015250565b600061150f60208361145c565b915061151a826114d9565b602082019050919050565b6000602082019050818103600083015261153e81611502565b9050919050565b7f4665653a20696e76616c696420746f6b656e20636f6e7472616374206164647260008201527f6573730000000000000000000000000000000000000000000000000000000000602082015250565b60006115a160238361145c565b91506115ac82611545565b604082019050919050565b600060208201905081810360008301526115d081611594565b9050919050565b60006115e282610f51565b91506115ed83610f51565b9250817fffffffffffffffffffffffffffffffffffffffffffffffffffffffffffffffff0483118215151615611626576116256113fc565b5b828202905092915050565b600061163c82610f51565b915061164783610f51565b92508282101561165a576116596113fc565b5b828203905092915050565b600081905092915050565b50565b6000611680600083611665565b915061168b82611670565b600082019050919050565b60006116a182611673565b9150819050919050565b7f4665653a20556e61626c6520746f207769746864726177204554482000000000600082015250565b60006116e1601c8361145c565b91506116ec826116ab565b602082019050919050565b60006020820190508181036000830152611710816116d4565b9050919050565b7f4665653a20526566204665657320746f6f206869676800000000000000000000600082015250565b600061174d60168361145c565b915061175882611717565b602082019050919050565b6000602082019050818103600083015261177c81611740565b9050919050565b60006040820190506117986000830185610fb7565b6117a56020830184610f5b565b9392505050565b7f4552525f5355425f554e444552464c4f57000000000000000000000000000000600082015250565b60006117e260118361145c565b91506117ed826117ac565b602082019050919050565b60006020820190508181036000830152611811816117d5565b9050919050565b7f4552525f4d554c5f4f564552464c4f5700000000000000000000000000000000600082015250565b600061184e60108361145c565b915061185982611818565b602082019050919050565b6000602082019050818103600083015261187d81611841565b9050919050565b600061188f82610f51565b915061189a83610f51565b9250827fffffffffffffffffffffffffffffffffffffffffffffffffffffffffffffffff038211156118cf576118ce6113fc565b5b828201905092915050565b60008115159050919050565b6118ef816118da565b81146118fa57600080fd5b50565b60008151905061190c816118e6565b92915050565b60006020828403121561192857611927610feb565b5b6000611936848285016118fd565b91505092915050565b7f5361666545524332303a204552433230206f7065726174696f6e20646964206e60008201527f6f74207375636365656400000000000000000000000000000000000000000000602082015250565b600061199b602a8361145c565b91506119a68261193f565b604082019050919050565b600060208201905081810360008301526119ca8161198e565b9050919050565b7f416464726573733a20696e73756666696369656e742062616c616e636520666f60008201527f722063616c6c0000000000000000000000000000000000000000000000000000602082015250565b6000611a2d60268361145c565b9150611a38826119d1565b604082019050919050565b60006020820190508181036000830152611a5c81611a20565b9050919050565b7f416464726573733a2063616c6c20746f206e6f6e2d636f6e7472616374000000600082015250565b6000611a99601d8361145c565b9150611aa482611a63565b602082019050919050565b60006020820190508181036000830152611ac881611a8c565b9050919050565b600081519050919050565b60005b83811015611af8578082015181840152602081019050611add565b83811115611b07576000848401525b50505050565b6000611b1882611acf565b611b228185611665565b9350611b32818560208601611ada565b80840191505092915050565b6000611b4a8284611b0d565b915081905092915050565b600081519050919050565b6000611b6b82611b55565b611b75818561145c565b9350611b85818560208601611ada565b611b8e81611127565b840191505092915050565b60006020820190508181036000830152611bb38184611b60565b90509291505056fea2646970667358221220a08f46662e15efa3138b9b14731ed6bc30707caee903763c02ed97a7c3680c6a64736f6c634300080c0033",
  "linkReferences": {},
  "deployedLinkReferences": {}
}