{
  "_format": "hh-sol-artifact-1",
  "contractName": "Math",
  "sourceName": "contracts/defi/utils/Math.sol",
  "abi": [
    {
      "inputs": [],
      "name": "BONE",
      "outputs": [
        {
          "internalType": "uint256",
          "name": "",
          "type": "uint256"
        }
      ],
      "stateMutability": "view",
      "type": "function"
    },
    {
      "inputs": [],
      "name": "BPOW_PRECISION",
      "outputs": [
        {
          "internalType": "uint256",
          "name": "",
          "type": "uint256"
        }
      ],
      "stateMutability": "view",
      "type": "function"
    },
    {
      "inputs": [],
      "name": "MAX_BPOW_BASE",
      "outputs": [
        {
          "internalType": "uint256",
          "name": "",
          "type": "uint256"
        }
      ],
      "stateMutability": "view",
      "type": "function"
    },
    {
      "inputs": [],
      "name": "MAX_INT",
      "outputs": [
        {
          "internalType": "uint256",
          "name": "",
          "type": "uint256"
        }
      ],
      "stateMutability": "view",
      "type": "function"
    },
    {
      "inputs": [],
      "name": "MIN_BPOW_BASE",
      "outputs": [
        {
          "internalType": "uint256",
          "name": "",
          "type": "uint256"
        }
      ],
      "stateMutability": "view",
      "type": "function"
    },
    {
      "inputs": [],
      "name": "STAKE_FEE_TYPE",
      "outputs": [
        {
          "internalType": "string",
          "name": "",
          "type": "string"
        }
      ],
      "stateMutability": "view",
      "type": "function"
    },
    {
      "inputs": [],
      "name": "TRADE_FEE_TYPE",
      "outputs": [
        {
          "internalType": "string",
          "name": "",
          "type": "string"
        }
      ],
      "stateMutability": "view",
      "type": "function"
    },
    {
      "inputs": [],
      "name": "UNSTAKE_FEE_TYPE",
      "outputs": [
        {
          "internalType": "string",
          "name": "",
          "type": "string"
        }
      ],
      "stateMutability": "view",
      "type": "function"
    },
    {
      "inputs": [],
      "name": "ZERO_FEES",
      "outputs": [
        {
          "internalType": "uint256",
          "name": "",
          "type": "uint256"
        }
      ],
      "stateMutability": "view",
      "type": "function"
    }
  ],
  "bytecode": "0x608060405234801561001057600080fd5b5061050d806100206000396000f3fe608060405234801561001057600080fd5b50600436106100935760003560e01c80639cac5bc3116100665780639cac5bc314610110578063ba019dab1461012e578063bc694ea21461014c578063c36596a61461016a578063d09484c21461018857610093565b8063098d322814610098578063189d00ca146100b6578063220ab80c146100d45780632b6e01db146100f2575b600080fd5b6100a06101a6565b6040516100ad91906102e4565b60405180910390f35b6100be6101ca565b6040516100cb91906102e4565b60405180910390f35b6100dc6101e6565b6040516100e99190610398565b60405180910390f35b6100fa61021f565b60405161010791906102e4565b60405180910390f35b610118610224565b6040516101259190610398565b60405180910390f35b61013661025d565b60405161014391906102e4565b60405180910390f35b610154610262565b60405161016191906102e4565b60405180910390f35b610172610286565b60405161017f91906102e4565b60405180910390f35b610190610292565b60405161019d9190610398565b60405180910390f35b7fffffffffffffffffffffffffffffffffffffffffffffffffffffffffffffffff81565b6402540be400670de0b6b3a76400006101e39190610418565b81565b6040518060400160405280600581526020017f5354414b4500000000000000000000000000000000000000000000000000000081525081565b600081565b6040518060400160405280600581526020017f545241444500000000000000000000000000000000000000000000000000000081525081565b600181565b6001670de0b6b3a764000060026102799190610449565b61028391906104a3565b81565b670de0b6b3a764000081565b6040518060400160405280600781526020017f554e5354414b450000000000000000000000000000000000000000000000000081525081565b6000819050919050565b6102de816102cb565b82525050565b60006020820190506102f960008301846102d5565b92915050565b600081519050919050565b600082825260208201905092915050565b60005b8381101561033957808201518184015260208101905061031e565b83811115610348576000848401525b50505050565b6000601f19601f8301169050919050565b600061036a826102ff565b610374818561030a565b935061038481856020860161031b565b61038d8161034e565b840191505092915050565b600060208201905081810360008301526103b2818461035f565b905092915050565b7f4e487b7100000000000000000000000000000000000000000000000000000000600052601260045260246000fd5b7f4e487b7100000000000000000000000000000000000000000000000000000000600052601160045260246000fd5b6000610423826102cb565b915061042e836102cb565b92508261043e5761043d6103ba565b5b828204905092915050565b6000610454826102cb565b915061045f836102cb565b9250817fffffffffffffffffffffffffffffffffffffffffffffffffffffffffffffffff0483118215151615610498576104976103e9565b5b828202905092915050565b60006104ae826102cb565b91506104b9836102cb565b9250828210156104cc576104cb6103e9565b5b82820390509291505056fea26469706673582212202e8e57e9db6bc544cd89325c8b4019522514623ecf7c4ea81dc6338e31aebf7c64736f6c634300080c0033",
  "linkReferences": {},
  "deployedLinkReferences": {}
}