{
  "_format": "hh-sol-artifact-1",
  "contractName": "UniV2Adapter",
  "sourceName": "contracts/defi/adapters/UniV2Adapter.sol",
  "abi": [
    {
      "inputs": [
        {
          "internalType": "address",
          "name": "_routerAddress",
          "type": "address"
        }
      ],
      "stateMutability": "nonpayable",
      "type": "constructor"
    },
    {
      "anonymous": false,
      "inputs": [
        {
          "indexed": false,
          "internalType": "address[]",
          "name": "path",
          "type": "address[]"
        },
        {
          "indexed": false,
          "internalType": "uint256",
          "name": "amountOut",
          "type": "uint256"
        }
      ],
      "name": "Swapped",
      "type": "event"
    },
    {
      "inputs": [
        {
          "internalType": "uint256",
          "name": "amountOut",
          "type": "uint256"
        },
        {
          "internalType": "address[]",
          "name": "path",
          "type": "address[]"
        }
      ],
      "name": "getAmountsIn",
      "outputs": [
        {
          "internalType": "uint256[]",
          "name": "amounts",
          "type": "uint256[]"
        }
      ],
      "stateMutability": "view",
      "type": "function"
    },
    {
      "inputs": [
        {
          "internalType": "uint256",
          "name": "amountIn",
          "type": "uint256"
        },
        {
          "internalType": "address[]",
          "name": "path",
          "type": "address[]"
        }
      ],
      "name": "getAmountsOut",
      "outputs": [
        {
          "internalType": "uint256[]",
          "name": "amounts",
          "type": "uint256[]"
        }
      ],
      "stateMutability": "view",
      "type": "function"
    },
    {
      "inputs": [
        {
          "internalType": "uint256",
          "name": "amountOut",
          "type": "uint256"
        },
        {
          "internalType": "address[]",
          "name": "path",
          "type": "address[]"
        },
        {
          "internalType": "address",
          "name": "to",
          "type": "address"
        },
        {
          "internalType": "address",
          "name": "refundTo",
          "type": "address"
        }
      ],
      "name": "swapETHForExactTokens",
      "outputs": [
        {
          "internalType": "uint256",
          "name": "tokenAmountOut",
          "type": "uint256"
        },
        {
          "internalType": "uint256",
          "name": "refund",
          "type": "uint256"
        }
      ],
      "stateMutability": "payable",
      "type": "function"
    },
    {
      "inputs": [
        {
          "internalType": "uint256",
          "name": "amountOutMin",
          "type": "uint256"
        },
        {
          "internalType": "address[]",
          "name": "path",
          "type": "address[]"
        },
        {
          "internalType": "address",
          "name": "to",
          "type": "address"
        }
      ],
      "name": "swapExactETHForTokens",
      "outputs": [
        {
          "internalType": "uint256",
          "name": "tokenAmountOut",
          "type": "uint256"
        }
      ],
      "stateMutability": "payable",
      "type": "function"
    },
    {
      "inputs": [
        {
          "internalType": "uint256",
          "name": "amountIn",
          "type": "uint256"
        },
        {
          "internalType": "uint256",
          "name": "amountOutMin",
          "type": "uint256"
        },
        {
          "internalType": "address[]",
          "name": "path",
          "type": "address[]"
        },
        {
          "internalType": "address",
          "name": "to",
          "type": "address"
        }
      ],
      "name": "swapExactTokensForETH",
      "outputs": [
        {
          "internalType": "uint256",
          "name": "amtOut",
          "type": "uint256"
        }
      ],
      "stateMutability": "nonpayable",
      "type": "function"
    },
    {
      "inputs": [
        {
          "internalType": "uint256",
          "name": "amountIn",
          "type": "uint256"
        },
        {
          "internalType": "uint256",
          "name": "amountOutMin",
          "type": "uint256"
        },
        {
          "internalType": "address[]",
          "name": "path",
          "type": "address[]"
        },
        {
          "internalType": "address",
          "name": "to",
          "type": "address"
        }
      ],
      "name": "swapExactTokensForTokens",
      "outputs": [
        {
          "internalType": "uint256",
          "name": "amountOut",
          "type": "uint256"
        }
      ],
      "stateMutability": "nonpayable",
      "type": "function"
    },
    {
      "inputs": [
        {
          "internalType": "uint256",
          "name": "amountOut",
          "type": "uint256"
        },
        {
          "internalType": "uint256",
          "name": "amountInMax",
          "type": "uint256"
        },
        {
          "internalType": "address[]",
          "name": "path",
          "type": "address[]"
        },
        {
          "internalType": "address",
          "name": "to",
          "type": "address"
        },
        {
          "internalType": "address",
          "name": "refundTo",
          "type": "address"
        }
      ],
      "name": "swapTokensForExactETH",
      "outputs": [
        {
          "internalType": "uint256",
          "name": "tokenAmountIn",
          "type": "uint256"
        },
        {
          "internalType": "uint256",
          "name": "refund",
          "type": "uint256"
        }
      ],
      "stateMutability": "payable",
      "type": "function"
    },
    {
      "inputs": [
        {
          "internalType": "uint256",
          "name": "amountOut",
          "type": "uint256"
        },
        {
          "internalType": "uint256",
          "name": "amountInMax",
          "type": "uint256"
        },
        {
          "internalType": "address[]",
          "name": "path",
          "type": "address[]"
        },
        {
          "internalType": "address",
          "name": "to",
          "type": "address"
        },
        {
          "internalType": "address",
          "name": "refundTo",
          "type": "address"
        }
      ],
      "name": "swapTokensForExactTokens",
      "outputs": [
        {
          "internalType": "uint256",
          "name": "tokenAmountOut",
          "type": "uint256"
        },
        {
          "internalType": "uint256",
          "name": "refund",
          "type": "uint256"
        }
      ],
      "stateMutability": "nonpayable",
      "type": "function"
    },
    {
      "stateMutability": "payable",
      "type": "receive"
    }
  ],
  "bytecode": "0x60806040523480156200001157600080fd5b506040516200284e3803806200284e8339818101604052810190620000379190620000e8565b806000806101000a81548173ffffffffffffffffffffffffffffffffffffffff021916908373ffffffffffffffffffffffffffffffffffffffff160217905550506200011a565b600080fd5b600073ffffffffffffffffffffffffffffffffffffffff82169050919050565b6000620000b08262000083565b9050919050565b620000c281620000a3565b8114620000ce57600080fd5b50565b600081519050620000e281620000b7565b92915050565b6000602082840312156200010157620001006200007e565b5b60006200011184828501620000d1565b91505092915050565b612724806200012a6000396000f3fe60806040526004361061007f5760003560e01c8063472b43f31161004e578063472b43f3146101665780635ec9ef61146101a3578063be42cae0146101e1578063d06ca61f1461021257610086565b806312c6442f1461008b5780631f00ca74146100bb578063363db5c6146100f85780633d6e17d41461013557610086565b3661008657005b600080fd5b6100a560048036038101906100a09190611932565b61024f565b6040516100b291906119b5565b60405180910390f35b3480156100c757600080fd5b506100e260048036038101906100dd9190611b1f565b610379565b6040516100ef9190611c39565b60405180910390f35b34801561010457600080fd5b5061011f600480360381019061011a9190611c5b565b610424565b60405161012c91906119b5565b60405180910390f35b61014f600480360381019061014a9190611ce3565b6107d7565b60405161015d929190611d7d565b60405180910390f35b34801561017257600080fd5b5061018d60048036038101906101889190611c5b565b610cb8565b60405161019a91906119b5565b60405180910390f35b3480156101af57600080fd5b506101ca60048036038101906101c59190611ce3565b61106b565b6040516101d8929190611d7d565b60405180910390f35b6101fb60048036038101906101f69190611da6565b611558565b604051610209929190611d7d565b60405180910390f35b34801561021e57600080fd5b5061023960048036038101906102349190611b1f565b611764565b6040516102469190611c39565b60405180910390f35b60008060008054906101000a900473ffffffffffffffffffffffffffffffffffffffff1673ffffffffffffffffffffffffffffffffffffffff16637ff36ab53488888888610258426102a19190611e5d565b6040518763ffffffff1660e01b81526004016102c1959493929190611f85565b60006040518083038185885af11580156102df573d6000803e3d6000fd5b50505050506040513d6000823e3d601f19601f8201168201806040525081019061030991906120ab565b9050806001825161031a91906120f4565b8151811061032b5761032a612128565b5b602002602001015191507f4d5b890940c072753124125e8b6badf4f1901253f9b8496f832662116bf0df5885858460405161036893929190612157565b60405180910390a150949350505050565b606060008054906101000a900473ffffffffffffffffffffffffffffffffffffffff1673ffffffffffffffffffffffffffffffffffffffff16631f00ca7484846040518363ffffffff1660e01b81526004016103d692919061220f565b600060405180830381865afa1580156103f3573d6000803e3d6000fd5b505050506040513d6000823e3d601f19601f8201168201806040525081019061041c91906120ab565b905092915050565b60008383600081811061043a57610439612128565b5b905060200201602081019061044f919061223f565b86600082905060008173ffffffffffffffffffffffffffffffffffffffff1663dd62ed3e33306040518363ffffffff1660e01b815260040161049292919061226c565b602060405180830381865afa1580156104af573d6000803e3d6000fd5b505050506040513d601f19601f820116820180604052508101906104d39190612295565b905082811015610518576040517f08c379a000000000000000000000000000000000000000000000000000000000815260040161050f90612345565b60405180910390fd5b60008888600081811061052e5761052d612128565b5b9050602002016020810190610543919061223f565b90508073ffffffffffffffffffffffffffffffffffffffff166323b872dd33308e6040518463ffffffff1660e01b815260040161058293929190612365565b6020604051808303816000875af11580156105a1573d6000803e3d6000fd5b505050506040513d601f19601f820116820180604052508101906105c591906123d4565b610604576040517f08c379a00000000000000000000000000000000000000000000000000000000081526004016105fb90612473565b60405180910390fd5b8073ffffffffffffffffffffffffffffffffffffffff1663095ea7b360008054906101000a900473ffffffffffffffffffffffffffffffffffffffff168d6040518363ffffffff1660e01b815260040161065f929190612493565b6020604051808303816000875af115801561067e573d6000803e3d6000fd5b505050506040513d601f19601f820116820180604052508101906106a291906123d4565b6106e1576040517f08c379a00000000000000000000000000000000000000000000000000000000081526004016106d89061252e565b60405180910390fd5b60008060009054906101000a900473ffffffffffffffffffffffffffffffffffffffff1673ffffffffffffffffffffffffffffffffffffffff166318cbafe58d8d8d8d8d610258426107339190611e5d565b6040518763ffffffff1660e01b81526004016107549695949392919061254e565b6000604051808303816000875af1158015610773573d6000803e3d6000fd5b505050506040513d6000823e3d601f19601f8201168201806040525081019061079c91906120ab565b905080600182516107ad91906120f4565b815181106107be576107bd612128565b5b6020026020010151965050505050505095945050505050565b600080858560008181106107ee576107ed612128565b5b9050602002016020810190610803919061223f565b87600082905060008173ffffffffffffffffffffffffffffffffffffffff1663dd62ed3e33306040518363ffffffff1660e01b815260040161084692919061226c565b602060405180830381865afa158015610863573d6000803e3d6000fd5b505050506040513d601f19601f820116820180604052508101906108879190612295565b9050828110156108cc576040517f08c379a00000000000000000000000000000000000000000000000000000000081526004016108c390612345565b60405180910390fd5b898960008181106108e0576108df612128565b5b90506020020160208101906108f5919061223f565b73ffffffffffffffffffffffffffffffffffffffff166323b872dd33308e6040518463ffffffff1660e01b815260040161093193929190612365565b6020604051808303816000875af1158015610950573d6000803e3d6000fd5b505050506040513d601f19601f8201168201806040525081019061097491906123d4565b6109b3576040517f08c379a00000000000000000000000000000000000000000000000000000000081526004016109aa90612473565b60405180910390fd5b898960008181106109c7576109c6612128565b5b90506020020160208101906109dc919061223f565b73ffffffffffffffffffffffffffffffffffffffff1663095ea7b360008054906101000a900473ffffffffffffffffffffffffffffffffffffffff168d6040518363ffffffff1660e01b8152600401610a36929190612493565b6020604051808303816000875af1158015610a55573d6000803e3d6000fd5b505050506040513d601f19601f82011682018060405250810190610a7991906123d4565b610ab8576040517f08c379a0000000000000000000000000000000000000000000000000000000008152600401610aaf9061252e565b60405180910390fd5b60008060009054906101000a900473ffffffffffffffffffffffffffffffffffffffff1673ffffffffffffffffffffffffffffffffffffffff16634a25d94a8e8e8e8e8e61025842610b0a9190611e5d565b6040518763ffffffff1660e01b8152600401610b2b9695949392919061254e565b6000604051808303816000875af1158015610b4a573d6000803e3d6000fd5b505050506040513d6000823e3d601f19601f82011682018060405250810190610b7391906120ab565b905080600081518110610b8957610b88612128565b5b60200260200101519650610bc181600081518110610baa57610ba9612128565b5b60200260200101518d61180f90919063ffffffff16565b95508a8a6000818110610bd757610bd6612128565b5b9050602002016020810190610bec919061223f565b73ffffffffffffffffffffffffffffffffffffffff1663a9059cbb89886040518363ffffffff1660e01b8152600401610c26929190612493565b6020604051808303816000875af1158015610c45573d6000803e3d6000fd5b505050506040513d601f19601f82011682018060405250810190610c6991906123d4565b610ca8576040517f08c379a0000000000000000000000000000000000000000000000000000000008152600401610c9f9061261c565b60405180910390fd5b5050505050965096945050505050565b600083836000818110610cce57610ccd612128565b5b9050602002016020810190610ce3919061223f565b86600082905060008173ffffffffffffffffffffffffffffffffffffffff1663dd62ed3e33306040518363ffffffff1660e01b8152600401610d2692919061226c565b602060405180830381865afa158015610d43573d6000803e3d6000fd5b505050506040513d601f19601f82011682018060405250810190610d679190612295565b905082811015610dac576040517f08c379a0000000000000000000000000000000000000000000000000000000008152600401610da390612345565b60405180910390fd5b600088886000818110610dc257610dc1612128565b5b9050602002016020810190610dd7919061223f565b90508073ffffffffffffffffffffffffffffffffffffffff166323b872dd33308e6040518463ffffffff1660e01b8152600401610e1693929190612365565b6020604051808303816000875af1158015610e35573d6000803e3d6000fd5b505050506040513d601f19601f82011682018060405250810190610e5991906123d4565b610e98576040517f08c379a0000000000000000000000000000000000000000000000000000000008152600401610e8f90612473565b60405180910390fd5b8073ffffffffffffffffffffffffffffffffffffffff1663095ea7b360008054906101000a900473ffffffffffffffffffffffffffffffffffffffff168d6040518363ffffffff1660e01b8152600401610ef3929190612493565b6020604051808303816000875af1158015610f12573d6000803e3d6000fd5b505050506040513d601f19601f82011682018060405250810190610f3691906123d4565b610f75576040517f08c379a0000000000000000000000000000000000000000000000000000000008152600401610f6c9061252e565b60405180910390fd5b60008060009054906101000a900473ffffffffffffffffffffffffffffffffffffffff1673ffffffffffffffffffffffffffffffffffffffff166338ed17398d8d8d8d8d61025842610fc79190611e5d565b6040518763ffffffff1660e01b8152600401610fe89695949392919061254e565b6000604051808303816000875af1158015611007573d6000803e3d6000fd5b505050506040513d6000823e3d601f19601f8201168201806040525081019061103091906120ab565b9050806001825161104191906120f4565b8151811061105257611051612128565b5b6020026020010151965050505050505095945050505050565b6000808585600081811061108257611081612128565b5b9050602002016020810190611097919061223f565b87600082905060008173ffffffffffffffffffffffffffffffffffffffff1663dd62ed3e33306040518363ffffffff1660e01b81526004016110da92919061226c565b602060405180830381865afa1580156110f7573d6000803e3d6000fd5b505050506040513d601f19601f8201168201806040525081019061111b9190612295565b905082811015611160576040517f08c379a000000000000000000000000000000000000000000000000000000000815260040161115790612345565b60405180910390fd5b8989600081811061117457611173612128565b5b9050602002016020810190611189919061223f565b73ffffffffffffffffffffffffffffffffffffffff166323b872dd33308e6040518463ffffffff1660e01b81526004016111c593929190612365565b6020604051808303816000875af11580156111e4573d6000803e3d6000fd5b505050506040513d601f19601f8201168201806040525081019061120891906123d4565b611247576040517f08c379a000000000000000000000000000000000000000000000000000000000815260040161123e90612473565b60405180910390fd5b8989600081811061125b5761125a612128565b5b9050602002016020810190611270919061223f565b73ffffffffffffffffffffffffffffffffffffffff1663095ea7b360008054906101000a900473ffffffffffffffffffffffffffffffffffffffff168d6040518363ffffffff1660e01b81526004016112ca929190612493565b6020604051808303816000875af11580156112e9573d6000803e3d6000fd5b505050506040513d601f19601f8201168201806040525081019061130d91906123d4565b61134c576040517f08c379a00000000000000000000000000000000000000000000000000000000081526004016113439061252e565b60405180910390fd5b60008060009054906101000a900473ffffffffffffffffffffffffffffffffffffffff1673ffffffffffffffffffffffffffffffffffffffff16638803dbee8e8e8e8e8e6102584261139e9190611e5d565b6040518763ffffffff1660e01b81526004016113bf9695949392919061254e565b6000604051808303816000875af11580156113de573d6000803e3d6000fd5b505050506040513d6000823e3d601f19601f8201168201806040525081019061140791906120ab565b9050806001825161141891906120f4565b8151811061142957611428612128565b5b602002602001015196506114618160008151811061144a57611449612128565b5b60200260200101518d61180f90919063ffffffff16565b95508a8a600081811061147757611476612128565b5b905060200201602081019061148c919061223f565b73ffffffffffffffffffffffffffffffffffffffff1663a9059cbb89886040518363ffffffff1660e01b81526004016114c6929190612493565b6020604051808303816000875af11580156114e5573d6000803e3d6000fd5b505050506040513d601f19601f8201168201806040525081019061150991906123d4565b611548576040517f08c379a000000000000000000000000000000000000000000000000000000000815260040161153f9061261c565b60405180910390fd5b5050505050965096945050505050565b60008060008060009054906101000a900473ffffffffffffffffffffffffffffffffffffffff1673ffffffffffffffffffffffffffffffffffffffff1663fb3bdb41348a8a8a8a610258426115ad9190611e5d565b6040518763ffffffff1660e01b81526004016115cd959493929190611f85565b60006040518083038185885af11580156115eb573d6000803e3d6000fd5b50505050506040513d6000823e3d601f19601f8201168201806040525081019061161591906120ab565b9050806001825161162691906120f4565b8151811061163757611636612128565b5b6020026020010151925061166f8160008151811061165857611657612128565b5b60200260200101513461180f90919063ffffffff16565b915060008473ffffffffffffffffffffffffffffffffffffffff16836040516116979061266d565b60006040518083038185875af1925050503d80600081146116d4576040519150601f19603f3d011682016040523d82523d6000602084013e6116d9565b606091505b505090508061171d576040517f08c379a0000000000000000000000000000000000000000000000000000000008152600401611714906126ce565b60405180910390fd5b7f4d5b890940c072753124125e8b6badf4f1901253f9b8496f832662116bf0df5888888660405161175093929190612157565b60405180910390a150509550959350505050565b606060008054906101000a900473ffffffffffffffffffffffffffffffffffffffff1673ffffffffffffffffffffffffffffffffffffffff1663d06ca61f84846040518363ffffffff1660e01b81526004016117c192919061220f565b600060405180830381865afa1580156117de573d6000803e3d6000fd5b505050506040513d6000823e3d601f19601f8201168201806040525081019061180791906120ab565b905092915050565b6000818361181d91906120f4565b905092915050565b6000604051905090565b600080fd5b600080fd5b6000819050919050565b61184c81611839565b811461185757600080fd5b50565b60008135905061186981611843565b92915050565b600080fd5b600080fd5b600080fd5b60008083601f8401126118945761189361186f565b5b8235905067ffffffffffffffff8111156118b1576118b0611874565b5b6020830191508360208202830111156118cd576118cc611879565b5b9250929050565b600073ffffffffffffffffffffffffffffffffffffffff82169050919050565b60006118ff826118d4565b9050919050565b61190f816118f4565b811461191a57600080fd5b50565b60008135905061192c81611906565b92915050565b6000806000806060858703121561194c5761194b61182f565b5b600061195a8782880161185a565b945050602085013567ffffffffffffffff81111561197b5761197a611834565b5b6119878782880161187e565b9350935050604061199a8782880161191d565b91505092959194509250565b6119af81611839565b82525050565b60006020820190506119ca60008301846119a6565b92915050565b6000601f19601f8301169050919050565b7f4e487b7100000000000000000000000000000000000000000000000000000000600052604160045260246000fd5b611a19826119d0565b810181811067ffffffffffffffff82111715611a3857611a376119e1565b5b80604052505050565b6000611a4b611825565b9050611a578282611a10565b919050565b600067ffffffffffffffff821115611a7757611a766119e1565b5b602082029050602081019050919050565b6000611a9b611a9684611a5c565b611a41565b90508083825260208201905060208402830185811115611abe57611abd611879565b5b835b81811015611ae75780611ad3888261191d565b845260208401935050602081019050611ac0565b5050509392505050565b600082601f830112611b0657611b0561186f565b5b8135611b16848260208601611a88565b91505092915050565b60008060408385031215611b3657611b3561182f565b5b6000611b448582860161185a565b925050602083013567ffffffffffffffff811115611b6557611b64611834565b5b611b7185828601611af1565b9150509250929050565b600081519050919050565b600082825260208201905092915050565b6000819050602082019050919050565b611bb081611839565b82525050565b6000611bc28383611ba7565b60208301905092915050565b6000602082019050919050565b6000611be682611b7b565b611bf08185611b86565b9350611bfb83611b97565b8060005b83811015611c2c578151611c138882611bb6565b9750611c1e83611bce565b925050600181019050611bff565b5085935050505092915050565b60006020820190508181036000830152611c538184611bdb565b905092915050565b600080600080600060808688031215611c7757611c7661182f565b5b6000611c858882890161185a565b9550506020611c968882890161185a565b945050604086013567ffffffffffffffff811115611cb757611cb6611834565b5b611cc38882890161187e565b93509350506060611cd68882890161191d565b9150509295509295909350565b60008060008060008060a08789031215611d0057611cff61182f565b5b6000611d0e89828a0161185a565b9650506020611d1f89828a0161185a565b955050604087013567ffffffffffffffff811115611d4057611d3f611834565b5b611d4c89828a0161187e565b94509450506060611d5f89828a0161191d565b9250506080611d7089828a0161191d565b9150509295509295509295565b6000604082019050611d9260008301856119a6565b611d9f60208301846119a6565b9392505050565b600080600080600060808688031215611dc257611dc161182f565b5b6000611dd08882890161185a565b955050602086013567ffffffffffffffff811115611df157611df0611834565b5b611dfd8882890161187e565b94509450506040611e108882890161191d565b9250506060611e218882890161191d565b9150509295509295909350565b7f4e487b7100000000000000000000000000000000000000000000000000000000600052601160045260246000fd5b6000611e6882611839565b9150611e7383611839565b9250827fffffffffffffffffffffffffffffffffffffffffffffffffffffffffffffffff03821115611ea857611ea7611e2e565b5b828201905092915050565b600082825260208201905092915050565b6000819050919050565b611ed7816118f4565b82525050565b6000611ee98383611ece565b60208301905092915050565b6000611f04602084018461191d565b905092915050565b6000602082019050919050565b6000611f258385611eb3565b9350611f3082611ec4565b8060005b85811015611f6957611f468284611ef5565b611f508882611edd565b9750611f5b83611f0c565b925050600181019050611f34565b5085925050509392505050565b611f7f816118f4565b82525050565b6000608082019050611f9a60008301886119a6565b8181036020830152611fad818688611f19565b9050611fbc6040830185611f76565b611fc960608301846119a6565b9695505050505050565b600067ffffffffffffffff821115611fee57611fed6119e1565b5b602082029050602081019050919050565b60008151905061200e81611843565b92915050565b600061202761202284611fd3565b611a41565b9050808382526020820190506020840283018581111561204a57612049611879565b5b835b81811015612073578061205f8882611fff565b84526020840193505060208101905061204c565b5050509392505050565b600082601f8301126120925761209161186f565b5b81516120a2848260208601612014565b91505092915050565b6000602082840312156120c1576120c061182f565b5b600082015167ffffffffffffffff8111156120df576120de611834565b5b6120eb8482850161207d565b91505092915050565b60006120ff82611839565b915061210a83611839565b92508282101561211d5761211c611e2e565b5b828203905092915050565b7f4e487b7100000000000000000000000000000000000000000000000000000000600052603260045260246000fd5b60006040820190508181036000830152612172818587611f19565b905061218160208301846119a6565b949350505050565b600081519050919050565b6000819050602082019050919050565b6000602082019050919050565b60006121bc82612189565b6121c68185611eb3565b93506121d183612194565b8060005b838110156122025781516121e98882611edd565b97506121f4836121a4565b9250506001810190506121d5565b5085935050505092915050565b600060408201905061222460008301856119a6565b818103602083015261223681846121b1565b90509392505050565b6000602082840312156122555761225461182f565b5b60006122638482850161191d565b91505092915050565b60006040820190506122816000830185611f76565b61228e6020830184611f76565b9392505050565b6000602082840312156122ab576122aa61182f565b5b60006122b984828501611fff565b91505092915050565b600082825260208201905092915050565b7f556e695632416461707465723a204e6f7420656e6f75676820616c6c6f77616e60008201527f6365000000000000000000000000000000000000000000000000000000000000602082015250565b600061232f6022836122c2565b915061233a826122d3565b604082019050919050565b6000602082019050818103600083015261235e81612322565b9050919050565b600060608201905061237a6000830186611f76565b6123876020830185611f76565b61239460408301846119a6565b949350505050565b60008115159050919050565b6123b18161239c565b81146123bc57600080fd5b50565b6000815190506123ce816123a8565b92915050565b6000602082840312156123ea576123e961182f565b5b60006123f8848285016123bf565b91505092915050565b7f556e695632416461707465723a204661696c656420746f2073656c662074726160008201527f6e73666572000000000000000000000000000000000000000000000000000000602082015250565b600061245d6025836122c2565b915061246882612401565b604082019050919050565b6000602082019050818103600083015261248c81612450565b9050919050565b60006040820190506124a86000830185611f76565b6124b560208301846119a6565b9392505050565b7f556e695632416461707465723a204661696c656420746f20617070726f76652060008201527f556e695632526f75746572000000000000000000000000000000000000000000602082015250565b6000612518602b836122c2565b9150612523826124bc565b604082019050919050565b600060208201905081810360008301526125478161250b565b9050919050565b600060a08201905061256360008301896119a6565b61257060208301886119a6565b8181036040830152612583818688611f19565b90506125926060830185611f76565b61259f60808301846119a6565b979650505050505050565b7f556e695632416461707465723a20546f6b656e20726566756e64206661696c6560008201527f6400000000000000000000000000000000000000000000000000000000000000602082015250565b60006126066021836122c2565b9150612611826125aa565b604082019050919050565b60006020820190508181036000830152612635816125f9565b9050919050565b600081905092915050565b50565b600061265760008361263c565b915061266282612647565b600082019050919050565b60006126788261264a565b9150819050919050565b7f556e695632416461707465723a2045544820726566756e64206661696c656400600082015250565b60006126b8601f836122c2565b91506126c382612682565b602082019050919050565b600060208201905081810360008301526126e7816126ab565b905091905056fea2646970667358221220bf80c19eb4ebb9dcd257b5a73647c49cc367a82b35467762731b3285aa6510fb64736f6c634300080c0033",
  "linkReferences": {},
  "deployedLinkReferences": {}
}