{
  "_format": "hh-sol-artifact-1",
  "contractName": "UniV2Adapter",
  "sourceName": "contracts/defi/adapters/UniV2Adapter.sol",
  "abi": [
    {
      "inputs": [
        {
          "internalType": "address",
          "name": "_routerAddress",
          "type": "address"
        }
      ],
      "stateMutability": "nonpayable",
      "type": "constructor"
    },
    {
      "anonymous": false,
      "inputs": [
        {
          "indexed": false,
          "internalType": "address[]",
          "name": "path",
          "type": "address[]"
        },
        {
          "indexed": false,
          "internalType": "uint256",
          "name": "amountOut",
          "type": "uint256"
        }
      ],
      "name": "Swapped",
      "type": "event"
    },
    {
      "inputs": [
        {
          "internalType": "uint256",
          "name": "amountOut",
          "type": "uint256"
        },
        {
          "internalType": "address[]",
          "name": "path",
          "type": "address[]"
        }
      ],
      "name": "getAmountsIn",
      "outputs": [
        {
          "internalType": "uint256[]",
          "name": "amounts",
          "type": "uint256[]"
        }
      ],
      "stateMutability": "view",
      "type": "function"
    },
    {
      "inputs": [
        {
          "internalType": "uint256",
          "name": "amountIn",
          "type": "uint256"
        },
        {
          "internalType": "address[]",
          "name": "path",
          "type": "address[]"
        }
      ],
      "name": "getAmountsOut",
      "outputs": [
        {
          "internalType": "uint256[]",
          "name": "amounts",
          "type": "uint256[]"
        }
      ],
      "stateMutability": "view",
      "type": "function"
    },
    {
      "inputs": [
        {
          "internalType": "uint256",
          "name": "amountOut",
          "type": "uint256"
        },
        {
          "internalType": "address[]",
          "name": "path",
          "type": "address[]"
        },
        {
          "internalType": "address",
          "name": "to",
          "type": "address"
        },
        {
          "internalType": "address",
          "name": "refundTo",
          "type": "address"
        }
      ],
      "name": "swapETHForExactTokens",
      "outputs": [
        {
          "internalType": "uint256",
          "name": "tokenAmountOut",
          "type": "uint256"
        },
        {
          "internalType": "uint256",
          "name": "refund",
          "type": "uint256"
        }
      ],
      "stateMutability": "payable",
      "type": "function"
    },
    {
      "inputs": [
        {
          "internalType": "uint256",
          "name": "amountOutMin",
          "type": "uint256"
        },
        {
          "internalType": "address[]",
          "name": "path",
          "type": "address[]"
        },
        {
          "internalType": "address",
          "name": "to",
          "type": "address"
        }
      ],
      "name": "swapExactETHForTokens",
      "outputs": [
        {
          "internalType": "uint256",
          "name": "tokenAmountOut",
          "type": "uint256"
        }
      ],
      "stateMutability": "payable",
      "type": "function"
    },
    {
      "inputs": [
        {
          "internalType": "uint256",
          "name": "amountIn",
          "type": "uint256"
        },
        {
          "internalType": "uint256",
          "name": "amountOutMin",
          "type": "uint256"
        },
        {
          "internalType": "address[]",
          "name": "path",
          "type": "address[]"
        },
        {
          "internalType": "address",
          "name": "to",
          "type": "address"
        }
      ],
      "name": "swapExactTokensForETH",
      "outputs": [
        {
          "internalType": "uint256",
          "name": "amtOut",
          "type": "uint256"
        }
      ],
      "stateMutability": "nonpayable",
      "type": "function"
    },
    {
      "inputs": [
        {
          "internalType": "uint256",
          "name": "amountIn",
          "type": "uint256"
        },
        {
          "internalType": "uint256",
          "name": "amountOutMin",
          "type": "uint256"
        },
        {
          "internalType": "address[]",
          "name": "path",
          "type": "address[]"
        },
        {
          "internalType": "address",
          "name": "to",
          "type": "address"
        }
      ],
      "name": "swapExactTokensForTokens",
      "outputs": [
        {
          "internalType": "uint256",
          "name": "amountOut",
          "type": "uint256"
        }
      ],
      "stateMutability": "nonpayable",
      "type": "function"
    },
    {
      "inputs": [
        {
          "internalType": "uint256",
          "name": "amountOut",
          "type": "uint256"
        },
        {
          "internalType": "uint256",
          "name": "amountInMax",
          "type": "uint256"
        },
        {
          "internalType": "address[]",
          "name": "path",
          "type": "address[]"
        },
        {
          "internalType": "address",
          "name": "to",
          "type": "address"
        },
        {
          "internalType": "address",
          "name": "refundTo",
          "type": "address"
        }
      ],
      "name": "swapTokensForExactETH",
      "outputs": [
        {
          "internalType": "uint256",
          "name": "tokenAmountIn",
          "type": "uint256"
        },
        {
          "internalType": "uint256",
          "name": "refund",
          "type": "uint256"
        }
      ],
      "stateMutability": "payable",
      "type": "function"
    },
    {
      "inputs": [
        {
          "internalType": "uint256",
          "name": "amountOut",
          "type": "uint256"
        },
        {
          "internalType": "uint256",
          "name": "amountInMax",
          "type": "uint256"
        },
        {
          "internalType": "address[]",
          "name": "path",
          "type": "address[]"
        },
        {
          "internalType": "address",
          "name": "to",
          "type": "address"
        },
        {
          "internalType": "address",
          "name": "refundTo",
          "type": "address"
        }
      ],
      "name": "swapTokensForExactTokens",
      "outputs": [
        {
          "internalType": "uint256",
          "name": "tokenAmountOut",
          "type": "uint256"
        },
        {
          "internalType": "uint256",
          "name": "refund",
          "type": "uint256"
        }
      ],
      "stateMutability": "nonpayable",
      "type": "function"
    },
    {
      "stateMutability": "payable",
      "type": "receive"
    }
  ],
  "bytecode": "0x60806040523480156200001157600080fd5b5060405162002c0738038062002c078339818101604052810190620000379190620000e8565b806000806101000a81548173ffffffffffffffffffffffffffffffffffffffff021916908373ffffffffffffffffffffffffffffffffffffffff160217905550506200011a565b600080fd5b600073ffffffffffffffffffffffffffffffffffffffff82169050919050565b6000620000b08262000083565b9050919050565b620000c281620000a3565b8114620000ce57600080fd5b50565b600081519050620000e281620000b7565b92915050565b6000602082840312156200010157620001006200007e565b5b60006200011184828501620000d1565b91505092915050565b612add806200012a6000396000f3fe60806040526004361061007f5760003560e01c8063472b43f31161004e578063472b43f3146101665780635ec9ef61146101a3578063be42cae0146101e1578063d06ca61f1461021257610086565b806312c6442f1461008b5780631f00ca74146100bb578063363db5c6146100f85780633d6e17d41461013557610086565b3661008657005b600080fd5b6100a560048036038101906100a09190611b01565b61024f565b6040516100b29190611b84565b60405180910390f35b3480156100c757600080fd5b506100e260048036038101906100dd9190611cee565b610379565b6040516100ef9190611e08565b60405180910390f35b34801561010457600080fd5b5061011f600480360381019061011a9190611e2a565b610424565b60405161012c9190611b84565b60405180910390f35b61014f600480360381019061014a9190611eb2565b6107d7565b60405161015d929190611f4c565b60405180910390f35b34801561017257600080fd5b5061018d60048036038101906101889190611e2a565b610c26565b60405161019a9190611b84565b60405180910390f35b3480156101af57600080fd5b506101ca60048036038101906101c59190611eb2565b610fd9565b6040516101d8929190611f4c565b60405180910390f35b6101fb60048036038101906101f69190611f75565b611434565b604051610209929190611f4c565b60405180910390f35b34801561021e57600080fd5b5061023960048036038101906102349190611cee565b611640565b6040516102469190611e08565b60405180910390f35b60008060008054906101000a900473ffffffffffffffffffffffffffffffffffffffff1673ffffffffffffffffffffffffffffffffffffffff16637ff36ab53488888888610258426102a1919061202c565b6040518763ffffffff1660e01b81526004016102c1959493929190612154565b60006040518083038185885af11580156102df573d6000803e3d6000fd5b50505050506040513d6000823e3d601f19601f82011682018060405250810190610309919061227a565b9050806001825161031a91906122c3565b8151811061032b5761032a6122f7565b5b602002602001015191507f4d5b890940c072753124125e8b6badf4f1901253f9b8496f832662116bf0df5885858460405161036893929190612326565b60405180910390a150949350505050565b606060008054906101000a900473ffffffffffffffffffffffffffffffffffffffff1673ffffffffffffffffffffffffffffffffffffffff16631f00ca7484846040518363ffffffff1660e01b81526004016103d69291906123de565b600060405180830381865afa1580156103f3573d6000803e3d6000fd5b505050506040513d6000823e3d601f19601f8201168201806040525081019061041c919061227a565b905092915050565b60008383600081811061043a576104396122f7565b5b905060200201602081019061044f919061240e565b86600082905060008173ffffffffffffffffffffffffffffffffffffffff1663dd62ed3e33306040518363ffffffff1660e01b815260040161049292919061243b565b602060405180830381865afa1580156104af573d6000803e3d6000fd5b505050506040513d601f19601f820116820180604052508101906104d39190612464565b905082811015610518576040517f08c379a000000000000000000000000000000000000000000000000000000000815260040161050f90612514565b60405180910390fd5b60008888600081811061052e5761052d6122f7565b5b9050602002016020810190610543919061240e565b90508073ffffffffffffffffffffffffffffffffffffffff166323b872dd33308e6040518463ffffffff1660e01b815260040161058293929190612534565b6020604051808303816000875af11580156105a1573d6000803e3d6000fd5b505050506040513d601f19601f820116820180604052508101906105c591906125a3565b610604576040517f08c379a00000000000000000000000000000000000000000000000000000000081526004016105fb90612642565b60405180910390fd5b8073ffffffffffffffffffffffffffffffffffffffff1663095ea7b360008054906101000a900473ffffffffffffffffffffffffffffffffffffffff168d6040518363ffffffff1660e01b815260040161065f929190612662565b6020604051808303816000875af115801561067e573d6000803e3d6000fd5b505050506040513d601f19601f820116820180604052508101906106a291906125a3565b6106e1576040517f08c379a00000000000000000000000000000000000000000000000000000000081526004016106d8906126fd565b60405180910390fd5b60008060009054906101000a900473ffffffffffffffffffffffffffffffffffffffff1673ffffffffffffffffffffffffffffffffffffffff166318cbafe58d8d8d8d8d61025842610733919061202c565b6040518763ffffffff1660e01b81526004016107549695949392919061271d565b6000604051808303816000875af1158015610773573d6000803e3d6000fd5b505050506040513d6000823e3d601f19601f8201168201806040525081019061079c919061227a565b905080600182516107ad91906122c3565b815181106107be576107bd6122f7565b5b6020026020010151965050505050505095945050505050565b600080858560008181106107ee576107ed6122f7565b5b9050602002016020810190610803919061240e565b87600082905060008173ffffffffffffffffffffffffffffffffffffffff1663dd62ed3e33306040518363ffffffff1660e01b815260040161084692919061243b565b602060405180830381865afa158015610863573d6000803e3d6000fd5b505050506040513d601f19601f820116820180604052508101906108879190612464565b9050828110156108cc576040517f08c379a00000000000000000000000000000000000000000000000000000000081526004016108c390612514565b60405180910390fd5b898960008181106108e0576108df6122f7565b5b90506020020160208101906108f5919061240e565b73ffffffffffffffffffffffffffffffffffffffff166323b872dd33308e6040518463ffffffff1660e01b815260040161093193929190612534565b6020604051808303816000875af1158015610950573d6000803e3d6000fd5b505050506040513d601f19601f8201168201806040525081019061097491906125a3565b6109b3576040517f08c379a00000000000000000000000000000000000000000000000000000000081526004016109aa90612642565b60405180910390fd5b898960008181106109c7576109c66122f7565b5b90506020020160208101906109dc919061240e565b73ffffffffffffffffffffffffffffffffffffffff1663095ea7b360008054906101000a900473ffffffffffffffffffffffffffffffffffffffff168d6040518363ffffffff1660e01b8152600401610a36929190612662565b6020604051808303816000875af1158015610a55573d6000803e3d6000fd5b505050506040513d601f19601f82011682018060405250810190610a7991906125a3565b610ab8576040517f08c379a0000000000000000000000000000000000000000000000000000000008152600401610aaf906126fd565b60405180910390fd5b60008060009054906101000a900473ffffffffffffffffffffffffffffffffffffffff1673ffffffffffffffffffffffffffffffffffffffff16634a25d94a8e8e8e8e8e61025842610b0a919061202c565b6040518763ffffffff1660e01b8152600401610b2b9695949392919061271d565b6000604051808303816000875af1158015610b4a573d6000803e3d6000fd5b505050506040513d6000823e3d601f19601f82011682018060405250810190610b73919061227a565b905080600081518110610b8957610b886122f7565b5b60200260200101519650610bc181600081518110610baa57610ba96122f7565b5b60200260200101518d6116eb90919063ffffffff16565b9550610c1688878d8d6000818110610bdc57610bdb6122f7565b5b9050602002016020810190610bf1919061240e565b73ffffffffffffffffffffffffffffffffffffffff166117019092919063ffffffff16565b5050505050965096945050505050565b600083836000818110610c3c57610c3b6122f7565b5b9050602002016020810190610c51919061240e565b86600082905060008173ffffffffffffffffffffffffffffffffffffffff1663dd62ed3e33306040518363ffffffff1660e01b8152600401610c9492919061243b565b602060405180830381865afa158015610cb1573d6000803e3d6000fd5b505050506040513d601f19601f82011682018060405250810190610cd59190612464565b905082811015610d1a576040517f08c379a0000000000000000000000000000000000000000000000000000000008152600401610d1190612514565b60405180910390fd5b600088886000818110610d3057610d2f6122f7565b5b9050602002016020810190610d45919061240e565b90508073ffffffffffffffffffffffffffffffffffffffff166323b872dd33308e6040518463ffffffff1660e01b8152600401610d8493929190612534565b6020604051808303816000875af1158015610da3573d6000803e3d6000fd5b505050506040513d601f19601f82011682018060405250810190610dc791906125a3565b610e06576040517f08c379a0000000000000000000000000000000000000000000000000000000008152600401610dfd90612642565b60405180910390fd5b8073ffffffffffffffffffffffffffffffffffffffff1663095ea7b360008054906101000a900473ffffffffffffffffffffffffffffffffffffffff168d6040518363ffffffff1660e01b8152600401610e61929190612662565b6020604051808303816000875af1158015610e80573d6000803e3d6000fd5b505050506040513d601f19601f82011682018060405250810190610ea491906125a3565b610ee3576040517f08c379a0000000000000000000000000000000000000000000000000000000008152600401610eda906126fd565b60405180910390fd5b60008060009054906101000a900473ffffffffffffffffffffffffffffffffffffffff1673ffffffffffffffffffffffffffffffffffffffff166338ed17398d8d8d8d8d61025842610f35919061202c565b6040518763ffffffff1660e01b8152600401610f569695949392919061271d565b6000604051808303816000875af1158015610f75573d6000803e3d6000fd5b505050506040513d6000823e3d601f19601f82011682018060405250810190610f9e919061227a565b90508060018251610faf91906122c3565b81518110610fc057610fbf6122f7565b5b6020026020010151965050505050505095945050505050565b60008085856000818110610ff057610fef6122f7565b5b9050602002016020810190611005919061240e565b87600082905060008173ffffffffffffffffffffffffffffffffffffffff1663dd62ed3e33306040518363ffffffff1660e01b815260040161104892919061243b565b602060405180830381865afa158015611065573d6000803e3d6000fd5b505050506040513d601f19601f820116820180604052508101906110899190612464565b9050828110156110ce576040517f08c379a00000000000000000000000000000000000000000000000000000000081526004016110c590612514565b60405180910390fd5b898960008181106110e2576110e16122f7565b5b90506020020160208101906110f7919061240e565b73ffffffffffffffffffffffffffffffffffffffff166323b872dd33308e6040518463ffffffff1660e01b815260040161113393929190612534565b6020604051808303816000875af1158015611152573d6000803e3d6000fd5b505050506040513d601f19601f8201168201806040525081019061117691906125a3565b6111b5576040517f08c379a00000000000000000000000000000000000000000000000000000000081526004016111ac90612642565b60405180910390fd5b898960008181106111c9576111c86122f7565b5b90506020020160208101906111de919061240e565b73ffffffffffffffffffffffffffffffffffffffff1663095ea7b360008054906101000a900473ffffffffffffffffffffffffffffffffffffffff168d6040518363ffffffff1660e01b8152600401611238929190612662565b6020604051808303816000875af1158015611257573d6000803e3d6000fd5b505050506040513d601f19601f8201168201806040525081019061127b91906125a3565b6112ba576040517f08c379a00000000000000000000000000000000000000000000000000000000081526004016112b1906126fd565b60405180910390fd5b60008060009054906101000a900473ffffffffffffffffffffffffffffffffffffffff1673ffffffffffffffffffffffffffffffffffffffff16638803dbee8e8e8e8e8e6102584261130c919061202c565b6040518763ffffffff1660e01b815260040161132d9695949392919061271d565b6000604051808303816000875af115801561134c573d6000803e3d6000fd5b505050506040513d6000823e3d601f19601f82011682018060405250810190611375919061227a565b9050806001825161138691906122c3565b81518110611397576113966122f7565b5b602002602001015196506113cf816000815181106113b8576113b76122f7565b5b60200260200101518d6116eb90919063ffffffff16565b955061142488878d8d60008181106113ea576113e96122f7565b5b90506020020160208101906113ff919061240e565b73ffffffffffffffffffffffffffffffffffffffff166117019092919063ffffffff16565b5050505050965096945050505050565b60008060008060009054906101000a900473ffffffffffffffffffffffffffffffffffffffff1673ffffffffffffffffffffffffffffffffffffffff1663fb3bdb41348a8a8a8a61025842611489919061202c565b6040518763ffffffff1660e01b81526004016114a9959493929190612154565b60006040518083038185885af11580156114c7573d6000803e3d6000fd5b50505050506040513d6000823e3d601f19601f820116820180604052508101906114f1919061227a565b9050806001825161150291906122c3565b81518110611513576115126122f7565b5b6020026020010151925061154b81600081518110611534576115336122f7565b5b6020026020010151346116eb90919063ffffffff16565b915060008473ffffffffffffffffffffffffffffffffffffffff1683604051611573906127aa565b60006040518083038185875af1925050503d80600081146115b0576040519150601f19603f3d011682016040523d82523d6000602084013e6115b5565b606091505b50509050806115f9576040517f08c379a00000000000000000000000000000000000000000000000000000000081526004016115f09061280b565b60405180910390fd5b7f4d5b890940c072753124125e8b6badf4f1901253f9b8496f832662116bf0df5888888660405161162c93929190612326565b60405180910390a150509550959350505050565b606060008054906101000a900473ffffffffffffffffffffffffffffffffffffffff1673ffffffffffffffffffffffffffffffffffffffff1663d06ca61f84846040518363ffffffff1660e01b815260040161169d9291906123de565b600060405180830381865afa1580156116ba573d6000803e3d6000fd5b505050506040513d6000823e3d601f19601f820116820180604052508101906116e3919061227a565b905092915050565b600081836116f991906122c3565b905092915050565b6117828363a9059cbb60e01b8484604051602401611720929190612662565b604051602081830303815290604052907bffffffffffffffffffffffffffffffffffffffffffffffffffffffff19166020820180517bffffffffffffffffffffffffffffffffffffffffffffffffffffffff8381831617835250505050611787565b505050565b60006117e9826040518060400160405280602081526020017f5361666545524332303a206c6f772d6c6576656c2063616c6c206661696c65648152508573ffffffffffffffffffffffffffffffffffffffff1661184e9092919063ffffffff16565b9050600081511115611849578080602001905181019061180991906125a3565b611848576040517f08c379a000000000000000000000000000000000000000000000000000000000815260040161183f9061289d565b60405180910390fd5b5b505050565b606061185d8484600085611866565b90509392505050565b6060824710156118ab576040517f08c379a00000000000000000000000000000000000000000000000000000000081526004016118a29061292f565b60405180910390fd5b6118b48561197a565b6118f3576040517f08c379a00000000000000000000000000000000000000000000000000000000081526004016118ea9061299b565b60405180910390fd5b6000808673ffffffffffffffffffffffffffffffffffffffff16858760405161191c9190612a2a565b60006040518083038185875af1925050503d8060008114611959576040519150601f19603f3d011682016040523d82523d6000602084013e61195e565b606091505b509150915061196e82828661198d565b92505050949350505050565b600080823b905060008111915050919050565b6060831561199d578290506119ed565b6000835111156119b05782518084602001fd5b816040517f08c379a00000000000000000000000000000000000000000000000000000000081526004016119e49190612a85565b60405180910390fd5b9392505050565b6000604051905090565b600080fd5b600080fd5b6000819050919050565b611a1b81611a08565b8114611a2657600080fd5b50565b600081359050611a3881611a12565b92915050565b600080fd5b600080fd5b600080fd5b60008083601f840112611a6357611a62611a3e565b5b8235905067ffffffffffffffff811115611a8057611a7f611a43565b5b602083019150836020820283011115611a9c57611a9b611a48565b5b9250929050565b600073ffffffffffffffffffffffffffffffffffffffff82169050919050565b6000611ace82611aa3565b9050919050565b611ade81611ac3565b8114611ae957600080fd5b50565b600081359050611afb81611ad5565b92915050565b60008060008060608587031215611b1b57611b1a6119fe565b5b6000611b2987828801611a29565b945050602085013567ffffffffffffffff811115611b4a57611b49611a03565b5b611b5687828801611a4d565b93509350506040611b6987828801611aec565b91505092959194509250565b611b7e81611a08565b82525050565b6000602082019050611b996000830184611b75565b92915050565b6000601f19601f8301169050919050565b7f4e487b7100000000000000000000000000000000000000000000000000000000600052604160045260246000fd5b611be882611b9f565b810181811067ffffffffffffffff82111715611c0757611c06611bb0565b5b80604052505050565b6000611c1a6119f4565b9050611c268282611bdf565b919050565b600067ffffffffffffffff821115611c4657611c45611bb0565b5b602082029050602081019050919050565b6000611c6a611c6584611c2b565b611c10565b90508083825260208201905060208402830185811115611c8d57611c8c611a48565b5b835b81811015611cb65780611ca28882611aec565b845260208401935050602081019050611c8f565b5050509392505050565b600082601f830112611cd557611cd4611a3e565b5b8135611ce5848260208601611c57565b91505092915050565b60008060408385031215611d0557611d046119fe565b5b6000611d1385828601611a29565b925050602083013567ffffffffffffffff811115611d3457611d33611a03565b5b611d4085828601611cc0565b9150509250929050565b600081519050919050565b600082825260208201905092915050565b6000819050602082019050919050565b611d7f81611a08565b82525050565b6000611d918383611d76565b60208301905092915050565b6000602082019050919050565b6000611db582611d4a565b611dbf8185611d55565b9350611dca83611d66565b8060005b83811015611dfb578151611de28882611d85565b9750611ded83611d9d565b925050600181019050611dce565b5085935050505092915050565b60006020820190508181036000830152611e228184611daa565b905092915050565b600080600080600060808688031215611e4657611e456119fe565b5b6000611e5488828901611a29565b9550506020611e6588828901611a29565b945050604086013567ffffffffffffffff811115611e8657611e85611a03565b5b611e9288828901611a4d565b93509350506060611ea588828901611aec565b9150509295509295909350565b60008060008060008060a08789031215611ecf57611ece6119fe565b5b6000611edd89828a01611a29565b9650506020611eee89828a01611a29565b955050604087013567ffffffffffffffff811115611f0f57611f0e611a03565b5b611f1b89828a01611a4d565b94509450506060611f2e89828a01611aec565b9250506080611f3f89828a01611aec565b9150509295509295509295565b6000604082019050611f616000830185611b75565b611f6e6020830184611b75565b9392505050565b600080600080600060808688031215611f9157611f906119fe565b5b6000611f9f88828901611a29565b955050602086013567ffffffffffffffff811115611fc057611fbf611a03565b5b611fcc88828901611a4d565b94509450506040611fdf88828901611aec565b9250506060611ff088828901611aec565b9150509295509295909350565b7f4e487b7100000000000000000000000000000000000000000000000000000000600052601160045260246000fd5b600061203782611a08565b915061204283611a08565b9250827fffffffffffffffffffffffffffffffffffffffffffffffffffffffffffffffff0382111561207757612076611ffd565b5b828201905092915050565b600082825260208201905092915050565b6000819050919050565b6120a681611ac3565b82525050565b60006120b8838361209d565b60208301905092915050565b60006120d36020840184611aec565b905092915050565b6000602082019050919050565b60006120f48385612082565b93506120ff82612093565b8060005b858110156121385761211582846120c4565b61211f88826120ac565b975061212a836120db565b925050600181019050612103565b5085925050509392505050565b61214e81611ac3565b82525050565b60006080820190506121696000830188611b75565b818103602083015261217c8186886120e8565b905061218b6040830185612145565b6121986060830184611b75565b9695505050505050565b600067ffffffffffffffff8211156121bd576121bc611bb0565b5b602082029050602081019050919050565b6000815190506121dd81611a12565b92915050565b60006121f66121f1846121a2565b611c10565b9050808382526020820190506020840283018581111561221957612218611a48565b5b835b81811015612242578061222e88826121ce565b84526020840193505060208101905061221b565b5050509392505050565b600082601f83011261226157612260611a3e565b5b81516122718482602086016121e3565b91505092915050565b6000602082840312156122905761228f6119fe565b5b600082015167ffffffffffffffff8111156122ae576122ad611a03565b5b6122ba8482850161224c565b91505092915050565b60006122ce82611a08565b91506122d983611a08565b9250828210156122ec576122eb611ffd565b5b828203905092915050565b7f4e487b7100000000000000000000000000000000000000000000000000000000600052603260045260246000fd5b600060408201905081810360008301526123418185876120e8565b90506123506020830184611b75565b949350505050565b600081519050919050565b6000819050602082019050919050565b6000602082019050919050565b600061238b82612358565b6123958185612082565b93506123a083612363565b8060005b838110156123d15781516123b888826120ac565b97506123c383612373565b9250506001810190506123a4565b5085935050505092915050565b60006040820190506123f36000830185611b75565b81810360208301526124058184612380565b90509392505050565b600060208284031215612424576124236119fe565b5b600061243284828501611aec565b91505092915050565b60006040820190506124506000830185612145565b61245d6020830184612145565b9392505050565b60006020828403121561247a576124796119fe565b5b6000612488848285016121ce565b91505092915050565b600082825260208201905092915050565b7f556e695632416461707465723a204e6f7420656e6f75676820616c6c6f77616e60008201527f6365000000000000000000000000000000000000000000000000000000000000602082015250565b60006124fe602283612491565b9150612509826124a2565b604082019050919050565b6000602082019050818103600083015261252d816124f1565b9050919050565b60006060820190506125496000830186612145565b6125566020830185612145565b6125636040830184611b75565b949350505050565b60008115159050919050565b6125808161256b565b811461258b57600080fd5b50565b60008151905061259d81612577565b92915050565b6000602082840312156125b9576125b86119fe565b5b60006125c78482850161258e565b91505092915050565b7f556e695632416461707465723a204661696c656420746f2073656c662074726160008201527f6e73666572000000000000000000000000000000000000000000000000000000602082015250565b600061262c602583612491565b9150612637826125d0565b604082019050919050565b6000602082019050818103600083015261265b8161261f565b9050919050565b60006040820190506126776000830185612145565b6126846020830184611b75565b9392505050565b7f556e695632416461707465723a204661696c656420746f20617070726f76652060008201527f556e695632526f75746572000000000000000000000000000000000000000000602082015250565b60006126e7602b83612491565b91506126f28261268b565b604082019050919050565b60006020820190508181036000830152612716816126da565b9050919050565b600060a0820190506127326000830189611b75565b61273f6020830188611b75565b81810360408301526127528186886120e8565b90506127616060830185612145565b61276e6080830184611b75565b979650505050505050565b600081905092915050565b50565b6000612794600083612779565b915061279f82612784565b600082019050919050565b60006127b582612787565b9150819050919050565b7f556e695632416461707465723a2045544820726566756e64206661696c656400600082015250565b60006127f5601f83612491565b9150612800826127bf565b602082019050919050565b60006020820190508181036000830152612824816127e8565b9050919050565b7f5361666545524332303a204552433230206f7065726174696f6e20646964206e60008201527f6f74207375636365656400000000000000000000000000000000000000000000602082015250565b6000612887602a83612491565b91506128928261282b565b604082019050919050565b600060208201905081810360008301526128b68161287a565b9050919050565b7f416464726573733a20696e73756666696369656e742062616c616e636520666f60008201527f722063616c6c0000000000000000000000000000000000000000000000000000602082015250565b6000612919602683612491565b9150612924826128bd565b604082019050919050565b600060208201905081810360008301526129488161290c565b9050919050565b7f416464726573733a2063616c6c20746f206e6f6e2d636f6e7472616374000000600082015250565b6000612985601d83612491565b91506129908261294f565b602082019050919050565b600060208201905081810360008301526129b481612978565b9050919050565b600081519050919050565b60005b838110156129e45780820151818401526020810190506129c9565b838111156129f3576000848401525b50505050565b6000612a04826129bb565b612a0e8185612779565b9350612a1e8185602086016129c6565b80840191505092915050565b6000612a3682846129f9565b915081905092915050565b600081519050919050565b6000612a5782612a41565b612a618185612491565b9350612a718185602086016129c6565b612a7a81611b9f565b840191505092915050565b60006020820190508181036000830152612a9f8184612a4c565b90509291505056fea264697066735822122092bc6e1c909ab450e98daa307e2f5a82f7c0a5e2736c275d139508bedeeaccfc64736f6c634300080c0033",
  "linkReferences": {},
  "deployedLinkReferences": {}
}