{
  "_format": "hh-sol-artifact-1",
  "contractName": "TradeRouter",
  "sourceName": "contracts/defi/routers/TradeRouter.sol",
  "abi": [
    {
      "inputs": [
        {
          "internalType": "address",
          "name": "_poolRouter",
          "type": "address"
        },
        {
          "internalType": "address",
          "name": "_freRouter",
          "type": "address"
        },
        {
          "internalType": "address",
          "name": "_feeCalc",
          "type": "address"
        }
      ],
      "stateMutability": "nonpayable",
      "type": "constructor"
    },
    {
      "anonymous": false,
      "inputs": [
        {
          "indexed": true,
          "internalType": "address",
          "name": "referrer",
          "type": "address"
        },
        {
          "indexed": true,
          "internalType": "address",
          "name": "token",
          "type": "address"
        },
        {
          "indexed": false,
          "internalType": "uint256",
          "name": "claimedAmout",
          "type": "uint256"
        }
      ],
      "name": "ReferralFeesClaimed",
      "type": "event"
    },
    {
      "anonymous": false,
      "inputs": [
        {
          "indexed": true,
          "internalType": "address",
          "name": "tokenIn",
          "type": "address"
        },
        {
          "indexed": true,
          "internalType": "address",
          "name": "baseToken",
          "type": "address"
        },
        {
          "indexed": false,
          "internalType": "address",
          "name": "from",
          "type": "address"
        },
        {
          "indexed": false,
          "internalType": "address",
          "name": "to",
          "type": "address"
        },
        {
          "indexed": false,
          "internalType": "uint256",
          "name": "amount",
          "type": "uint256"
        }
      ],
      "name": "TradedDataTokenToETH",
      "type": "event"
    },
    {
      "anonymous": false,
      "inputs": [
        {
          "indexed": true,
          "internalType": "address",
          "name": "tokenIn",
          "type": "address"
        },
        {
          "indexed": true,
          "internalType": "address",
          "name": "baseToken",
          "type": "address"
        },
        {
          "indexed": true,
          "internalType": "address",
          "name": "tokenOut",
          "type": "address"
        },
        {
          "indexed": false,
          "internalType": "address",
          "name": "from",
          "type": "address"
        },
        {
          "indexed": false,
          "internalType": "address",
          "name": "to",
          "type": "address"
        },
        {
          "indexed": false,
          "internalType": "uint256",
          "name": "amount",
          "type": "uint256"
        }
      ],
      "name": "TradedDataTokenToToken",
      "type": "event"
    },
    {
      "anonymous": false,
      "inputs": [
        {
          "indexed": true,
          "internalType": "address",
          "name": "tokenOut",
          "type": "address"
        },
        {
          "indexed": true,
          "internalType": "address",
          "name": "baseToken",
          "type": "address"
        },
        {
          "indexed": false,
          "internalType": "address",
          "name": "from",
          "type": "address"
        },
        {
          "indexed": false,
          "internalType": "address",
          "name": "to",
          "type": "address"
        },
        {
          "indexed": false,
          "internalType": "uint256",
          "name": "amount",
          "type": "uint256"
        }
      ],
      "name": "TradedETHToDataToken",
      "type": "event"
    },
    {
      "anonymous": false,
      "inputs": [
        {
          "indexed": true,
          "internalType": "address",
          "name": "tokenOut",
          "type": "address"
        },
        {
          "indexed": true,
          "internalType": "address",
          "name": "baseToken",
          "type": "address"
        },
        {
          "indexed": true,
          "internalType": "address",
          "name": "tokenIn",
          "type": "address"
        },
        {
          "indexed": false,
          "internalType": "address",
          "name": "from",
          "type": "address"
        },
        {
          "indexed": false,
          "internalType": "address",
          "name": "to",
          "type": "address"
        },
        {
          "indexed": false,
          "internalType": "uint256",
          "name": "amount",
          "type": "uint256"
        }
      ],
      "name": "TradedTokenToDataToken",
      "type": "event"
    },
    {
      "inputs": [],
      "name": "BONE",
      "outputs": [
        {
          "internalType": "uint256",
          "name": "",
          "type": "uint256"
        }
      ],
      "stateMutability": "view",
      "type": "function"
    },
    {
      "inputs": [],
      "name": "BPOW_PRECISION",
      "outputs": [
        {
          "internalType": "uint256",
          "name": "",
          "type": "uint256"
        }
      ],
      "stateMutability": "view",
      "type": "function"
    },
    {
      "inputs": [],
      "name": "MAX_BPOW_BASE",
      "outputs": [
        {
          "internalType": "uint256",
          "name": "",
          "type": "uint256"
        }
      ],
      "stateMutability": "view",
      "type": "function"
    },
    {
      "inputs": [],
      "name": "MAX_INT",
      "outputs": [
        {
          "internalType": "uint256",
          "name": "",
          "type": "uint256"
        }
      ],
      "stateMutability": "view",
      "type": "function"
    },
    {
      "inputs": [],
      "name": "MIN_BPOW_BASE",
      "outputs": [
        {
          "internalType": "uint256",
          "name": "",
          "type": "uint256"
        }
      ],
      "stateMutability": "view",
      "type": "function"
    },
    {
      "inputs": [],
      "name": "STAKE_FEE_TYPE",
      "outputs": [
        {
          "internalType": "string",
          "name": "",
          "type": "string"
        }
      ],
      "stateMutability": "view",
      "type": "function"
    },
    {
      "inputs": [],
      "name": "TRADE_FEE_TYPE",
      "outputs": [
        {
          "internalType": "string",
          "name": "",
          "type": "string"
        }
      ],
      "stateMutability": "view",
      "type": "function"
    },
    {
      "inputs": [],
      "name": "UNSTAKE_FEE_TYPE",
      "outputs": [
        {
          "internalType": "string",
          "name": "",
          "type": "string"
        }
      ],
      "stateMutability": "view",
      "type": "function"
    },
    {
      "inputs": [],
      "name": "ZERO_FEES",
      "outputs": [
        {
          "internalType": "uint256",
          "name": "",
          "type": "uint256"
        }
      ],
      "stateMutability": "view",
      "type": "function"
    },
    {
      "inputs": [],
      "name": "acceptPendingAdmin",
      "outputs": [],
      "stateMutability": "nonpayable",
      "type": "function"
    },
    {
      "inputs": [],
      "name": "admin",
      "outputs": [
        {
          "internalType": "address",
          "name": "",
          "type": "address"
        }
      ],
      "stateMutability": "view",
      "type": "function"
    },
    {
      "inputs": [
        {
          "internalType": "address",
          "name": "token",
          "type": "address"
        },
        {
          "internalType": "address",
          "name": "referrer",
          "type": "address"
        }
      ],
      "name": "claimRefFees",
      "outputs": [
        {
          "internalType": "uint256",
          "name": "claimAmount",
          "type": "uint256"
        }
      ],
      "stateMutability": "nonpayable",
      "type": "function"
    },
    {
      "inputs": [],
      "name": "pendingAdmin",
      "outputs": [
        {
          "internalType": "address",
          "name": "",
          "type": "address"
        }
      ],
      "stateMutability": "view",
      "type": "function"
    },
    {
      "inputs": [
        {
          "internalType": "address",
          "name": "",
          "type": "address"
        },
        {
          "internalType": "address",
          "name": "",
          "type": "address"
        }
      ],
      "name": "referralFees",
      "outputs": [
        {
          "internalType": "uint256",
          "name": "",
          "type": "uint256"
        }
      ],
      "stateMutability": "view",
      "type": "function"
    },
    {
      "inputs": [
        {
          "internalType": "address",
          "name": "newAdmin",
          "type": "address"
        }
      ],
      "name": "setPendingAdmin",
      "outputs": [],
      "stateMutability": "nonpayable",
      "type": "function"
    },
    {
      "inputs": [
        {
          "components": [
            {
              "internalType": "address[6]",
              "name": "meta",
              "type": "address[6]"
            },
            {
              "internalType": "uint256[4]",
              "name": "uints",
              "type": "uint256[4]"
            },
            {
              "internalType": "address[]",
              "name": "path",
              "type": "address[]"
            },
            {
              "internalType": "bool",
              "name": "isFRE",
              "type": "bool"
            },
            {
              "internalType": "bytes32",
              "name": "exchangeId",
              "type": "bytes32"
            }
          ],
          "internalType": "struct TradeRouter.TradeInfo",
          "name": "info",
          "type": "tuple"
        }
      ],
      "name": "swapDatatokenToExactETH",
      "outputs": [
        {
          "internalType": "uint256",
          "name": "tokenAmountIn",
          "type": "uint256"
        },
        {
          "internalType": "uint256",
          "name": "dataxFee",
          "type": "uint256"
        },
        {
          "internalType": "uint256",
          "name": "refFee",
          "type": "uint256"
        }
      ],
      "stateMutability": "nonpayable",
      "type": "function"
    },
    {
      "inputs": [
        {
          "components": [
            {
              "internalType": "address[6]",
              "name": "meta",
              "type": "address[6]"
            },
            {
              "internalType": "uint256[4]",
              "name": "uints",
              "type": "uint256[4]"
            },
            {
              "internalType": "address[]",
              "name": "path",
              "type": "address[]"
            },
            {
              "internalType": "bool",
              "name": "isFRE",
              "type": "bool"
            },
            {
              "internalType": "bytes32",
              "name": "exchangeId",
              "type": "bytes32"
            }
          ],
          "internalType": "struct TradeRouter.TradeInfo",
          "name": "info",
          "type": "tuple"
        }
      ],
      "name": "swapDatatokenToExactToken",
      "outputs": [
        {
          "internalType": "uint256",
          "name": "tokenAmountIn",
          "type": "uint256"
        },
        {
          "internalType": "uint256",
          "name": "dataxFee",
          "type": "uint256"
        },
        {
          "internalType": "uint256",
          "name": "refFee",
          "type": "uint256"
        }
      ],
      "stateMutability": "nonpayable",
      "type": "function"
    },
    {
      "inputs": [
        {
          "components": [
            {
              "internalType": "address[6]",
              "name": "meta",
              "type": "address[6]"
            },
            {
              "internalType": "uint256[4]",
              "name": "uints",
              "type": "uint256[4]"
            },
            {
              "internalType": "address[]",
              "name": "path",
              "type": "address[]"
            },
            {
              "internalType": "bool",
              "name": "isFRE",
              "type": "bool"
            },
            {
              "internalType": "bytes32",
              "name": "exchangeId",
              "type": "bytes32"
            }
          ],
          "internalType": "struct TradeRouter.TradeInfo",
          "name": "info",
          "type": "tuple"
        }
      ],
      "name": "swapETHToExactDatatoken",
      "outputs": [
        {
          "internalType": "uint256",
          "name": "baseRefund",
          "type": "uint256"
        },
        {
          "internalType": "uint256",
          "name": "ethRefund",
          "type": "uint256"
        },
        {
          "internalType": "uint256",
          "name": "dataxFee",
          "type": "uint256"
        },
        {
          "internalType": "uint256",
          "name": "refFee",
          "type": "uint256"
        }
      ],
      "stateMutability": "payable",
      "type": "function"
    },
    {
      "inputs": [
        {
          "components": [
            {
              "internalType": "address[6]",
              "name": "meta",
              "type": "address[6]"
            },
            {
              "internalType": "uint256[4]",
              "name": "uints",
              "type": "uint256[4]"
            },
            {
              "internalType": "address[]",
              "name": "path",
              "type": "address[]"
            },
            {
              "internalType": "bool",
              "name": "isFRE",
              "type": "bool"
            },
            {
              "internalType": "bytes32",
              "name": "exchangeId",
              "type": "bytes32"
            }
          ],
          "internalType": "struct TradeRouter.TradeInfo",
          "name": "info",
          "type": "tuple"
        }
      ],
      "name": "swapExactDatatokenToETH",
      "outputs": [
        {
          "internalType": "uint256",
          "name": "ethAmountOut",
          "type": "uint256"
        },
        {
          "internalType": "uint256",
          "name": "dataxFee",
          "type": "uint256"
        },
        {
          "internalType": "uint256",
          "name": "refFee",
          "type": "uint256"
        }
      ],
      "stateMutability": "nonpayable",
      "type": "function"
    },
    {
      "inputs": [
        {
          "components": [
            {
              "internalType": "address[6]",
              "name": "meta",
              "type": "address[6]"
            },
            {
              "internalType": "uint256[4]",
              "name": "uints",
              "type": "uint256[4]"
            },
            {
              "internalType": "address[]",
              "name": "path",
              "type": "address[]"
            },
            {
              "internalType": "bool",
              "name": "isFRE",
              "type": "bool"
            },
            {
              "internalType": "bytes32",
              "name": "exchangeId",
              "type": "bytes32"
            }
          ],
          "internalType": "struct TradeRouter.TradeInfo",
          "name": "info",
          "type": "tuple"
        }
      ],
      "name": "swapExactDatatokenToToken",
      "outputs": [
        {
          "internalType": "uint256",
          "name": "tokenAmountOut",
          "type": "uint256"
        },
        {
          "internalType": "uint256",
          "name": "dataxFee",
          "type": "uint256"
        },
        {
          "internalType": "uint256",
          "name": "refFee",
          "type": "uint256"
        }
      ],
      "stateMutability": "nonpayable",
      "type": "function"
    },
    {
      "inputs": [
        {
          "components": [
            {
              "internalType": "address[6]",
              "name": "meta",
              "type": "address[6]"
            },
            {
              "internalType": "uint256[4]",
              "name": "uints",
              "type": "uint256[4]"
            },
            {
              "internalType": "address[]",
              "name": "path",
              "type": "address[]"
            },
            {
              "internalType": "bool",
              "name": "isFRE",
              "type": "bool"
            },
            {
              "internalType": "bytes32",
              "name": "exchangeId",
              "type": "bytes32"
            }
          ],
          "internalType": "struct TradeRouter.TradeInfo",
          "name": "info",
          "type": "tuple"
        }
      ],
      "name": "swapExactETHToDatatoken",
      "outputs": [
        {
          "internalType": "uint256",
          "name": "dtAmountOut",
          "type": "uint256"
        },
        {
          "internalType": "uint256",
          "name": "dataxFee",
          "type": "uint256"
        },
        {
          "internalType": "uint256",
          "name": "refFee",
          "type": "uint256"
        }
      ],
      "stateMutability": "payable",
      "type": "function"
    },
    {
      "inputs": [
        {
          "components": [
            {
              "internalType": "address[6]",
              "name": "meta",
              "type": "address[6]"
            },
            {
              "internalType": "uint256[4]",
              "name": "uints",
              "type": "uint256[4]"
            },
            {
              "internalType": "address[]",
              "name": "path",
              "type": "address[]"
            },
            {
              "internalType": "bool",
              "name": "isFRE",
              "type": "bool"
            },
            {
              "internalType": "bytes32",
              "name": "exchangeId",
              "type": "bytes32"
            }
          ],
          "internalType": "struct TradeRouter.TradeInfo",
          "name": "info",
          "type": "tuple"
        }
      ],
      "name": "swapExactTokenToDatatoken",
      "outputs": [
        {
          "internalType": "uint256",
          "name": "dtAmountOut",
          "type": "uint256"
        },
        {
          "internalType": "uint256",
          "name": "dataxFee",
          "type": "uint256"
        },
        {
          "internalType": "uint256",
          "name": "refFee",
          "type": "uint256"
        }
      ],
      "stateMutability": "nonpayable",
      "type": "function"
    },
    {
      "inputs": [
        {
          "components": [
            {
              "internalType": "address[6]",
              "name": "meta",
              "type": "address[6]"
            },
            {
              "internalType": "uint256[4]",
              "name": "uints",
              "type": "uint256[4]"
            },
            {
              "internalType": "address[]",
              "name": "path",
              "type": "address[]"
            },
            {
              "internalType": "bool",
              "name": "isFRE",
              "type": "bool"
            },
            {
              "internalType": "bytes32",
              "name": "exchangeId",
              "type": "bytes32"
            }
          ],
          "internalType": "struct TradeRouter.TradeInfo",
          "name": "info",
          "type": "tuple"
        }
      ],
      "name": "swapTokenToExactDatatoken",
      "outputs": [
        {
          "internalType": "uint256",
          "name": "baseRefund",
          "type": "uint256"
        },
        {
          "internalType": "uint256",
          "name": "tokenInRefund",
          "type": "uint256"
        },
        {
          "internalType": "uint256",
          "name": "dataxFee",
          "type": "uint256"
        },
        {
          "internalType": "uint256",
          "name": "refFee",
          "type": "uint256"
        }
      ],
      "stateMutability": "nonpayable",
      "type": "function"
    },
    {
      "stateMutability": "payable",
      "type": "receive"
    }
  ],
  "bytecode": "0x60806040523480156200001157600080fd5b50604051620089ce380380620089ce8339818101604052810190620000379190620001b6565b600160008190555033600160006101000a81548173ffffffffffffffffffffffffffffffffffffffff021916908373ffffffffffffffffffffffffffffffffffffffff16021790555082600560006101000a81548173ffffffffffffffffffffffffffffffffffffffff021916908373ffffffffffffffffffffffffffffffffffffffff16021790555081600460006101000a81548173ffffffffffffffffffffffffffffffffffffffff021916908373ffffffffffffffffffffffffffffffffffffffff16021790555080600360006101000a81548173ffffffffffffffffffffffffffffffffffffffff021916908373ffffffffffffffffffffffffffffffffffffffff16021790555050505062000212565b600080fd5b600073ffffffffffffffffffffffffffffffffffffffff82169050919050565b60006200017e8262000151565b9050919050565b620001908162000171565b81146200019c57600080fd5b50565b600081519050620001b08162000185565b92915050565b600080600060608486031215620001d257620001d16200014c565b5b6000620001e2868287016200019f565b9350506020620001f5868287016200019f565b925050604062000208868287016200019f565b9150509250925092565b6187ac80620002226000396000f3fe6080604052600436106101445760003560e01c806384ffaa2d116100b6578063c36596a61161006f578063c36596a614610488578063d09484c2146104b3578063e279110b146104de578063e8b2e0cf1461051b578063f851a4401461055b578063f9e9f584146105865761014b565b806384ffaa2d146103575780639cac5bc314610396578063b9576bd3146103c1578063ba019dab14610400578063bc694ea21461042b578063c2661906146104565761014b565b80632678224711610108578063267822471461024f5780632b6e01db1461027a5780632ce9302a146102a55780634dd18bf5146102e4578063709920c11461030d57806373141c28146103245761014b565b8063090522f114610150578063098d32281461018f578063152a347b146101ba578063189d00ca146101f9578063220ab80c146102245761014b565b3661014b57005b600080fd5b34801561015c57600080fd5b50610177600480360381019061017291906178d4565b6105c3565b60405161018693929190617936565b60405180910390f35b34801561019b57600080fd5b506101a4611443565b6040516101b1919061796d565b60405180910390f35b3480156101c657600080fd5b506101e160048036038101906101dc91906178d4565b611467565b6040516101f093929190617936565b60405180910390f35b34801561020557600080fd5b5061020e612156565b60405161021b919061796d565b60405180910390f35b34801561023057600080fd5b50610239612172565b6040516102469190617a21565b60405180910390f35b34801561025b57600080fd5b506102646121ab565b6040516102719190617a84565b60405180910390f35b34801561028657600080fd5b5061028f6121d1565b60405161029c919061796d565b60405180910390f35b3480156102b157600080fd5b506102cc60048036038101906102c791906178d4565b6121d6565b6040516102db93929190617936565b60405180910390f35b3480156102f057600080fd5b5061030b60048036038101906103069190617acb565b612f9b565b005b34801561031957600080fd5b5061032261306f565b005b61033e600480360381019061033991906178d4565b613201565b60405161034e9493929190617af8565b60405180910390f35b34801561036357600080fd5b5061037e600480360381019061037991906178d4565b613d99565b60405161038d93929190617936565b60405180910390f35b3480156103a257600080fd5b506103ab614b9c565b6040516103b89190617a21565b60405180910390f35b3480156103cd57600080fd5b506103e860048036038101906103e391906178d4565b614bd5565b6040516103f793929190617936565b60405180910390f35b34801561040c57600080fd5b50610415615923565b604051610422919061796d565b60405180910390f35b34801561043757600080fd5b50610440615928565b60405161044d919061796d565b60405180910390f35b610470600480360381019061046b91906178d4565b61594c565b60405161047f93929190617936565b60405180910390f35b34801561049457600080fd5b5061049d6164c9565b6040516104aa919061796d565b60405180910390f35b3480156104bf57600080fd5b506104c86164d5565b6040516104d59190617a21565b60405180910390f35b3480156104ea57600080fd5b5061050560048036038101906105009190617b3d565b61650e565b604051610512919061796d565b60405180910390f35b34801561052757600080fd5b50610542600480360381019061053d91906178d4565b616533565b6040516105529493929190617af8565b60405180910390f35b34801561056757600080fd5b50610570617328565b60405161057d9190617a84565b60405180910390f35b34801561059257600080fd5b506105ad60048036038101906105a89190617b3d565b61734e565b6040516105ba919061796d565b60405180910390f35b60008060006002600054141561060e576040517f08c379a000000000000000000000000000000000000000000000000000000000815260040161060590617bc9565b60405180910390fd5b6002600081905550600073ffffffffffffffffffffffffffffffffffffffff168460000160026006811061064557610644617be9565b5b6020020160208101906106589190617acb565b73ffffffffffffffffffffffffffffffffffffffff1614156106af576040517f08c379a00000000000000000000000000000000000000000000000000000000081526004016106a690617c8a565b60405180910390fd5b6000846000016001600681106106c8576106c7617be9565b5b6020020160208101906106db9190617acb565b90508073ffffffffffffffffffffffffffffffffffffffff166323b872dd33308860c00160006004811061071257610711617be9565b5b60200201356040518463ffffffff1660e01b815260040161073593929190617caa565b6020604051808303816000875af1158015610754573d6000803e3d6000fd5b505050506040513d601f19601f820116820180604052508101906107789190617d19565b6107b7576040517f08c379a00000000000000000000000000000000000000000000000000000000081526004016107ae90617db8565b60405180910390fd5b600360009054906101000a900473ffffffffffffffffffffffffffffffffffffffff1673ffffffffffffffffffffffffffffffffffffffff1663f8702fe18660c00160016004811061080c5761080b617be9565b5b60200201356040518060400160405280600581526020017f54524144450000000000000000000000000000000000000000000000000000008152508860c00160036004811061085e5761085d617be9565b5b60200201356040518463ffffffff1660e01b815260040161088193929190617dd8565b6040805180830381865afa15801561089d573d6000803e3d6000fd5b505050506040513d601f19601f820116820180604052508101906108c19190617e42565b8093508194505050600061090b6108e1848661758690919063ffffffff16565b8760c0016001600481106108f8576108f7617be9565b5b602002013561758690919063ffffffff16565b9050856101600160208101906109219190617e97565b15610b65578560000160016006811061093d5761093c617be9565b5b6020020160208101906109509190617acb565b73ffffffffffffffffffffffffffffffffffffffff1663095ea7b3600460009054906101000a900473ffffffffffffffffffffffffffffffffffffffff168860c0016000600481106109a5576109a4617be9565b5b60200201356040518363ffffffff1660e01b81526004016109c7929190617ec4565b6020604051808303816000875af11580156109e6573d6000803e3d6000fd5b505050506040513d601f19601f82011682018060405250810190610a0a9190617d19565b50600460009054906101000a900473ffffffffffffffffffffffffffffffffffffffff1673ffffffffffffffffffffffffffffffffffffffff16637cbc8bfa87806101400190610a5a9190617efc565b6000818110610a6c57610a6b617be9565b5b9050602002016020810190610a819190617acb565b88600001600160068110610a9857610a97617be9565b5b602002016020810190610aab9190617acb565b308a600001600060068110610ac357610ac2617be9565b5b602002016020810190610ad69190617acb565b8b61018001358c60c001600060048110610af357610af2617be9565b5b6020020135886040518863ffffffff1660e01b8152600401610b1b9796959493929190617f78565b6020604051808303816000875af1158015610b3a573d6000803e3d6000fd5b505050506040513d601f19601f82011682018060405250810190610b5e9190617fe7565b9050610d9b565b85600001600160068110610b7c57610b7b617be9565b5b602002016020810190610b8f9190617acb565b73ffffffffffffffffffffffffffffffffffffffff1663095ea7b3600560009054906101000a900473ffffffffffffffffffffffffffffffffffffffff168860c001600060048110610be457610be3617be9565b5b60200201356040518363ffffffff1660e01b8152600401610c06929190617ec4565b6020604051808303816000875af1158015610c25573d6000803e3d6000fd5b505050506040513d601f19601f82011682018060405250810190610c499190617d19565b50600560009054906101000a900473ffffffffffffffffffffffffffffffffffffffff1673ffffffffffffffffffffffffffffffffffffffff166327ccc15287806101400190610c999190617efc565b6000818110610cab57610caa617be9565b5b9050602002016020810190610cc09190617acb565b88600001600160068110610cd757610cd6617be9565b5b602002016020810190610cea9190617acb565b308a600001600060068110610d0257610d01617be9565b5b602002016020810190610d159190617acb565b8b60c001600060048110610d2c57610d2b617be9565b5b6020020135876040518763ffffffff1660e01b8152600401610d5396959493929190618014565b60408051808303816000875af1158015610d71573d6000803e3d6000fd5b505050506040513d601f19601f82011682018060405250810190610d959190617e42565b50809550505b600073ffffffffffffffffffffffffffffffffffffffff1686600001600260068110610dca57610dc9617be9565b5b602002016020810190610ddd9190617acb565b73ffffffffffffffffffffffffffffffffffffffff1614610fac57610ed9836006600089600001600260068110610e1757610e16617be9565b5b602002016020810190610e2a9190617acb565b73ffffffffffffffffffffffffffffffffffffffff1673ffffffffffffffffffffffffffffffffffffffff168152602001908152602001600020600089600001600560068110610e7d57610e7c617be9565b5b602002016020810190610e909190617acb565b73ffffffffffffffffffffffffffffffffffffffff1673ffffffffffffffffffffffffffffffffffffffff1681526020019081526020016000205461758690919063ffffffff16565b6006600088600001600260068110610ef457610ef3617be9565b5b602002016020810190610f079190617acb565b73ffffffffffffffffffffffffffffffffffffffff1673ffffffffffffffffffffffffffffffffffffffff168152602001908152602001600020600088600001600560068110610f5a57610f59617be9565b5b602002016020810190610f6d9190617acb565b73ffffffffffffffffffffffffffffffffffffffff1673ffffffffffffffffffffffffffffffffffffffff168152602001908152602001600020819055505b600186806101400190610fbf9190617efc565b9050111561121357600086600001600460068110610fe057610fdf617be9565b5b602002016020810190610ff39190617acb565b9050868061014001906110069190617efc565b600081811061101857611017617be9565b5b905060200201602081019061102d9190617acb565b73ffffffffffffffffffffffffffffffffffffffff1663095ea7b38860000160046006811061105f5761105e617be9565b5b6020020160208101906110729190617acb565b8960c00160016004811061108957611088617be9565b5b60200201356040518363ffffffff1660e01b81526004016110ab929190617ec4565b6020604051808303816000875af11580156110ca573d6000803e3d6000fd5b505050506040513d601f19601f820116820180604052508101906110ee9190617d19565b508073ffffffffffffffffffffffffffffffffffffffff16635ec9ef618860c00160026004811061112257611121617be9565b5b60200201358960c00160016004811061113e5761113d617be9565b5b60200201358a8061014001906111549190617efc565b8c60000160026006811061116b5761116a617be9565b5b60200201602081019061117e9190617acb565b8d60000160026006811061119557611194617be9565b5b6020020160208101906111a89190617acb565b6040518763ffffffff1660e01b81526004016111c996959493929190618138565b60408051808303816000875af11580156111e7573d6000803e3d6000fd5b505050506040513d601f19601f8201168201806040525081019061120b9190617e42565b5050506112ba565b6112b98660000160026006811061122d5761122c617be9565b5b6020020160208101906112409190617acb565b8760c00160016004811061125757611256617be9565b5b60200201358880610140019061126d9190617efc565b600081811061127f5761127e617be9565b5b90506020020160208101906112949190617acb565b73ffffffffffffffffffffffffffffffffffffffff1661759c9092919063ffffffff16565b5b858061014001906112cb9190617efc565b60008181106112dd576112dc617be9565b5b90506020020160208101906112f29190617acb565b73ffffffffffffffffffffffffffffffffffffffff16868061014001906113199190617efc565b60018980610140019061132c9190617efc565b905061133891906181c3565b81811061134857611347617be9565b5b905060200201602081019061135d9190617acb565b73ffffffffffffffffffffffffffffffffffffffff168760000160016006811061138a57611389617be9565b5b60200201602081019061139d9190617acb565b73ffffffffffffffffffffffffffffffffffffffff167f0343363b6a70c01693e26f20a7a4448d0d5861a92f3112cc0038661190de3750338a6000016002600681106113ec576113eb617be9565b5b6020020160208101906113ff9190617acb565b8b60c00160016004811061141657611415617be9565b5b602002013560405161142a93929190617caa565b60405180910390a4505060016000819055509193909250565b7fffffffffffffffffffffffffffffffffffffffffffffffffffffffffffffffff81565b6000806000600260005414156114b2576040517f08c379a00000000000000000000000000000000000000000000000000000000081526004016114a990617bc9565b60405180910390fd5b6002600081905550600073ffffffffffffffffffffffffffffffffffffffff16846000016002600681106114e9576114e8617be9565b5b6020020160208101906114fc9190617acb565b73ffffffffffffffffffffffffffffffffffffffff161415611553576040517f08c379a000000000000000000000000000000000000000000000000000000000815260040161154a90617c8a565b60405180910390fd5b60008460000160016006811061156c5761156b617be9565b5b60200201602081019061157f9190617acb565b90508073ffffffffffffffffffffffffffffffffffffffff166323b872dd33308860c0016000600481106115b6576115b5617be9565b5b60200201356040518463ffffffff1660e01b81526004016115d993929190617caa565b6020604051808303816000875af11580156115f8573d6000803e3d6000fd5b505050506040513d601f19601f8201168201806040525081019061161c9190617d19565b61165b576040517f08c379a000000000000000000000000000000000000000000000000000000000815260040161165290617db8565b60405180910390fd5b6000856101600160208101906116719190617e97565b156118d0578560000160016006811061168d5761168c617be9565b5b6020020160208101906116a09190617acb565b73ffffffffffffffffffffffffffffffffffffffff1663095ea7b3600460009054906101000a900473ffffffffffffffffffffffffffffffffffffffff168860c0016000600481106116f5576116f4617be9565b5b60200201356040518363ffffffff1660e01b8152600401611717929190617ec4565b6020604051808303816000875af1158015611736573d6000803e3d6000fd5b505050506040513d601f19601f8201168201806040525081019061175a9190617d19565b50600460009054906101000a900473ffffffffffffffffffffffffffffffffffffffff1673ffffffffffffffffffffffffffffffffffffffff16637cbc8bfa878061014001906117aa9190617efc565b60008181106117bc576117bb617be9565b5b90506020020160208101906117d19190617acb565b886000016001600681106117e8576117e7617be9565b5b6020020160208101906117fb9190617acb565b308a60000160006006811061181357611812617be9565b5b6020020160208101906118269190617acb565b8b61018001358c60c00160006004811061184357611842617be9565b5b60200201358d60c00160016004811061185f5761185e617be9565b5b60200201356040518863ffffffff1660e01b81526004016118869796959493929190617f78565b6020604051808303816000875af11580156118a5573d6000803e3d6000fd5b505050506040513d601f19601f820116820180604052508101906118c99190617fe7565b9050611b1f565b856000016001600681106118e7576118e6617be9565b5b6020020160208101906118fa9190617acb565b73ffffffffffffffffffffffffffffffffffffffff1663095ea7b3600560009054906101000a900473ffffffffffffffffffffffffffffffffffffffff168860c00160006004811061194f5761194e617be9565b5b60200201356040518363ffffffff1660e01b8152600401611971929190617ec4565b6020604051808303816000875af1158015611990573d6000803e3d6000fd5b505050506040513d601f19601f820116820180604052508101906119b49190617d19565b50600560009054906101000a900473ffffffffffffffffffffffffffffffffffffffff1673ffffffffffffffffffffffffffffffffffffffff166332d505da87806101400190611a049190617efc565b6000818110611a1657611a15617be9565b5b9050602002016020810190611a2b9190617acb565b88600001600160068110611a4257611a41617be9565b5b602002016020810190611a559190617acb565b308a600001600060068110611a6d57611a6c617be9565b5b602002016020810190611a809190617acb565b8b60c001600060048110611a9757611a96617be9565b5b60200201358c60c001600160048110611ab357611ab2617be9565b5b60200201356040518763ffffffff1660e01b8152600401611ad996959493929190618014565b6020604051808303816000875af1158015611af8573d6000803e3d6000fd5b505050506040513d601f19601f82011682018060405250810190611b1c9190617fe7565b90505b600360009054906101000a900473ffffffffffffffffffffffffffffffffffffffff1673ffffffffffffffffffffffffffffffffffffffff1663f8702fe1826040518060400160405280600581526020017f54524144450000000000000000000000000000000000000000000000000000008152508960c001600360048110611bab57611baa617be9565b5b60200201356040518463ffffffff1660e01b8152600401611bce93929190617dd8565b6040805180830381865afa158015611bea573d6000803e3d6000fd5b505050506040513d601f19601f82011682018060405250810190611c0e9190617e42565b80945081955050506000611c3d611c2e858761758690919063ffffffff16565b8361762290919063ffffffff16565b9050600073ffffffffffffffffffffffffffffffffffffffff1687600001600260068110611c6e57611c6d617be9565b5b602002016020810190611c819190617acb565b73ffffffffffffffffffffffffffffffffffffffff1614611e5057611d7d84600660008a600001600260068110611cbb57611cba617be9565b5b602002016020810190611cce9190617acb565b73ffffffffffffffffffffffffffffffffffffffff1673ffffffffffffffffffffffffffffffffffffffff16815260200190815260200160002060008a600001600560068110611d2157611d20617be9565b5b602002016020810190611d349190617acb565b73ffffffffffffffffffffffffffffffffffffffff1673ffffffffffffffffffffffffffffffffffffffff1681526020019081526020016000205461758690919063ffffffff16565b6006600089600001600260068110611d9857611d97617be9565b5b602002016020810190611dab9190617acb565b73ffffffffffffffffffffffffffffffffffffffff1673ffffffffffffffffffffffffffffffffffffffff168152602001908152602001600020600089600001600560068110611dfe57611dfd617be9565b5b602002016020810190611e119190617acb565b73ffffffffffffffffffffffffffffffffffffffff1673ffffffffffffffffffffffffffffffffffffffff168152602001908152602001600020819055505b600087600001600460068110611e6957611e68617be9565b5b602002016020810190611e7c9190617acb565b905087806101400190611e8f9190617efc565b6000818110611ea157611ea0617be9565b5b9050602002016020810190611eb69190617acb565b73ffffffffffffffffffffffffffffffffffffffff1663095ea7b389600001600460068110611ee857611ee7617be9565b5b602002016020810190611efb9190617acb565b846040518363ffffffff1660e01b8152600401611f19929190617ec4565b6020604051808303816000875af1158015611f38573d6000803e3d6000fd5b505050506040513d601f19601f82011682018060405250810190611f5c9190617d19565b508073ffffffffffffffffffffffffffffffffffffffff1663363db5c6838a60c001600260048110611f9157611f90617be9565b5b60200201358b806101400190611fa79190617efc565b8d600001600260068110611fbe57611fbd617be9565b5b602002016020810190611fd19190617acb565b6040518663ffffffff1660e01b8152600401611ff19594939291906181f7565b6020604051808303816000875af1158015612010573d6000803e3d6000fd5b505050506040513d601f19601f820116820180604052508101906120349190617fe7565b9650878061014001906120479190617efc565b600081811061205957612058617be9565b5b905060200201602081019061206e9190617acb565b73ffffffffffffffffffffffffffffffffffffffff168860000160016006811061209b5761209a617be9565b5b6020020160208101906120ae9190617acb565b73ffffffffffffffffffffffffffffffffffffffff167fce70b1a047faa7d87f629504d447306e251aba64cf8db9b8b724fca28076dfdc338b6000016002600681106120fd576120fc617be9565b5b6020020160208101906121109190617acb565b8c60c00160016004811061212757612126617be9565b5b602002013560405161213b93929190617caa565b60405180910390a35050505060016000819055509193909250565b6402540be400670de0b6b3a764000061216f9190618274565b81565b6040518060400160405280600581526020017f5354414b4500000000000000000000000000000000000000000000000000000081525081565b600260009054906101000a900473ffffffffffffffffffffffffffffffffffffffff1681565b600081565b600080600060026000541415612221576040517f08c379a000000000000000000000000000000000000000000000000000000000815260040161221890617bc9565b60405180910390fd5b6002600081905550600073ffffffffffffffffffffffffffffffffffffffff168460000160026006811061225857612257617be9565b5b60200201602081019061226b9190617acb565b73ffffffffffffffffffffffffffffffffffffffff1614156122c2576040517f08c379a00000000000000000000000000000000000000000000000000000000081526004016122b990617c8a565b60405180910390fd5b6000848061014001906122d59190617efc565b60008181106122e7576122e6617be9565b5b90506020020160208101906122fc9190617acb565b90508073ffffffffffffffffffffffffffffffffffffffff166323b872dd33308860c00160006004811061233357612332617be9565b5b60200201356040518463ffffffff1660e01b815260040161235693929190617caa565b6020604051808303816000875af1158015612375573d6000803e3d6000fd5b505050506040513d601f19601f820116820180604052508101906123999190617d19565b6123d8576040517f08c379a00000000000000000000000000000000000000000000000000000000081526004016123cf90617db8565b60405180910390fd5b60008560c0016001600481106123f1576123f0617be9565b5b60200201359050600360009054906101000a900473ffffffffffffffffffffffffffffffffffffffff1673ffffffffffffffffffffffffffffffffffffffff1663f8702fe1826040518060400160405280600581526020017f54524144450000000000000000000000000000000000000000000000000000008152508960c00160036004811061248457612483617be9565b5b60200201356040518463ffffffff1660e01b81526004016124a793929190617dd8565b6040805180830381865afa1580156124c3573d6000803e3d6000fd5b505050506040513d601f19601f820116820180604052508101906124e79190617e42565b80945081955050506001868061014001906125029190617efc565b905011156126ad578173ffffffffffffffffffffffffffffffffffffffff1663095ea7b38760000160046006811061253d5761253c617be9565b5b6020020160208101906125509190617acb565b8860c00160006004811061256757612566617be9565b5b60200201356040518363ffffffff1660e01b8152600401612589929190617ec4565b6020604051808303816000875af11580156125a8573d6000803e3d6000fd5b505050506040513d601f19601f820116820180604052508101906125cc9190617d19565b506000866000016004600681106125e6576125e5617be9565b5b6020020160208101906125f99190617acb565b90508073ffffffffffffffffffffffffffffffffffffffff1663472b43f38860c00160006004811061262e5761262d617be9565b5b6020020135848a8061014001906126459190617efc565b306040518663ffffffff1660e01b81526004016126669594939291906181f7565b6020604051808303816000875af1158015612685573d6000803e3d6000fd5b505050506040513d601f19601f820116820180604052508101906126a99190617fe7565b9150505b60006126d46126c5858761758690919063ffffffff16565b8361762290919063ffffffff16565b9050600073ffffffffffffffffffffffffffffffffffffffff168760000160026006811061270557612704617be9565b5b6020020160208101906127189190617acb565b73ffffffffffffffffffffffffffffffffffffffff16146128e75761281484600660008a60000160026006811061275257612751617be9565b5b6020020160208101906127659190617acb565b73ffffffffffffffffffffffffffffffffffffffff1673ffffffffffffffffffffffffffffffffffffffff16815260200190815260200160002060008a6000016005600681106127b8576127b7617be9565b5b6020020160208101906127cb9190617acb565b73ffffffffffffffffffffffffffffffffffffffff1673ffffffffffffffffffffffffffffffffffffffff1681526020019081526020016000205461758690919063ffffffff16565b600660008960000160026006811061282f5761282e617be9565b5b6020020160208101906128429190617acb565b73ffffffffffffffffffffffffffffffffffffffff1673ffffffffffffffffffffffffffffffffffffffff16815260200190815260200160002060008960000160056006811061289557612894617be9565b5b6020020160208101906128a89190617acb565b73ffffffffffffffffffffffffffffffffffffffff1673ffffffffffffffffffffffffffffffffffffffff168152602001908152602001600020819055505b866101600160208101906128fb9190617e97565b15612b8757868061014001906129119190617efc565b6001898061014001906129249190617efc565b905061293091906181c3565b8181106129405761293f617be9565b5b90506020020160208101906129559190617acb565b73ffffffffffffffffffffffffffffffffffffffff1663095ea7b3600460009054906101000a900473ffffffffffffffffffffffffffffffffffffffff16836040518363ffffffff1660e01b81526004016129b1929190617ec4565b6020604051808303816000875af11580156129d0573d6000803e3d6000fd5b505050506040513d601f19601f820116820180604052508101906129f49190617d19565b50600460009054906101000a900473ffffffffffffffffffffffffffffffffffffffff1673ffffffffffffffffffffffffffffffffffffffff1663495d204088806101400190612a449190617efc565b60018b806101400190612a579190617efc565b9050612a6391906181c3565b818110612a7357612a72617be9565b5b9050602002016020810190612a889190617acb565b89600001600260068110612a9f57612a9e617be9565b5b602002016020810190612ab29190617acb565b8a600001600060068110612ac957612ac8617be9565b5b602002016020810190612adc9190617acb565b8b6101800135868d60c001600260048110612afa57612af9617be9565b5b60200201356040518763ffffffff1660e01b8152600401612b20969594939291906182a5565b60408051808303816000875af1158015612b3e573d6000803e3d6000fd5b505050506040513d601f19601f82011682018060405250810190612b629190617e42565b50508660c001600260048110612b7b57612b7a617be9565b5b60200201359550612e11565b86806101400190612b989190617efc565b600189806101400190612bab9190617efc565b9050612bb791906181c3565b818110612bc757612bc6617be9565b5b9050602002016020810190612bdc9190617acb565b73ffffffffffffffffffffffffffffffffffffffff1663095ea7b3600560009054906101000a900473ffffffffffffffffffffffffffffffffffffffff16836040518363ffffffff1660e01b8152600401612c38929190617ec4565b6020604051808303816000875af1158015612c57573d6000803e3d6000fd5b505050506040513d601f19601f82011682018060405250810190612c7b9190617d19565b50600560009054906101000a900473ffffffffffffffffffffffffffffffffffffffff1673ffffffffffffffffffffffffffffffffffffffff16637765740888806101400190612ccb9190617efc565b60018b806101400190612cde9190617efc565b9050612cea91906181c3565b818110612cfa57612cf9617be9565b5b9050602002016020810190612d0f9190617acb565b89600001600160068110612d2657612d25617be9565b5b602002016020810190612d399190617acb565b8a600001600260068110612d5057612d4f617be9565b5b602002016020810190612d639190617acb565b8b600001600060068110612d7a57612d79617be9565b5b602002016020810190612d8d9190617acb565b868d60c001600260048110612da557612da4617be9565b5b60200201356040518763ffffffff1660e01b8152600401612dcb96959493929190618014565b6020604051808303816000875af1158015612dea573d6000803e3d6000fd5b505050506040513d601f19601f82011682018060405250810190612e0e9190617fe7565b95505b86806101400190612e229190617efc565b6000818110612e3457612e33617be9565b5b9050602002016020810190612e499190617acb565b73ffffffffffffffffffffffffffffffffffffffff1687806101400190612e709190617efc565b60018a806101400190612e839190617efc565b9050612e8f91906181c3565b818110612e9f57612e9e617be9565b5b9050602002016020810190612eb49190617acb565b73ffffffffffffffffffffffffffffffffffffffff1688600001600160068110612ee157612ee0617be9565b5b602002016020810190612ef49190617acb565b73ffffffffffffffffffffffffffffffffffffffff167f932d60095b1063cee12b6204f81843280ebc9693af98c86452b031edb66be23c338b600001600260068110612f4357612f42617be9565b5b602002016020810190612f569190617acb565b8c60c001600160048110612f6d57612f6c617be9565b5b6020020135604051612f8193929190617caa565b60405180910390a450505060016000819055509193909250565b600160009054906101000a900473ffffffffffffffffffffffffffffffffffffffff1673ffffffffffffffffffffffffffffffffffffffff163373ffffffffffffffffffffffffffffffffffffffff161461302b576040517f08c379a000000000000000000000000000000000000000000000000000000000815260040161302290618352565b60405180910390fd5b80600260006101000a81548173ffffffffffffffffffffffffffffffffffffffff021916908373ffffffffffffffffffffffffffffffffffffffff16021790555050565b600260009054906101000a900473ffffffffffffffffffffffffffffffffffffffff1673ffffffffffffffffffffffffffffffffffffffff163373ffffffffffffffffffffffffffffffffffffffff1614801561311b5750600073ffffffffffffffffffffffffffffffffffffffff16600260009054906101000a900473ffffffffffffffffffffffffffffffffffffffff1673ffffffffffffffffffffffffffffffffffffffff1614155b61315a576040517f08c379a0000000000000000000000000000000000000000000000000000000008152600401613151906183be565b60405180910390fd5b600260009054906101000a900473ffffffffffffffffffffffffffffffffffffffff16600160006101000a81548173ffffffffffffffffffffffffffffffffffffffff021916908373ffffffffffffffffffffffffffffffffffffffff1602179055506000600260006101000a81548173ffffffffffffffffffffffffffffffffffffffff021916908373ffffffffffffffffffffffffffffffffffffffff160217905550565b6000806000806002600054141561324d576040517f08c379a000000000000000000000000000000000000000000000000000000000815260040161324490617bc9565b60405180910390fd5b6002600081905550600073ffffffffffffffffffffffffffffffffffffffff168560000160026006811061328457613283617be9565b5b6020020160208101906132979190617acb565b73ffffffffffffffffffffffffffffffffffffffff1614156132ee576040517f08c379a00000000000000000000000000000000000000000000000000000000081526004016132e590617c8a565b60405180910390fd5b60008560000160046006811061330757613306617be9565b5b60200201602081019061331a9190617acb565b90506000600360009054906101000a900473ffffffffffffffffffffffffffffffffffffffff1673ffffffffffffffffffffffffffffffffffffffff1663f8702fe18860c00160016004811061337357613372617be9565b5b60200201356040518060400160405280600581526020017f54524144450000000000000000000000000000000000000000000000000000008152508a60c0016003600481106133c5576133c4617be9565b5b60200201356040518463ffffffff1660e01b81526004016133e893929190617dd8565b6040805180830381865afa158015613404573d6000803e3d6000fd5b505050506040513d601f19601f820116820180604052508101906134289190617e42565b8094508195505050600061347284613464878b60c00160016004811061345157613450617be9565b5b602002013561758690919063ffffffff16565b61758690919063ffffffff16565b90508273ffffffffffffffffffffffffffffffffffffffff1663be42cae034838b8061014001906134a39190617efc565b30336040518763ffffffff1660e01b81526004016134c59594939291906183de565b604080518083038185885af11580156134e2573d6000803e3d6000fd5b50505050506040513d601f19601f820116820180604052508101906135079190617e42565b80975081935050506000613536613527868861758690919063ffffffff16565b8461762290919063ffffffff16565b9050600073ffffffffffffffffffffffffffffffffffffffff168960000160026006811061356757613566617be9565b5b60200201602081019061357a9190617acb565b73ffffffffffffffffffffffffffffffffffffffff16146137495761367685600660008c6000016002600681106135b4576135b3617be9565b5b6020020160208101906135c79190617acb565b73ffffffffffffffffffffffffffffffffffffffff1673ffffffffffffffffffffffffffffffffffffffff16815260200190815260200160002060008c60000160056006811061361a57613619617be9565b5b60200201602081019061362d9190617acb565b73ffffffffffffffffffffffffffffffffffffffff1673ffffffffffffffffffffffffffffffffffffffff1681526020019081526020016000205461758690919063ffffffff16565b600660008b60000160026006811061369157613690617be9565b5b6020020160208101906136a49190617acb565b73ffffffffffffffffffffffffffffffffffffffff1673ffffffffffffffffffffffffffffffffffffffff16815260200190815260200160002060008b6000016005600681106136f7576136f6617be9565b5b60200201602081019061370a9190617acb565b73ffffffffffffffffffffffffffffffffffffffff1673ffffffffffffffffffffffffffffffffffffffff168152602001908152602001600020819055505b8861016001602081019061375d9190617e97565b156139cf57888061014001906137739190617efc565b60018b8061014001906137869190617efc565b905061379291906181c3565b8181106137a2576137a1617be9565b5b90506020020160208101906137b79190617acb565b73ffffffffffffffffffffffffffffffffffffffff1663095ea7b3600460009054906101000a900473ffffffffffffffffffffffffffffffffffffffff16836040518363ffffffff1660e01b8152600401613813929190617ec4565b6020604051808303816000875af1158015613832573d6000803e3d6000fd5b505050506040513d601f19601f820116820180604052508101906138569190617d19565b50600460009054906101000a900473ffffffffffffffffffffffffffffffffffffffff1673ffffffffffffffffffffffffffffffffffffffff1663495d20408a8061014001906138a69190617efc565b60018d8061014001906138b99190617efc565b90506138c591906181c3565b8181106138d5576138d4617be9565b5b90506020020160208101906138ea9190617acb565b8b60000160026006811061390157613900617be9565b5b6020020160208101906139149190617acb565b8c60000160006006811061392b5761392a617be9565b5b60200201602081019061393e9190617acb565b8d6101800135868f60c00160026004811061395c5761395b617be9565b5b60200201356040518763ffffffff1660e01b8152600401613982969594939291906182a5565b60408051808303816000875af11580156139a0573d6000803e3d6000fd5b505050506040513d601f19601f820116820180604052508101906139c49190617e42565b905080985050613c5c565b888061014001906139e09190617efc565b60018b8061014001906139f39190617efc565b90506139ff91906181c3565b818110613a0f57613a0e617be9565b5b9050602002016020810190613a249190617acb565b73ffffffffffffffffffffffffffffffffffffffff1663095ea7b3600560009054906101000a900473ffffffffffffffffffffffffffffffffffffffff16836040518363ffffffff1660e01b8152600401613a80929190617ec4565b6020604051808303816000875af1158015613a9f573d6000803e3d6000fd5b505050506040513d601f19601f82011682018060405250810190613ac39190617d19565b50600560009054906101000a900473ffffffffffffffffffffffffffffffffffffffff1673ffffffffffffffffffffffffffffffffffffffff16639614b9be8a806101400190613b139190617efc565b60018d806101400190613b269190617efc565b9050613b3291906181c3565b818110613b4257613b41617be9565b5b9050602002016020810190613b579190617acb565b8b600001600160068110613b6e57613b6d617be9565b5b602002016020810190613b819190617acb565b8c600001600260068110613b9857613b97617be9565b5b602002016020810190613bab9190617acb565b8d600001600060068110613bc257613bc1617be9565b5b602002016020810190613bd59190617acb565b868f60c001600260048110613bed57613bec617be9565b5b60200201356040518763ffffffff1660e01b8152600401613c1396959493929190618014565b60408051808303816000875af1158015613c31573d6000803e3d6000fd5b505050506040513d601f19601f82011682018060405250810190613c559190617e42565b9050809850505b88806101400190613c6d9190617efc565b60018b806101400190613c809190617efc565b9050613c8c91906181c3565b818110613c9c57613c9b617be9565b5b9050602002016020810190613cb19190617acb565b73ffffffffffffffffffffffffffffffffffffffff1689600001600160068110613cde57613cdd617be9565b5b602002016020810190613cf19190617acb565b73ffffffffffffffffffffffffffffffffffffffff167fa7ceaad963b2a247ab204dde6159e46a64d6b5caaeba1c664297b8cf35ec16dd338c600001600260068110613d4057613d3f617be9565b5b602002016020810190613d539190617acb565b8d60c001600160048110613d6a57613d69617be9565b5b6020020135604051613d7e93929190617caa565b60405180910390a35050505060016000819055509193509193565b600080600060026000541415613de4576040517f08c379a0000000000000000000000000000000000000000000000000000000008152600401613ddb90617bc9565b60405180910390fd5b6002600081905550600073ffffffffffffffffffffffffffffffffffffffff1684600001600260068110613e1b57613e1a617be9565b5b602002016020810190613e2e9190617acb565b73ffffffffffffffffffffffffffffffffffffffff161415613e85576040517f08c379a0000000000000000000000000000000000000000000000000000000008152600401613e7c90617c8a565b60405180910390fd5b600084600001600160068110613e9e57613e9d617be9565b5b602002016020810190613eb19190617acb565b90508073ffffffffffffffffffffffffffffffffffffffff166323b872dd33308860c001600060048110613ee857613ee7617be9565b5b60200201356040518463ffffffff1660e01b8152600401613f0b93929190617caa565b6020604051808303816000875af1158015613f2a573d6000803e3d6000fd5b505050506040513d601f19601f82011682018060405250810190613f4e9190617d19565b613f8d576040517f08c379a0000000000000000000000000000000000000000000000000000000008152600401613f8490617db8565b60405180910390fd5b600085610160016020810190613fa39190617e97565b156142025785600001600160068110613fbf57613fbe617be9565b5b602002016020810190613fd29190617acb565b73ffffffffffffffffffffffffffffffffffffffff1663095ea7b3600460009054906101000a900473ffffffffffffffffffffffffffffffffffffffff168860c00160006004811061402757614026617be9565b5b60200201356040518363ffffffff1660e01b8152600401614049929190617ec4565b6020604051808303816000875af1158015614068573d6000803e3d6000fd5b505050506040513d601f19601f8201168201806040525081019061408c9190617d19565b50600460009054906101000a900473ffffffffffffffffffffffffffffffffffffffff1673ffffffffffffffffffffffffffffffffffffffff16637cbc8bfa878061014001906140dc9190617efc565b60008181106140ee576140ed617be9565b5b90506020020160208101906141039190617acb565b8860000160016006811061411a57614119617be9565b5b60200201602081019061412d9190617acb565b308a60000160006006811061414557614144617be9565b5b6020020160208101906141589190617acb565b8b61018001358c60c00160006004811061417557614174617be9565b5b60200201358d60c00160016004811061419157614190617be9565b5b60200201356040518863ffffffff1660e01b81526004016141b89796959493929190617f78565b6020604051808303816000875af11580156141d7573d6000803e3d6000fd5b505050506040513d601f19601f820116820180604052508101906141fb9190617fe7565b9050614451565b8560000160016006811061421957614218617be9565b5b60200201602081019061422c9190617acb565b73ffffffffffffffffffffffffffffffffffffffff1663095ea7b3600560009054906101000a900473ffffffffffffffffffffffffffffffffffffffff168860c00160006004811061428157614280617be9565b5b60200201356040518363ffffffff1660e01b81526004016142a3929190617ec4565b6020604051808303816000875af11580156142c2573d6000803e3d6000fd5b505050506040513d601f19601f820116820180604052508101906142e69190617d19565b50600560009054906101000a900473ffffffffffffffffffffffffffffffffffffffff1673ffffffffffffffffffffffffffffffffffffffff166332d505da878061014001906143369190617efc565b600081811061434857614347617be9565b5b905060200201602081019061435d9190617acb565b8860000160016006811061437457614373617be9565b5b6020020160208101906143879190617acb565b308a60000160006006811061439f5761439e617be9565b5b6020020160208101906143b29190617acb565b8b60c0016000600481106143c9576143c8617be9565b5b60200201358c60c0016001600481106143e5576143e4617be9565b5b60200201356040518763ffffffff1660e01b815260040161440b96959493929190618014565b6020604051808303816000875af115801561442a573d6000803e3d6000fd5b505050506040513d601f19601f8201168201806040525081019061444e9190617fe7565b90505b600360009054906101000a900473ffffffffffffffffffffffffffffffffffffffff1673ffffffffffffffffffffffffffffffffffffffff1663f8702fe1826040518060400160405280600581526020017f54524144450000000000000000000000000000000000000000000000000000008152508960c0016003600481106144dd576144dc617be9565b5b60200201356040518463ffffffff1660e01b815260040161450093929190617dd8565b6040805180830381865afa15801561451c573d6000803e3d6000fd5b505050506040513d601f19601f820116820180604052508101906145409190617e42565b809450819550505061456d61455e848661758690919063ffffffff16565b8261762290919063ffffffff16565b9450600073ffffffffffffffffffffffffffffffffffffffff168660000160026006811061459e5761459d617be9565b5b6020020160208101906145b19190617acb565b73ffffffffffffffffffffffffffffffffffffffff1614614780576146ad8360066000896000016002600681106145eb576145ea617be9565b5b6020020160208101906145fe9190617acb565b73ffffffffffffffffffffffffffffffffffffffff1673ffffffffffffffffffffffffffffffffffffffff16815260200190815260200160002060008960000160056006811061465157614650617be9565b5b6020020160208101906146649190617acb565b73ffffffffffffffffffffffffffffffffffffffff1673ffffffffffffffffffffffffffffffffffffffff1681526020019081526020016000205461758690919063ffffffff16565b60066000886000016002600681106146c8576146c7617be9565b5b6020020160208101906146db9190617acb565b73ffffffffffffffffffffffffffffffffffffffff1673ffffffffffffffffffffffffffffffffffffffff16815260200190815260200160002060008860000160056006811061472e5761472d617be9565b5b6020020160208101906147419190617acb565b73ffffffffffffffffffffffffffffffffffffffff1673ffffffffffffffffffffffffffffffffffffffff168152602001908152602001600020819055505b6001868061014001906147939190617efc565b90501115614987576000866000016004600681106147b4576147b3617be9565b5b6020020160208101906147c79190617acb565b9050868061014001906147da9190617efc565b60008181106147ec576147eb617be9565b5b90506020020160208101906148019190617acb565b73ffffffffffffffffffffffffffffffffffffffff1663095ea7b38860000160046006811061483357614832617be9565b5b6020020160208101906148469190617acb565b886040518363ffffffff1660e01b8152600401614864929190617ec4565b6020604051808303816000875af1158015614883573d6000803e3d6000fd5b505050506040513d601f19601f820116820180604052508101906148a79190617d19565b508073ffffffffffffffffffffffffffffffffffffffff1663472b43f3878960c0016002600481106148dc576148db617be9565b5b60200201358a8061014001906148f29190617efc565b8c60000160026006811061490957614908617be9565b5b60200201602081019061491c9190617acb565b6040518663ffffffff1660e01b815260040161493c9594939291906181f7565b6020604051808303816000875af115801561495b573d6000803e3d6000fd5b505050506040513d601f19601f8201168201806040525081019061497f9190617fe7565b955050614a13565b614a12866000016002600681106149a1576149a0617be9565b5b6020020160208101906149b49190617acb565b86888061014001906149c69190617efc565b60008181106149d8576149d7617be9565b5b90506020020160208101906149ed9190617acb565b73ffffffffffffffffffffffffffffffffffffffff1661759c9092919063ffffffff16565b5b85806101400190614a249190617efc565b6000818110614a3657614a35617be9565b5b9050602002016020810190614a4b9190617acb565b73ffffffffffffffffffffffffffffffffffffffff1686806101400190614a729190617efc565b600189806101400190614a859190617efc565b9050614a9191906181c3565b818110614aa157614aa0617be9565b5b9050602002016020810190614ab69190617acb565b73ffffffffffffffffffffffffffffffffffffffff1687600001600160068110614ae357614ae2617be9565b5b602002016020810190614af69190617acb565b73ffffffffffffffffffffffffffffffffffffffff167f0343363b6a70c01693e26f20a7a4448d0d5861a92f3112cc0038661190de3750338a600001600260068110614b4557614b44617be9565b5b602002016020810190614b589190617acb565b8b60c001600160048110614b6f57614b6e617be9565b5b6020020135604051614b8393929190617caa565b60405180910390a4505060016000819055509193909250565b6040518060400160405280600581526020017f545241444500000000000000000000000000000000000000000000000000000081525081565b600080600060026000541415614c20576040517f08c379a0000000000000000000000000000000000000000000000000000000008152600401614c1790617bc9565b60405180910390fd5b6002600081905550600073ffffffffffffffffffffffffffffffffffffffff1684600001600260068110614c5757614c56617be9565b5b602002016020810190614c6a9190617acb565b73ffffffffffffffffffffffffffffffffffffffff161415614cc1576040517f08c379a0000000000000000000000000000000000000000000000000000000008152600401614cb890617c8a565b60405180910390fd5b600084600001600160068110614cda57614cd9617be9565b5b602002016020810190614ced9190617acb565b90508073ffffffffffffffffffffffffffffffffffffffff166323b872dd33308860c001600060048110614d2457614d23617be9565b5b60200201356040518463ffffffff1660e01b8152600401614d4793929190617caa565b6020604051808303816000875af1158015614d66573d6000803e3d6000fd5b505050506040513d601f19601f82011682018060405250810190614d8a9190617d19565b614dc9576040517f08c379a0000000000000000000000000000000000000000000000000000000008152600401614dc090617db8565b60405180910390fd5b600360009054906101000a900473ffffffffffffffffffffffffffffffffffffffff1673ffffffffffffffffffffffffffffffffffffffff1663f8702fe18660c001600160048110614e1e57614e1d617be9565b5b60200201356040518060400160405280600581526020017f54524144450000000000000000000000000000000000000000000000000000008152508860c001600360048110614e7057614e6f617be9565b5b60200201356040518463ffffffff1660e01b8152600401614e9393929190617dd8565b6040805180830381865afa158015614eaf573d6000803e3d6000fd5b505050506040513d601f19601f82011682018060405250810190614ed39190617e42565b80935081945050506000614f1d614ef3848661758690919063ffffffff16565b8760c001600160048110614f0a57614f09617be9565b5b602002013561758690919063ffffffff16565b905085610160016020810190614f339190617e97565b156151775785600001600160068110614f4f57614f4e617be9565b5b602002016020810190614f629190617acb565b73ffffffffffffffffffffffffffffffffffffffff1663095ea7b3600460009054906101000a900473ffffffffffffffffffffffffffffffffffffffff168860c001600060048110614fb757614fb6617be9565b5b60200201356040518363ffffffff1660e01b8152600401614fd9929190617ec4565b6020604051808303816000875af1158015614ff8573d6000803e3d6000fd5b505050506040513d601f19601f8201168201806040525081019061501c9190617d19565b50600460009054906101000a900473ffffffffffffffffffffffffffffffffffffffff1673ffffffffffffffffffffffffffffffffffffffff16637cbc8bfa8780610140019061506c9190617efc565b600081811061507e5761507d617be9565b5b90506020020160208101906150939190617acb565b886000016001600681106150aa576150a9617be9565b5b6020020160208101906150bd9190617acb565b308a6000016000600681106150d5576150d4617be9565b5b6020020160208101906150e89190617acb565b8b61018001358c60c00160006004811061510557615104617be9565b5b6020020135886040518863ffffffff1660e01b815260040161512d9796959493929190617f78565b6020604051808303816000875af115801561514c573d6000803e3d6000fd5b505050506040513d601f19601f820116820180604052508101906151709190617fe7565b90506153aa565b8560000160016006811061518e5761518d617be9565b5b6020020160208101906151a19190617acb565b73ffffffffffffffffffffffffffffffffffffffff1663095ea7b3600560009054906101000a900473ffffffffffffffffffffffffffffffffffffffff168860c0016000600481106151f6576151f5617be9565b5b60200201356040518363ffffffff1660e01b8152600401615218929190617ec4565b6020604051808303816000875af1158015615237573d6000803e3d6000fd5b505050506040513d601f19601f8201168201806040525081019061525b9190617d19565b50600560009054906101000a900473ffffffffffffffffffffffffffffffffffffffff1673ffffffffffffffffffffffffffffffffffffffff166327ccc152878061014001906152ab9190617efc565b60008181106152bd576152bc617be9565b5b90506020020160208101906152d29190617acb565b886000016001600681106152e9576152e8617be9565b5b6020020160208101906152fc9190617acb565b308a60000160006006811061531457615313617be9565b5b6020020160208101906153279190617acb565b8b60c00160006004811061533e5761533d617be9565b5b6020020135876040518763ffffffff1660e01b815260040161536596959493929190618014565b60408051808303816000875af1158015615383573d6000803e3d6000fd5b505050506040513d601f19601f820116820180604052508101906153a79190617e42565b50505b600073ffffffffffffffffffffffffffffffffffffffff16866000016002600681106153d9576153d8617be9565b5b6020020160208101906153ec9190617acb565b73ffffffffffffffffffffffffffffffffffffffff16146155bb576154e883600660008960000160026006811061542657615425617be9565b5b6020020160208101906154399190617acb565b73ffffffffffffffffffffffffffffffffffffffff1673ffffffffffffffffffffffffffffffffffffffff16815260200190815260200160002060008960000160056006811061548c5761548b617be9565b5b60200201602081019061549f9190617acb565b73ffffffffffffffffffffffffffffffffffffffff1673ffffffffffffffffffffffffffffffffffffffff1681526020019081526020016000205461758690919063ffffffff16565b600660008860000160026006811061550357615502617be9565b5b6020020160208101906155169190617acb565b73ffffffffffffffffffffffffffffffffffffffff1673ffffffffffffffffffffffffffffffffffffffff16815260200190815260200160002060008860000160056006811061556957615568617be9565b5b60200201602081019061557c9190617acb565b73ffffffffffffffffffffffffffffffffffffffff1673ffffffffffffffffffffffffffffffffffffffff168152602001908152602001600020819055505b6000866000016004600681106155d4576155d3617be9565b5b6020020160208101906155e79190617acb565b9050868061014001906155fa9190617efc565b600081811061560c5761560b617be9565b5b90506020020160208101906156219190617acb565b73ffffffffffffffffffffffffffffffffffffffff1663095ea7b38860000160046006811061565357615652617be9565b5b6020020160208101906156669190617acb565b8960c00160016004811061567d5761567c617be9565b5b60200201356040518363ffffffff1660e01b815260040161569f929190617ec4565b6020604051808303816000875af11580156156be573d6000803e3d6000fd5b505050506040513d601f19601f820116820180604052508101906156e29190617d19565b508073ffffffffffffffffffffffffffffffffffffffff16633d6e17d48860c00160026004811061571657615715617be9565b5b60200201358960c00160016004811061573257615731617be9565b5b60200201358a8061014001906157489190617efc565b8c60000160026006811061575f5761575e617be9565b5b6020020160208101906157729190617acb565b8d60000160026006811061578957615788617be9565b5b60200201602081019061579c9190617acb565b6040518763ffffffff1660e01b81526004016157bd96959493929190618138565b60408051808303816000875af11580156157db573d6000803e3d6000fd5b505050506040513d601f19601f820116820180604052508101906157ff9190617e42565b5080965050868061014001906158159190617efc565b600081811061582757615826617be9565b5b905060200201602081019061583c9190617acb565b73ffffffffffffffffffffffffffffffffffffffff168760000160016006811061586957615868617be9565b5b60200201602081019061587c9190617acb565b73ffffffffffffffffffffffffffffffffffffffff167fce70b1a047faa7d87f629504d447306e251aba64cf8db9b8b724fca28076dfdc338a6000016002600681106158cb576158ca617be9565b5b6020020160208101906158de9190617acb565b8b60c0016001600481106158f5576158f4617be9565b5b602002013560405161590993929190617caa565b60405180910390a350505060016000819055509193909250565b600181565b6001670de0b6b3a7640000600261593f919061842c565b61594991906181c3565b81565b600080600060026000541415615997576040517f08c379a000000000000000000000000000000000000000000000000000000000815260040161598e90617bc9565b60405180910390fd5b6002600081905550600073ffffffffffffffffffffffffffffffffffffffff16846000016002600681106159ce576159cd617be9565b5b6020020160208101906159e19190617acb565b73ffffffffffffffffffffffffffffffffffffffff161415615a38576040517f08c379a0000000000000000000000000000000000000000000000000000000008152600401615a2f90617c8a565b60405180910390fd5b600084600001600460068110615a5157615a50617be9565b5b602002016020810190615a649190617acb565b9050600360009054906101000a900473ffffffffffffffffffffffffffffffffffffffff1673ffffffffffffffffffffffffffffffffffffffff1663f8702fe18660c001600160048110615abb57615aba617be9565b5b60200201356040518060400160405280600581526020017f54524144450000000000000000000000000000000000000000000000000000008152508860c001600360048110615b0d57615b0c617be9565b5b60200201356040518463ffffffff1660e01b8152600401615b3093929190617dd8565b6040805180830381865afa158015615b4c573d6000803e3d6000fd5b505050506040513d601f19601f82011682018060405250810190615b709190617e42565b809350819450505060008173ffffffffffffffffffffffffffffffffffffffff166312c6442f348860c001600160048110615bae57615bad617be9565b5b602002013589806101400190615bc49190617efc565b306040518663ffffffff1660e01b8152600401615be49493929190618486565b60206040518083038185885af1158015615c02573d6000803e3d6000fd5b50505050506040513d601f19601f82011682018060405250810190615c279190617fe7565b90506000615c50615c41858761758690919063ffffffff16565b8361762290919063ffffffff16565b9050600073ffffffffffffffffffffffffffffffffffffffff1687600001600260068110615c8157615c80617be9565b5b602002016020810190615c949190617acb565b73ffffffffffffffffffffffffffffffffffffffff1614615e6357615d9084600660008a600001600260068110615cce57615ccd617be9565b5b602002016020810190615ce19190617acb565b73ffffffffffffffffffffffffffffffffffffffff1673ffffffffffffffffffffffffffffffffffffffff16815260200190815260200160002060008a600001600560068110615d3457615d33617be9565b5b602002016020810190615d479190617acb565b73ffffffffffffffffffffffffffffffffffffffff1673ffffffffffffffffffffffffffffffffffffffff1681526020019081526020016000205461758690919063ffffffff16565b6006600089600001600260068110615dab57615daa617be9565b5b602002016020810190615dbe9190617acb565b73ffffffffffffffffffffffffffffffffffffffff1673ffffffffffffffffffffffffffffffffffffffff168152602001908152602001600020600089600001600560068110615e1157615e10617be9565b5b602002016020810190615e249190617acb565b73ffffffffffffffffffffffffffffffffffffffff1673ffffffffffffffffffffffffffffffffffffffff168152602001908152602001600020819055505b86610160016020810190615e779190617e97565b156161035786806101400190615e8d9190617efc565b600189806101400190615ea09190617efc565b9050615eac91906181c3565b818110615ebc57615ebb617be9565b5b9050602002016020810190615ed19190617acb565b73ffffffffffffffffffffffffffffffffffffffff1663095ea7b3600460009054906101000a900473ffffffffffffffffffffffffffffffffffffffff16836040518363ffffffff1660e01b8152600401615f2d929190617ec4565b6020604051808303816000875af1158015615f4c573d6000803e3d6000fd5b505050506040513d601f19601f82011682018060405250810190615f709190617d19565b50600460009054906101000a900473ffffffffffffffffffffffffffffffffffffffff1673ffffffffffffffffffffffffffffffffffffffff1663495d204088806101400190615fc09190617efc565b60018b806101400190615fd39190617efc565b9050615fdf91906181c3565b818110615fef57615fee617be9565b5b90506020020160208101906160049190617acb565b8960000160026006811061601b5761601a617be9565b5b60200201602081019061602e9190617acb565b8a60000160006006811061604557616044617be9565b5b6020020160208101906160589190617acb565b8b6101800135868d60c00160026004811061607657616075617be9565b5b60200201356040518763ffffffff1660e01b815260040161609c969594939291906182a5565b60408051808303816000875af11580156160ba573d6000803e3d6000fd5b505050506040513d601f19601f820116820180604052508101906160de9190617e42565b50508660c0016002600481106160f7576160f6617be9565b5b6020020135955061638d565b868061014001906161149190617efc565b6001898061014001906161279190617efc565b905061613391906181c3565b81811061614357616142617be9565b5b90506020020160208101906161589190617acb565b73ffffffffffffffffffffffffffffffffffffffff1663095ea7b3600560009054906101000a900473ffffffffffffffffffffffffffffffffffffffff16836040518363ffffffff1660e01b81526004016161b4929190617ec4565b6020604051808303816000875af11580156161d3573d6000803e3d6000fd5b505050506040513d601f19601f820116820180604052508101906161f79190617d19565b50600560009054906101000a900473ffffffffffffffffffffffffffffffffffffffff1673ffffffffffffffffffffffffffffffffffffffff166377657408888061014001906162479190617efc565b60018b80610140019061625a9190617efc565b905061626691906181c3565b81811061627657616275617be9565b5b905060200201602081019061628b9190617acb565b896000016001600681106162a2576162a1617be9565b5b6020020160208101906162b59190617acb565b8a6000016002600681106162cc576162cb617be9565b5b6020020160208101906162df9190617acb565b8b6000016000600681106162f6576162f5617be9565b5b6020020160208101906163099190617acb565b868d60c00160026004811061632157616320617be9565b5b60200201356040518763ffffffff1660e01b815260040161634796959493929190618014565b6020604051808303816000875af1158015616366573d6000803e3d6000fd5b505050506040513d601f19601f8201168201806040525081019061638a9190617fe7565b95505b8680610140019061639e9190617efc565b6001898061014001906163b19190617efc565b90506163bd91906181c3565b8181106163cd576163cc617be9565b5b90506020020160208101906163e29190617acb565b73ffffffffffffffffffffffffffffffffffffffff168760000160016006811061640f5761640e617be9565b5b6020020160208101906164229190617acb565b73ffffffffffffffffffffffffffffffffffffffff167fa7ceaad963b2a247ab204dde6159e46a64d6b5caaeba1c664297b8cf35ec16dd338a60000160026006811061647157616470617be9565b5b6020020160208101906164849190617acb565b8b60c00160016004811061649b5761649a617be9565b5b60200201356040516164af93929190617caa565b60405180910390a350505060016000819055509193909250565b670de0b6b3a764000081565b6040518060400160405280600781526020017f554e5354414b450000000000000000000000000000000000000000000000000081525081565b6006602052816000526040600020602052806000526040600020600091509150505481565b6000806000806002600054141561657f576040517f08c379a000000000000000000000000000000000000000000000000000000000815260040161657690617bc9565b60405180910390fd5b6002600081905550600073ffffffffffffffffffffffffffffffffffffffff16856000016002600681106165b6576165b5617be9565b5b6020020160208101906165c99190617acb565b73ffffffffffffffffffffffffffffffffffffffff161415616620576040517f08c379a000000000000000000000000000000000000000000000000000000000815260040161661790617c8a565b60405180910390fd5b6000858061014001906166339190617efc565b600081811061664557616644617be9565b5b905060200201602081019061665a9190617acb565b90508073ffffffffffffffffffffffffffffffffffffffff166323b872dd33308960c00160006004811061669157616690617be9565b5b60200201356040518463ffffffff1660e01b81526004016166b493929190617caa565b6020604051808303816000875af11580156166d3573d6000803e3d6000fd5b505050506040513d601f19601f820116820180604052508101906166f79190617d19565b616736576040517f08c379a000000000000000000000000000000000000000000000000000000000815260040161672d90617db8565b60405180910390fd5b600360009054906101000a900473ffffffffffffffffffffffffffffffffffffffff1673ffffffffffffffffffffffffffffffffffffffff1663f8702fe18760c00160016004811061678b5761678a617be9565b5b60200201356040518060400160405280600581526020017f54524144450000000000000000000000000000000000000000000000000000008152508960c0016003600481106167dd576167dc617be9565b5b60200201356040518463ffffffff1660e01b815260040161680093929190617dd8565b6040805180830381865afa15801561681c573d6000803e3d6000fd5b505050506040513d601f19601f820116820180604052508101906168409190617e42565b8093508194505050600061688a8361687c868a60c00160016004811061686957616868617be9565b5b602002013561758690919063ffffffff16565b61758690919063ffffffff16565b905060018780610140019061689f9190617efc565b90501115616a51578173ffffffffffffffffffffffffffffffffffffffff1663095ea7b3886000016004600681106168da576168d9617be9565b5b6020020160208101906168ed9190617acb565b8960c00160006004811061690457616903617be9565b5b60200201356040518363ffffffff1660e01b8152600401616926929190617ec4565b6020604051808303816000875af1158015616945573d6000803e3d6000fd5b505050506040513d601f19601f820116820180604052508101906169699190617d19565b5060008760000160046006811061698357616982617be9565b5b6020020160208101906169969190617acb565b90508073ffffffffffffffffffffffffffffffffffffffff16635ec9ef61838a60c0016000600481106169cc576169cb617be9565b5b60200201358b8061014001906169e29190617efc565b30336040518763ffffffff1660e01b8152600401616a0596959493929190618138565b60408051808303816000875af1158015616a23573d6000803e3d6000fd5b505050506040513d601f19601f82011682018060405250810190616a479190617e42565b8097508193505050505b6000616a78616a69858761758690919063ffffffff16565b8361762290919063ffffffff16565b9050600073ffffffffffffffffffffffffffffffffffffffff1688600001600260068110616aa957616aa8617be9565b5b602002016020810190616abc9190617acb565b73ffffffffffffffffffffffffffffffffffffffff1614616c8b57616bb884600660008b600001600260068110616af657616af5617be9565b5b602002016020810190616b099190617acb565b73ffffffffffffffffffffffffffffffffffffffff1673ffffffffffffffffffffffffffffffffffffffff16815260200190815260200160002060008b600001600560068110616b5c57616b5b617be9565b5b602002016020810190616b6f9190617acb565b73ffffffffffffffffffffffffffffffffffffffff1673ffffffffffffffffffffffffffffffffffffffff1681526020019081526020016000205461758690919063ffffffff16565b600660008a600001600260068110616bd357616bd2617be9565b5b602002016020810190616be69190617acb565b73ffffffffffffffffffffffffffffffffffffffff1673ffffffffffffffffffffffffffffffffffffffff16815260200190815260200160002060008a600001600560068110616c3957616c38617be9565b5b602002016020810190616c4c9190617acb565b73ffffffffffffffffffffffffffffffffffffffff1673ffffffffffffffffffffffffffffffffffffffff168152602001908152602001600020819055505b87610160016020810190616c9f9190617e97565b15616f115787806101400190616cb59190617efc565b60018a806101400190616cc89190617efc565b9050616cd491906181c3565b818110616ce457616ce3617be9565b5b9050602002016020810190616cf99190617acb565b73ffffffffffffffffffffffffffffffffffffffff1663095ea7b3600460009054906101000a900473ffffffffffffffffffffffffffffffffffffffff16836040518363ffffffff1660e01b8152600401616d55929190617ec4565b6020604051808303816000875af1158015616d74573d6000803e3d6000fd5b505050506040513d601f19601f82011682018060405250810190616d989190617d19565b50600460009054906101000a900473ffffffffffffffffffffffffffffffffffffffff1673ffffffffffffffffffffffffffffffffffffffff1663495d204089806101400190616de89190617efc565b60018c806101400190616dfb9190617efc565b9050616e0791906181c3565b818110616e1757616e16617be9565b5b9050602002016020810190616e2c9190617acb565b8a600001600260068110616e4357616e42617be9565b5b602002016020810190616e569190617acb565b8b600001600060068110616e6d57616e6c617be9565b5b602002016020810190616e809190617acb565b8c6101800135868e60c001600260048110616e9e57616e9d617be9565b5b60200201356040518763ffffffff1660e01b8152600401616ec4969594939291906182a5565b60408051808303816000875af1158015616ee2573d6000803e3d6000fd5b505050506040513d601f19601f82011682018060405250810190616f069190617e42565b90508097505061719e565b87806101400190616f229190617efc565b60018a806101400190616f359190617efc565b9050616f4191906181c3565b818110616f5157616f50617be9565b5b9050602002016020810190616f669190617acb565b73ffffffffffffffffffffffffffffffffffffffff1663095ea7b3600560009054906101000a900473ffffffffffffffffffffffffffffffffffffffff16836040518363ffffffff1660e01b8152600401616fc2929190617ec4565b6020604051808303816000875af1158015616fe1573d6000803e3d6000fd5b505050506040513d601f19601f820116820180604052508101906170059190617d19565b50600560009054906101000a900473ffffffffffffffffffffffffffffffffffffffff1673ffffffffffffffffffffffffffffffffffffffff16639614b9be898061014001906170559190617efc565b60018c8061014001906170689190617efc565b905061707491906181c3565b81811061708457617083617be9565b5b90506020020160208101906170999190617acb565b8a6000016001600681106170b0576170af617be9565b5b6020020160208101906170c39190617acb565b8b6000016002600681106170da576170d9617be9565b5b6020020160208101906170ed9190617acb565b8c60000160006006811061710457617103617be9565b5b6020020160208101906171179190617acb565b868e60c00160026004811061712f5761712e617be9565b5b60200201356040518763ffffffff1660e01b815260040161715596959493929190618014565b60408051808303816000875af1158015617173573d6000803e3d6000fd5b505050506040513d601f19601f820116820180604052508101906171979190617e42565b9050809750505b878061014001906171af9190617efc565b60008181106171c1576171c0617be9565b5b90506020020160208101906171d69190617acb565b73ffffffffffffffffffffffffffffffffffffffff16888061014001906171fd9190617efc565b60018b8061014001906172109190617efc565b905061721c91906181c3565b81811061722c5761722b617be9565b5b90506020020160208101906172419190617acb565b73ffffffffffffffffffffffffffffffffffffffff168960000160016006811061726e5761726d617be9565b5b6020020160208101906172819190617acb565b73ffffffffffffffffffffffffffffffffffffffff167f932d60095b1063cee12b6204f81843280ebc9693af98c86452b031edb66be23c338c6000016002600681106172d0576172cf617be9565b5b6020020160208101906172e39190617acb565b8d60c0016001600481106172fa576172f9617be9565b5b602002013560405161730e93929190617caa565b60405180910390a450505060016000819055509193509193565b600160009054906101000a900473ffffffffffffffffffffffffffffffffffffffff1681565b600060026000541415617396576040517f08c379a000000000000000000000000000000000000000000000000000000000815260040161738d90617bc9565b60405180910390fd5b60026000819055506000839050600660008473ffffffffffffffffffffffffffffffffffffffff1673ffffffffffffffffffffffffffffffffffffffff16815260200190815260200160002060008573ffffffffffffffffffffffffffffffffffffffff1673ffffffffffffffffffffffffffffffffffffffff16815260200190815260200160002054915060008211617465576040517f08c379a000000000000000000000000000000000000000000000000000000000815260040161745c90618512565b60405180910390fd5b6000600660008573ffffffffffffffffffffffffffffffffffffffff1673ffffffffffffffffffffffffffffffffffffffff16815260200190815260200160002060008673ffffffffffffffffffffffffffffffffffffffff1673ffffffffffffffffffffffffffffffffffffffff1681526020019081526020016000208190555061751283838373ffffffffffffffffffffffffffffffffffffffff1661759c9092919063ffffffff16565b8373ffffffffffffffffffffffffffffffffffffffff168373ffffffffffffffffffffffffffffffffffffffff167f4931b6b0ef1b80f8ca6e6b27159d606870fbf438438d14aa8f01abb25e79eb128460405161756f919061796d565b60405180910390a350600160008190555092915050565b600081836175949190618532565b905092915050565b61761d8363a9059cbb60e01b84846040516024016175bb929190617ec4565b604051602081830303815290604052907bffffffffffffffffffffffffffffffffffffffffffffffffffffffff19166020820180517bffffffffffffffffffffffffffffffffffffffffffffffffffffffff8381831617835250505050617638565b505050565b6000818361763091906181c3565b905092915050565b600061769a826040518060400160405280602081526020017f5361666545524332303a206c6f772d6c6576656c2063616c6c206661696c65648152508573ffffffffffffffffffffffffffffffffffffffff166176ff9092919063ffffffff16565b90506000815111156176fa57808060200190518101906176ba9190617d19565b6176f9576040517f08c379a00000000000000000000000000000000000000000000000000000000081526004016176f0906185fa565b60405180910390fd5b5b505050565b606061770e8484600085617717565b90509392505050565b60608247101561775c576040517f08c379a00000000000000000000000000000000000000000000000000000000081526004016177539061868c565b60405180910390fd5b6177658561782b565b6177a4576040517f08c379a000000000000000000000000000000000000000000000000000000000815260040161779b906186f8565b60405180910390fd5b6000808673ffffffffffffffffffffffffffffffffffffffff1685876040516177cd919061875f565b60006040518083038185875af1925050503d806000811461780a576040519150601f19603f3d011682016040523d82523d6000602084013e61780f565b606091505b509150915061781f82828661783e565b92505050949350505050565b600080823b905060008111915050919050565b6060831561784e5782905061789e565b6000835111156178615782518084602001fd5b816040517f08c379a00000000000000000000000000000000000000000000000000000000081526004016178959190617a21565b60405180910390fd5b9392505050565b600080fd5b600080fd5b600080fd5b60006101a082840312156178cb576178ca6178af565b5b81905092915050565b6000602082840312156178ea576178e96178a5565b5b600082013567ffffffffffffffff811115617908576179076178aa565b5b617914848285016178b4565b91505092915050565b6000819050919050565b6179308161791d565b82525050565b600060608201905061794b6000830186617927565b6179586020830185617927565b6179656040830184617927565b949350505050565b60006020820190506179826000830184617927565b92915050565b600081519050919050565b600082825260208201905092915050565b60005b838110156179c25780820151818401526020810190506179a7565b838111156179d1576000848401525b50505050565b6000601f19601f8301169050919050565b60006179f382617988565b6179fd8185617993565b9350617a0d8185602086016179a4565b617a16816179d7565b840191505092915050565b60006020820190508181036000830152617a3b81846179e8565b905092915050565b600073ffffffffffffffffffffffffffffffffffffffff82169050919050565b6000617a6e82617a43565b9050919050565b617a7e81617a63565b82525050565b6000602082019050617a996000830184617a75565b92915050565b617aa881617a63565b8114617ab357600080fd5b50565b600081359050617ac581617a9f565b92915050565b600060208284031215617ae157617ae06178a5565b5b6000617aef84828501617ab6565b91505092915050565b6000608082019050617b0d6000830187617927565b617b1a6020830186617927565b617b276040830185617927565b617b346060830184617927565b95945050505050565b60008060408385031215617b5457617b536178a5565b5b6000617b6285828601617ab6565b9250506020617b7385828601617ab6565b9150509250929050565b7f5265656e7472616e637947756172643a207265656e7472616e742063616c6c00600082015250565b6000617bb3601f83617993565b9150617bbe82617b7d565b602082019050919050565b60006020820190508181036000830152617be281617ba6565b9050919050565b7f4e487b7100000000000000000000000000000000000000000000000000000000600052603260045260246000fd5b7f5472616465526f757465723a2044657374696e6174696f6e206164647265737360008201527f206e6f742070726f766964656400000000000000000000000000000000000000602082015250565b6000617c74602d83617993565b9150617c7f82617c18565b604082019050919050565b60006020820190508181036000830152617ca381617c67565b9050919050565b6000606082019050617cbf6000830186617a75565b617ccc6020830185617a75565b617cd96040830184617927565b949350505050565b60008115159050919050565b617cf681617ce1565b8114617d0157600080fd5b50565b600081519050617d1381617ced565b92915050565b600060208284031215617d2f57617d2e6178a5565b5b6000617d3d84828501617d04565b91505092915050565b7f5472616465526f757465723a2053656c662d7472616e7366657220546f6b656e60008201527f496e204661696c65640000000000000000000000000000000000000000000000602082015250565b6000617da2602983617993565b9150617dad82617d46565b604082019050919050565b60006020820190508181036000830152617dd181617d95565b9050919050565b6000606082019050617ded6000830186617927565b8181036020830152617dff81856179e8565b9050617e0e6040830184617927565b949350505050565b617e1f8161791d565b8114617e2a57600080fd5b50565b600081519050617e3c81617e16565b92915050565b60008060408385031215617e5957617e586178a5565b5b6000617e6785828601617e2d565b9250506020617e7885828601617e2d565b9150509250929050565b600081359050617e9181617ced565b92915050565b600060208284031215617ead57617eac6178a5565b5b6000617ebb84828501617e82565b91505092915050565b6000604082019050617ed96000830185617a75565b617ee66020830184617927565b9392505050565b600080fd5b600080fd5b600080fd5b60008083356001602003843603038112617f1957617f18617eed565b5b80840192508235915067ffffffffffffffff821115617f3b57617f3a617ef2565b5b602083019250602082023603831315617f5757617f56617ef7565b5b509250929050565b6000819050919050565b617f7281617f5f565b82525050565b600060e082019050617f8d600083018a617a75565b617f9a6020830189617a75565b617fa76040830188617a75565b617fb46060830187617a75565b617fc16080830186617f69565b617fce60a0830185617927565b617fdb60c0830184617927565b98975050505050505050565b600060208284031215617ffd57617ffc6178a5565b5b600061800b84828501617e2d565b91505092915050565b600060c0820190506180296000830189617a75565b6180366020830188617a75565b6180436040830187617a75565b6180506060830186617a75565b61805d6080830185617927565b61806a60a0830184617927565b979650505050505050565b600082825260208201905092915050565b6000819050919050565b61809981617a63565b82525050565b60006180ab8383618090565b60208301905092915050565b60006180c66020840184617ab6565b905092915050565b6000602082019050919050565b60006180e78385618075565b93506180f282618086565b8060005b8581101561812b5761810882846180b7565b618112888261809f565b975061811d836180ce565b9250506001810190506180f6565b5085925050509392505050565b600060a08201905061814d6000830189617927565b61815a6020830188617927565b818103604083015261816d8186886180db565b905061817c6060830185617a75565b6181896080830184617a75565b979650505050505050565b7f4e487b7100000000000000000000000000000000000000000000000000000000600052601160045260246000fd5b60006181ce8261791d565b91506181d98361791d565b9250828210156181ec576181eb618194565b5b828203905092915050565b600060808201905061820c6000830188617927565b6182196020830187617927565b818103604083015261822c8185876180db565b905061823b6060830184617a75565b9695505050505050565b7f4e487b7100000000000000000000000000000000000000000000000000000000600052601260045260246000fd5b600061827f8261791d565b915061828a8361791d565b92508261829a57618299618245565b5b828204905092915050565b600060c0820190506182ba6000830189617a75565b6182c76020830188617a75565b6182d46040830187617a75565b6182e16060830186617f69565b6182ee6080830185617927565b6182fb60a0830184617927565b979650505050505050565b7f61646d696e206f6e6c7900000000000000000000000000000000000000000000600082015250565b600061833c600a83617993565b915061834782618306565b602082019050919050565b6000602082019050818103600083015261836b8161832f565b9050919050565b7f43616c6c6572206d757374206265207468652070656e64696e672061646d696e600082015250565b60006183a8602083617993565b91506183b382618372565b602082019050919050565b600060208201905081810360008301526183d78161839b565b9050919050565b60006080820190506183f36000830188617927565b81810360208301526184068186886180db565b90506184156040830185617a75565b6184226060830184617a75565b9695505050505050565b60006184378261791d565b91506184428361791d565b9250817fffffffffffffffffffffffffffffffffffffffffffffffffffffffffffffffff048311821515161561847b5761847a618194565b5b828202905092915050565b600060608201905061849b6000830187617927565b81810360208301526184ae8185876180db565b90506184bd6040830184617a75565b95945050505050565b7f5374616b65526f757465723a204e6f20746f6b656e7320746f20636c61696d00600082015250565b60006184fc601f83617993565b9150618507826184c6565b602082019050919050565b6000602082019050818103600083015261852b816184ef565b9050919050565b600061853d8261791d565b91506185488361791d565b9250827fffffffffffffffffffffffffffffffffffffffffffffffffffffffffffffffff0382111561857d5761857c618194565b5b828201905092915050565b7f5361666545524332303a204552433230206f7065726174696f6e20646964206e60008201527f6f74207375636365656400000000000000000000000000000000000000000000602082015250565b60006185e4602a83617993565b91506185ef82618588565b604082019050919050565b60006020820190508181036000830152618613816185d7565b9050919050565b7f416464726573733a20696e73756666696369656e742062616c616e636520666f60008201527f722063616c6c0000000000000000000000000000000000000000000000000000602082015250565b6000618676602683617993565b91506186818261861a565b604082019050919050565b600060208201905081810360008301526186a581618669565b9050919050565b7f416464726573733a2063616c6c20746f206e6f6e2d636f6e7472616374000000600082015250565b60006186e2601d83617993565b91506186ed826186ac565b602082019050919050565b60006020820190508181036000830152618711816186d5565b9050919050565b600081519050919050565b600081905092915050565b600061873982618718565b6187438185618723565b93506187538185602086016179a4565b80840191505092915050565b600061876b828461872e565b91508190509291505056fea264697066735822122092e7e9d1b6547287d86744f3bd53ead444fe836da4d81ac78b2bffd86532ab4d64736f6c634300080c0033",
  "linkReferences": {},
  "deployedLinkReferences": {}
}