{
  "_format": "hh-sol-artifact-1",
  "contractName": "TradeRouter",
  "sourceName": "contracts/defi/routers/TradeRouter.sol",
  "abi": [
    {
      "inputs": [
        {
          "internalType": "address",
          "name": "_poolRouter",
          "type": "address"
        },
        {
          "internalType": "address",
          "name": "_freRouter",
          "type": "address"
        }
      ],
      "stateMutability": "nonpayable",
      "type": "constructor"
    },
    {
      "anonymous": false,
      "inputs": [
        {
          "indexed": true,
          "internalType": "address",
          "name": "referrer",
          "type": "address"
        },
        {
          "indexed": true,
          "internalType": "address",
          "name": "token",
          "type": "address"
        },
        {
          "indexed": false,
          "internalType": "uint256",
          "name": "claimedAmout",
          "type": "uint256"
        }
      ],
      "name": "ReferralFeesClaimed",
      "type": "event"
    },
    {
      "anonymous": false,
      "inputs": [
        {
          "indexed": true,
          "internalType": "address",
          "name": "tokenIn",
          "type": "address"
        },
        {
          "indexed": true,
          "internalType": "address",
          "name": "baseToken",
          "type": "address"
        },
        {
          "indexed": false,
          "internalType": "address",
          "name": "from",
          "type": "address"
        },
        {
          "indexed": false,
          "internalType": "address",
          "name": "to",
          "type": "address"
        },
        {
          "indexed": false,
          "internalType": "uint256",
          "name": "amount",
          "type": "uint256"
        }
      ],
      "name": "TradedDataTokenToETH",
      "type": "event"
    },
    {
      "anonymous": false,
      "inputs": [
        {
          "indexed": true,
          "internalType": "address",
          "name": "tokenIn",
          "type": "address"
        },
        {
          "indexed": true,
          "internalType": "address",
          "name": "baseToken",
          "type": "address"
        },
        {
          "indexed": true,
          "internalType": "address",
          "name": "tokenOut",
          "type": "address"
        },
        {
          "indexed": false,
          "internalType": "address",
          "name": "from",
          "type": "address"
        },
        {
          "indexed": false,
          "internalType": "address",
          "name": "to",
          "type": "address"
        },
        {
          "indexed": false,
          "internalType": "uint256",
          "name": "amount",
          "type": "uint256"
        }
      ],
      "name": "TradedDataTokenToToken",
      "type": "event"
    },
    {
      "anonymous": false,
      "inputs": [
        {
          "indexed": true,
          "internalType": "address",
          "name": "tokenOut",
          "type": "address"
        },
        {
          "indexed": true,
          "internalType": "address",
          "name": "baseToken",
          "type": "address"
        },
        {
          "indexed": false,
          "internalType": "address",
          "name": "from",
          "type": "address"
        },
        {
          "indexed": false,
          "internalType": "address",
          "name": "to",
          "type": "address"
        },
        {
          "indexed": false,
          "internalType": "uint256",
          "name": "amount",
          "type": "uint256"
        }
      ],
      "name": "TradedETHToDataToken",
      "type": "event"
    },
    {
      "anonymous": false,
      "inputs": [
        {
          "indexed": true,
          "internalType": "address",
          "name": "tokenOut",
          "type": "address"
        },
        {
          "indexed": true,
          "internalType": "address",
          "name": "baseToken",
          "type": "address"
        },
        {
          "indexed": true,
          "internalType": "address",
          "name": "tokenIn",
          "type": "address"
        },
        {
          "indexed": false,
          "internalType": "address",
          "name": "from",
          "type": "address"
        },
        {
          "indexed": false,
          "internalType": "address",
          "name": "to",
          "type": "address"
        },
        {
          "indexed": false,
          "internalType": "uint256",
          "name": "amount",
          "type": "uint256"
        }
      ],
      "name": "TradedTokenToDataToken",
      "type": "event"
    },
    {
      "inputs": [],
      "name": "BONE",
      "outputs": [
        {
          "internalType": "uint256",
          "name": "",
          "type": "uint256"
        }
      ],
      "stateMutability": "view",
      "type": "function"
    },
    {
      "inputs": [],
      "name": "BPOW_PRECISION",
      "outputs": [
        {
          "internalType": "uint256",
          "name": "",
          "type": "uint256"
        }
      ],
      "stateMutability": "view",
      "type": "function"
    },
    {
      "inputs": [],
      "name": "MAX_BPOW_BASE",
      "outputs": [
        {
          "internalType": "uint256",
          "name": "",
          "type": "uint256"
        }
      ],
      "stateMutability": "view",
      "type": "function"
    },
    {
      "inputs": [],
      "name": "MAX_INT",
      "outputs": [
        {
          "internalType": "uint256",
          "name": "",
          "type": "uint256"
        }
      ],
      "stateMutability": "view",
      "type": "function"
    },
    {
      "inputs": [],
      "name": "MIN_BPOW_BASE",
      "outputs": [
        {
          "internalType": "uint256",
          "name": "",
          "type": "uint256"
        }
      ],
      "stateMutability": "view",
      "type": "function"
    },
    {
      "inputs": [],
      "name": "TRADE_FEE_TYPE",
      "outputs": [
        {
          "internalType": "string",
          "name": "",
          "type": "string"
        }
      ],
      "stateMutability": "view",
      "type": "function"
    },
    {
      "inputs": [],
      "name": "ZERO_FEES",
      "outputs": [
        {
          "internalType": "uint256",
          "name": "",
          "type": "uint256"
        }
      ],
      "stateMutability": "view",
      "type": "function"
    },
    {
      "inputs": [],
      "name": "acceptPendingAdmin",
      "outputs": [],
      "stateMutability": "nonpayable",
      "type": "function"
    },
    {
      "inputs": [],
      "name": "admin",
      "outputs": [
        {
          "internalType": "address",
          "name": "",
          "type": "address"
        }
      ],
      "stateMutability": "view",
      "type": "function"
    },
    {
      "inputs": [
        {
          "components": [
            {
              "internalType": "address[6]",
              "name": "meta",
              "type": "address[6]"
            },
            {
              "internalType": "uint256[4]",
              "name": "uints",
              "type": "uint256[4]"
            },
            {
              "internalType": "address[]",
              "name": "path",
              "type": "address[]"
            },
            {
              "internalType": "bool",
              "name": "isFRE",
              "type": "bool"
            },
            {
              "internalType": "bytes32",
              "name": "exchangeId",
              "type": "bytes32"
            }
          ],
          "internalType": "struct TradeRouter.TradeInfo",
          "name": "info",
          "type": "tuple"
        }
      ],
      "name": "calcDatatokenInGivenTokenOut",
      "outputs": [
        {
          "internalType": "uint256",
          "name": "dtAmountIn",
          "type": "uint256"
        },
        {
          "internalType": "uint256",
          "name": "baseAmountNeeded",
          "type": "uint256"
        },
        {
          "internalType": "uint256",
          "name": "dataxFee",
          "type": "uint256"
        },
        {
          "internalType": "uint256",
          "name": "refFee",
          "type": "uint256"
        }
      ],
      "stateMutability": "view",
      "type": "function"
    },
    {
      "inputs": [
        {
          "components": [
            {
              "internalType": "address[6]",
              "name": "meta",
              "type": "address[6]"
            },
            {
              "internalType": "uint256[4]",
              "name": "uints",
              "type": "uint256[4]"
            },
            {
              "internalType": "address[]",
              "name": "path",
              "type": "address[]"
            },
            {
              "internalType": "bool",
              "name": "isFRE",
              "type": "bool"
            },
            {
              "internalType": "bytes32",
              "name": "exchangeId",
              "type": "bytes32"
            }
          ],
          "internalType": "struct TradeRouter.TradeInfo",
          "name": "info",
          "type": "tuple"
        }
      ],
      "name": "calcDatatokenOutGivenTokenIn",
      "outputs": [
        {
          "internalType": "uint256",
          "name": "dtAmountOut",
          "type": "uint256"
        },
        {
          "internalType": "uint256",
          "name": "baseAmountNeeded",
          "type": "uint256"
        },
        {
          "internalType": "uint256",
          "name": "dataxFee",
          "type": "uint256"
        },
        {
          "internalType": "uint256",
          "name": "refFee",
          "type": "uint256"
        }
      ],
      "stateMutability": "view",
      "type": "function"
    },
    {
      "inputs": [
        {
          "internalType": "uint256",
          "name": "baseAmount",
          "type": "uint256"
        },
        {
          "internalType": "string",
          "name": "feeType",
          "type": "string"
        },
        {
          "internalType": "uint256",
          "name": "refFeeRate",
          "type": "uint256"
        }
      ],
      "name": "calcFees",
      "outputs": [
        {
          "internalType": "uint256",
          "name": "dataxFee",
          "type": "uint256"
        },
        {
          "internalType": "uint256",
          "name": "refFee",
          "type": "uint256"
        }
      ],
      "stateMutability": "view",
      "type": "function"
    },
    {
      "inputs": [
        {
          "components": [
            {
              "internalType": "address[6]",
              "name": "meta",
              "type": "address[6]"
            },
            {
              "internalType": "uint256[4]",
              "name": "uints",
              "type": "uint256[4]"
            },
            {
              "internalType": "address[]",
              "name": "path",
              "type": "address[]"
            },
            {
              "internalType": "bool",
              "name": "isFRE",
              "type": "bool"
            },
            {
              "internalType": "bytes32",
              "name": "exchangeId",
              "type": "bytes32"
            }
          ],
          "internalType": "struct TradeRouter.TradeInfo",
          "name": "info",
          "type": "tuple"
        }
      ],
      "name": "calcTokenInGivenDatatokenOut",
      "outputs": [
        {
          "internalType": "uint256",
          "name": "tokenAmountIn",
          "type": "uint256"
        },
        {
          "internalType": "uint256",
          "name": "baseAmountNeeded",
          "type": "uint256"
        },
        {
          "internalType": "uint256",
          "name": "dataxFee",
          "type": "uint256"
        },
        {
          "internalType": "uint256",
          "name": "refFee",
          "type": "uint256"
        }
      ],
      "stateMutability": "view",
      "type": "function"
    },
    {
      "inputs": [
        {
          "components": [
            {
              "internalType": "address[6]",
              "name": "meta",
              "type": "address[6]"
            },
            {
              "internalType": "uint256[4]",
              "name": "uints",
              "type": "uint256[4]"
            },
            {
              "internalType": "address[]",
              "name": "path",
              "type": "address[]"
            },
            {
              "internalType": "bool",
              "name": "isFRE",
              "type": "bool"
            },
            {
              "internalType": "bytes32",
              "name": "exchangeId",
              "type": "bytes32"
            }
          ],
          "internalType": "struct TradeRouter.TradeInfo",
          "name": "info",
          "type": "tuple"
        }
      ],
      "name": "calcTokenOutGivenDatatokenIn",
      "outputs": [
        {
          "internalType": "uint256",
          "name": "tokenAmountOut",
          "type": "uint256"
        },
        {
          "internalType": "uint256",
          "name": "baseAmountNeeded",
          "type": "uint256"
        },
        {
          "internalType": "uint256",
          "name": "dataxFee",
          "type": "uint256"
        },
        {
          "internalType": "uint256",
          "name": "refFee",
          "type": "uint256"
        }
      ],
      "stateMutability": "view",
      "type": "function"
    },
    {
      "inputs": [
        {
          "internalType": "address",
          "name": "token",
          "type": "address"
        },
        {
          "internalType": "address",
          "name": "referrer",
          "type": "address"
        }
      ],
      "name": "claimRefFees",
      "outputs": [
        {
          "internalType": "uint256",
          "name": "claimAmount",
          "type": "uint256"
        }
      ],
      "stateMutability": "nonpayable",
      "type": "function"
    },
    {
      "inputs": [
        {
          "internalType": "bytes32",
          "name": "",
          "type": "bytes32"
        }
      ],
      "name": "fees",
      "outputs": [
        {
          "internalType": "uint256",
          "name": "",
          "type": "uint256"
        }
      ],
      "stateMutability": "view",
      "type": "function"
    },
    {
      "inputs": [
        {
          "internalType": "string",
          "name": "key",
          "type": "string"
        }
      ],
      "name": "getFees",
      "outputs": [
        {
          "internalType": "uint256",
          "name": "",
          "type": "uint256"
        }
      ],
      "stateMutability": "view",
      "type": "function"
    },
    {
      "inputs": [],
      "name": "pendingAdmin",
      "outputs": [
        {
          "internalType": "address",
          "name": "",
          "type": "address"
        }
      ],
      "stateMutability": "view",
      "type": "function"
    },
    {
      "inputs": [
        {
          "internalType": "address",
          "name": "",
          "type": "address"
        },
        {
          "internalType": "address",
          "name": "",
          "type": "address"
        }
      ],
      "name": "referralFees",
      "outputs": [
        {
          "internalType": "uint256",
          "name": "",
          "type": "uint256"
        }
      ],
      "stateMutability": "view",
      "type": "function"
    },
    {
      "inputs": [
        {
          "internalType": "address",
          "name": "newAdmin",
          "type": "address"
        }
      ],
      "name": "setPendingAdmin",
      "outputs": [],
      "stateMutability": "nonpayable",
      "type": "function"
    },
    {
      "inputs": [
        {
          "components": [
            {
              "internalType": "address[6]",
              "name": "meta",
              "type": "address[6]"
            },
            {
              "internalType": "uint256[4]",
              "name": "uints",
              "type": "uint256[4]"
            },
            {
              "internalType": "address[]",
              "name": "path",
              "type": "address[]"
            },
            {
              "internalType": "bool",
              "name": "isFRE",
              "type": "bool"
            },
            {
              "internalType": "bytes32",
              "name": "exchangeId",
              "type": "bytes32"
            }
          ],
          "internalType": "struct TradeRouter.TradeInfo",
          "name": "info",
          "type": "tuple"
        }
      ],
      "name": "swapDatatokenToExactETH",
      "outputs": [
        {
          "internalType": "uint256",
          "name": "tokenAmountIn",
          "type": "uint256"
        },
        {
          "internalType": "uint256",
          "name": "dataxFee",
          "type": "uint256"
        },
        {
          "internalType": "uint256",
          "name": "refFee",
          "type": "uint256"
        }
      ],
      "stateMutability": "nonpayable",
      "type": "function"
    },
    {
      "inputs": [
        {
          "components": [
            {
              "internalType": "address[6]",
              "name": "meta",
              "type": "address[6]"
            },
            {
              "internalType": "uint256[4]",
              "name": "uints",
              "type": "uint256[4]"
            },
            {
              "internalType": "address[]",
              "name": "path",
              "type": "address[]"
            },
            {
              "internalType": "bool",
              "name": "isFRE",
              "type": "bool"
            },
            {
              "internalType": "bytes32",
              "name": "exchangeId",
              "type": "bytes32"
            }
          ],
          "internalType": "struct TradeRouter.TradeInfo",
          "name": "info",
          "type": "tuple"
        }
      ],
      "name": "swapDatatokenToExactToken",
      "outputs": [
        {
          "internalType": "uint256",
          "name": "tokenAmountIn",
          "type": "uint256"
        },
        {
          "internalType": "uint256",
          "name": "dataxFee",
          "type": "uint256"
        },
        {
          "internalType": "uint256",
          "name": "refFee",
          "type": "uint256"
        }
      ],
      "stateMutability": "nonpayable",
      "type": "function"
    },
    {
      "inputs": [
        {
          "components": [
            {
              "internalType": "address[6]",
              "name": "meta",
              "type": "address[6]"
            },
            {
              "internalType": "uint256[4]",
              "name": "uints",
              "type": "uint256[4]"
            },
            {
              "internalType": "address[]",
              "name": "path",
              "type": "address[]"
            },
            {
              "internalType": "bool",
              "name": "isFRE",
              "type": "bool"
            },
            {
              "internalType": "bytes32",
              "name": "exchangeId",
              "type": "bytes32"
            }
          ],
          "internalType": "struct TradeRouter.TradeInfo",
          "name": "info",
          "type": "tuple"
        }
      ],
      "name": "swapETHToExactDatatoken",
      "outputs": [
        {
          "internalType": "uint256",
          "name": "baseRefund",
          "type": "uint256"
        },
        {
          "internalType": "uint256",
          "name": "ethRefund",
          "type": "uint256"
        },
        {
          "internalType": "uint256",
          "name": "dataxFee",
          "type": "uint256"
        },
        {
          "internalType": "uint256",
          "name": "refFee",
          "type": "uint256"
        }
      ],
      "stateMutability": "payable",
      "type": "function"
    },
    {
      "inputs": [
        {
          "components": [
            {
              "internalType": "address[6]",
              "name": "meta",
              "type": "address[6]"
            },
            {
              "internalType": "uint256[4]",
              "name": "uints",
              "type": "uint256[4]"
            },
            {
              "internalType": "address[]",
              "name": "path",
              "type": "address[]"
            },
            {
              "internalType": "bool",
              "name": "isFRE",
              "type": "bool"
            },
            {
              "internalType": "bytes32",
              "name": "exchangeId",
              "type": "bytes32"
            }
          ],
          "internalType": "struct TradeRouter.TradeInfo",
          "name": "info",
          "type": "tuple"
        }
      ],
      "name": "swapExactDatatokenToETH",
      "outputs": [
        {
          "internalType": "uint256",
          "name": "ethAmountOut",
          "type": "uint256"
        },
        {
          "internalType": "uint256",
          "name": "dataxFee",
          "type": "uint256"
        },
        {
          "internalType": "uint256",
          "name": "refFee",
          "type": "uint256"
        }
      ],
      "stateMutability": "nonpayable",
      "type": "function"
    },
    {
      "inputs": [
        {
          "components": [
            {
              "internalType": "address[6]",
              "name": "meta",
              "type": "address[6]"
            },
            {
              "internalType": "uint256[4]",
              "name": "uints",
              "type": "uint256[4]"
            },
            {
              "internalType": "address[]",
              "name": "path",
              "type": "address[]"
            },
            {
              "internalType": "bool",
              "name": "isFRE",
              "type": "bool"
            },
            {
              "internalType": "bytes32",
              "name": "exchangeId",
              "type": "bytes32"
            }
          ],
          "internalType": "struct TradeRouter.TradeInfo",
          "name": "info",
          "type": "tuple"
        }
      ],
      "name": "swapExactDatatokenToToken",
      "outputs": [
        {
          "internalType": "uint256",
          "name": "tokenAmountOut",
          "type": "uint256"
        },
        {
          "internalType": "uint256",
          "name": "dataxFee",
          "type": "uint256"
        },
        {
          "internalType": "uint256",
          "name": "refFee",
          "type": "uint256"
        }
      ],
      "stateMutability": "nonpayable",
      "type": "function"
    },
    {
      "inputs": [
        {
          "components": [
            {
              "internalType": "address[6]",
              "name": "meta",
              "type": "address[6]"
            },
            {
              "internalType": "uint256[4]",
              "name": "uints",
              "type": "uint256[4]"
            },
            {
              "internalType": "address[]",
              "name": "path",
              "type": "address[]"
            },
            {
              "internalType": "bool",
              "name": "isFRE",
              "type": "bool"
            },
            {
              "internalType": "bytes32",
              "name": "exchangeId",
              "type": "bytes32"
            }
          ],
          "internalType": "struct TradeRouter.TradeInfo",
          "name": "info",
          "type": "tuple"
        }
      ],
      "name": "swapExactETHToDatatoken",
      "outputs": [
        {
          "internalType": "uint256",
          "name": "dtAmountOut",
          "type": "uint256"
        },
        {
          "internalType": "uint256",
          "name": "dataxFee",
          "type": "uint256"
        },
        {
          "internalType": "uint256",
          "name": "refFee",
          "type": "uint256"
        }
      ],
      "stateMutability": "payable",
      "type": "function"
    },
    {
      "inputs": [
        {
          "components": [
            {
              "internalType": "address[6]",
              "name": "meta",
              "type": "address[6]"
            },
            {
              "internalType": "uint256[4]",
              "name": "uints",
              "type": "uint256[4]"
            },
            {
              "internalType": "address[]",
              "name": "path",
              "type": "address[]"
            },
            {
              "internalType": "bool",
              "name": "isFRE",
              "type": "bool"
            },
            {
              "internalType": "bytes32",
              "name": "exchangeId",
              "type": "bytes32"
            }
          ],
          "internalType": "struct TradeRouter.TradeInfo",
          "name": "info",
          "type": "tuple"
        }
      ],
      "name": "swapExactTokenToDatatoken",
      "outputs": [
        {
          "internalType": "uint256",
          "name": "dtAmountOut",
          "type": "uint256"
        },
        {
          "internalType": "uint256",
          "name": "dataxFee",
          "type": "uint256"
        },
        {
          "internalType": "uint256",
          "name": "refFee",
          "type": "uint256"
        }
      ],
      "stateMutability": "nonpayable",
      "type": "function"
    },
    {
      "inputs": [
        {
          "components": [
            {
              "internalType": "address[6]",
              "name": "meta",
              "type": "address[6]"
            },
            {
              "internalType": "uint256[4]",
              "name": "uints",
              "type": "uint256[4]"
            },
            {
              "internalType": "address[]",
              "name": "path",
              "type": "address[]"
            },
            {
              "internalType": "bool",
              "name": "isFRE",
              "type": "bool"
            },
            {
              "internalType": "bytes32",
              "name": "exchangeId",
              "type": "bytes32"
            }
          ],
          "internalType": "struct TradeRouter.TradeInfo",
          "name": "info",
          "type": "tuple"
        }
      ],
      "name": "swapTokenToExactDatatoken",
      "outputs": [
        {
          "internalType": "uint256",
          "name": "baseRefund",
          "type": "uint256"
        },
        {
          "internalType": "uint256",
          "name": "tokenInRefund",
          "type": "uint256"
        },
        {
          "internalType": "uint256",
          "name": "dataxFee",
          "type": "uint256"
        },
        {
          "internalType": "uint256",
          "name": "refFee",
          "type": "uint256"
        }
      ],
      "stateMutability": "nonpayable",
      "type": "function"
    },
    {
      "inputs": [
        {
          "internalType": "string",
          "name": "key",
          "type": "string"
        },
        {
          "internalType": "uint256",
          "name": "value",
          "type": "uint256"
        }
      ],
      "name": "updateFees",
      "outputs": [],
      "stateMutability": "nonpayable",
      "type": "function"
    },
    {
      "inputs": [
        {
          "internalType": "uint256",
          "name": "amount",
          "type": "uint256"
        }
      ],
      "name": "withdrawETH",
      "outputs": [],
      "stateMutability": "nonpayable",
      "type": "function"
    },
    {
      "inputs": [
        {
          "internalType": "address",
          "name": "tokenAddress",
          "type": "address"
        },
        {
          "internalType": "uint256",
          "name": "amount",
          "type": "uint256"
        }
      ],
      "name": "withdrawToken",
      "outputs": [],
      "stateMutability": "nonpayable",
      "type": "function"
    },
    {
      "stateMutability": "payable",
      "type": "receive"
    }
  ],
  "bytecode": "0x60806040523480156200001157600080fd5b506040516200aa2f3803806200aa2f8339818101604052810190620000379190620001b5565b600160008190555033600160006101000a81548173ffffffffffffffffffffffffffffffffffffffff021916908373ffffffffffffffffffffffffffffffffffffffff16021790555033600160006101000a81548173ffffffffffffffffffffffffffffffffffffffff021916908373ffffffffffffffffffffffffffffffffffffffff16021790555081600560006101000a81548173ffffffffffffffffffffffffffffffffffffffff021916908373ffffffffffffffffffffffffffffffffffffffff16021790555080600660006101000a81548173ffffffffffffffffffffffffffffffffffffffff021916908373ffffffffffffffffffffffffffffffffffffffff1602179055505050620001fc565b600080fd5b600073ffffffffffffffffffffffffffffffffffffffff82169050919050565b60006200017d8262000150565b9050919050565b6200018f8162000170565b81146200019b57600080fd5b50565b600081519050620001af8162000184565b92915050565b60008060408385031215620001cf57620001ce6200014b565b5b6000620001df858286016200019e565b9250506020620001f2858286016200019e565b9150509250929050565b61a823806200020c6000396000f3fe6080604052600436106101dc5760003560e01c80639e281a9811610102578063e7c13c8211610095578063f3dd696011610064578063f3dd696014610769578063f851a44014610792578063f8702fe1146107bd578063f9e9f584146107fb576101e3565b8063e7c13c8214610683578063e8b2e0cf146106c3578063eb90b2bc14610703578063f14210a614610740576101e3565b8063c2661906116100d1578063c2661906146105ac578063c36596a6146105de578063cdb5661f14610609578063e279110b14610646576101e3565b80639e281a98146104ee578063b9576bd314610517578063ba019dab14610556578063bc694ea214610581576101e3565b80632b6e01db1161017a578063709920c111610149578063709920c11461043a57806373141c281461045157806384ffaa2d146104845780639cac5bc3146104c3576101e3565b80632b6e01db146103675780632ce9302a146103925780632d190678146103d15780634dd18bf514610411576101e3565b80631159c736116101b65780631159c73614610292578063152a347b146102d2578063189d00ca14610311578063267822471461033c576101e3565b80630729747f146101e8578063090522f114610228578063098d322814610267576101e3565b366101e357005b600080fd5b3480156101f457600080fd5b5061020f600480360381019061020a91906190c3565b610838565b60405161021f9493929190619125565b60405180910390f35b34801561023457600080fd5b5061024f600480360381019061024a91906190c3565b610c0a565b60405161025e9392919061916a565b60405180910390f35b34801561027357600080fd5b5061027c611b3d565b60405161028991906191a1565b60405180910390f35b34801561029e57600080fd5b506102b960048036038101906102b491906190c3565b611b61565b6040516102c99493929190619125565b60405180910390f35b3480156102de57600080fd5b506102f960048036038101906102f491906190c3565b611f39565b6040516103089392919061916a565b60405180910390f35b34801561031d57600080fd5b50610326612b94565b60405161033391906191a1565b60405180910390f35b34801561034857600080fd5b50610351612bb0565b60405161035e91906191fd565b60405180910390f35b34801561037357600080fd5b5061037c612bd6565b60405161038991906191a1565b60405180910390f35b34801561039e57600080fd5b506103b960048036038101906103b491906190c3565b612bdb565b6040516103c89392919061916a565b60405180910390f35b3480156103dd57600080fd5b506103f860048036038101906103f391906190c3565b61390c565b6040516104089493929190619125565b60405180910390f35b34801561041d57600080fd5b5061043860048036038101906104339190619244565b613cd8565b005b34801561044657600080fd5b5061044f613dac565b005b61046b600480360381019061046691906190c3565b613f3e565b60405161047b9493929190619125565b60405180910390f35b34801561049057600080fd5b506104ab60048036038101906104a691906190c3565b614b59565b6040516104ba9392919061916a565b60405180910390f35b3480156104cf57600080fd5b506104d861591c565b6040516104e5919061930a565b60405180910390f35b3480156104fa57600080fd5b5061051560048036038101906105109190619358565b615955565b005b34801561052357600080fd5b5061053e600480360381019061053991906190c3565b615aa6565b60405161054d9392919061916a565b60405180910390f35b34801561056257600080fd5b5061056b616853565b60405161057891906191a1565b60405180910390f35b34801561058d57600080fd5b50610596616858565b6040516105a391906191a1565b60405180910390f35b6105c660048036038101906105c191906190c3565b61687c565b6040516105d59392919061916a565b60405180910390f35b3480156105ea57600080fd5b506105f3617365565b60405161060091906191a1565b60405180910390f35b34801561061557600080fd5b50610630600480360381019061062b91906193ce565b617371565b60405161063d91906191a1565b60405180910390f35b34801561065257600080fd5b5061066d600480360381019061066891906193fb565b617389565b60405161067a91906191a1565b60405180910390f35b34801561068f57600080fd5b506106aa60048036038101906106a591906190c3565b6173ae565b6040516106ba9493929190619125565b60405180910390f35b3480156106cf57600080fd5b506106ea60048036038101906106e591906190c3565b61778c565b6040516106fa9493929190619125565b60405180910390f35b34801561070f57600080fd5b5061072a60048036038101906107259190619570565b6184ed565b60405161073791906191a1565b60405180910390f35b34801561074c57600080fd5b50610767600480360381019061076291906195b9565b618517565b005b34801561077557600080fd5b50610790600480360381019061078b91906195e6565b618679565b005b34801561079e57600080fd5b506107a7618733565b6040516107b491906191fd565b60405180910390f35b3480156107c957600080fd5b506107e460048036038101906107df9190619642565b618759565b6040516107f29291906196b1565b60405180910390f35b34801561080757600080fd5b50610822600480360381019061081d91906193fb565b618824565b60405161082f91906191a1565b60405180910390f35b6000806000808460c001600260048110610855576108546196da565b5b6020020135925060018580610140019061086f9190619718565b90501115610977576000856000016004600681106108905761088f6196da565b5b6020020160208101906108a39190619244565b905060008173ffffffffffffffffffffffffffffffffffffffff16631f00ca748860c0016002600481106108da576108d96196da565b5b6020020135898061014001906108f09190619718565b6040518463ffffffff1660e01b815260040161090e9392919061983e565b600060405180830381865afa15801561092b573d6000803e3d6000fd5b505050506040513d6000823e3d601f19601f82011682018060405250810190610954919061994d565b90508060008151811061096a576109696196da565b5b6020026020010151945050505b6109d2836040518060400160405280600581526020017f54524144450000000000000000000000000000000000000000000000000000008152508760c0016003600481106109c8576109c76196da565b5b6020020135618759565b80925081935050506000610a016109f28385618aee90919063ffffffff16565b85618aee90919063ffffffff16565b905085610160016020810190610a1791906199ce565b15610af157600660009054906101000a900473ffffffffffffffffffffffffffffffffffffffff1673ffffffffffffffffffffffffffffffffffffffff1663687676ab87600001600060068110610a7157610a706196da565b5b602002016020810190610a849190619244565b886101800135846040518463ffffffff1660e01b8152600401610aa993929190619a0a565b602060405180830381865afa158015610ac6573d6000803e3d6000fd5b505050506040513d601f19601f82011682018060405250810190610aea9190619a41565b9450610c02565b600086600001600060068110610b0a57610b096196da565b5b602002016020810190610b1d9190619244565b90508073ffffffffffffffffffffffffffffffffffffffff1663caa0114888600001600160068110610b5257610b516196da565b5b602002016020810190610b659190619244565b89600001600560068110610b7c57610b7b6196da565b5b602002016020810190610b8f9190619244565b8560006040518563ffffffff1660e01b8152600401610bb19493929190619a6e565b60a060405180830381865afa158015610bce573d6000803e3d6000fd5b505050506040513d601f19601f82011682018060405250810190610bf29190619ab3565b9091925090915090505080965050505b509193509193565b600080600060026000541415610c55576040517f08c379a0000000000000000000000000000000000000000000000000000000008152600401610c4c90619b7a565b60405180910390fd5b6002600081905550600073ffffffffffffffffffffffffffffffffffffffff1684600001600260068110610c8c57610c8b6196da565b5b602002016020810190610c9f9190619244565b73ffffffffffffffffffffffffffffffffffffffff161415610cf6576040517f08c379a0000000000000000000000000000000000000000000000000000000008152600401610ced90619c0c565b60405180910390fd5b600084600001600160068110610d0f57610d0e6196da565b5b602002016020810190610d229190619244565b90508073ffffffffffffffffffffffffffffffffffffffff166323b872dd33308860c001600060048110610d5957610d586196da565b5b60200201356040518463ffffffff1660e01b8152600401610d7c93929190619c2c565b6020604051808303816000875af1158015610d9b573d6000803e3d6000fd5b505050506040513d601f19601f82011682018060405250810190610dbf9190619c78565b610dfe576040517f08c379a0000000000000000000000000000000000000000000000000000000008152600401610df590619d17565b60405180910390fd5b610e748560c001600160048110610e1857610e176196da565b5b60200201356040518060400160405280600581526020017f54524144450000000000000000000000000000000000000000000000000000008152508760c001600360048110610e6a57610e696196da565b5b6020020135618759565b80935081945050506000610ebe610e948486618aee90919063ffffffff16565b8760c001600160048110610eab57610eaa6196da565b5b6020020135618aee90919063ffffffff16565b905085610160016020810190610ed491906199ce565b156111185785600001600160068110610ef057610eef6196da565b5b602002016020810190610f039190619244565b73ffffffffffffffffffffffffffffffffffffffff1663095ea7b3600660009054906101000a900473ffffffffffffffffffffffffffffffffffffffff168860c001600060048110610f5857610f576196da565b5b60200201356040518363ffffffff1660e01b8152600401610f7a929190619d37565b6020604051808303816000875af1158015610f99573d6000803e3d6000fd5b505050506040513d601f19601f82011682018060405250810190610fbd9190619c78565b50600660009054906101000a900473ffffffffffffffffffffffffffffffffffffffff1673ffffffffffffffffffffffffffffffffffffffff16637cbc8bfa8780610140019061100d9190619718565b600081811061101f5761101e6196da565b5b90506020020160208101906110349190619244565b8860000160016006811061104b5761104a6196da565b5b60200201602081019061105e9190619244565b308a600001600060068110611076576110756196da565b5b6020020160208101906110899190619244565b8b61018001358c60c0016000600481106110a6576110a56196da565b5b6020020135886040518863ffffffff1660e01b81526004016110ce9796959493929190619d60565b6020604051808303816000875af11580156110ed573d6000803e3d6000fd5b505050506040513d601f19601f820116820180604052508101906111119190619a41565b905061134e565b8560000160016006811061112f5761112e6196da565b5b6020020160208101906111429190619244565b73ffffffffffffffffffffffffffffffffffffffff1663095ea7b3600560009054906101000a900473ffffffffffffffffffffffffffffffffffffffff168860c001600060048110611197576111966196da565b5b60200201356040518363ffffffff1660e01b81526004016111b9929190619d37565b6020604051808303816000875af11580156111d8573d6000803e3d6000fd5b505050506040513d601f19601f820116820180604052508101906111fc9190619c78565b50600560009054906101000a900473ffffffffffffffffffffffffffffffffffffffff1673ffffffffffffffffffffffffffffffffffffffff166327ccc1528780610140019061124c9190619718565b600081811061125e5761125d6196da565b5b90506020020160208101906112739190619244565b8860000160016006811061128a576112896196da565b5b60200201602081019061129d9190619244565b308a6000016000600681106112b5576112b46196da565b5b6020020160208101906112c89190619244565b8b60c0016000600481106112df576112de6196da565b5b6020020135876040518763ffffffff1660e01b815260040161130696959493929190619dcf565b60408051808303816000875af1158015611324573d6000803e3d6000fd5b505050506040513d601f19601f820116820180604052508101906113489190619e30565b50809550505b6113a86040518060400160405280601881526020017f5452203a2062617365416d6f756e744e6565646564202d2000000000000000008152508760c00160016004811061139e5761139d6196da565b5b6020020135618b04565b6113e76040518060400160405280601c81526020017f5452203a2062617365416d6f756e744f757453616e73466565202d200000000081525082618b04565b6114416040518060400160405280601481526020017f5452203a2062617365416d6f756e74496e202d200000000000000000000000008152508760c001600160048110611437576114366196da565b5b6020020135618b04565b600073ffffffffffffffffffffffffffffffffffffffff16866000016002600681106114705761146f6196da565b5b6020020160208101906114839190619244565b73ffffffffffffffffffffffffffffffffffffffff16146116525761157f8360046000896000016002600681106114bd576114bc6196da565b5b6020020160208101906114d09190619244565b73ffffffffffffffffffffffffffffffffffffffff1673ffffffffffffffffffffffffffffffffffffffff168152602001908152602001600020600089600001600560068110611523576115226196da565b5b6020020160208101906115369190619244565b73ffffffffffffffffffffffffffffffffffffffff1673ffffffffffffffffffffffffffffffffffffffff16815260200190815260200160002054618aee90919063ffffffff16565b600460008860000160026006811061159a576115996196da565b5b6020020160208101906115ad9190619244565b73ffffffffffffffffffffffffffffffffffffffff1673ffffffffffffffffffffffffffffffffffffffff168152602001908152602001600020600088600001600560068110611600576115ff6196da565b5b6020020160208101906116139190619244565b73ffffffffffffffffffffffffffffffffffffffff1673ffffffffffffffffffffffffffffffffffffffff168152602001908152602001600020819055505b6001868061014001906116659190619718565b905011156118b957600086600001600460068110611686576116856196da565b5b6020020160208101906116999190619244565b9050868061014001906116ac9190619718565b60008181106116be576116bd6196da565b5b90506020020160208101906116d39190619244565b73ffffffffffffffffffffffffffffffffffffffff1663095ea7b388600001600460068110611705576117046196da565b5b6020020160208101906117189190619244565b8960c00160016004811061172f5761172e6196da565b5b60200201356040518363ffffffff1660e01b8152600401611751929190619d37565b6020604051808303816000875af1158015611770573d6000803e3d6000fd5b505050506040513d601f19601f820116820180604052508101906117949190619c78565b508073ffffffffffffffffffffffffffffffffffffffff16635ec9ef618860c0016002600481106117c8576117c76196da565b5b60200201358960c0016001600481106117e4576117e36196da565b5b60200201358a8061014001906117fa9190619718565b8c600001600260068110611811576118106196da565b5b6020020160208101906118249190619244565b8d60000160026006811061183b5761183a6196da565b5b60200201602081019061184e9190619244565b6040518763ffffffff1660e01b815260040161186f96959493929190619e70565b60408051808303816000875af115801561188d573d6000803e3d6000fd5b505050506040513d601f19601f820116820180604052508101906118b19190619e30565b5050506119b4565b858061014001906118ca9190619718565b60008181106118dc576118db6196da565b5b90506020020160208101906118f19190619244565b73ffffffffffffffffffffffffffffffffffffffff1663a9059cbb87600001600260068110611923576119226196da565b5b6020020160208101906119369190619244565b8860c00160016004811061194d5761194c6196da565b5b60200201356040518363ffffffff1660e01b815260040161196f929190619d37565b6020604051808303816000875af115801561198e573d6000803e3d6000fd5b505050506040513d601f19601f820116820180604052508101906119b29190619c78565b505b858061014001906119c59190619718565b60008181106119d7576119d66196da565b5b90506020020160208101906119ec9190619244565b73ffffffffffffffffffffffffffffffffffffffff1686806101400190611a139190619718565b600189806101400190611a269190619718565b9050611a329190619efb565b818110611a4257611a416196da565b5b9050602002016020810190611a579190619244565b73ffffffffffffffffffffffffffffffffffffffff1687600001600160068110611a8457611a836196da565b5b602002016020810190611a979190619244565b73ffffffffffffffffffffffffffffffffffffffff167f0343363b6a70c01693e26f20a7a4448d0d5861a92f3112cc0038661190de3750338a600001600260068110611ae657611ae56196da565b5b602002016020810190611af99190619244565b8b60c001600160048110611b1057611b0f6196da565b5b6020020135604051611b2493929190619c2c565b60405180910390a4505060016000819055509193909250565b7fffffffffffffffffffffffffffffffffffffffffffffffffffffffffffffffff81565b60008060008084610160016020810190611b7b91906199ce565b15611c7057600660009054906101000a900473ffffffffffffffffffffffffffffffffffffffff1673ffffffffffffffffffffffffffffffffffffffff166398f7e7e586600001600060068110611bd557611bd46196da565b5b602002016020810190611be89190619244565b8761018001358860c001600060048110611c0557611c046196da565b5b60200201356040518463ffffffff1660e01b8152600401611c2893929190619a0a565b602060405180830381865afa158015611c45573d6000803e3d6000fd5b505050506040513d601f19601f82011682018060405250810190611c699190619a41565b9250611d9c565b600085600001600060068110611c8957611c886196da565b5b602002016020810190611c9c9190619244565b90508073ffffffffffffffffffffffffffffffffffffffff16632eebd6ae87600001600160068110611cd157611cd06196da565b5b602002016020810190611ce49190619244565b88600001600560068110611cfb57611cfa6196da565b5b602002016020810190611d0e9190619244565b8960c001600060048110611d2557611d246196da565b5b602002013560006040518563ffffffff1660e01b8152600401611d4b9493929190619a6e565b60a060405180830381865afa158015611d68573d6000803e3d6000fd5b505050506040513d601f19601f82011682018060405250810190611d8c9190619ab3565b9091925090915090505080945050505b611df7836040518060400160405280600581526020017f54524144450000000000000000000000000000000000000000000000000000008152508760c001600360048110611ded57611dec6196da565b5b6020020135618759565b8092508193505050611e24611e158284618aee90919063ffffffff16565b84618ba090919063ffffffff16565b9350600185806101400190611e399190619718565b90501115611f3257600085600001600460068110611e5a57611e596196da565b5b602002016020810190611e6d9190619244565b905060008173ffffffffffffffffffffffffffffffffffffffff1663d06ca61f8789806101400190611e9f9190619718565b6040518463ffffffff1660e01b8152600401611ebd9392919061983e565b600060405180830381865afa158015611eda573d6000803e3d6000fd5b505050506040513d6000823e3d601f19601f82011682018060405250810190611f03919061994d565b90508060018251611f149190619efb565b81518110611f2557611f246196da565b5b6020026020010151955050505b9193509193565b600080600060026000541415611f84576040517f08c379a0000000000000000000000000000000000000000000000000000000008152600401611f7b90619b7a565b60405180910390fd5b6002600081905550600073ffffffffffffffffffffffffffffffffffffffff1684600001600260068110611fbb57611fba6196da565b5b602002016020810190611fce9190619244565b73ffffffffffffffffffffffffffffffffffffffff161415612025576040517f08c379a000000000000000000000000000000000000000000000000000000000815260040161201c90619c0c565b60405180910390fd5b60008460000160016006811061203e5761203d6196da565b5b6020020160208101906120519190619244565b90508073ffffffffffffffffffffffffffffffffffffffff166323b872dd33308860c001600060048110612088576120876196da565b5b60200201356040518463ffffffff1660e01b81526004016120ab93929190619c2c565b6020604051808303816000875af11580156120ca573d6000803e3d6000fd5b505050506040513d601f19601f820116820180604052508101906120ee9190619c78565b61212d576040517f08c379a000000000000000000000000000000000000000000000000000000000815260040161212490619d17565b60405180910390fd5b60008561016001602081019061214391906199ce565b156123a2578560000160016006811061215f5761215e6196da565b5b6020020160208101906121729190619244565b73ffffffffffffffffffffffffffffffffffffffff1663095ea7b3600660009054906101000a900473ffffffffffffffffffffffffffffffffffffffff168860c0016000600481106121c7576121c66196da565b5b60200201356040518363ffffffff1660e01b81526004016121e9929190619d37565b6020604051808303816000875af1158015612208573d6000803e3d6000fd5b505050506040513d601f19601f8201168201806040525081019061222c9190619c78565b50600660009054906101000a900473ffffffffffffffffffffffffffffffffffffffff1673ffffffffffffffffffffffffffffffffffffffff16637cbc8bfa8780610140019061227c9190619718565b600081811061228e5761228d6196da565b5b90506020020160208101906122a39190619244565b886000016001600681106122ba576122b96196da565b5b6020020160208101906122cd9190619244565b308a6000016000600681106122e5576122e46196da565b5b6020020160208101906122f89190619244565b8b61018001358c60c001600060048110612315576123146196da565b5b60200201358d60c001600160048110612331576123306196da565b5b60200201356040518863ffffffff1660e01b81526004016123589796959493929190619d60565b6020604051808303816000875af1158015612377573d6000803e3d6000fd5b505050506040513d601f19601f8201168201806040525081019061239b9190619a41565b90506125f1565b856000016001600681106123b9576123b86196da565b5b6020020160208101906123cc9190619244565b73ffffffffffffffffffffffffffffffffffffffff1663095ea7b3600560009054906101000a900473ffffffffffffffffffffffffffffffffffffffff168860c001600060048110612421576124206196da565b5b60200201356040518363ffffffff1660e01b8152600401612443929190619d37565b6020604051808303816000875af1158015612462573d6000803e3d6000fd5b505050506040513d601f19601f820116820180604052508101906124869190619c78565b50600560009054906101000a900473ffffffffffffffffffffffffffffffffffffffff1673ffffffffffffffffffffffffffffffffffffffff166332d505da878061014001906124d69190619718565b60008181106124e8576124e76196da565b5b90506020020160208101906124fd9190619244565b88600001600160068110612514576125136196da565b5b6020020160208101906125279190619244565b308a60000160006006811061253f5761253e6196da565b5b6020020160208101906125529190619244565b8b60c001600060048110612569576125686196da565b5b60200201358c60c001600160048110612585576125846196da565b5b60200201356040518763ffffffff1660e01b81526004016125ab96959493929190619dcf565b6020604051808303816000875af11580156125ca573d6000803e3d6000fd5b505050506040513d601f19601f820116820180604052508101906125ee9190619a41565b90505b61264c816040518060400160405280600581526020017f54524144450000000000000000000000000000000000000000000000000000008152508860c001600360048110612642576126416196da565b5b6020020135618759565b8094508195505050600061267b61266c8587618aee90919063ffffffff16565b83618ba090919063ffffffff16565b9050600073ffffffffffffffffffffffffffffffffffffffff16876000016002600681106126ac576126ab6196da565b5b6020020160208101906126bf9190619244565b73ffffffffffffffffffffffffffffffffffffffff161461288e576127bb84600460008a6000016002600681106126f9576126f86196da565b5b60200201602081019061270c9190619244565b73ffffffffffffffffffffffffffffffffffffffff1673ffffffffffffffffffffffffffffffffffffffff16815260200190815260200160002060008a60000160056006811061275f5761275e6196da565b5b6020020160208101906127729190619244565b73ffffffffffffffffffffffffffffffffffffffff1673ffffffffffffffffffffffffffffffffffffffff16815260200190815260200160002054618aee90919063ffffffff16565b60046000896000016002600681106127d6576127d56196da565b5b6020020160208101906127e99190619244565b73ffffffffffffffffffffffffffffffffffffffff1673ffffffffffffffffffffffffffffffffffffffff16815260200190815260200160002060008960000160056006811061283c5761283b6196da565b5b60200201602081019061284f9190619244565b73ffffffffffffffffffffffffffffffffffffffff1673ffffffffffffffffffffffffffffffffffffffff168152602001908152602001600020819055505b6000876000016004600681106128a7576128a66196da565b5b6020020160208101906128ba9190619244565b9050878061014001906128cd9190619718565b60008181106128df576128de6196da565b5b90506020020160208101906128f49190619244565b73ffffffffffffffffffffffffffffffffffffffff1663095ea7b389600001600460068110612926576129256196da565b5b6020020160208101906129399190619244565b846040518363ffffffff1660e01b8152600401612957929190619d37565b6020604051808303816000875af1158015612976573d6000803e3d6000fd5b505050506040513d601f19601f8201168201806040525081019061299a9190619c78565b508073ffffffffffffffffffffffffffffffffffffffff1663363db5c6838a60c0016002600481106129cf576129ce6196da565b5b60200201358b8061014001906129e59190619718565b8d6000016002600681106129fc576129fb6196da565b5b602002016020810190612a0f9190619244565b6040518663ffffffff1660e01b8152600401612a2f959493929190619f2f565b6020604051808303816000875af1158015612a4e573d6000803e3d6000fd5b505050506040513d601f19601f82011682018060405250810190612a729190619a41565b965087806101400190612a859190619718565b6000818110612a9757612a966196da565b5b9050602002016020810190612aac9190619244565b73ffffffffffffffffffffffffffffffffffffffff1688600001600160068110612ad957612ad86196da565b5b602002016020810190612aec9190619244565b73ffffffffffffffffffffffffffffffffffffffff167fce70b1a047faa7d87f629504d447306e251aba64cf8db9b8b724fca28076dfdc338b600001600260068110612b3b57612b3a6196da565b5b602002016020810190612b4e9190619244565b8c60c001600160048110612b6557612b646196da565b5b6020020135604051612b7993929190619c2c565b60405180910390a35050505060016000819055509193909250565b6402540be400670de0b6b3a7640000612bad9190619fac565b81565b600260009054906101000a900473ffffffffffffffffffffffffffffffffffffffff1681565b600081565b600080600060026000541415612c26576040517f08c379a0000000000000000000000000000000000000000000000000000000008152600401612c1d90619b7a565b60405180910390fd5b6002600081905550600073ffffffffffffffffffffffffffffffffffffffff1684600001600260068110612c5d57612c5c6196da565b5b602002016020810190612c709190619244565b73ffffffffffffffffffffffffffffffffffffffff161415612cc7576040517f08c379a0000000000000000000000000000000000000000000000000000000008152600401612cbe90619c0c565b60405180910390fd5b600084806101400190612cda9190619718565b6000818110612cec57612ceb6196da565b5b9050602002016020810190612d019190619244565b90508073ffffffffffffffffffffffffffffffffffffffff166323b872dd33308860c001600060048110612d3857612d376196da565b5b60200201356040518463ffffffff1660e01b8152600401612d5b93929190619c2c565b6020604051808303816000875af1158015612d7a573d6000803e3d6000fd5b505050506040513d601f19601f82011682018060405250810190612d9e9190619c78565b612ddd576040517f08c379a0000000000000000000000000000000000000000000000000000000008152600401612dd490619d17565b60405180910390fd5b60008560c001600160048110612df657612df56196da565b5b60200201359050612e58816040518060400160405280600581526020017f54524144450000000000000000000000000000000000000000000000000000008152508860c001600360048110612e4e57612e4d6196da565b5b6020020135618759565b8094508195505050600186806101400190612e739190619718565b9050111561301e578173ffffffffffffffffffffffffffffffffffffffff1663095ea7b387600001600460068110612eae57612ead6196da565b5b602002016020810190612ec19190619244565b8860c001600060048110612ed857612ed76196da565b5b60200201356040518363ffffffff1660e01b8152600401612efa929190619d37565b6020604051808303816000875af1158015612f19573d6000803e3d6000fd5b505050506040513d601f19601f82011682018060405250810190612f3d9190619c78565b50600086600001600460068110612f5757612f566196da565b5b602002016020810190612f6a9190619244565b90508073ffffffffffffffffffffffffffffffffffffffff1663472b43f38860c001600060048110612f9f57612f9e6196da565b5b6020020135848a806101400190612fb69190619718565b306040518663ffffffff1660e01b8152600401612fd7959493929190619f2f565b6020604051808303816000875af1158015612ff6573d6000803e3d6000fd5b505050506040513d601f19601f8201168201806040525081019061301a9190619a41565b9150505b60006130456130368587618aee90919063ffffffff16565b83618ba090919063ffffffff16565b9050600073ffffffffffffffffffffffffffffffffffffffff1687600001600260068110613076576130756196da565b5b6020020160208101906130899190619244565b73ffffffffffffffffffffffffffffffffffffffff16146132585761318584600460008a6000016002600681106130c3576130c26196da565b5b6020020160208101906130d69190619244565b73ffffffffffffffffffffffffffffffffffffffff1673ffffffffffffffffffffffffffffffffffffffff16815260200190815260200160002060008a600001600560068110613129576131286196da565b5b60200201602081019061313c9190619244565b73ffffffffffffffffffffffffffffffffffffffff1673ffffffffffffffffffffffffffffffffffffffff16815260200190815260200160002054618aee90919063ffffffff16565b60046000896000016002600681106131a05761319f6196da565b5b6020020160208101906131b39190619244565b73ffffffffffffffffffffffffffffffffffffffff1673ffffffffffffffffffffffffffffffffffffffff168152602001908152602001600020600089600001600560068110613206576132056196da565b5b6020020160208101906132199190619244565b73ffffffffffffffffffffffffffffffffffffffff1673ffffffffffffffffffffffffffffffffffffffff168152602001908152602001600020819055505b8661016001602081019061326c91906199ce565b156134f857868061014001906132829190619718565b6001898061014001906132959190619718565b90506132a19190619efb565b8181106132b1576132b06196da565b5b90506020020160208101906132c69190619244565b73ffffffffffffffffffffffffffffffffffffffff1663095ea7b3600660009054906101000a900473ffffffffffffffffffffffffffffffffffffffff16836040518363ffffffff1660e01b8152600401613322929190619d37565b6020604051808303816000875af1158015613341573d6000803e3d6000fd5b505050506040513d601f19601f820116820180604052508101906133659190619c78565b50600660009054906101000a900473ffffffffffffffffffffffffffffffffffffffff1673ffffffffffffffffffffffffffffffffffffffff1663495d2040888061014001906133b59190619718565b60018b8061014001906133c89190619718565b90506133d49190619efb565b8181106133e4576133e36196da565b5b90506020020160208101906133f99190619244565b896000016002600681106134105761340f6196da565b5b6020020160208101906134239190619244565b8a60000160006006811061343a576134396196da565b5b60200201602081019061344d9190619244565b8b6101800135868d60c00160026004811061346b5761346a6196da565b5b60200201356040518763ffffffff1660e01b815260040161349196959493929190619fdd565b60408051808303816000875af11580156134af573d6000803e3d6000fd5b505050506040513d601f19601f820116820180604052508101906134d39190619e30565b50508660c0016002600481106134ec576134eb6196da565b5b60200201359550613782565b868061014001906135099190619718565b60018980610140019061351c9190619718565b90506135289190619efb565b818110613538576135376196da565b5b905060200201602081019061354d9190619244565b73ffffffffffffffffffffffffffffffffffffffff1663095ea7b3600560009054906101000a900473ffffffffffffffffffffffffffffffffffffffff16836040518363ffffffff1660e01b81526004016135a9929190619d37565b6020604051808303816000875af11580156135c8573d6000803e3d6000fd5b505050506040513d601f19601f820116820180604052508101906135ec9190619c78565b50600560009054906101000a900473ffffffffffffffffffffffffffffffffffffffff1673ffffffffffffffffffffffffffffffffffffffff1663776574088880610140019061363c9190619718565b60018b80610140019061364f9190619718565b905061365b9190619efb565b81811061366b5761366a6196da565b5b90506020020160208101906136809190619244565b89600001600160068110613697576136966196da565b5b6020020160208101906136aa9190619244565b8a6000016002600681106136c1576136c06196da565b5b6020020160208101906136d49190619244565b8b6000016000600681106136eb576136ea6196da565b5b6020020160208101906136fe9190619244565b868d60c001600260048110613716576137156196da565b5b60200201356040518763ffffffff1660e01b815260040161373c96959493929190619dcf565b6020604051808303816000875af115801561375b573d6000803e3d6000fd5b505050506040513d601f19601f8201168201806040525081019061377f9190619a41565b95505b868061014001906137939190619718565b60008181106137a5576137a46196da565b5b90506020020160208101906137ba9190619244565b73ffffffffffffffffffffffffffffffffffffffff16878061014001906137e19190619718565b60018a8061014001906137f49190619718565b90506138009190619efb565b8181106138105761380f6196da565b5b90506020020160208101906138259190619244565b73ffffffffffffffffffffffffffffffffffffffff1688600001600160068110613852576138516196da565b5b6020020160208101906138659190619244565b73ffffffffffffffffffffffffffffffffffffffff167f932d60095b1063cee12b6204f81843280ebc9693af98c86452b031edb66be23c338b6000016002600681106138b4576138b36196da565b5b6020020160208101906138c79190619244565b8c60c0016001600481106138de576138dd6196da565b5b60200201356040516138f293929190619c2c565b60405180910390a450505060016000819055509193909250565b6000806000808461016001602081019061392691906199ce565b15613a1b57600660009054906101000a900473ffffffffffffffffffffffffffffffffffffffff1673ffffffffffffffffffffffffffffffffffffffff16631f05551c866000016000600681106139805761397f6196da565b5b6020020160208101906139939190619244565b8761018001358860c0016002600481106139b0576139af6196da565b5b60200201356040518463ffffffff1660e01b81526004016139d393929190619a0a565b602060405180830381865afa1580156139f0573d6000803e3d6000fd5b505050506040513d601f19601f82011682018060405250810190613a149190619a41565b9250613b47565b600085600001600060068110613a3457613a336196da565b5b602002016020810190613a479190619244565b90508073ffffffffffffffffffffffffffffffffffffffff1663caa0114887600001600560068110613a7c57613a7b6196da565b5b602002016020810190613a8f9190619244565b88600001600160068110613aa657613aa56196da565b5b602002016020810190613ab99190619244565b8960c001600260048110613ad057613acf6196da565b5b602002013560006040518563ffffffff1660e01b8152600401613af69493929190619a6e565b60a060405180830381865afa158015613b13573d6000803e3d6000fd5b505050506040513d601f19601f82011682018060405250810190613b379190619ab3565b9091925090915090505080945050505b613ba2836040518060400160405280600581526020017f54524144450000000000000000000000000000000000000000000000000000008152508760c001600360048110613b9857613b976196da565b5b6020020135618759565b8092508193505050613bcf613bc08284618aee90919063ffffffff16565b84618aee90919063ffffffff16565b9350600185806101400190613be49190619718565b90501115613cd157600085600001600460068110613c0557613c046196da565b5b602002016020810190613c189190619244565b905060008173ffffffffffffffffffffffffffffffffffffffff16631f00ca748789806101400190613c4a9190619718565b6040518463ffffffff1660e01b8152600401613c689392919061983e565b600060405180830381865afa158015613c85573d6000803e3d6000fd5b505050506040513d6000823e3d601f19601f82011682018060405250810190613cae919061994d565b905080600081518110613cc457613cc36196da565b5b6020026020010151955050505b9193509193565b600160009054906101000a900473ffffffffffffffffffffffffffffffffffffffff1673ffffffffffffffffffffffffffffffffffffffff163373ffffffffffffffffffffffffffffffffffffffff1614613d68576040517f08c379a0000000000000000000000000000000000000000000000000000000008152600401613d5f9061a08a565b60405180910390fd5b80600260006101000a81548173ffffffffffffffffffffffffffffffffffffffff021916908373ffffffffffffffffffffffffffffffffffffffff16021790555050565b600260009054906101000a900473ffffffffffffffffffffffffffffffffffffffff1673ffffffffffffffffffffffffffffffffffffffff163373ffffffffffffffffffffffffffffffffffffffff16148015613e585750600073ffffffffffffffffffffffffffffffffffffffff16600260009054906101000a900473ffffffffffffffffffffffffffffffffffffffff1673ffffffffffffffffffffffffffffffffffffffff1614155b613e97576040517f08c379a0000000000000000000000000000000000000000000000000000000008152600401613e8e9061a0f6565b60405180910390fd5b600260009054906101000a900473ffffffffffffffffffffffffffffffffffffffff16600160006101000a81548173ffffffffffffffffffffffffffffffffffffffff021916908373ffffffffffffffffffffffffffffffffffffffff1602179055506000600260006101000a81548173ffffffffffffffffffffffffffffffffffffffff021916908373ffffffffffffffffffffffffffffffffffffffff160217905550565b60008060008060026000541415613f8a576040517f08c379a0000000000000000000000000000000000000000000000000000000008152600401613f8190619b7a565b60405180910390fd5b6002600081905550600073ffffffffffffffffffffffffffffffffffffffff1685600001600260068110613fc157613fc06196da565b5b602002016020810190613fd49190619244565b73ffffffffffffffffffffffffffffffffffffffff16141561402b576040517f08c379a000000000000000000000000000000000000000000000000000000000815260040161402290619c0c565b60405180910390fd5b600085600001600460068110614044576140436196da565b5b6020020160208101906140579190619244565b905060006140d18760c001600160048110614075576140746196da565b5b60200201356040518060400160405280600581526020017f54524144450000000000000000000000000000000000000000000000000000008152508960c0016003600481106140c7576140c66196da565b5b6020020135618759565b80945081955050506141336040518060400160405280601581526020017f5452203a2062617365416d6f756e744f7574202d2000000000000000000000008152508860c001600160048110614129576141286196da565b5b6020020135618b04565b600061417584614167878b60c001600160048110614154576141536196da565b5b6020020135618aee90919063ffffffff16565b618aee90919063ffffffff16565b90506141b66040518060400160405280601881526020017f5452203a2062617365416d6f756e744e6565646564202d20000000000000000081525082618b04565b8273ffffffffffffffffffffffffffffffffffffffff1663be42cae034838b8061014001906141e59190619718565b30336040518763ffffffff1660e01b815260040161420795949392919061a116565b604080518083038185885af1158015614224573d6000803e3d6000fd5b50505050506040513d601f19601f820116820180604052508101906142499190619e30565b80975081935050506142906040518060400160405280601c81526020017f5452203a2062617365416d6f756e744f757453616e73466565202d200000000081525083618b04565b60006142b76142a88688618aee90919063ffffffff16565b84618ba090919063ffffffff16565b90506142f86040518060400160405280601481526020017f5452203a2062617365416d6f756e74496e202d2000000000000000000000000081525082618b04565b600073ffffffffffffffffffffffffffffffffffffffff1689600001600260068110614327576143266196da565b5b60200201602081019061433a9190619244565b73ffffffffffffffffffffffffffffffffffffffff16146145095761443685600460008c600001600260068110614374576143736196da565b5b6020020160208101906143879190619244565b73ffffffffffffffffffffffffffffffffffffffff1673ffffffffffffffffffffffffffffffffffffffff16815260200190815260200160002060008c6000016005600681106143da576143d96196da565b5b6020020160208101906143ed9190619244565b73ffffffffffffffffffffffffffffffffffffffff1673ffffffffffffffffffffffffffffffffffffffff16815260200190815260200160002054618aee90919063ffffffff16565b600460008b600001600260068110614451576144506196da565b5b6020020160208101906144649190619244565b73ffffffffffffffffffffffffffffffffffffffff1673ffffffffffffffffffffffffffffffffffffffff16815260200190815260200160002060008b6000016005600681106144b7576144b66196da565b5b6020020160208101906144ca9190619244565b73ffffffffffffffffffffffffffffffffffffffff1673ffffffffffffffffffffffffffffffffffffffff168152602001908152602001600020819055505b8861016001602081019061451d91906199ce565b1561478f57888061014001906145339190619718565b60018b8061014001906145469190619718565b90506145529190619efb565b818110614562576145616196da565b5b90506020020160208101906145779190619244565b73ffffffffffffffffffffffffffffffffffffffff1663095ea7b3600660009054906101000a900473ffffffffffffffffffffffffffffffffffffffff16836040518363ffffffff1660e01b81526004016145d3929190619d37565b6020604051808303816000875af11580156145f2573d6000803e3d6000fd5b505050506040513d601f19601f820116820180604052508101906146169190619c78565b50600660009054906101000a900473ffffffffffffffffffffffffffffffffffffffff1673ffffffffffffffffffffffffffffffffffffffff1663495d20408a8061014001906146669190619718565b60018d8061014001906146799190619718565b90506146859190619efb565b818110614695576146946196da565b5b90506020020160208101906146aa9190619244565b8b6000016002600681106146c1576146c06196da565b5b6020020160208101906146d49190619244565b8c6000016000600681106146eb576146ea6196da565b5b6020020160208101906146fe9190619244565b8d6101800135868f60c00160026004811061471c5761471b6196da565b5b60200201356040518763ffffffff1660e01b815260040161474296959493929190619fdd565b60408051808303816000875af1158015614760573d6000803e3d6000fd5b505050506040513d601f19601f820116820180604052508101906147849190619e30565b905080985050614a1c565b888061014001906147a09190619718565b60018b8061014001906147b39190619718565b90506147bf9190619efb565b8181106147cf576147ce6196da565b5b90506020020160208101906147e49190619244565b73ffffffffffffffffffffffffffffffffffffffff1663095ea7b3600560009054906101000a900473ffffffffffffffffffffffffffffffffffffffff16836040518363ffffffff1660e01b8152600401614840929190619d37565b6020604051808303816000875af115801561485f573d6000803e3d6000fd5b505050506040513d601f19601f820116820180604052508101906148839190619c78565b50600560009054906101000a900473ffffffffffffffffffffffffffffffffffffffff1673ffffffffffffffffffffffffffffffffffffffff16639614b9be8a8061014001906148d39190619718565b60018d8061014001906148e69190619718565b90506148f29190619efb565b818110614902576149016196da565b5b90506020020160208101906149179190619244565b8b60000160016006811061492e5761492d6196da565b5b6020020160208101906149419190619244565b8c600001600260068110614958576149576196da565b5b60200201602081019061496b9190619244565b8d600001600060068110614982576149816196da565b5b6020020160208101906149959190619244565b868f60c0016002600481106149ad576149ac6196da565b5b60200201356040518763ffffffff1660e01b81526004016149d396959493929190619dcf565b60408051808303816000875af11580156149f1573d6000803e3d6000fd5b505050506040513d601f19601f82011682018060405250810190614a159190619e30565b9050809850505b88806101400190614a2d9190619718565b60018b806101400190614a409190619718565b9050614a4c9190619efb565b818110614a5c57614a5b6196da565b5b9050602002016020810190614a719190619244565b73ffffffffffffffffffffffffffffffffffffffff1689600001600160068110614a9e57614a9d6196da565b5b602002016020810190614ab19190619244565b73ffffffffffffffffffffffffffffffffffffffff167fa7ceaad963b2a247ab204dde6159e46a64d6b5caaeba1c664297b8cf35ec16dd338c600001600260068110614b0057614aff6196da565b5b602002016020810190614b139190619244565b8d60c001600160048110614b2a57614b296196da565b5b6020020135604051614b3e93929190619c2c565b60405180910390a35050505060016000819055509193509193565b600080600060026000541415614ba4576040517f08c379a0000000000000000000000000000000000000000000000000000000008152600401614b9b90619b7a565b60405180910390fd5b6002600081905550600073ffffffffffffffffffffffffffffffffffffffff1684600001600260068110614bdb57614bda6196da565b5b602002016020810190614bee9190619244565b73ffffffffffffffffffffffffffffffffffffffff161415614c45576040517f08c379a0000000000000000000000000000000000000000000000000000000008152600401614c3c90619c0c565b60405180910390fd5b600084600001600160068110614c5e57614c5d6196da565b5b602002016020810190614c719190619244565b90508073ffffffffffffffffffffffffffffffffffffffff166323b872dd33308860c001600060048110614ca857614ca76196da565b5b60200201356040518463ffffffff1660e01b8152600401614ccb93929190619c2c565b6020604051808303816000875af1158015614cea573d6000803e3d6000fd5b505050506040513d601f19601f82011682018060405250810190614d0e9190619c78565b614d4d576040517f08c379a0000000000000000000000000000000000000000000000000000000008152600401614d4490619d17565b60405180910390fd5b600085610160016020810190614d6391906199ce565b15614fc25785600001600160068110614d7f57614d7e6196da565b5b602002016020810190614d929190619244565b73ffffffffffffffffffffffffffffffffffffffff1663095ea7b3600660009054906101000a900473ffffffffffffffffffffffffffffffffffffffff168860c001600060048110614de757614de66196da565b5b60200201356040518363ffffffff1660e01b8152600401614e09929190619d37565b6020604051808303816000875af1158015614e28573d6000803e3d6000fd5b505050506040513d601f19601f82011682018060405250810190614e4c9190619c78565b50600660009054906101000a900473ffffffffffffffffffffffffffffffffffffffff1673ffffffffffffffffffffffffffffffffffffffff16637cbc8bfa87806101400190614e9c9190619718565b6000818110614eae57614ead6196da565b5b9050602002016020810190614ec39190619244565b88600001600160068110614eda57614ed96196da565b5b602002016020810190614eed9190619244565b308a600001600060068110614f0557614f046196da565b5b602002016020810190614f189190619244565b8b61018001358c60c001600060048110614f3557614f346196da565b5b60200201358d60c001600160048110614f5157614f506196da565b5b60200201356040518863ffffffff1660e01b8152600401614f789796959493929190619d60565b6020604051808303816000875af1158015614f97573d6000803e3d6000fd5b505050506040513d601f19601f82011682018060405250810190614fbb9190619a41565b9050615211565b85600001600160068110614fd957614fd86196da565b5b602002016020810190614fec9190619244565b73ffffffffffffffffffffffffffffffffffffffff1663095ea7b3600560009054906101000a900473ffffffffffffffffffffffffffffffffffffffff168860c001600060048110615041576150406196da565b5b60200201356040518363ffffffff1660e01b8152600401615063929190619d37565b6020604051808303816000875af1158015615082573d6000803e3d6000fd5b505050506040513d601f19601f820116820180604052508101906150a69190619c78565b50600560009054906101000a900473ffffffffffffffffffffffffffffffffffffffff1673ffffffffffffffffffffffffffffffffffffffff166332d505da878061014001906150f69190619718565b6000818110615108576151076196da565b5b905060200201602081019061511d9190619244565b88600001600160068110615134576151336196da565b5b6020020160208101906151479190619244565b308a60000160006006811061515f5761515e6196da565b5b6020020160208101906151729190619244565b8b60c001600060048110615189576151886196da565b5b60200201358c60c0016001600481106151a5576151a46196da565b5b60200201356040518763ffffffff1660e01b81526004016151cb96959493929190619dcf565b6020604051808303816000875af11580156151ea573d6000803e3d6000fd5b505050506040513d601f19601f8201168201806040525081019061520e9190619a41565b90505b61526c816040518060400160405280600581526020017f54524144450000000000000000000000000000000000000000000000000000008152508860c001600360048110615262576152616196da565b5b6020020135618759565b809450819550505061529961528a8486618aee90919063ffffffff16565b82618ba090919063ffffffff16565b9450600073ffffffffffffffffffffffffffffffffffffffff16866000016002600681106152ca576152c96196da565b5b6020020160208101906152dd9190619244565b73ffffffffffffffffffffffffffffffffffffffff16146154ac576153d9836004600089600001600260068110615317576153166196da565b5b60200201602081019061532a9190619244565b73ffffffffffffffffffffffffffffffffffffffff1673ffffffffffffffffffffffffffffffffffffffff16815260200190815260200160002060008960000160056006811061537d5761537c6196da565b5b6020020160208101906153909190619244565b73ffffffffffffffffffffffffffffffffffffffff1673ffffffffffffffffffffffffffffffffffffffff16815260200190815260200160002054618aee90919063ffffffff16565b60046000886000016002600681106153f4576153f36196da565b5b6020020160208101906154079190619244565b73ffffffffffffffffffffffffffffffffffffffff1673ffffffffffffffffffffffffffffffffffffffff16815260200190815260200160002060008860000160056006811061545a576154596196da565b5b60200201602081019061546d9190619244565b73ffffffffffffffffffffffffffffffffffffffff1673ffffffffffffffffffffffffffffffffffffffff168152602001908152602001600020819055505b6001868061014001906154bf9190619718565b905011156156b3576000866000016004600681106154e0576154df6196da565b5b6020020160208101906154f39190619244565b9050868061014001906155069190619718565b6000818110615518576155176196da565b5b905060200201602081019061552d9190619244565b73ffffffffffffffffffffffffffffffffffffffff1663095ea7b38860000160046006811061555f5761555e6196da565b5b6020020160208101906155729190619244565b886040518363ffffffff1660e01b8152600401615590929190619d37565b6020604051808303816000875af11580156155af573d6000803e3d6000fd5b505050506040513d601f19601f820116820180604052508101906155d39190619c78565b508073ffffffffffffffffffffffffffffffffffffffff1663472b43f3878960c001600260048110615608576156076196da565b5b60200201358a80610140019061561e9190619718565b8c600001600260068110615635576156346196da565b5b6020020160208101906156489190619244565b6040518663ffffffff1660e01b8152600401615668959493929190619f2f565b6020604051808303816000875af1158015615687573d6000803e3d6000fd5b505050506040513d601f19601f820116820180604052508101906156ab9190619a41565b955050615793565b858061014001906156c49190619718565b60008181106156d6576156d56196da565b5b90506020020160208101906156eb9190619244565b73ffffffffffffffffffffffffffffffffffffffff1663a9059cbb8760000160026006811061571d5761571c6196da565b5b6020020160208101906157309190619244565b876040518363ffffffff1660e01b815260040161574e929190619d37565b6020604051808303816000875af115801561576d573d6000803e3d6000fd5b505050506040513d601f19601f820116820180604052508101906157919190619c78565b505b858061014001906157a49190619718565b60008181106157b6576157b56196da565b5b90506020020160208101906157cb9190619244565b73ffffffffffffffffffffffffffffffffffffffff16868061014001906157f29190619718565b6001898061014001906158059190619718565b90506158119190619efb565b818110615821576158206196da565b5b90506020020160208101906158369190619244565b73ffffffffffffffffffffffffffffffffffffffff1687600001600160068110615863576158626196da565b5b6020020160208101906158769190619244565b73ffffffffffffffffffffffffffffffffffffffff167f0343363b6a70c01693e26f20a7a4448d0d5861a92f3112cc0038661190de3750338a6000016002600681106158c5576158c46196da565b5b6020020160208101906158d89190619244565b8b60c0016001600481106158ef576158ee6196da565b5b602002013560405161590393929190619c2c565b60405180910390a4505060016000819055509193909250565b6040518060400160405280600581526020017f545241444500000000000000000000000000000000000000000000000000000081525081565b600160009054906101000a900473ffffffffffffffffffffffffffffffffffffffff1673ffffffffffffffffffffffffffffffffffffffff163373ffffffffffffffffffffffffffffffffffffffff16146159e5576040517f08c379a00000000000000000000000000000000000000000000000000000000081526004016159dc9061a08a565b60405180910390fd5b600073ffffffffffffffffffffffffffffffffffffffff168273ffffffffffffffffffffffffffffffffffffffff161415615a55576040517f08c379a0000000000000000000000000000000000000000000000000000000008152600401615a4c9061a1d6565b60405180910390fd5b615aa2600160009054906101000a900473ffffffffffffffffffffffffffffffffffffffff16828473ffffffffffffffffffffffffffffffffffffffff16618bb69092919063ffffffff16565b5050565b600080600060026000541415615af1576040517f08c379a0000000000000000000000000000000000000000000000000000000008152600401615ae890619b7a565b60405180910390fd5b6002600081905550600073ffffffffffffffffffffffffffffffffffffffff1684600001600260068110615b2857615b276196da565b5b602002016020810190615b3b9190619244565b73ffffffffffffffffffffffffffffffffffffffff161415615b92576040517f08c379a0000000000000000000000000000000000000000000000000000000008152600401615b8990619c0c565b60405180910390fd5b600084600001600160068110615bab57615baa6196da565b5b602002016020810190615bbe9190619244565b90508073ffffffffffffffffffffffffffffffffffffffff166323b872dd33308860c001600060048110615bf557615bf46196da565b5b60200201356040518463ffffffff1660e01b8152600401615c1893929190619c2c565b6020604051808303816000875af1158015615c37573d6000803e3d6000fd5b505050506040513d601f19601f82011682018060405250810190615c5b9190619c78565b615c9a576040517f08c379a0000000000000000000000000000000000000000000000000000000008152600401615c9190619d17565b60405180910390fd5b615d108560c001600160048110615cb457615cb36196da565b5b60200201356040518060400160405280600581526020017f54524144450000000000000000000000000000000000000000000000000000008152508760c001600360048110615d0657615d056196da565b5b6020020135618759565b80935081945050506000615d5a615d308486618aee90919063ffffffff16565b8760c001600160048110615d4757615d466196da565b5b6020020135618aee90919063ffffffff16565b905085610160016020810190615d7091906199ce565b15615fb45785600001600160068110615d8c57615d8b6196da565b5b602002016020810190615d9f9190619244565b73ffffffffffffffffffffffffffffffffffffffff1663095ea7b3600660009054906101000a900473ffffffffffffffffffffffffffffffffffffffff168860c001600060048110615df457615df36196da565b5b60200201356040518363ffffffff1660e01b8152600401615e16929190619d37565b6020604051808303816000875af1158015615e35573d6000803e3d6000fd5b505050506040513d601f19601f82011682018060405250810190615e599190619c78565b50600660009054906101000a900473ffffffffffffffffffffffffffffffffffffffff1673ffffffffffffffffffffffffffffffffffffffff16637cbc8bfa87806101400190615ea99190619718565b6000818110615ebb57615eba6196da565b5b9050602002016020810190615ed09190619244565b88600001600160068110615ee757615ee66196da565b5b602002016020810190615efa9190619244565b308a600001600060068110615f1257615f116196da565b5b602002016020810190615f259190619244565b8b61018001358c60c001600060048110615f4257615f416196da565b5b6020020135886040518863ffffffff1660e01b8152600401615f6a9796959493929190619d60565b6020604051808303816000875af1158015615f89573d6000803e3d6000fd5b505050506040513d601f19601f82011682018060405250810190615fad9190619a41565b90506161e7565b85600001600160068110615fcb57615fca6196da565b5b602002016020810190615fde9190619244565b73ffffffffffffffffffffffffffffffffffffffff1663095ea7b3600560009054906101000a900473ffffffffffffffffffffffffffffffffffffffff168860c001600060048110616033576160326196da565b5b60200201356040518363ffffffff1660e01b8152600401616055929190619d37565b6020604051808303816000875af1158015616074573d6000803e3d6000fd5b505050506040513d601f19601f820116820180604052508101906160989190619c78565b50600560009054906101000a900473ffffffffffffffffffffffffffffffffffffffff1673ffffffffffffffffffffffffffffffffffffffff166327ccc152878061014001906160e89190619718565b60008181106160fa576160f96196da565b5b905060200201602081019061610f9190619244565b88600001600160068110616126576161256196da565b5b6020020160208101906161399190619244565b308a600001600060068110616151576161506196da565b5b6020020160208101906161649190619244565b8b60c00160006004811061617b5761617a6196da565b5b6020020135876040518763ffffffff1660e01b81526004016161a296959493929190619dcf565b60408051808303816000875af11580156161c0573d6000803e3d6000fd5b505050506040513d601f19601f820116820180604052508101906161e49190619e30565b50505b6162416040518060400160405280601881526020017f5452203a2062617365416d6f756e744e6565646564202d2000000000000000008152508760c001600160048110616237576162366196da565b5b6020020135618b04565b6162806040518060400160405280601c81526020017f5452203a2062617365416d6f756e744f757453616e73466565202d200000000081525082618b04565b6162da6040518060400160405280601481526020017f5452203a2062617365416d6f756e74496e202d200000000000000000000000008152508760c0016001600481106162d0576162cf6196da565b5b6020020135618b04565b600073ffffffffffffffffffffffffffffffffffffffff1686600001600260068110616309576163086196da565b5b60200201602081019061631c9190619244565b73ffffffffffffffffffffffffffffffffffffffff16146164eb57616418836004600089600001600260068110616356576163556196da565b5b6020020160208101906163699190619244565b73ffffffffffffffffffffffffffffffffffffffff1673ffffffffffffffffffffffffffffffffffffffff1681526020019081526020016000206000896000016005600681106163bc576163bb6196da565b5b6020020160208101906163cf9190619244565b73ffffffffffffffffffffffffffffffffffffffff1673ffffffffffffffffffffffffffffffffffffffff16815260200190815260200160002054618aee90919063ffffffff16565b6004600088600001600260068110616433576164326196da565b5b6020020160208101906164469190619244565b73ffffffffffffffffffffffffffffffffffffffff1673ffffffffffffffffffffffffffffffffffffffff168152602001908152602001600020600088600001600560068110616499576164986196da565b5b6020020160208101906164ac9190619244565b73ffffffffffffffffffffffffffffffffffffffff1673ffffffffffffffffffffffffffffffffffffffff168152602001908152602001600020819055505b600086600001600460068110616504576165036196da565b5b6020020160208101906165179190619244565b90508680610140019061652a9190619718565b600081811061653c5761653b6196da565b5b90506020020160208101906165519190619244565b73ffffffffffffffffffffffffffffffffffffffff1663095ea7b388600001600460068110616583576165826196da565b5b6020020160208101906165969190619244565b8960c0016001600481106165ad576165ac6196da565b5b60200201356040518363ffffffff1660e01b81526004016165cf929190619d37565b6020604051808303816000875af11580156165ee573d6000803e3d6000fd5b505050506040513d601f19601f820116820180604052508101906166129190619c78565b508073ffffffffffffffffffffffffffffffffffffffff16633d6e17d48860c001600260048110616646576166456196da565b5b60200201358960c001600160048110616662576166616196da565b5b60200201358a8061014001906166789190619718565b8c60000160026006811061668f5761668e6196da565b5b6020020160208101906166a29190619244565b8d6000016002600681106166b9576166b86196da565b5b6020020160208101906166cc9190619244565b6040518763ffffffff1660e01b81526004016166ed96959493929190619e70565b60408051808303816000875af115801561670b573d6000803e3d6000fd5b505050506040513d601f19601f8201168201806040525081019061672f9190619e30565b5080965050868061014001906167459190619718565b6000818110616757576167566196da565b5b905060200201602081019061676c9190619244565b73ffffffffffffffffffffffffffffffffffffffff1687600001600160068110616799576167986196da565b5b6020020160208101906167ac9190619244565b73ffffffffffffffffffffffffffffffffffffffff167fce70b1a047faa7d87f629504d447306e251aba64cf8db9b8b724fca28076dfdc338a6000016002600681106167fb576167fa6196da565b5b60200201602081019061680e9190619244565b8b60c001600160048110616825576168246196da565b5b602002013560405161683993929190619c2c565b60405180910390a350505060016000819055509193909250565b600181565b6001670de0b6b3a7640000600261686f919061a1f6565b6168799190619efb565b81565b6000806000600260005414156168c7576040517f08c379a00000000000000000000000000000000000000000000000000000000081526004016168be90619b7a565b60405180910390fd5b6002600081905550600073ffffffffffffffffffffffffffffffffffffffff16846000016002600681106168fe576168fd6196da565b5b6020020160208101906169119190619244565b73ffffffffffffffffffffffffffffffffffffffff161415616968576040517f08c379a000000000000000000000000000000000000000000000000000000000815260040161695f90619c0c565b60405180910390fd5b600084600001600460068110616981576169806196da565b5b6020020160208101906169949190619244565b9050616a0c8560c0016001600481106169b0576169af6196da565b5b60200201356040518060400160405280600581526020017f54524144450000000000000000000000000000000000000000000000000000008152508760c001600360048110616a0257616a016196da565b5b6020020135618759565b809350819450505060008173ffffffffffffffffffffffffffffffffffffffff166312c6442f348860c001600160048110616a4a57616a496196da565b5b602002013589806101400190616a609190619718565b306040518663ffffffff1660e01b8152600401616a80949392919061a250565b60206040518083038185885af1158015616a9e573d6000803e3d6000fd5b50505050506040513d601f19601f82011682018060405250810190616ac39190619a41565b90506000616aec616add8587618aee90919063ffffffff16565b83618ba090919063ffffffff16565b9050600073ffffffffffffffffffffffffffffffffffffffff1687600001600260068110616b1d57616b1c6196da565b5b602002016020810190616b309190619244565b73ffffffffffffffffffffffffffffffffffffffff1614616cff57616c2c84600460008a600001600260068110616b6a57616b696196da565b5b602002016020810190616b7d9190619244565b73ffffffffffffffffffffffffffffffffffffffff1673ffffffffffffffffffffffffffffffffffffffff16815260200190815260200160002060008a600001600560068110616bd057616bcf6196da565b5b602002016020810190616be39190619244565b73ffffffffffffffffffffffffffffffffffffffff1673ffffffffffffffffffffffffffffffffffffffff16815260200190815260200160002054618aee90919063ffffffff16565b6004600089600001600260068110616c4757616c466196da565b5b602002016020810190616c5a9190619244565b73ffffffffffffffffffffffffffffffffffffffff1673ffffffffffffffffffffffffffffffffffffffff168152602001908152602001600020600089600001600560068110616cad57616cac6196da565b5b602002016020810190616cc09190619244565b73ffffffffffffffffffffffffffffffffffffffff1673ffffffffffffffffffffffffffffffffffffffff168152602001908152602001600020819055505b86610160016020810190616d1391906199ce565b15616f9f5786806101400190616d299190619718565b600189806101400190616d3c9190619718565b9050616d489190619efb565b818110616d5857616d576196da565b5b9050602002016020810190616d6d9190619244565b73ffffffffffffffffffffffffffffffffffffffff1663095ea7b3600660009054906101000a900473ffffffffffffffffffffffffffffffffffffffff16836040518363ffffffff1660e01b8152600401616dc9929190619d37565b6020604051808303816000875af1158015616de8573d6000803e3d6000fd5b505050506040513d601f19601f82011682018060405250810190616e0c9190619c78565b50600660009054906101000a900473ffffffffffffffffffffffffffffffffffffffff1673ffffffffffffffffffffffffffffffffffffffff1663495d204088806101400190616e5c9190619718565b60018b806101400190616e6f9190619718565b9050616e7b9190619efb565b818110616e8b57616e8a6196da565b5b9050602002016020810190616ea09190619244565b89600001600260068110616eb757616eb66196da565b5b602002016020810190616eca9190619244565b8a600001600060068110616ee157616ee06196da565b5b602002016020810190616ef49190619244565b8b6101800135868d60c001600260048110616f1257616f116196da565b5b60200201356040518763ffffffff1660e01b8152600401616f3896959493929190619fdd565b60408051808303816000875af1158015616f56573d6000803e3d6000fd5b505050506040513d601f19601f82011682018060405250810190616f7a9190619e30565b50508660c001600260048110616f9357616f926196da565b5b60200201359550617229565b86806101400190616fb09190619718565b600189806101400190616fc39190619718565b9050616fcf9190619efb565b818110616fdf57616fde6196da565b5b9050602002016020810190616ff49190619244565b73ffffffffffffffffffffffffffffffffffffffff1663095ea7b3600560009054906101000a900473ffffffffffffffffffffffffffffffffffffffff16836040518363ffffffff1660e01b8152600401617050929190619d37565b6020604051808303816000875af115801561706f573d6000803e3d6000fd5b505050506040513d601f19601f820116820180604052508101906170939190619c78565b50600560009054906101000a900473ffffffffffffffffffffffffffffffffffffffff1673ffffffffffffffffffffffffffffffffffffffff166377657408888061014001906170e39190619718565b60018b8061014001906170f69190619718565b90506171029190619efb565b818110617112576171116196da565b5b90506020020160208101906171279190619244565b8960000160016006811061713e5761713d6196da565b5b6020020160208101906171519190619244565b8a600001600260068110617168576171676196da565b5b60200201602081019061717b9190619244565b8b600001600060068110617192576171916196da565b5b6020020160208101906171a59190619244565b868d60c0016002600481106171bd576171bc6196da565b5b60200201356040518763ffffffff1660e01b81526004016171e396959493929190619dcf565b6020604051808303816000875af1158015617202573d6000803e3d6000fd5b505050506040513d601f19601f820116820180604052508101906172269190619a41565b95505b8680610140019061723a9190619718565b60018980610140019061724d9190619718565b90506172599190619efb565b818110617269576172686196da565b5b905060200201602081019061727e9190619244565b73ffffffffffffffffffffffffffffffffffffffff16876000016001600681106172ab576172aa6196da565b5b6020020160208101906172be9190619244565b73ffffffffffffffffffffffffffffffffffffffff167fa7ceaad963b2a247ab204dde6159e46a64d6b5caaeba1c664297b8cf35ec16dd338a60000160026006811061730d5761730c6196da565b5b6020020160208101906173209190619244565b8b60c001600160048110617337576173366196da565b5b602002013560405161734b93929190619c2c565b60405180910390a350505060016000819055509193909250565b670de0b6b3a764000081565b60036020528060005260406000206000915090505481565b6004602052816000526040600020602052806000526040600020600091509150505481565b6000806000808460c0016000600481106173cb576173ca6196da565b5b602002013592506001858061014001906173e59190619718565b905011156174f957600085600001600460068110617406576174056196da565b5b6020020160208101906174199190619244565b905060008173ffffffffffffffffffffffffffffffffffffffff1663d06ca61f8860c0016000600481106174505761744f6196da565b5b6020020135898061014001906174669190619718565b6040518463ffffffff1660e01b81526004016174849392919061983e565b600060405180830381865afa1580156174a1573d6000803e3d6000fd5b505050506040513d6000823e3d601f19601f820116820180604052508101906174ca919061994d565b905080600182516174db9190619efb565b815181106174ec576174eb6196da565b5b6020026020010151945050505b617554836040518060400160405280600581526020017f54524144450000000000000000000000000000000000000000000000000000008152508760c00160036004811061754a576175496196da565b5b6020020135618759565b809250819350505060006175836175748385618aee90919063ffffffff16565b85618ba090919063ffffffff16565b90508561016001602081019061759991906199ce565b1561767357600660009054906101000a900473ffffffffffffffffffffffffffffffffffffffff1673ffffffffffffffffffffffffffffffffffffffff1663c909e40a876000016000600681106175f3576175f26196da565b5b6020020160208101906176069190619244565b886101800135846040518463ffffffff1660e01b815260040161762b93929190619a0a565b602060405180830381865afa158015617648573d6000803e3d6000fd5b505050506040513d601f19601f8201168201806040525081019061766c9190619a41565b9450617784565b60008660000160006006811061768c5761768b6196da565b5b60200201602081019061769f9190619244565b90508073ffffffffffffffffffffffffffffffffffffffff16632eebd6ae886000016005600681106176d4576176d36196da565b5b6020020160208101906176e79190619244565b896000016001600681106176fe576176fd6196da565b5b6020020160208101906177119190619244565b8560006040518563ffffffff1660e01b81526004016177339493929190619a6e565b60a060405180830381865afa158015617750573d6000803e3d6000fd5b505050506040513d601f19601f820116820180604052508101906177749190619ab3565b9091925090915090505080965050505b509193509193565b600080600080600260005414156177d8576040517f08c379a00000000000000000000000000000000000000000000000000000000081526004016177cf90619b7a565b60405180910390fd5b6002600081905550600073ffffffffffffffffffffffffffffffffffffffff168560000160026006811061780f5761780e6196da565b5b6020020160208101906178229190619244565b73ffffffffffffffffffffffffffffffffffffffff161415617879576040517f08c379a000000000000000000000000000000000000000000000000000000000815260040161787090619c0c565b60405180910390fd5b60008580610140019061788c9190619718565b600081811061789e5761789d6196da565b5b90506020020160208101906178b39190619244565b90508073ffffffffffffffffffffffffffffffffffffffff166323b872dd33308960c0016000600481106178ea576178e96196da565b5b60200201356040518463ffffffff1660e01b815260040161790d93929190619c2c565b6020604051808303816000875af115801561792c573d6000803e3d6000fd5b505050506040513d601f19601f820116820180604052508101906179509190619c78565b61798f576040517f08c379a000000000000000000000000000000000000000000000000000000000815260040161798690619d17565b60405180910390fd5b617a058660c0016001600481106179a9576179a86196da565b5b60200201356040518060400160405280600581526020017f54524144450000000000000000000000000000000000000000000000000000008152508860c0016003600481106179fb576179fa6196da565b5b6020020135618759565b80935081945050506000617a4f83617a41868a60c001600160048110617a2e57617a2d6196da565b5b6020020135618aee90919063ffffffff16565b618aee90919063ffffffff16565b9050600187806101400190617a649190619718565b90501115617c16578173ffffffffffffffffffffffffffffffffffffffff1663095ea7b388600001600460068110617a9f57617a9e6196da565b5b602002016020810190617ab29190619244565b8960c001600060048110617ac957617ac86196da565b5b60200201356040518363ffffffff1660e01b8152600401617aeb929190619d37565b6020604051808303816000875af1158015617b0a573d6000803e3d6000fd5b505050506040513d601f19601f82011682018060405250810190617b2e9190619c78565b50600087600001600460068110617b4857617b476196da565b5b602002016020810190617b5b9190619244565b90508073ffffffffffffffffffffffffffffffffffffffff16635ec9ef61838a60c001600060048110617b9157617b906196da565b5b60200201358b806101400190617ba79190619718565b30336040518763ffffffff1660e01b8152600401617bca96959493929190619e70565b60408051808303816000875af1158015617be8573d6000803e3d6000fd5b505050506040513d601f19601f82011682018060405250810190617c0c9190619e30565b8097508193505050505b6000617c3d617c2e8587618aee90919063ffffffff16565b83618ba090919063ffffffff16565b9050600073ffffffffffffffffffffffffffffffffffffffff1688600001600260068110617c6e57617c6d6196da565b5b602002016020810190617c819190619244565b73ffffffffffffffffffffffffffffffffffffffff1614617e5057617d7d84600460008b600001600260068110617cbb57617cba6196da565b5b602002016020810190617cce9190619244565b73ffffffffffffffffffffffffffffffffffffffff1673ffffffffffffffffffffffffffffffffffffffff16815260200190815260200160002060008b600001600560068110617d2157617d206196da565b5b602002016020810190617d349190619244565b73ffffffffffffffffffffffffffffffffffffffff1673ffffffffffffffffffffffffffffffffffffffff16815260200190815260200160002054618aee90919063ffffffff16565b600460008a600001600260068110617d9857617d976196da565b5b602002016020810190617dab9190619244565b73ffffffffffffffffffffffffffffffffffffffff1673ffffffffffffffffffffffffffffffffffffffff16815260200190815260200160002060008a600001600560068110617dfe57617dfd6196da565b5b602002016020810190617e119190619244565b73ffffffffffffffffffffffffffffffffffffffff1673ffffffffffffffffffffffffffffffffffffffff168152602001908152602001600020819055505b87610160016020810190617e6491906199ce565b156180d65787806101400190617e7a9190619718565b60018a806101400190617e8d9190619718565b9050617e999190619efb565b818110617ea957617ea86196da565b5b9050602002016020810190617ebe9190619244565b73ffffffffffffffffffffffffffffffffffffffff1663095ea7b3600660009054906101000a900473ffffffffffffffffffffffffffffffffffffffff16836040518363ffffffff1660e01b8152600401617f1a929190619d37565b6020604051808303816000875af1158015617f39573d6000803e3d6000fd5b505050506040513d601f19601f82011682018060405250810190617f5d9190619c78565b50600660009054906101000a900473ffffffffffffffffffffffffffffffffffffffff1673ffffffffffffffffffffffffffffffffffffffff1663495d204089806101400190617fad9190619718565b60018c806101400190617fc09190619718565b9050617fcc9190619efb565b818110617fdc57617fdb6196da565b5b9050602002016020810190617ff19190619244565b8a600001600260068110618008576180076196da565b5b60200201602081019061801b9190619244565b8b600001600060068110618032576180316196da565b5b6020020160208101906180459190619244565b8c6101800135868e60c001600260048110618063576180626196da565b5b60200201356040518763ffffffff1660e01b815260040161808996959493929190619fdd565b60408051808303816000875af11580156180a7573d6000803e3d6000fd5b505050506040513d601f19601f820116820180604052508101906180cb9190619e30565b905080975050618363565b878061014001906180e79190619718565b60018a8061014001906180fa9190619718565b90506181069190619efb565b818110618116576181156196da565b5b905060200201602081019061812b9190619244565b73ffffffffffffffffffffffffffffffffffffffff1663095ea7b3600560009054906101000a900473ffffffffffffffffffffffffffffffffffffffff16836040518363ffffffff1660e01b8152600401618187929190619d37565b6020604051808303816000875af11580156181a6573d6000803e3d6000fd5b505050506040513d601f19601f820116820180604052508101906181ca9190619c78565b50600560009054906101000a900473ffffffffffffffffffffffffffffffffffffffff1673ffffffffffffffffffffffffffffffffffffffff16639614b9be8980610140019061821a9190619718565b60018c80610140019061822d9190619718565b90506182399190619efb565b818110618249576182486196da565b5b905060200201602081019061825e9190619244565b8a600001600160068110618275576182746196da565b5b6020020160208101906182889190619244565b8b60000160026006811061829f5761829e6196da565b5b6020020160208101906182b29190619244565b8c6000016000600681106182c9576182c86196da565b5b6020020160208101906182dc9190619244565b868e60c0016002600481106182f4576182f36196da565b5b60200201356040518763ffffffff1660e01b815260040161831a96959493929190619dcf565b60408051808303816000875af1158015618338573d6000803e3d6000fd5b505050506040513d601f19601f8201168201806040525081019061835c9190619e30565b9050809750505b878061014001906183749190619718565b6000818110618386576183856196da565b5b905060200201602081019061839b9190619244565b73ffffffffffffffffffffffffffffffffffffffff16888061014001906183c29190619718565b60018b8061014001906183d59190619718565b90506183e19190619efb565b8181106183f1576183f06196da565b5b90506020020160208101906184069190619244565b73ffffffffffffffffffffffffffffffffffffffff1689600001600160068110618433576184326196da565b5b6020020160208101906184469190619244565b73ffffffffffffffffffffffffffffffffffffffff167f932d60095b1063cee12b6204f81843280ebc9693af98c86452b031edb66be23c338c600001600260068110618495576184946196da565b5b6020020160208101906184a89190619244565b8d60c0016001600481106184bf576184be6196da565b5b60200201356040516184d393929190619c2c565b60405180910390a450505060016000819055509193509193565b6000806184f983618c3c565b90506003600082815260200190815260200160002054915050919050565b600160009054906101000a900473ffffffffffffffffffffffffffffffffffffffff1673ffffffffffffffffffffffffffffffffffffffff163373ffffffffffffffffffffffffffffffffffffffff16146185a7576040517f08c379a000000000000000000000000000000000000000000000000000000000815260040161859e9061a08a565b60405180910390fd5b6000600160009054906101000a900473ffffffffffffffffffffffffffffffffffffffff1673ffffffffffffffffffffffffffffffffffffffff16826040516185ef9061a2c1565b60006040518083038185875af1925050503d806000811461862c576040519150601f19603f3d011682016040523d82523d6000602084013e618631565b606091505b5050905080618675576040517f08c379a000000000000000000000000000000000000000000000000000000000815260040161866c9061a322565b60405180910390fd5b5050565b600160009054906101000a900473ffffffffffffffffffffffffffffffffffffffff1673ffffffffffffffffffffffffffffffffffffffff163373ffffffffffffffffffffffffffffffffffffffff1614618709576040517f08c379a00000000000000000000000000000000000000000000000000000000081526004016187009061a08a565b60405180910390fd5b600061871483618c3c565b9050816003600083815260200190815260200160002081905550505050565b600160009054906101000a900473ffffffffffffffffffffffffffffffffffffffff1681565b6000806000618767856184ed565b905061877b670de0b6b3a764000082618c66565b8411156187bd576040517f08c379a00000000000000000000000000000000000000000000000000000000081526004016187b49061a38e565b60405180910390fd5b600081146187ec576187e9866187e4886187df670de0b6b3a764000086618c66565b618cc5565b618c66565b92505b6000841461881b57618818866188138861880e670de0b6b3a764000089618c66565b618cc5565b618c66565b91505b50935093915050565b60006002600054141561886c576040517f08c379a000000000000000000000000000000000000000000000000000000000815260040161886390619b7a565b60405180910390fd5b60026000819055506000839050600460008473ffffffffffffffffffffffffffffffffffffffff1673ffffffffffffffffffffffffffffffffffffffff16815260200190815260200160002060008573ffffffffffffffffffffffffffffffffffffffff1673ffffffffffffffffffffffffffffffffffffffff1681526020019081526020016000205491506000821161893b576040517f08c379a00000000000000000000000000000000000000000000000000000000081526004016189329061a3fa565b60405180910390fd5b6000600460008573ffffffffffffffffffffffffffffffffffffffff1673ffffffffffffffffffffffffffffffffffffffff16815260200190815260200160002060008673ffffffffffffffffffffffffffffffffffffffff1673ffffffffffffffffffffffffffffffffffffffff168152602001908152602001600020819055508073ffffffffffffffffffffffffffffffffffffffff1663a9059cbb84846040518363ffffffff1660e01b81526004016189f8929190619d37565b6020604051808303816000875af1158015618a17573d6000803e3d6000fd5b505050506040513d601f19601f82011682018060405250810190618a3b9190619c78565b618a7a576040517f08c379a0000000000000000000000000000000000000000000000000000000008152600401618a719061a48c565b60405180910390fd5b8373ffffffffffffffffffffffffffffffffffffffff168373ffffffffffffffffffffffffffffffffffffffff167f4931b6b0ef1b80f8ca6e6b27159d606870fbf438438d14aa8f01abb25e79eb1284604051618ad791906191a1565b60405180910390a350600160008190555092915050565b60008183618afc919061a4ac565b905092915050565b618b9c8282604051602401618b1a92919061a502565b6040516020818303038152906040527f9710a9d0000000000000000000000000000000000000000000000000000000007bffffffffffffffffffffffffffffffffffffffffffffffffffffffff19166020820180517bffffffffffffffffffffffffffffffffffffffffffffffffffffffff8381831617835250505050618db9565b5050565b60008183618bae9190619efb565b905092915050565b618c378363a9059cbb60e01b8484604051602401618bd5929190619d37565b604051602081830303815290604052907bffffffffffffffffffffffffffffffffffffffffffffffffffffffff19166020820180517bffffffffffffffffffffffffffffffffffffffffffffffffffffffff8381831617835250505050618de2565b505050565b600080829050600081511415618c58576000801b915050618c61565b60208301519150505b919050565b6000806000618c758585618ea9565b915091508015618cba576040517f08c379a0000000000000000000000000000000000000000000000000000000008152600401618cb19061a57e565b60405180910390fd5b819250505092915050565b6000808284618cd4919061a1f6565b90506000841480618cef5750828482618ced9190619fac565b145b618d2e576040517f08c379a0000000000000000000000000000000000000000000000000000000008152600401618d259061a5ea565b60405180910390fd5b60006002670de0b6b3a7640000618d459190619fac565b82618d50919061a4ac565b905081811015618d95576040517f08c379a0000000000000000000000000000000000000000000000000000000008152600401618d8c9061a5ea565b60405180910390fd5b6000670de0b6b3a764000082618dab9190619fac565b905080935050505092915050565b60008151905060006a636f6e736f6c652e6c6f679050602083016000808483855afa5050505050565b6000618e44826040518060400160405280602081526020017f5361666545524332303a206c6f772d6c6576656c2063616c6c206661696c65648152508573ffffffffffffffffffffffffffffffffffffffff16618ee49092919063ffffffff16565b9050600081511115618ea45780806020019051810190618e649190619c78565b618ea3576040517f08c379a0000000000000000000000000000000000000000000000000000000008152600401618e9a9061a67c565b60405180910390fd5b5b505050565b600080828410618eca578284618ebf9190619efb565b600091509150618edd565b8383618ed69190619efb565b6001915091505b9250929050565b6060618ef38484600085618efc565b90509392505050565b606082471015618f41576040517f08c379a0000000000000000000000000000000000000000000000000000000008152600401618f389061a70e565b60405180910390fd5b618f4a85619010565b618f89576040517f08c379a0000000000000000000000000000000000000000000000000000000008152600401618f809061a77a565b60405180910390fd5b6000808673ffffffffffffffffffffffffffffffffffffffff168587604051618fb2919061a7d6565b60006040518083038185875af1925050503d8060008114618fef576040519150601f19603f3d011682016040523d82523d6000602084013e618ff4565b606091505b5091509150619004828286619023565b92505050949350505050565b600080823b905060008111915050919050565b6060831561903357829050619083565b6000835111156190465782518084602001fd5b816040517f08c379a000000000000000000000000000000000000000000000000000000000815260040161907a919061930a565b60405180910390fd5b9392505050565b6000604051905090565b600080fd5b600080fd5b600080fd5b60006101a082840312156190ba576190b961909e565b5b81905092915050565b6000602082840312156190d9576190d8619094565b5b600082013567ffffffffffffffff8111156190f7576190f6619099565b5b619103848285016190a3565b91505092915050565b6000819050919050565b61911f8161910c565b82525050565b600060808201905061913a6000830187619116565b6191476020830186619116565b6191546040830185619116565b6191616060830184619116565b95945050505050565b600060608201905061917f6000830186619116565b61918c6020830185619116565b6191996040830184619116565b949350505050565b60006020820190506191b66000830184619116565b92915050565b600073ffffffffffffffffffffffffffffffffffffffff82169050919050565b60006191e7826191bc565b9050919050565b6191f7816191dc565b82525050565b600060208201905061921260008301846191ee565b92915050565b619221816191dc565b811461922c57600080fd5b50565b60008135905061923e81619218565b92915050565b60006020828403121561925a57619259619094565b5b60006192688482850161922f565b91505092915050565b600081519050919050565b600082825260208201905092915050565b60005b838110156192ab578082015181840152602081019050619290565b838111156192ba576000848401525b50505050565b6000601f19601f8301169050919050565b60006192dc82619271565b6192e6818561927c565b93506192f681856020860161928d565b6192ff816192c0565b840191505092915050565b6000602082019050818103600083015261932481846192d1565b905092915050565b6193358161910c565b811461934057600080fd5b50565b6000813590506193528161932c565b92915050565b6000806040838503121561936f5761936e619094565b5b600061937d8582860161922f565b925050602061938e85828601619343565b9150509250929050565b6000819050919050565b6193ab81619398565b81146193b657600080fd5b50565b6000813590506193c8816193a2565b92915050565b6000602082840312156193e4576193e3619094565b5b60006193f2848285016193b9565b91505092915050565b6000806040838503121561941257619411619094565b5b60006194208582860161922f565b92505060206194318582860161922f565b9150509250929050565b600080fd5b600080fd5b7f4e487b7100000000000000000000000000000000000000000000000000000000600052604160045260246000fd5b61947d826192c0565b810181811067ffffffffffffffff8211171561949c5761949b619445565b5b80604052505050565b60006194af61908a565b90506194bb8282619474565b919050565b600067ffffffffffffffff8211156194db576194da619445565b5b6194e4826192c0565b9050602081019050919050565b82818337600083830152505050565b600061951361950e846194c0565b6194a5565b90508281526020810184848401111561952f5761952e619440565b5b61953a8482856194f1565b509392505050565b600082601f8301126195575761955661943b565b5b8135619567848260208601619500565b91505092915050565b60006020828403121561958657619585619094565b5b600082013567ffffffffffffffff8111156195a4576195a3619099565b5b6195b084828501619542565b91505092915050565b6000602082840312156195cf576195ce619094565b5b60006195dd84828501619343565b91505092915050565b600080604083850312156195fd576195fc619094565b5b600083013567ffffffffffffffff81111561961b5761961a619099565b5b61962785828601619542565b925050602061963885828601619343565b9150509250929050565b60008060006060848603121561965b5761965a619094565b5b600061966986828701619343565b935050602084013567ffffffffffffffff81111561968a57619689619099565b5b61969686828701619542565b92505060406196a786828701619343565b9150509250925092565b60006040820190506196c66000830185619116565b6196d36020830184619116565b9392505050565b7f4e487b7100000000000000000000000000000000000000000000000000000000600052603260045260246000fd5b600080fd5b600080fd5b600080fd5b6000808335600160200384360303811261973557619734619709565b5b80840192508235915067ffffffffffffffff8211156197575761975661970e565b5b60208301925060208202360383131561977357619772619713565b5b509250929050565b600082825260208201905092915050565b6000819050919050565b61979f816191dc565b82525050565b60006197b18383619796565b60208301905092915050565b60006197cc602084018461922f565b905092915050565b6000602082019050919050565b60006197ed838561977b565b93506197f88261978c565b8060005b858110156198315761980e82846197bd565b61981888826197a5565b9750619823836197d4565b9250506001810190506197fc565b5085925050509392505050565b60006040820190506198536000830186619116565b81810360208301526198668184866197e1565b9050949350505050565b600067ffffffffffffffff82111561988b5761988a619445565b5b602082029050602081019050919050565b600080fd5b6000815190506198b08161932c565b92915050565b60006198c96198c484619870565b6194a5565b905080838252602082019050602084028301858111156198ec576198eb61989c565b5b835b81811015619915578061990188826198a1565b8452602084019350506020810190506198ee565b5050509392505050565b600082601f8301126199345761993361943b565b5b81516199448482602086016198b6565b91505092915050565b60006020828403121561996357619962619094565b5b600082015167ffffffffffffffff81111561998157619980619099565b5b61998d8482850161991f565b91505092915050565b60008115159050919050565b6199ab81619996565b81146199b657600080fd5b50565b6000813590506199c8816199a2565b92915050565b6000602082840312156199e4576199e3619094565b5b60006199f2848285016199b9565b91505092915050565b619a0481619398565b82525050565b6000606082019050619a1f60008301866191ee565b619a2c60208301856199fb565b619a396040830184619116565b949350505050565b600060208284031215619a5757619a56619094565b5b6000619a65848285016198a1565b91505092915050565b6000608082019050619a8360008301876191ee565b619a9060208301866191ee565b619a9d6040830185619116565b619aaa6060830184619116565b95945050505050565b600080600080600060a08688031215619acf57619ace619094565b5b6000619add888289016198a1565b9550506020619aee888289016198a1565b9450506040619aff888289016198a1565b9350506060619b10888289016198a1565b9250506080619b21888289016198a1565b9150509295509295909350565b7f5265656e7472616e637947756172643a207265656e7472616e742063616c6c00600082015250565b6000619b64601f8361927c565b9150619b6f82619b2e565b602082019050919050565b60006020820190508181036000830152619b9381619b57565b9050919050565b7f5472616465526f757465723a2044657374696e6174696f6e206164647265737360008201527f206e6f742070726f766964656400000000000000000000000000000000000000602082015250565b6000619bf6602d8361927c565b9150619c0182619b9a565b604082019050919050565b60006020820190508181036000830152619c2581619be9565b9050919050565b6000606082019050619c4160008301866191ee565b619c4e60208301856191ee565b619c5b6040830184619116565b949350505050565b600081519050619c72816199a2565b92915050565b600060208284031215619c8e57619c8d619094565b5b6000619c9c84828501619c63565b91505092915050565b7f5472616465526f757465723a2053656c662d7472616e7366657220546f6b656e60008201527f496e204661696c65640000000000000000000000000000000000000000000000602082015250565b6000619d0160298361927c565b9150619d0c82619ca5565b604082019050919050565b60006020820190508181036000830152619d3081619cf4565b9050919050565b6000604082019050619d4c60008301856191ee565b619d596020830184619116565b9392505050565b600060e082019050619d75600083018a6191ee565b619d8260208301896191ee565b619d8f60408301886191ee565b619d9c60608301876191ee565b619da960808301866199fb565b619db660a0830185619116565b619dc360c0830184619116565b98975050505050505050565b600060c082019050619de460008301896191ee565b619df160208301886191ee565b619dfe60408301876191ee565b619e0b60608301866191ee565b619e186080830185619116565b619e2560a0830184619116565b979650505050505050565b60008060408385031215619e4757619e46619094565b5b6000619e55858286016198a1565b9250506020619e66858286016198a1565b9150509250929050565b600060a082019050619e856000830189619116565b619e926020830188619116565b8181036040830152619ea58186886197e1565b9050619eb460608301856191ee565b619ec160808301846191ee565b979650505050505050565b7f4e487b7100000000000000000000000000000000000000000000000000000000600052601160045260246000fd5b6000619f068261910c565b9150619f118361910c565b925082821015619f2457619f23619ecc565b5b828203905092915050565b6000608082019050619f446000830188619116565b619f516020830187619116565b8181036040830152619f648185876197e1565b9050619f7360608301846191ee565b9695505050505050565b7f4e487b7100000000000000000000000000000000000000000000000000000000600052601260045260246000fd5b6000619fb78261910c565b9150619fc28361910c565b925082619fd257619fd1619f7d565b5b828204905092915050565b600060c082019050619ff260008301896191ee565b619fff60208301886191ee565b61a00c60408301876191ee565b61a01960608301866199fb565b61a0266080830185619116565b61a03360a0830184619116565b979650505050505050565b7f61646d696e206f6e6c7900000000000000000000000000000000000000000000600082015250565b600061a074600a8361927c565b915061a07f8261a03e565b602082019050919050565b6000602082019050818103600083015261a0a38161a067565b9050919050565b7f43616c6c6572206d757374206265207468652070656e64696e672061646d696e600082015250565b600061a0e060208361927c565b915061a0eb8261a0aa565b602082019050919050565b6000602082019050818103600083015261a10f8161a0d3565b9050919050565b600060808201905061a12b6000830188619116565b818103602083015261a13e8186886197e1565b905061a14d60408301856191ee565b61a15a60608301846191ee565b9695505050505050565b7f4665653a20696e76616c696420746f6b656e20636f6e7472616374206164647260008201527f6573730000000000000000000000000000000000000000000000000000000000602082015250565b600061a1c060238361927c565b915061a1cb8261a164565b604082019050919050565b6000602082019050818103600083015261a1ef8161a1b3565b9050919050565b600061a2018261910c565b915061a20c8361910c565b9250817fffffffffffffffffffffffffffffffffffffffffffffffffffffffffffffffff048311821515161561a2455761a244619ecc565b5b828202905092915050565b600060608201905061a2656000830187619116565b818103602083015261a2788185876197e1565b905061a28760408301846191ee565b95945050505050565b600081905092915050565b50565b600061a2ab60008361a290565b915061a2b68261a29b565b600082019050919050565b600061a2cc8261a29e565b9150819050919050565b7f4665653a20556e61626c6520746f207769746864726177204554482000000000600082015250565b600061a30c601c8361927c565b915061a3178261a2d6565b602082019050919050565b6000602082019050818103600083015261a33b8161a2ff565b9050919050565b7f4665653a20526566204665657320746f6f206869676800000000000000000000600082015250565b600061a37860168361927c565b915061a3838261a342565b602082019050919050565b6000602082019050818103600083015261a3a78161a36b565b9050919050565b7f5374616b65526f757465723a204e6f20746f6b656e7320746f20636c61696d00600082015250565b600061a3e4601f8361927c565b915061a3ef8261a3ae565b602082019050919050565b6000602082019050818103600083015261a4138161a3d7565b9050919050565b7f5374616b65526f757465723a20526566657272616c20546f6b656e20636c616960008201527f6d206661696c6564000000000000000000000000000000000000000000000000602082015250565b600061a47660288361927c565b915061a4818261a41a565b604082019050919050565b6000602082019050818103600083015261a4a58161a469565b9050919050565b600061a4b78261910c565b915061a4c28361910c565b9250827fffffffffffffffffffffffffffffffffffffffffffffffffffffffffffffffff0382111561a4f75761a4f6619ecc565b5b828201905092915050565b6000604082019050818103600083015261a51c81856192d1565b905061a52b6020830184619116565b9392505050565b7f4552525f5355425f554e444552464c4f57000000000000000000000000000000600082015250565b600061a56860118361927c565b915061a5738261a532565b602082019050919050565b6000602082019050818103600083015261a5978161a55b565b9050919050565b7f4552525f4d554c5f4f564552464c4f5700000000000000000000000000000000600082015250565b600061a5d460108361927c565b915061a5df8261a59e565b602082019050919050565b6000602082019050818103600083015261a6038161a5c7565b9050919050565b7f5361666545524332303a204552433230206f7065726174696f6e20646964206e60008201527f6f74207375636365656400000000000000000000000000000000000000000000602082015250565b600061a666602a8361927c565b915061a6718261a60a565b604082019050919050565b6000602082019050818103600083015261a6958161a659565b9050919050565b7f416464726573733a20696e73756666696369656e742062616c616e636520666f60008201527f722063616c6c0000000000000000000000000000000000000000000000000000602082015250565b600061a6f860268361927c565b915061a7038261a69c565b604082019050919050565b6000602082019050818103600083015261a7278161a6eb565b9050919050565b7f416464726573733a2063616c6c20746f206e6f6e2d636f6e7472616374000000600082015250565b600061a764601d8361927c565b915061a76f8261a72e565b602082019050919050565b6000602082019050818103600083015261a7938161a757565b9050919050565b600081519050919050565b600061a7b08261a79a565b61a7ba818561a290565b935061a7ca81856020860161928d565b80840191505092915050565b600061a7e2828461a7a5565b91508190509291505056fea2646970667358221220d62ca6f52fb566feccd8c0c4287a88dd79cce72d1fc0fe2d8f4141206ec5b67364736f6c634300080c0033",
  "linkReferences": {},
  "deployedLinkReferences": {}
}