{
  "_format": "hh-sol-artifact-1",
  "contractName": "TradeRouter",
  "sourceName": "contracts/defi/routers/TradeRouter.sol",
  "abi": [
    {
      "inputs": [
        {
          "internalType": "address",
          "name": "_poolRouter",
          "type": "address"
        },
        {
          "internalType": "address",
          "name": "_freRouter",
          "type": "address"
        },
        {
          "internalType": "address",
          "name": "_feeCalc",
          "type": "address"
        }
      ],
      "stateMutability": "nonpayable",
      "type": "constructor"
    },
    {
      "anonymous": false,
      "inputs": [
        {
          "indexed": true,
          "internalType": "address",
          "name": "referrer",
          "type": "address"
        },
        {
          "indexed": true,
          "internalType": "address",
          "name": "token",
          "type": "address"
        },
        {
          "indexed": false,
          "internalType": "uint256",
          "name": "claimedAmout",
          "type": "uint256"
        }
      ],
      "name": "ReferralFeesClaimed",
      "type": "event"
    },
    {
      "anonymous": false,
      "inputs": [
        {
          "indexed": true,
          "internalType": "address",
          "name": "tokenIn",
          "type": "address"
        },
        {
          "indexed": true,
          "internalType": "address",
          "name": "baseToken",
          "type": "address"
        },
        {
          "indexed": false,
          "internalType": "address",
          "name": "from",
          "type": "address"
        },
        {
          "indexed": false,
          "internalType": "address",
          "name": "to",
          "type": "address"
        },
        {
          "indexed": false,
          "internalType": "uint256",
          "name": "amount",
          "type": "uint256"
        }
      ],
      "name": "TradedDataTokenToETH",
      "type": "event"
    },
    {
      "anonymous": false,
      "inputs": [
        {
          "indexed": true,
          "internalType": "address",
          "name": "tokenIn",
          "type": "address"
        },
        {
          "indexed": true,
          "internalType": "address",
          "name": "baseToken",
          "type": "address"
        },
        {
          "indexed": true,
          "internalType": "address",
          "name": "tokenOut",
          "type": "address"
        },
        {
          "indexed": false,
          "internalType": "address",
          "name": "from",
          "type": "address"
        },
        {
          "indexed": false,
          "internalType": "address",
          "name": "to",
          "type": "address"
        },
        {
          "indexed": false,
          "internalType": "uint256",
          "name": "amount",
          "type": "uint256"
        }
      ],
      "name": "TradedDataTokenToToken",
      "type": "event"
    },
    {
      "anonymous": false,
      "inputs": [
        {
          "indexed": true,
          "internalType": "address",
          "name": "tokenOut",
          "type": "address"
        },
        {
          "indexed": true,
          "internalType": "address",
          "name": "baseToken",
          "type": "address"
        },
        {
          "indexed": false,
          "internalType": "address",
          "name": "from",
          "type": "address"
        },
        {
          "indexed": false,
          "internalType": "address",
          "name": "to",
          "type": "address"
        },
        {
          "indexed": false,
          "internalType": "uint256",
          "name": "amount",
          "type": "uint256"
        }
      ],
      "name": "TradedETHToDataToken",
      "type": "event"
    },
    {
      "anonymous": false,
      "inputs": [
        {
          "indexed": true,
          "internalType": "address",
          "name": "tokenOut",
          "type": "address"
        },
        {
          "indexed": true,
          "internalType": "address",
          "name": "baseToken",
          "type": "address"
        },
        {
          "indexed": true,
          "internalType": "address",
          "name": "tokenIn",
          "type": "address"
        },
        {
          "indexed": false,
          "internalType": "address",
          "name": "from",
          "type": "address"
        },
        {
          "indexed": false,
          "internalType": "address",
          "name": "to",
          "type": "address"
        },
        {
          "indexed": false,
          "internalType": "uint256",
          "name": "amount",
          "type": "uint256"
        }
      ],
      "name": "TradedTokenToDataToken",
      "type": "event"
    },
    {
      "inputs": [],
      "name": "BONE",
      "outputs": [
        {
          "internalType": "uint256",
          "name": "",
          "type": "uint256"
        }
      ],
      "stateMutability": "view",
      "type": "function"
    },
    {
      "inputs": [],
      "name": "MAX_INT",
      "outputs": [
        {
          "internalType": "uint256",
          "name": "",
          "type": "uint256"
        }
      ],
      "stateMutability": "view",
      "type": "function"
    },
    {
      "inputs": [],
      "name": "STAKE_FEE_TYPE",
      "outputs": [
        {
          "internalType": "string",
          "name": "",
          "type": "string"
        }
      ],
      "stateMutability": "view",
      "type": "function"
    },
    {
      "inputs": [],
      "name": "TRADE_FEE_TYPE",
      "outputs": [
        {
          "internalType": "string",
          "name": "",
          "type": "string"
        }
      ],
      "stateMutability": "view",
      "type": "function"
    },
    {
      "inputs": [],
      "name": "UNSTAKE_FEE_TYPE",
      "outputs": [
        {
          "internalType": "string",
          "name": "",
          "type": "string"
        }
      ],
      "stateMutability": "view",
      "type": "function"
    },
    {
      "inputs": [],
      "name": "ZERO_FEES",
      "outputs": [
        {
          "internalType": "uint256",
          "name": "",
          "type": "uint256"
        }
      ],
      "stateMutability": "view",
      "type": "function"
    },
    {
      "inputs": [],
      "name": "acceptPendingAdmin",
      "outputs": [],
      "stateMutability": "nonpayable",
      "type": "function"
    },
    {
      "inputs": [],
      "name": "admin",
      "outputs": [
        {
          "internalType": "address",
          "name": "",
          "type": "address"
        }
      ],
      "stateMutability": "view",
      "type": "function"
    },
    {
      "inputs": [
        {
          "internalType": "address",
          "name": "token",
          "type": "address"
        },
        {
          "internalType": "address",
          "name": "referrer",
          "type": "address"
        }
      ],
      "name": "claimRefFees",
      "outputs": [
        {
          "internalType": "uint256",
          "name": "claimAmount",
          "type": "uint256"
        }
      ],
      "stateMutability": "nonpayable",
      "type": "function"
    },
    {
      "inputs": [],
      "name": "pendingAdmin",
      "outputs": [
        {
          "internalType": "address",
          "name": "",
          "type": "address"
        }
      ],
      "stateMutability": "view",
      "type": "function"
    },
    {
      "inputs": [
        {
          "internalType": "address",
          "name": "",
          "type": "address"
        },
        {
          "internalType": "address",
          "name": "",
          "type": "address"
        }
      ],
      "name": "referralFees",
      "outputs": [
        {
          "internalType": "uint256",
          "name": "",
          "type": "uint256"
        }
      ],
      "stateMutability": "view",
      "type": "function"
    },
    {
      "inputs": [
        {
          "internalType": "address",
          "name": "newAdmin",
          "type": "address"
        }
      ],
      "name": "setPendingAdmin",
      "outputs": [],
      "stateMutability": "nonpayable",
      "type": "function"
    },
    {
      "inputs": [
        {
          "components": [
            {
              "internalType": "address[6]",
              "name": "meta",
              "type": "address[6]"
            },
            {
              "internalType": "uint256[4]",
              "name": "uints",
              "type": "uint256[4]"
            },
            {
              "internalType": "address[]",
              "name": "path",
              "type": "address[]"
            },
            {
              "internalType": "bool",
              "name": "isFRE",
              "type": "bool"
            },
            {
              "internalType": "bytes32",
              "name": "exchangeId",
              "type": "bytes32"
            }
          ],
          "internalType": "struct TradeRouter.TradeInfo",
          "name": "info",
          "type": "tuple"
        }
      ],
      "name": "swapDatatokenToExactETH",
      "outputs": [
        {
          "internalType": "uint256",
          "name": "tokenAmountIn",
          "type": "uint256"
        },
        {
          "internalType": "uint256",
          "name": "dataxFee",
          "type": "uint256"
        },
        {
          "internalType": "uint256",
          "name": "refFee",
          "type": "uint256"
        }
      ],
      "stateMutability": "nonpayable",
      "type": "function"
    },
    {
      "inputs": [
        {
          "components": [
            {
              "internalType": "address[6]",
              "name": "meta",
              "type": "address[6]"
            },
            {
              "internalType": "uint256[4]",
              "name": "uints",
              "type": "uint256[4]"
            },
            {
              "internalType": "address[]",
              "name": "path",
              "type": "address[]"
            },
            {
              "internalType": "bool",
              "name": "isFRE",
              "type": "bool"
            },
            {
              "internalType": "bytes32",
              "name": "exchangeId",
              "type": "bytes32"
            }
          ],
          "internalType": "struct TradeRouter.TradeInfo",
          "name": "info",
          "type": "tuple"
        }
      ],
      "name": "swapDatatokenToExactToken",
      "outputs": [
        {
          "internalType": "uint256",
          "name": "tokenAmountIn",
          "type": "uint256"
        },
        {
          "internalType": "uint256",
          "name": "dataxFee",
          "type": "uint256"
        },
        {
          "internalType": "uint256",
          "name": "refFee",
          "type": "uint256"
        }
      ],
      "stateMutability": "nonpayable",
      "type": "function"
    },
    {
      "inputs": [
        {
          "components": [
            {
              "internalType": "address[6]",
              "name": "meta",
              "type": "address[6]"
            },
            {
              "internalType": "uint256[4]",
              "name": "uints",
              "type": "uint256[4]"
            },
            {
              "internalType": "address[]",
              "name": "path",
              "type": "address[]"
            },
            {
              "internalType": "bool",
              "name": "isFRE",
              "type": "bool"
            },
            {
              "internalType": "bytes32",
              "name": "exchangeId",
              "type": "bytes32"
            }
          ],
          "internalType": "struct TradeRouter.TradeInfo",
          "name": "info",
          "type": "tuple"
        }
      ],
      "name": "swapETHToExactDatatoken",
      "outputs": [
        {
          "internalType": "uint256",
          "name": "baseRefund",
          "type": "uint256"
        },
        {
          "internalType": "uint256",
          "name": "ethRefund",
          "type": "uint256"
        },
        {
          "internalType": "uint256",
          "name": "dataxFee",
          "type": "uint256"
        },
        {
          "internalType": "uint256",
          "name": "refFee",
          "type": "uint256"
        }
      ],
      "stateMutability": "payable",
      "type": "function"
    },
    {
      "inputs": [
        {
          "components": [
            {
              "internalType": "address[6]",
              "name": "meta",
              "type": "address[6]"
            },
            {
              "internalType": "uint256[4]",
              "name": "uints",
              "type": "uint256[4]"
            },
            {
              "internalType": "address[]",
              "name": "path",
              "type": "address[]"
            },
            {
              "internalType": "bool",
              "name": "isFRE",
              "type": "bool"
            },
            {
              "internalType": "bytes32",
              "name": "exchangeId",
              "type": "bytes32"
            }
          ],
          "internalType": "struct TradeRouter.TradeInfo",
          "name": "info",
          "type": "tuple"
        }
      ],
      "name": "swapExactDatatokenToETH",
      "outputs": [
        {
          "internalType": "uint256",
          "name": "ethAmountOut",
          "type": "uint256"
        },
        {
          "internalType": "uint256",
          "name": "dataxFee",
          "type": "uint256"
        },
        {
          "internalType": "uint256",
          "name": "refFee",
          "type": "uint256"
        }
      ],
      "stateMutability": "nonpayable",
      "type": "function"
    },
    {
      "inputs": [
        {
          "components": [
            {
              "internalType": "address[6]",
              "name": "meta",
              "type": "address[6]"
            },
            {
              "internalType": "uint256[4]",
              "name": "uints",
              "type": "uint256[4]"
            },
            {
              "internalType": "address[]",
              "name": "path",
              "type": "address[]"
            },
            {
              "internalType": "bool",
              "name": "isFRE",
              "type": "bool"
            },
            {
              "internalType": "bytes32",
              "name": "exchangeId",
              "type": "bytes32"
            }
          ],
          "internalType": "struct TradeRouter.TradeInfo",
          "name": "info",
          "type": "tuple"
        }
      ],
      "name": "swapExactDatatokenToToken",
      "outputs": [
        {
          "internalType": "uint256",
          "name": "tokenAmountOut",
          "type": "uint256"
        },
        {
          "internalType": "uint256",
          "name": "dataxFee",
          "type": "uint256"
        },
        {
          "internalType": "uint256",
          "name": "refFee",
          "type": "uint256"
        }
      ],
      "stateMutability": "nonpayable",
      "type": "function"
    },
    {
      "inputs": [
        {
          "components": [
            {
              "internalType": "address[6]",
              "name": "meta",
              "type": "address[6]"
            },
            {
              "internalType": "uint256[4]",
              "name": "uints",
              "type": "uint256[4]"
            },
            {
              "internalType": "address[]",
              "name": "path",
              "type": "address[]"
            },
            {
              "internalType": "bool",
              "name": "isFRE",
              "type": "bool"
            },
            {
              "internalType": "bytes32",
              "name": "exchangeId",
              "type": "bytes32"
            }
          ],
          "internalType": "struct TradeRouter.TradeInfo",
          "name": "info",
          "type": "tuple"
        }
      ],
      "name": "swapExactETHToDatatoken",
      "outputs": [
        {
          "internalType": "uint256",
          "name": "dtAmountOut",
          "type": "uint256"
        },
        {
          "internalType": "uint256",
          "name": "dataxFee",
          "type": "uint256"
        },
        {
          "internalType": "uint256",
          "name": "refFee",
          "type": "uint256"
        }
      ],
      "stateMutability": "payable",
      "type": "function"
    },
    {
      "inputs": [
        {
          "components": [
            {
              "internalType": "address[6]",
              "name": "meta",
              "type": "address[6]"
            },
            {
              "internalType": "uint256[4]",
              "name": "uints",
              "type": "uint256[4]"
            },
            {
              "internalType": "address[]",
              "name": "path",
              "type": "address[]"
            },
            {
              "internalType": "bool",
              "name": "isFRE",
              "type": "bool"
            },
            {
              "internalType": "bytes32",
              "name": "exchangeId",
              "type": "bytes32"
            }
          ],
          "internalType": "struct TradeRouter.TradeInfo",
          "name": "info",
          "type": "tuple"
        }
      ],
      "name": "swapExactTokenToDatatoken",
      "outputs": [
        {
          "internalType": "uint256",
          "name": "dtAmountOut",
          "type": "uint256"
        },
        {
          "internalType": "uint256",
          "name": "dataxFee",
          "type": "uint256"
        },
        {
          "internalType": "uint256",
          "name": "refFee",
          "type": "uint256"
        }
      ],
      "stateMutability": "nonpayable",
      "type": "function"
    },
    {
      "inputs": [
        {
          "components": [
            {
              "internalType": "address[6]",
              "name": "meta",
              "type": "address[6]"
            },
            {
              "internalType": "uint256[4]",
              "name": "uints",
              "type": "uint256[4]"
            },
            {
              "internalType": "address[]",
              "name": "path",
              "type": "address[]"
            },
            {
              "internalType": "bool",
              "name": "isFRE",
              "type": "bool"
            },
            {
              "internalType": "bytes32",
              "name": "exchangeId",
              "type": "bytes32"
            }
          ],
          "internalType": "struct TradeRouter.TradeInfo",
          "name": "info",
          "type": "tuple"
        }
      ],
      "name": "swapTokenToExactDatatoken",
      "outputs": [
        {
          "internalType": "uint256",
          "name": "baseRefund",
          "type": "uint256"
        },
        {
          "internalType": "uint256",
          "name": "tokenInRefund",
          "type": "uint256"
        },
        {
          "internalType": "uint256",
          "name": "dataxFee",
          "type": "uint256"
        },
        {
          "internalType": "uint256",
          "name": "refFee",
          "type": "uint256"
        }
      ],
      "stateMutability": "nonpayable",
      "type": "function"
    },
    {
      "stateMutability": "payable",
      "type": "receive"
    }
  ],
  "bytecode": "0x60806040523480156200001157600080fd5b506040516200882d3803806200882d8339818101604052810190620000379190620001b6565b600160008190555033600160006101000a81548173ffffffffffffffffffffffffffffffffffffffff021916908373ffffffffffffffffffffffffffffffffffffffff16021790555082600560006101000a81548173ffffffffffffffffffffffffffffffffffffffff021916908373ffffffffffffffffffffffffffffffffffffffff16021790555081600460006101000a81548173ffffffffffffffffffffffffffffffffffffffff021916908373ffffffffffffffffffffffffffffffffffffffff16021790555080600360006101000a81548173ffffffffffffffffffffffffffffffffffffffff021916908373ffffffffffffffffffffffffffffffffffffffff16021790555050505062000212565b600080fd5b600073ffffffffffffffffffffffffffffffffffffffff82169050919050565b60006200017e8262000151565b9050919050565b620001908162000171565b81146200019c57600080fd5b50565b600081519050620001b08162000185565b92915050565b600080600060608486031215620001d257620001d16200014c565b5b6000620001e2868287016200019f565b9350506020620001f5868287016200019f565b925050604062000208868287016200019f565b9150509250925092565b61860b80620002226000396000f3fe6080604052600436106101235760003560e01c806384ffaa2d116100a0578063d09484c211610064578063d09484c214610411578063e279110b1461043c578063e8b2e0cf14610479578063f851a440146104b9578063f9e9f584146104e45761012a565b806384ffaa2d1461030b5780639cac5bc31461034a578063b9576bd314610375578063c2661906146103b4578063c36596a6146103e65761012a565b80632b6e01db116100e75780632b6e01db1461022e5780632ce9302a146102595780634dd18bf514610298578063709920c1146102c157806373141c28146102d85761012a565b8063090522f11461012f578063098d32281461016e578063152a347b14610199578063220ab80c146101d857806326782247146102035761012a565b3661012a57005b600080fd5b34801561013b57600080fd5b50610156600480360381019061015191906177ed565b610521565b6040516101659392919061784f565b60405180910390f35b34801561017a57600080fd5b506101836113a1565b6040516101909190617886565b60405180910390f35b3480156101a557600080fd5b506101c060048036038101906101bb91906177ed565b6113c5565b6040516101cf9392919061784f565b60405180910390f35b3480156101e457600080fd5b506101ed6120b4565b6040516101fa919061793a565b60405180910390f35b34801561020f57600080fd5b506102186120ed565b604051610225919061799d565b60405180910390f35b34801561023a57600080fd5b50610243612113565b6040516102509190617886565b60405180910390f35b34801561026557600080fd5b50610280600480360381019061027b91906177ed565b612118565b60405161028f9392919061784f565b60405180910390f35b3480156102a457600080fd5b506102bf60048036038101906102ba91906179e4565b612edd565b005b3480156102cd57600080fd5b506102d6612fb1565b005b6102f260048036038101906102ed91906177ed565b613143565b6040516103029493929190617a11565b60405180910390f35b34801561031757600080fd5b50610332600480360381019061032d91906177ed565b613cdb565b6040516103419392919061784f565b60405180910390f35b34801561035657600080fd5b5061035f614ade565b60405161036c919061793a565b60405180910390f35b34801561038157600080fd5b5061039c600480360381019061039791906177ed565b614b17565b6040516103ab9392919061784f565b60405180910390f35b6103ce60048036038101906103c991906177ed565b615865565b6040516103dd9392919061784f565b60405180910390f35b3480156103f257600080fd5b506103fb6163e2565b6040516104089190617886565b60405180910390f35b34801561041d57600080fd5b506104266163ee565b604051610433919061793a565b60405180910390f35b34801561044857600080fd5b50610463600480360381019061045e9190617a56565b616427565b6040516104709190617886565b60405180910390f35b34801561048557600080fd5b506104a0600480360381019061049b91906177ed565b61644c565b6040516104b09493929190617a11565b60405180910390f35b3480156104c557600080fd5b506104ce617241565b6040516104db919061799d565b60405180910390f35b3480156104f057600080fd5b5061050b60048036038101906105069190617a56565b617267565b6040516105189190617886565b60405180910390f35b60008060006002600054141561056c576040517f08c379a000000000000000000000000000000000000000000000000000000000815260040161056390617ae2565b60405180910390fd5b6002600081905550600073ffffffffffffffffffffffffffffffffffffffff16846000016002600681106105a3576105a2617b02565b5b6020020160208101906105b691906179e4565b73ffffffffffffffffffffffffffffffffffffffff16141561060d576040517f08c379a000000000000000000000000000000000000000000000000000000000815260040161060490617ba3565b60405180910390fd5b60008460000160016006811061062657610625617b02565b5b60200201602081019061063991906179e4565b90508073ffffffffffffffffffffffffffffffffffffffff166323b872dd33308860c0016000600481106106705761066f617b02565b5b60200201356040518463ffffffff1660e01b815260040161069393929190617bc3565b6020604051808303816000875af11580156106b2573d6000803e3d6000fd5b505050506040513d601f19601f820116820180604052508101906106d69190617c32565b610715576040517f08c379a000000000000000000000000000000000000000000000000000000000815260040161070c90617cd1565b60405180910390fd5b600360009054906101000a900473ffffffffffffffffffffffffffffffffffffffff1673ffffffffffffffffffffffffffffffffffffffff1663f8702fe18660c00160016004811061076a57610769617b02565b5b60200201356040518060400160405280600581526020017f54524144450000000000000000000000000000000000000000000000000000008152508860c0016003600481106107bc576107bb617b02565b5b60200201356040518463ffffffff1660e01b81526004016107df93929190617cf1565b6040805180830381865afa1580156107fb573d6000803e3d6000fd5b505050506040513d601f19601f8201168201806040525081019061081f9190617d5b565b8093508194505050600061086961083f848661749f90919063ffffffff16565b8760c00160016004811061085657610855617b02565b5b602002013561749f90919063ffffffff16565b90508561016001602081019061087f9190617db0565b15610ac3578560000160016006811061089b5761089a617b02565b5b6020020160208101906108ae91906179e4565b73ffffffffffffffffffffffffffffffffffffffff1663095ea7b3600460009054906101000a900473ffffffffffffffffffffffffffffffffffffffff168860c00160006004811061090357610902617b02565b5b60200201356040518363ffffffff1660e01b8152600401610925929190617ddd565b6020604051808303816000875af1158015610944573d6000803e3d6000fd5b505050506040513d601f19601f820116820180604052508101906109689190617c32565b50600460009054906101000a900473ffffffffffffffffffffffffffffffffffffffff1673ffffffffffffffffffffffffffffffffffffffff16637cbc8bfa878061014001906109b89190617e15565b60008181106109ca576109c9617b02565b5b90506020020160208101906109df91906179e4565b886000016001600681106109f6576109f5617b02565b5b602002016020810190610a0991906179e4565b308a600001600060068110610a2157610a20617b02565b5b602002016020810190610a3491906179e4565b8b61018001358c60c001600060048110610a5157610a50617b02565b5b6020020135886040518863ffffffff1660e01b8152600401610a799796959493929190617e91565b6020604051808303816000875af1158015610a98573d6000803e3d6000fd5b505050506040513d601f19601f82011682018060405250810190610abc9190617f00565b9050610cf9565b85600001600160068110610ada57610ad9617b02565b5b602002016020810190610aed91906179e4565b73ffffffffffffffffffffffffffffffffffffffff1663095ea7b3600560009054906101000a900473ffffffffffffffffffffffffffffffffffffffff168860c001600060048110610b4257610b41617b02565b5b60200201356040518363ffffffff1660e01b8152600401610b64929190617ddd565b6020604051808303816000875af1158015610b83573d6000803e3d6000fd5b505050506040513d601f19601f82011682018060405250810190610ba79190617c32565b50600560009054906101000a900473ffffffffffffffffffffffffffffffffffffffff1673ffffffffffffffffffffffffffffffffffffffff166327ccc15287806101400190610bf79190617e15565b6000818110610c0957610c08617b02565b5b9050602002016020810190610c1e91906179e4565b88600001600160068110610c3557610c34617b02565b5b602002016020810190610c4891906179e4565b308a600001600060068110610c6057610c5f617b02565b5b602002016020810190610c7391906179e4565b8b60c001600060048110610c8a57610c89617b02565b5b6020020135876040518763ffffffff1660e01b8152600401610cb196959493929190617f2d565b60408051808303816000875af1158015610ccf573d6000803e3d6000fd5b505050506040513d601f19601f82011682018060405250810190610cf39190617d5b565b50809550505b600073ffffffffffffffffffffffffffffffffffffffff1686600001600260068110610d2857610d27617b02565b5b602002016020810190610d3b91906179e4565b73ffffffffffffffffffffffffffffffffffffffff1614610f0a57610e37836006600089600001600260068110610d7557610d74617b02565b5b602002016020810190610d8891906179e4565b73ffffffffffffffffffffffffffffffffffffffff1673ffffffffffffffffffffffffffffffffffffffff168152602001908152602001600020600089600001600560068110610ddb57610dda617b02565b5b602002016020810190610dee91906179e4565b73ffffffffffffffffffffffffffffffffffffffff1673ffffffffffffffffffffffffffffffffffffffff1681526020019081526020016000205461749f90919063ffffffff16565b6006600088600001600260068110610e5257610e51617b02565b5b602002016020810190610e6591906179e4565b73ffffffffffffffffffffffffffffffffffffffff1673ffffffffffffffffffffffffffffffffffffffff168152602001908152602001600020600088600001600560068110610eb857610eb7617b02565b5b602002016020810190610ecb91906179e4565b73ffffffffffffffffffffffffffffffffffffffff1673ffffffffffffffffffffffffffffffffffffffff168152602001908152602001600020819055505b600186806101400190610f1d9190617e15565b9050111561117157600086600001600460068110610f3e57610f3d617b02565b5b602002016020810190610f5191906179e4565b905086806101400190610f649190617e15565b6000818110610f7657610f75617b02565b5b9050602002016020810190610f8b91906179e4565b73ffffffffffffffffffffffffffffffffffffffff1663095ea7b388600001600460068110610fbd57610fbc617b02565b5b602002016020810190610fd091906179e4565b8960c001600160048110610fe757610fe6617b02565b5b60200201356040518363ffffffff1660e01b8152600401611009929190617ddd565b6020604051808303816000875af1158015611028573d6000803e3d6000fd5b505050506040513d601f19601f8201168201806040525081019061104c9190617c32565b508073ffffffffffffffffffffffffffffffffffffffff16635ec9ef618860c0016002600481106110805761107f617b02565b5b60200201358960c00160016004811061109c5761109b617b02565b5b60200201358a8061014001906110b29190617e15565b8c6000016002600681106110c9576110c8617b02565b5b6020020160208101906110dc91906179e4565b8d6000016002600681106110f3576110f2617b02565b5b60200201602081019061110691906179e4565b6040518763ffffffff1660e01b815260040161112796959493929190618051565b60408051808303816000875af1158015611145573d6000803e3d6000fd5b505050506040513d601f19601f820116820180604052508101906111699190617d5b565b505050611218565b6112178660000160026006811061118b5761118a617b02565b5b60200201602081019061119e91906179e4565b8760c0016001600481106111b5576111b4617b02565b5b6020020135888061014001906111cb9190617e15565b60008181106111dd576111dc617b02565b5b90506020020160208101906111f291906179e4565b73ffffffffffffffffffffffffffffffffffffffff166174b59092919063ffffffff16565b5b858061014001906112299190617e15565b600081811061123b5761123a617b02565b5b905060200201602081019061125091906179e4565b73ffffffffffffffffffffffffffffffffffffffff16868061014001906112779190617e15565b60018980610140019061128a9190617e15565b905061129691906180dc565b8181106112a6576112a5617b02565b5b90506020020160208101906112bb91906179e4565b73ffffffffffffffffffffffffffffffffffffffff16876000016001600681106112e8576112e7617b02565b5b6020020160208101906112fb91906179e4565b73ffffffffffffffffffffffffffffffffffffffff167f0343363b6a70c01693e26f20a7a4448d0d5861a92f3112cc0038661190de3750338a60000160026006811061134a57611349617b02565b5b60200201602081019061135d91906179e4565b8b60c00160016004811061137457611373617b02565b5b602002013560405161138893929190617bc3565b60405180910390a4505060016000819055509193909250565b7fffffffffffffffffffffffffffffffffffffffffffffffffffffffffffffffff81565b600080600060026000541415611410576040517f08c379a000000000000000000000000000000000000000000000000000000000815260040161140790617ae2565b60405180910390fd5b6002600081905550600073ffffffffffffffffffffffffffffffffffffffff168460000160026006811061144757611446617b02565b5b60200201602081019061145a91906179e4565b73ffffffffffffffffffffffffffffffffffffffff1614156114b1576040517f08c379a00000000000000000000000000000000000000000000000000000000081526004016114a890617ba3565b60405180910390fd5b6000846000016001600681106114ca576114c9617b02565b5b6020020160208101906114dd91906179e4565b90508073ffffffffffffffffffffffffffffffffffffffff166323b872dd33308860c00160006004811061151457611513617b02565b5b60200201356040518463ffffffff1660e01b815260040161153793929190617bc3565b6020604051808303816000875af1158015611556573d6000803e3d6000fd5b505050506040513d601f19601f8201168201806040525081019061157a9190617c32565b6115b9576040517f08c379a00000000000000000000000000000000000000000000000000000000081526004016115b090617cd1565b60405180910390fd5b6000856101600160208101906115cf9190617db0565b1561182e57856000016001600681106115eb576115ea617b02565b5b6020020160208101906115fe91906179e4565b73ffffffffffffffffffffffffffffffffffffffff1663095ea7b3600460009054906101000a900473ffffffffffffffffffffffffffffffffffffffff168860c00160006004811061165357611652617b02565b5b60200201356040518363ffffffff1660e01b8152600401611675929190617ddd565b6020604051808303816000875af1158015611694573d6000803e3d6000fd5b505050506040513d601f19601f820116820180604052508101906116b89190617c32565b50600460009054906101000a900473ffffffffffffffffffffffffffffffffffffffff1673ffffffffffffffffffffffffffffffffffffffff16637cbc8bfa878061014001906117089190617e15565b600081811061171a57611719617b02565b5b905060200201602081019061172f91906179e4565b8860000160016006811061174657611745617b02565b5b60200201602081019061175991906179e4565b308a60000160006006811061177157611770617b02565b5b60200201602081019061178491906179e4565b8b61018001358c60c0016000600481106117a1576117a0617b02565b5b60200201358d60c0016001600481106117bd576117bc617b02565b5b60200201356040518863ffffffff1660e01b81526004016117e49796959493929190617e91565b6020604051808303816000875af1158015611803573d6000803e3d6000fd5b505050506040513d601f19601f820116820180604052508101906118279190617f00565b9050611a7d565b8560000160016006811061184557611844617b02565b5b60200201602081019061185891906179e4565b73ffffffffffffffffffffffffffffffffffffffff1663095ea7b3600560009054906101000a900473ffffffffffffffffffffffffffffffffffffffff168860c0016000600481106118ad576118ac617b02565b5b60200201356040518363ffffffff1660e01b81526004016118cf929190617ddd565b6020604051808303816000875af11580156118ee573d6000803e3d6000fd5b505050506040513d601f19601f820116820180604052508101906119129190617c32565b50600560009054906101000a900473ffffffffffffffffffffffffffffffffffffffff1673ffffffffffffffffffffffffffffffffffffffff166332d505da878061014001906119629190617e15565b600081811061197457611973617b02565b5b905060200201602081019061198991906179e4565b886000016001600681106119a05761199f617b02565b5b6020020160208101906119b391906179e4565b308a6000016000600681106119cb576119ca617b02565b5b6020020160208101906119de91906179e4565b8b60c0016000600481106119f5576119f4617b02565b5b60200201358c60c001600160048110611a1157611a10617b02565b5b60200201356040518763ffffffff1660e01b8152600401611a3796959493929190617f2d565b6020604051808303816000875af1158015611a56573d6000803e3d6000fd5b505050506040513d601f19601f82011682018060405250810190611a7a9190617f00565b90505b600360009054906101000a900473ffffffffffffffffffffffffffffffffffffffff1673ffffffffffffffffffffffffffffffffffffffff1663f8702fe1826040518060400160405280600581526020017f54524144450000000000000000000000000000000000000000000000000000008152508960c001600360048110611b0957611b08617b02565b5b60200201356040518463ffffffff1660e01b8152600401611b2c93929190617cf1565b6040805180830381865afa158015611b48573d6000803e3d6000fd5b505050506040513d601f19601f82011682018060405250810190611b6c9190617d5b565b80945081955050506000611b9b611b8c858761749f90919063ffffffff16565b8361753b90919063ffffffff16565b9050600073ffffffffffffffffffffffffffffffffffffffff1687600001600260068110611bcc57611bcb617b02565b5b602002016020810190611bdf91906179e4565b73ffffffffffffffffffffffffffffffffffffffff1614611dae57611cdb84600660008a600001600260068110611c1957611c18617b02565b5b602002016020810190611c2c91906179e4565b73ffffffffffffffffffffffffffffffffffffffff1673ffffffffffffffffffffffffffffffffffffffff16815260200190815260200160002060008a600001600560068110611c7f57611c7e617b02565b5b602002016020810190611c9291906179e4565b73ffffffffffffffffffffffffffffffffffffffff1673ffffffffffffffffffffffffffffffffffffffff1681526020019081526020016000205461749f90919063ffffffff16565b6006600089600001600260068110611cf657611cf5617b02565b5b602002016020810190611d0991906179e4565b73ffffffffffffffffffffffffffffffffffffffff1673ffffffffffffffffffffffffffffffffffffffff168152602001908152602001600020600089600001600560068110611d5c57611d5b617b02565b5b602002016020810190611d6f91906179e4565b73ffffffffffffffffffffffffffffffffffffffff1673ffffffffffffffffffffffffffffffffffffffff168152602001908152602001600020819055505b600087600001600460068110611dc757611dc6617b02565b5b602002016020810190611dda91906179e4565b905087806101400190611ded9190617e15565b6000818110611dff57611dfe617b02565b5b9050602002016020810190611e1491906179e4565b73ffffffffffffffffffffffffffffffffffffffff1663095ea7b389600001600460068110611e4657611e45617b02565b5b602002016020810190611e5991906179e4565b846040518363ffffffff1660e01b8152600401611e77929190617ddd565b6020604051808303816000875af1158015611e96573d6000803e3d6000fd5b505050506040513d601f19601f82011682018060405250810190611eba9190617c32565b508073ffffffffffffffffffffffffffffffffffffffff1663363db5c6838a60c001600260048110611eef57611eee617b02565b5b60200201358b806101400190611f059190617e15565b8d600001600260068110611f1c57611f1b617b02565b5b602002016020810190611f2f91906179e4565b6040518663ffffffff1660e01b8152600401611f4f959493929190618110565b6020604051808303816000875af1158015611f6e573d6000803e3d6000fd5b505050506040513d601f19601f82011682018060405250810190611f929190617f00565b965087806101400190611fa59190617e15565b6000818110611fb757611fb6617b02565b5b9050602002016020810190611fcc91906179e4565b73ffffffffffffffffffffffffffffffffffffffff1688600001600160068110611ff957611ff8617b02565b5b60200201602081019061200c91906179e4565b73ffffffffffffffffffffffffffffffffffffffff167fce70b1a047faa7d87f629504d447306e251aba64cf8db9b8b724fca28076dfdc338b60000160026006811061205b5761205a617b02565b5b60200201602081019061206e91906179e4565b8c60c00160016004811061208557612084617b02565b5b602002013560405161209993929190617bc3565b60405180910390a35050505060016000819055509193909250565b6040518060400160405280600581526020017f5354414b4500000000000000000000000000000000000000000000000000000081525081565b600260009054906101000a900473ffffffffffffffffffffffffffffffffffffffff1681565b600081565b600080600060026000541415612163576040517f08c379a000000000000000000000000000000000000000000000000000000000815260040161215a90617ae2565b60405180910390fd5b6002600081905550600073ffffffffffffffffffffffffffffffffffffffff168460000160026006811061219a57612199617b02565b5b6020020160208101906121ad91906179e4565b73ffffffffffffffffffffffffffffffffffffffff161415612204576040517f08c379a00000000000000000000000000000000000000000000000000000000081526004016121fb90617ba3565b60405180910390fd5b6000848061014001906122179190617e15565b600081811061222957612228617b02565b5b905060200201602081019061223e91906179e4565b90508073ffffffffffffffffffffffffffffffffffffffff166323b872dd33308860c00160006004811061227557612274617b02565b5b60200201356040518463ffffffff1660e01b815260040161229893929190617bc3565b6020604051808303816000875af11580156122b7573d6000803e3d6000fd5b505050506040513d601f19601f820116820180604052508101906122db9190617c32565b61231a576040517f08c379a000000000000000000000000000000000000000000000000000000000815260040161231190617cd1565b60405180910390fd5b60008560c00160016004811061233357612332617b02565b5b60200201359050600360009054906101000a900473ffffffffffffffffffffffffffffffffffffffff1673ffffffffffffffffffffffffffffffffffffffff1663f8702fe1826040518060400160405280600581526020017f54524144450000000000000000000000000000000000000000000000000000008152508960c0016003600481106123c6576123c5617b02565b5b60200201356040518463ffffffff1660e01b81526004016123e993929190617cf1565b6040805180830381865afa158015612405573d6000803e3d6000fd5b505050506040513d601f19601f820116820180604052508101906124299190617d5b565b80945081955050506001868061014001906124449190617e15565b905011156125ef578173ffffffffffffffffffffffffffffffffffffffff1663095ea7b38760000160046006811061247f5761247e617b02565b5b60200201602081019061249291906179e4565b8860c0016000600481106124a9576124a8617b02565b5b60200201356040518363ffffffff1660e01b81526004016124cb929190617ddd565b6020604051808303816000875af11580156124ea573d6000803e3d6000fd5b505050506040513d601f19601f8201168201806040525081019061250e9190617c32565b5060008660000160046006811061252857612527617b02565b5b60200201602081019061253b91906179e4565b90508073ffffffffffffffffffffffffffffffffffffffff1663472b43f38860c0016000600481106125705761256f617b02565b5b6020020135848a8061014001906125879190617e15565b306040518663ffffffff1660e01b81526004016125a8959493929190618110565b6020604051808303816000875af11580156125c7573d6000803e3d6000fd5b505050506040513d601f19601f820116820180604052508101906125eb9190617f00565b9150505b6000612616612607858761749f90919063ffffffff16565b8361753b90919063ffffffff16565b9050600073ffffffffffffffffffffffffffffffffffffffff168760000160026006811061264757612646617b02565b5b60200201602081019061265a91906179e4565b73ffffffffffffffffffffffffffffffffffffffff16146128295761275684600660008a60000160026006811061269457612693617b02565b5b6020020160208101906126a791906179e4565b73ffffffffffffffffffffffffffffffffffffffff1673ffffffffffffffffffffffffffffffffffffffff16815260200190815260200160002060008a6000016005600681106126fa576126f9617b02565b5b60200201602081019061270d91906179e4565b73ffffffffffffffffffffffffffffffffffffffff1673ffffffffffffffffffffffffffffffffffffffff1681526020019081526020016000205461749f90919063ffffffff16565b600660008960000160026006811061277157612770617b02565b5b60200201602081019061278491906179e4565b73ffffffffffffffffffffffffffffffffffffffff1673ffffffffffffffffffffffffffffffffffffffff1681526020019081526020016000206000896000016005600681106127d7576127d6617b02565b5b6020020160208101906127ea91906179e4565b73ffffffffffffffffffffffffffffffffffffffff1673ffffffffffffffffffffffffffffffffffffffff168152602001908152602001600020819055505b8661016001602081019061283d9190617db0565b15612ac957868061014001906128539190617e15565b6001898061014001906128669190617e15565b905061287291906180dc565b81811061288257612881617b02565b5b905060200201602081019061289791906179e4565b73ffffffffffffffffffffffffffffffffffffffff1663095ea7b3600460009054906101000a900473ffffffffffffffffffffffffffffffffffffffff16836040518363ffffffff1660e01b81526004016128f3929190617ddd565b6020604051808303816000875af1158015612912573d6000803e3d6000fd5b505050506040513d601f19601f820116820180604052508101906129369190617c32565b50600460009054906101000a900473ffffffffffffffffffffffffffffffffffffffff1673ffffffffffffffffffffffffffffffffffffffff1663495d2040888061014001906129869190617e15565b60018b8061014001906129999190617e15565b90506129a591906180dc565b8181106129b5576129b4617b02565b5b90506020020160208101906129ca91906179e4565b896000016002600681106129e1576129e0617b02565b5b6020020160208101906129f491906179e4565b8a600001600060068110612a0b57612a0a617b02565b5b602002016020810190612a1e91906179e4565b8b6101800135868d60c001600260048110612a3c57612a3b617b02565b5b60200201356040518763ffffffff1660e01b8152600401612a629695949392919061815e565b60408051808303816000875af1158015612a80573d6000803e3d6000fd5b505050506040513d601f19601f82011682018060405250810190612aa49190617d5b565b50508660c001600260048110612abd57612abc617b02565b5b60200201359550612d53565b86806101400190612ada9190617e15565b600189806101400190612aed9190617e15565b9050612af991906180dc565b818110612b0957612b08617b02565b5b9050602002016020810190612b1e91906179e4565b73ffffffffffffffffffffffffffffffffffffffff1663095ea7b3600560009054906101000a900473ffffffffffffffffffffffffffffffffffffffff16836040518363ffffffff1660e01b8152600401612b7a929190617ddd565b6020604051808303816000875af1158015612b99573d6000803e3d6000fd5b505050506040513d601f19601f82011682018060405250810190612bbd9190617c32565b50600560009054906101000a900473ffffffffffffffffffffffffffffffffffffffff1673ffffffffffffffffffffffffffffffffffffffff16637765740888806101400190612c0d9190617e15565b60018b806101400190612c209190617e15565b9050612c2c91906180dc565b818110612c3c57612c3b617b02565b5b9050602002016020810190612c5191906179e4565b89600001600160068110612c6857612c67617b02565b5b602002016020810190612c7b91906179e4565b8a600001600260068110612c9257612c91617b02565b5b602002016020810190612ca591906179e4565b8b600001600060068110612cbc57612cbb617b02565b5b602002016020810190612ccf91906179e4565b868d60c001600260048110612ce757612ce6617b02565b5b60200201356040518763ffffffff1660e01b8152600401612d0d96959493929190617f2d565b6020604051808303816000875af1158015612d2c573d6000803e3d6000fd5b505050506040513d601f19601f82011682018060405250810190612d509190617f00565b95505b86806101400190612d649190617e15565b6000818110612d7657612d75617b02565b5b9050602002016020810190612d8b91906179e4565b73ffffffffffffffffffffffffffffffffffffffff1687806101400190612db29190617e15565b60018a806101400190612dc59190617e15565b9050612dd191906180dc565b818110612de157612de0617b02565b5b9050602002016020810190612df691906179e4565b73ffffffffffffffffffffffffffffffffffffffff1688600001600160068110612e2357612e22617b02565b5b602002016020810190612e3691906179e4565b73ffffffffffffffffffffffffffffffffffffffff167f932d60095b1063cee12b6204f81843280ebc9693af98c86452b031edb66be23c338b600001600260068110612e8557612e84617b02565b5b602002016020810190612e9891906179e4565b8c60c001600160048110612eaf57612eae617b02565b5b6020020135604051612ec393929190617bc3565b60405180910390a450505060016000819055509193909250565b600160009054906101000a900473ffffffffffffffffffffffffffffffffffffffff1673ffffffffffffffffffffffffffffffffffffffff163373ffffffffffffffffffffffffffffffffffffffff1614612f6d576040517f08c379a0000000000000000000000000000000000000000000000000000000008152600401612f649061820b565b60405180910390fd5b80600260006101000a81548173ffffffffffffffffffffffffffffffffffffffff021916908373ffffffffffffffffffffffffffffffffffffffff16021790555050565b600260009054906101000a900473ffffffffffffffffffffffffffffffffffffffff1673ffffffffffffffffffffffffffffffffffffffff163373ffffffffffffffffffffffffffffffffffffffff1614801561305d5750600073ffffffffffffffffffffffffffffffffffffffff16600260009054906101000a900473ffffffffffffffffffffffffffffffffffffffff1673ffffffffffffffffffffffffffffffffffffffff1614155b61309c576040517f08c379a000000000000000000000000000000000000000000000000000000000815260040161309390618277565b60405180910390fd5b600260009054906101000a900473ffffffffffffffffffffffffffffffffffffffff16600160006101000a81548173ffffffffffffffffffffffffffffffffffffffff021916908373ffffffffffffffffffffffffffffffffffffffff1602179055506000600260006101000a81548173ffffffffffffffffffffffffffffffffffffffff021916908373ffffffffffffffffffffffffffffffffffffffff160217905550565b6000806000806002600054141561318f576040517f08c379a000000000000000000000000000000000000000000000000000000000815260040161318690617ae2565b60405180910390fd5b6002600081905550600073ffffffffffffffffffffffffffffffffffffffff16856000016002600681106131c6576131c5617b02565b5b6020020160208101906131d991906179e4565b73ffffffffffffffffffffffffffffffffffffffff161415613230576040517f08c379a000000000000000000000000000000000000000000000000000000000815260040161322790617ba3565b60405180910390fd5b60008560000160046006811061324957613248617b02565b5b60200201602081019061325c91906179e4565b90506000600360009054906101000a900473ffffffffffffffffffffffffffffffffffffffff1673ffffffffffffffffffffffffffffffffffffffff1663f8702fe18860c0016001600481106132b5576132b4617b02565b5b60200201356040518060400160405280600581526020017f54524144450000000000000000000000000000000000000000000000000000008152508a60c00160036004811061330757613306617b02565b5b60200201356040518463ffffffff1660e01b815260040161332a93929190617cf1565b6040805180830381865afa158015613346573d6000803e3d6000fd5b505050506040513d601f19601f8201168201806040525081019061336a9190617d5b565b809450819550505060006133b4846133a6878b60c00160016004811061339357613392617b02565b5b602002013561749f90919063ffffffff16565b61749f90919063ffffffff16565b90508273ffffffffffffffffffffffffffffffffffffffff1663be42cae034838b8061014001906133e59190617e15565b30336040518763ffffffff1660e01b8152600401613407959493929190618297565b604080518083038185885af1158015613424573d6000803e3d6000fd5b50505050506040513d601f19601f820116820180604052508101906134499190617d5b565b80975081935050506000613478613469868861749f90919063ffffffff16565b8461753b90919063ffffffff16565b9050600073ffffffffffffffffffffffffffffffffffffffff16896000016002600681106134a9576134a8617b02565b5b6020020160208101906134bc91906179e4565b73ffffffffffffffffffffffffffffffffffffffff161461368b576135b885600660008c6000016002600681106134f6576134f5617b02565b5b60200201602081019061350991906179e4565b73ffffffffffffffffffffffffffffffffffffffff1673ffffffffffffffffffffffffffffffffffffffff16815260200190815260200160002060008c60000160056006811061355c5761355b617b02565b5b60200201602081019061356f91906179e4565b73ffffffffffffffffffffffffffffffffffffffff1673ffffffffffffffffffffffffffffffffffffffff1681526020019081526020016000205461749f90919063ffffffff16565b600660008b6000016002600681106135d3576135d2617b02565b5b6020020160208101906135e691906179e4565b73ffffffffffffffffffffffffffffffffffffffff1673ffffffffffffffffffffffffffffffffffffffff16815260200190815260200160002060008b60000160056006811061363957613638617b02565b5b60200201602081019061364c91906179e4565b73ffffffffffffffffffffffffffffffffffffffff1673ffffffffffffffffffffffffffffffffffffffff168152602001908152602001600020819055505b8861016001602081019061369f9190617db0565b1561391157888061014001906136b59190617e15565b60018b8061014001906136c89190617e15565b90506136d491906180dc565b8181106136e4576136e3617b02565b5b90506020020160208101906136f991906179e4565b73ffffffffffffffffffffffffffffffffffffffff1663095ea7b3600460009054906101000a900473ffffffffffffffffffffffffffffffffffffffff16836040518363ffffffff1660e01b8152600401613755929190617ddd565b6020604051808303816000875af1158015613774573d6000803e3d6000fd5b505050506040513d601f19601f820116820180604052508101906137989190617c32565b50600460009054906101000a900473ffffffffffffffffffffffffffffffffffffffff1673ffffffffffffffffffffffffffffffffffffffff1663495d20408a8061014001906137e89190617e15565b60018d8061014001906137fb9190617e15565b905061380791906180dc565b81811061381757613816617b02565b5b905060200201602081019061382c91906179e4565b8b60000160026006811061384357613842617b02565b5b60200201602081019061385691906179e4565b8c60000160006006811061386d5761386c617b02565b5b60200201602081019061388091906179e4565b8d6101800135868f60c00160026004811061389e5761389d617b02565b5b60200201356040518763ffffffff1660e01b81526004016138c49695949392919061815e565b60408051808303816000875af11580156138e2573d6000803e3d6000fd5b505050506040513d601f19601f820116820180604052508101906139069190617d5b565b905080985050613b9e565b888061014001906139229190617e15565b60018b8061014001906139359190617e15565b905061394191906180dc565b81811061395157613950617b02565b5b905060200201602081019061396691906179e4565b73ffffffffffffffffffffffffffffffffffffffff1663095ea7b3600560009054906101000a900473ffffffffffffffffffffffffffffffffffffffff16836040518363ffffffff1660e01b81526004016139c2929190617ddd565b6020604051808303816000875af11580156139e1573d6000803e3d6000fd5b505050506040513d601f19601f82011682018060405250810190613a059190617c32565b50600560009054906101000a900473ffffffffffffffffffffffffffffffffffffffff1673ffffffffffffffffffffffffffffffffffffffff16639614b9be8a806101400190613a559190617e15565b60018d806101400190613a689190617e15565b9050613a7491906180dc565b818110613a8457613a83617b02565b5b9050602002016020810190613a9991906179e4565b8b600001600160068110613ab057613aaf617b02565b5b602002016020810190613ac391906179e4565b8c600001600260068110613ada57613ad9617b02565b5b602002016020810190613aed91906179e4565b8d600001600060068110613b0457613b03617b02565b5b602002016020810190613b1791906179e4565b868f60c001600260048110613b2f57613b2e617b02565b5b60200201356040518763ffffffff1660e01b8152600401613b5596959493929190617f2d565b60408051808303816000875af1158015613b73573d6000803e3d6000fd5b505050506040513d601f19601f82011682018060405250810190613b979190617d5b565b9050809850505b88806101400190613baf9190617e15565b60018b806101400190613bc29190617e15565b9050613bce91906180dc565b818110613bde57613bdd617b02565b5b9050602002016020810190613bf391906179e4565b73ffffffffffffffffffffffffffffffffffffffff1689600001600160068110613c2057613c1f617b02565b5b602002016020810190613c3391906179e4565b73ffffffffffffffffffffffffffffffffffffffff167fa7ceaad963b2a247ab204dde6159e46a64d6b5caaeba1c664297b8cf35ec16dd338c600001600260068110613c8257613c81617b02565b5b602002016020810190613c9591906179e4565b8d60c001600160048110613cac57613cab617b02565b5b6020020135604051613cc093929190617bc3565b60405180910390a35050505060016000819055509193509193565b600080600060026000541415613d26576040517f08c379a0000000000000000000000000000000000000000000000000000000008152600401613d1d90617ae2565b60405180910390fd5b6002600081905550600073ffffffffffffffffffffffffffffffffffffffff1684600001600260068110613d5d57613d5c617b02565b5b602002016020810190613d7091906179e4565b73ffffffffffffffffffffffffffffffffffffffff161415613dc7576040517f08c379a0000000000000000000000000000000000000000000000000000000008152600401613dbe90617ba3565b60405180910390fd5b600084600001600160068110613de057613ddf617b02565b5b602002016020810190613df391906179e4565b90508073ffffffffffffffffffffffffffffffffffffffff166323b872dd33308860c001600060048110613e2a57613e29617b02565b5b60200201356040518463ffffffff1660e01b8152600401613e4d93929190617bc3565b6020604051808303816000875af1158015613e6c573d6000803e3d6000fd5b505050506040513d601f19601f82011682018060405250810190613e909190617c32565b613ecf576040517f08c379a0000000000000000000000000000000000000000000000000000000008152600401613ec690617cd1565b60405180910390fd5b600085610160016020810190613ee59190617db0565b156141445785600001600160068110613f0157613f00617b02565b5b602002016020810190613f1491906179e4565b73ffffffffffffffffffffffffffffffffffffffff1663095ea7b3600460009054906101000a900473ffffffffffffffffffffffffffffffffffffffff168860c001600060048110613f6957613f68617b02565b5b60200201356040518363ffffffff1660e01b8152600401613f8b929190617ddd565b6020604051808303816000875af1158015613faa573d6000803e3d6000fd5b505050506040513d601f19601f82011682018060405250810190613fce9190617c32565b50600460009054906101000a900473ffffffffffffffffffffffffffffffffffffffff1673ffffffffffffffffffffffffffffffffffffffff16637cbc8bfa8780610140019061401e9190617e15565b60008181106140305761402f617b02565b5b905060200201602081019061404591906179e4565b8860000160016006811061405c5761405b617b02565b5b60200201602081019061406f91906179e4565b308a60000160006006811061408757614086617b02565b5b60200201602081019061409a91906179e4565b8b61018001358c60c0016000600481106140b7576140b6617b02565b5b60200201358d60c0016001600481106140d3576140d2617b02565b5b60200201356040518863ffffffff1660e01b81526004016140fa9796959493929190617e91565b6020604051808303816000875af1158015614119573d6000803e3d6000fd5b505050506040513d601f19601f8201168201806040525081019061413d9190617f00565b9050614393565b8560000160016006811061415b5761415a617b02565b5b60200201602081019061416e91906179e4565b73ffffffffffffffffffffffffffffffffffffffff1663095ea7b3600560009054906101000a900473ffffffffffffffffffffffffffffffffffffffff168860c0016000600481106141c3576141c2617b02565b5b60200201356040518363ffffffff1660e01b81526004016141e5929190617ddd565b6020604051808303816000875af1158015614204573d6000803e3d6000fd5b505050506040513d601f19601f820116820180604052508101906142289190617c32565b50600560009054906101000a900473ffffffffffffffffffffffffffffffffffffffff1673ffffffffffffffffffffffffffffffffffffffff166332d505da878061014001906142789190617e15565b600081811061428a57614289617b02565b5b905060200201602081019061429f91906179e4565b886000016001600681106142b6576142b5617b02565b5b6020020160208101906142c991906179e4565b308a6000016000600681106142e1576142e0617b02565b5b6020020160208101906142f491906179e4565b8b60c00160006004811061430b5761430a617b02565b5b60200201358c60c00160016004811061432757614326617b02565b5b60200201356040518763ffffffff1660e01b815260040161434d96959493929190617f2d565b6020604051808303816000875af115801561436c573d6000803e3d6000fd5b505050506040513d601f19601f820116820180604052508101906143909190617f00565b90505b600360009054906101000a900473ffffffffffffffffffffffffffffffffffffffff1673ffffffffffffffffffffffffffffffffffffffff1663f8702fe1826040518060400160405280600581526020017f54524144450000000000000000000000000000000000000000000000000000008152508960c00160036004811061441f5761441e617b02565b5b60200201356040518463ffffffff1660e01b815260040161444293929190617cf1565b6040805180830381865afa15801561445e573d6000803e3d6000fd5b505050506040513d601f19601f820116820180604052508101906144829190617d5b565b80945081955050506144af6144a0848661749f90919063ffffffff16565b8261753b90919063ffffffff16565b9450600073ffffffffffffffffffffffffffffffffffffffff16866000016002600681106144e0576144df617b02565b5b6020020160208101906144f391906179e4565b73ffffffffffffffffffffffffffffffffffffffff16146146c2576145ef83600660008960000160026006811061452d5761452c617b02565b5b60200201602081019061454091906179e4565b73ffffffffffffffffffffffffffffffffffffffff1673ffffffffffffffffffffffffffffffffffffffff16815260200190815260200160002060008960000160056006811061459357614592617b02565b5b6020020160208101906145a691906179e4565b73ffffffffffffffffffffffffffffffffffffffff1673ffffffffffffffffffffffffffffffffffffffff1681526020019081526020016000205461749f90919063ffffffff16565b600660008860000160026006811061460a57614609617b02565b5b60200201602081019061461d91906179e4565b73ffffffffffffffffffffffffffffffffffffffff1673ffffffffffffffffffffffffffffffffffffffff1681526020019081526020016000206000886000016005600681106146705761466f617b02565b5b60200201602081019061468391906179e4565b73ffffffffffffffffffffffffffffffffffffffff1673ffffffffffffffffffffffffffffffffffffffff168152602001908152602001600020819055505b6001868061014001906146d59190617e15565b905011156148c9576000866000016004600681106146f6576146f5617b02565b5b60200201602081019061470991906179e4565b90508680610140019061471c9190617e15565b600081811061472e5761472d617b02565b5b905060200201602081019061474391906179e4565b73ffffffffffffffffffffffffffffffffffffffff1663095ea7b38860000160046006811061477557614774617b02565b5b60200201602081019061478891906179e4565b886040518363ffffffff1660e01b81526004016147a6929190617ddd565b6020604051808303816000875af11580156147c5573d6000803e3d6000fd5b505050506040513d601f19601f820116820180604052508101906147e99190617c32565b508073ffffffffffffffffffffffffffffffffffffffff1663472b43f3878960c00160026004811061481e5761481d617b02565b5b60200201358a8061014001906148349190617e15565b8c60000160026006811061484b5761484a617b02565b5b60200201602081019061485e91906179e4565b6040518663ffffffff1660e01b815260040161487e959493929190618110565b6020604051808303816000875af115801561489d573d6000803e3d6000fd5b505050506040513d601f19601f820116820180604052508101906148c19190617f00565b955050614955565b614954866000016002600681106148e3576148e2617b02565b5b6020020160208101906148f691906179e4565b86888061014001906149089190617e15565b600081811061491a57614919617b02565b5b905060200201602081019061492f91906179e4565b73ffffffffffffffffffffffffffffffffffffffff166174b59092919063ffffffff16565b5b858061014001906149669190617e15565b600081811061497857614977617b02565b5b905060200201602081019061498d91906179e4565b73ffffffffffffffffffffffffffffffffffffffff16868061014001906149b49190617e15565b6001898061014001906149c79190617e15565b90506149d391906180dc565b8181106149e3576149e2617b02565b5b90506020020160208101906149f891906179e4565b73ffffffffffffffffffffffffffffffffffffffff1687600001600160068110614a2557614a24617b02565b5b602002016020810190614a3891906179e4565b73ffffffffffffffffffffffffffffffffffffffff167f0343363b6a70c01693e26f20a7a4448d0d5861a92f3112cc0038661190de3750338a600001600260068110614a8757614a86617b02565b5b602002016020810190614a9a91906179e4565b8b60c001600160048110614ab157614ab0617b02565b5b6020020135604051614ac593929190617bc3565b60405180910390a4505060016000819055509193909250565b6040518060400160405280600581526020017f545241444500000000000000000000000000000000000000000000000000000081525081565b600080600060026000541415614b62576040517f08c379a0000000000000000000000000000000000000000000000000000000008152600401614b5990617ae2565b60405180910390fd5b6002600081905550600073ffffffffffffffffffffffffffffffffffffffff1684600001600260068110614b9957614b98617b02565b5b602002016020810190614bac91906179e4565b73ffffffffffffffffffffffffffffffffffffffff161415614c03576040517f08c379a0000000000000000000000000000000000000000000000000000000008152600401614bfa90617ba3565b60405180910390fd5b600084600001600160068110614c1c57614c1b617b02565b5b602002016020810190614c2f91906179e4565b90508073ffffffffffffffffffffffffffffffffffffffff166323b872dd33308860c001600060048110614c6657614c65617b02565b5b60200201356040518463ffffffff1660e01b8152600401614c8993929190617bc3565b6020604051808303816000875af1158015614ca8573d6000803e3d6000fd5b505050506040513d601f19601f82011682018060405250810190614ccc9190617c32565b614d0b576040517f08c379a0000000000000000000000000000000000000000000000000000000008152600401614d0290617cd1565b60405180910390fd5b600360009054906101000a900473ffffffffffffffffffffffffffffffffffffffff1673ffffffffffffffffffffffffffffffffffffffff1663f8702fe18660c001600160048110614d6057614d5f617b02565b5b60200201356040518060400160405280600581526020017f54524144450000000000000000000000000000000000000000000000000000008152508860c001600360048110614db257614db1617b02565b5b60200201356040518463ffffffff1660e01b8152600401614dd593929190617cf1565b6040805180830381865afa158015614df1573d6000803e3d6000fd5b505050506040513d601f19601f82011682018060405250810190614e159190617d5b565b80935081945050506000614e5f614e35848661749f90919063ffffffff16565b8760c001600160048110614e4c57614e4b617b02565b5b602002013561749f90919063ffffffff16565b905085610160016020810190614e759190617db0565b156150b95785600001600160068110614e9157614e90617b02565b5b602002016020810190614ea491906179e4565b73ffffffffffffffffffffffffffffffffffffffff1663095ea7b3600460009054906101000a900473ffffffffffffffffffffffffffffffffffffffff168860c001600060048110614ef957614ef8617b02565b5b60200201356040518363ffffffff1660e01b8152600401614f1b929190617ddd565b6020604051808303816000875af1158015614f3a573d6000803e3d6000fd5b505050506040513d601f19601f82011682018060405250810190614f5e9190617c32565b50600460009054906101000a900473ffffffffffffffffffffffffffffffffffffffff1673ffffffffffffffffffffffffffffffffffffffff16637cbc8bfa87806101400190614fae9190617e15565b6000818110614fc057614fbf617b02565b5b9050602002016020810190614fd591906179e4565b88600001600160068110614fec57614feb617b02565b5b602002016020810190614fff91906179e4565b308a60000160006006811061501757615016617b02565b5b60200201602081019061502a91906179e4565b8b61018001358c60c00160006004811061504757615046617b02565b5b6020020135886040518863ffffffff1660e01b815260040161506f9796959493929190617e91565b6020604051808303816000875af115801561508e573d6000803e3d6000fd5b505050506040513d601f19601f820116820180604052508101906150b29190617f00565b90506152ec565b856000016001600681106150d0576150cf617b02565b5b6020020160208101906150e391906179e4565b73ffffffffffffffffffffffffffffffffffffffff1663095ea7b3600560009054906101000a900473ffffffffffffffffffffffffffffffffffffffff168860c00160006004811061513857615137617b02565b5b60200201356040518363ffffffff1660e01b815260040161515a929190617ddd565b6020604051808303816000875af1158015615179573d6000803e3d6000fd5b505050506040513d601f19601f8201168201806040525081019061519d9190617c32565b50600560009054906101000a900473ffffffffffffffffffffffffffffffffffffffff1673ffffffffffffffffffffffffffffffffffffffff166327ccc152878061014001906151ed9190617e15565b60008181106151ff576151fe617b02565b5b905060200201602081019061521491906179e4565b8860000160016006811061522b5761522a617b02565b5b60200201602081019061523e91906179e4565b308a60000160006006811061525657615255617b02565b5b60200201602081019061526991906179e4565b8b60c0016000600481106152805761527f617b02565b5b6020020135876040518763ffffffff1660e01b81526004016152a796959493929190617f2d565b60408051808303816000875af11580156152c5573d6000803e3d6000fd5b505050506040513d601f19601f820116820180604052508101906152e99190617d5b565b50505b600073ffffffffffffffffffffffffffffffffffffffff168660000160026006811061531b5761531a617b02565b5b60200201602081019061532e91906179e4565b73ffffffffffffffffffffffffffffffffffffffff16146154fd5761542a83600660008960000160026006811061536857615367617b02565b5b60200201602081019061537b91906179e4565b73ffffffffffffffffffffffffffffffffffffffff1673ffffffffffffffffffffffffffffffffffffffff1681526020019081526020016000206000896000016005600681106153ce576153cd617b02565b5b6020020160208101906153e191906179e4565b73ffffffffffffffffffffffffffffffffffffffff1673ffffffffffffffffffffffffffffffffffffffff1681526020019081526020016000205461749f90919063ffffffff16565b600660008860000160026006811061544557615444617b02565b5b60200201602081019061545891906179e4565b73ffffffffffffffffffffffffffffffffffffffff1673ffffffffffffffffffffffffffffffffffffffff1681526020019081526020016000206000886000016005600681106154ab576154aa617b02565b5b6020020160208101906154be91906179e4565b73ffffffffffffffffffffffffffffffffffffffff1673ffffffffffffffffffffffffffffffffffffffff168152602001908152602001600020819055505b60008660000160046006811061551657615515617b02565b5b60200201602081019061552991906179e4565b90508680610140019061553c9190617e15565b600081811061554e5761554d617b02565b5b905060200201602081019061556391906179e4565b73ffffffffffffffffffffffffffffffffffffffff1663095ea7b38860000160046006811061559557615594617b02565b5b6020020160208101906155a891906179e4565b8960c0016001600481106155bf576155be617b02565b5b60200201356040518363ffffffff1660e01b81526004016155e1929190617ddd565b6020604051808303816000875af1158015615600573d6000803e3d6000fd5b505050506040513d601f19601f820116820180604052508101906156249190617c32565b508073ffffffffffffffffffffffffffffffffffffffff16633d6e17d48860c00160026004811061565857615657617b02565b5b60200201358960c00160016004811061567457615673617b02565b5b60200201358a80610140019061568a9190617e15565b8c6000016002600681106156a1576156a0617b02565b5b6020020160208101906156b491906179e4565b8d6000016002600681106156cb576156ca617b02565b5b6020020160208101906156de91906179e4565b6040518763ffffffff1660e01b81526004016156ff96959493929190618051565b60408051808303816000875af115801561571d573d6000803e3d6000fd5b505050506040513d601f19601f820116820180604052508101906157419190617d5b565b5080965050868061014001906157579190617e15565b600081811061576957615768617b02565b5b905060200201602081019061577e91906179e4565b73ffffffffffffffffffffffffffffffffffffffff16876000016001600681106157ab576157aa617b02565b5b6020020160208101906157be91906179e4565b73ffffffffffffffffffffffffffffffffffffffff167fce70b1a047faa7d87f629504d447306e251aba64cf8db9b8b724fca28076dfdc338a60000160026006811061580d5761580c617b02565b5b60200201602081019061582091906179e4565b8b60c00160016004811061583757615836617b02565b5b602002013560405161584b93929190617bc3565b60405180910390a350505060016000819055509193909250565b6000806000600260005414156158b0576040517f08c379a00000000000000000000000000000000000000000000000000000000081526004016158a790617ae2565b60405180910390fd5b6002600081905550600073ffffffffffffffffffffffffffffffffffffffff16846000016002600681106158e7576158e6617b02565b5b6020020160208101906158fa91906179e4565b73ffffffffffffffffffffffffffffffffffffffff161415615951576040517f08c379a000000000000000000000000000000000000000000000000000000000815260040161594890617ba3565b60405180910390fd5b60008460000160046006811061596a57615969617b02565b5b60200201602081019061597d91906179e4565b9050600360009054906101000a900473ffffffffffffffffffffffffffffffffffffffff1673ffffffffffffffffffffffffffffffffffffffff1663f8702fe18660c0016001600481106159d4576159d3617b02565b5b60200201356040518060400160405280600581526020017f54524144450000000000000000000000000000000000000000000000000000008152508860c001600360048110615a2657615a25617b02565b5b60200201356040518463ffffffff1660e01b8152600401615a4993929190617cf1565b6040805180830381865afa158015615a65573d6000803e3d6000fd5b505050506040513d601f19601f82011682018060405250810190615a899190617d5b565b809350819450505060008173ffffffffffffffffffffffffffffffffffffffff166312c6442f348860c001600160048110615ac757615ac6617b02565b5b602002013589806101400190615add9190617e15565b306040518663ffffffff1660e01b8152600401615afd94939291906182e5565b60206040518083038185885af1158015615b1b573d6000803e3d6000fd5b50505050506040513d601f19601f82011682018060405250810190615b409190617f00565b90506000615b69615b5a858761749f90919063ffffffff16565b8361753b90919063ffffffff16565b9050600073ffffffffffffffffffffffffffffffffffffffff1687600001600260068110615b9a57615b99617b02565b5b602002016020810190615bad91906179e4565b73ffffffffffffffffffffffffffffffffffffffff1614615d7c57615ca984600660008a600001600260068110615be757615be6617b02565b5b602002016020810190615bfa91906179e4565b73ffffffffffffffffffffffffffffffffffffffff1673ffffffffffffffffffffffffffffffffffffffff16815260200190815260200160002060008a600001600560068110615c4d57615c4c617b02565b5b602002016020810190615c6091906179e4565b73ffffffffffffffffffffffffffffffffffffffff1673ffffffffffffffffffffffffffffffffffffffff1681526020019081526020016000205461749f90919063ffffffff16565b6006600089600001600260068110615cc457615cc3617b02565b5b602002016020810190615cd791906179e4565b73ffffffffffffffffffffffffffffffffffffffff1673ffffffffffffffffffffffffffffffffffffffff168152602001908152602001600020600089600001600560068110615d2a57615d29617b02565b5b602002016020810190615d3d91906179e4565b73ffffffffffffffffffffffffffffffffffffffff1673ffffffffffffffffffffffffffffffffffffffff168152602001908152602001600020819055505b86610160016020810190615d909190617db0565b1561601c5786806101400190615da69190617e15565b600189806101400190615db99190617e15565b9050615dc591906180dc565b818110615dd557615dd4617b02565b5b9050602002016020810190615dea91906179e4565b73ffffffffffffffffffffffffffffffffffffffff1663095ea7b3600460009054906101000a900473ffffffffffffffffffffffffffffffffffffffff16836040518363ffffffff1660e01b8152600401615e46929190617ddd565b6020604051808303816000875af1158015615e65573d6000803e3d6000fd5b505050506040513d601f19601f82011682018060405250810190615e899190617c32565b50600460009054906101000a900473ffffffffffffffffffffffffffffffffffffffff1673ffffffffffffffffffffffffffffffffffffffff1663495d204088806101400190615ed99190617e15565b60018b806101400190615eec9190617e15565b9050615ef891906180dc565b818110615f0857615f07617b02565b5b9050602002016020810190615f1d91906179e4565b89600001600260068110615f3457615f33617b02565b5b602002016020810190615f4791906179e4565b8a600001600060068110615f5e57615f5d617b02565b5b602002016020810190615f7191906179e4565b8b6101800135868d60c001600260048110615f8f57615f8e617b02565b5b60200201356040518763ffffffff1660e01b8152600401615fb59695949392919061815e565b60408051808303816000875af1158015615fd3573d6000803e3d6000fd5b505050506040513d601f19601f82011682018060405250810190615ff79190617d5b565b50508660c0016002600481106160105761600f617b02565b5b602002013595506162a6565b8680610140019061602d9190617e15565b6001898061014001906160409190617e15565b905061604c91906180dc565b81811061605c5761605b617b02565b5b905060200201602081019061607191906179e4565b73ffffffffffffffffffffffffffffffffffffffff1663095ea7b3600560009054906101000a900473ffffffffffffffffffffffffffffffffffffffff16836040518363ffffffff1660e01b81526004016160cd929190617ddd565b6020604051808303816000875af11580156160ec573d6000803e3d6000fd5b505050506040513d601f19601f820116820180604052508101906161109190617c32565b50600560009054906101000a900473ffffffffffffffffffffffffffffffffffffffff1673ffffffffffffffffffffffffffffffffffffffff166377657408888061014001906161609190617e15565b60018b8061014001906161739190617e15565b905061617f91906180dc565b81811061618f5761618e617b02565b5b90506020020160208101906161a491906179e4565b896000016001600681106161bb576161ba617b02565b5b6020020160208101906161ce91906179e4565b8a6000016002600681106161e5576161e4617b02565b5b6020020160208101906161f891906179e4565b8b60000160006006811061620f5761620e617b02565b5b60200201602081019061622291906179e4565b868d60c00160026004811061623a57616239617b02565b5b60200201356040518763ffffffff1660e01b815260040161626096959493929190617f2d565b6020604051808303816000875af115801561627f573d6000803e3d6000fd5b505050506040513d601f19601f820116820180604052508101906162a39190617f00565b95505b868061014001906162b79190617e15565b6001898061014001906162ca9190617e15565b90506162d691906180dc565b8181106162e6576162e5617b02565b5b90506020020160208101906162fb91906179e4565b73ffffffffffffffffffffffffffffffffffffffff168760000160016006811061632857616327617b02565b5b60200201602081019061633b91906179e4565b73ffffffffffffffffffffffffffffffffffffffff167fa7ceaad963b2a247ab204dde6159e46a64d6b5caaeba1c664297b8cf35ec16dd338a60000160026006811061638a57616389617b02565b5b60200201602081019061639d91906179e4565b8b60c0016001600481106163b4576163b3617b02565b5b60200201356040516163c893929190617bc3565b60405180910390a350505060016000819055509193909250565b670de0b6b3a764000081565b6040518060400160405280600781526020017f554e5354414b450000000000000000000000000000000000000000000000000081525081565b6006602052816000526040600020602052806000526040600020600091509150505481565b60008060008060026000541415616498576040517f08c379a000000000000000000000000000000000000000000000000000000000815260040161648f90617ae2565b60405180910390fd5b6002600081905550600073ffffffffffffffffffffffffffffffffffffffff16856000016002600681106164cf576164ce617b02565b5b6020020160208101906164e291906179e4565b73ffffffffffffffffffffffffffffffffffffffff161415616539576040517f08c379a000000000000000000000000000000000000000000000000000000000815260040161653090617ba3565b60405180910390fd5b60008580610140019061654c9190617e15565b600081811061655e5761655d617b02565b5b905060200201602081019061657391906179e4565b90508073ffffffffffffffffffffffffffffffffffffffff166323b872dd33308960c0016000600481106165aa576165a9617b02565b5b60200201356040518463ffffffff1660e01b81526004016165cd93929190617bc3565b6020604051808303816000875af11580156165ec573d6000803e3d6000fd5b505050506040513d601f19601f820116820180604052508101906166109190617c32565b61664f576040517f08c379a000000000000000000000000000000000000000000000000000000000815260040161664690617cd1565b60405180910390fd5b600360009054906101000a900473ffffffffffffffffffffffffffffffffffffffff1673ffffffffffffffffffffffffffffffffffffffff1663f8702fe18760c0016001600481106166a4576166a3617b02565b5b60200201356040518060400160405280600581526020017f54524144450000000000000000000000000000000000000000000000000000008152508960c0016003600481106166f6576166f5617b02565b5b60200201356040518463ffffffff1660e01b815260040161671993929190617cf1565b6040805180830381865afa158015616735573d6000803e3d6000fd5b505050506040513d601f19601f820116820180604052508101906167599190617d5b565b809350819450505060006167a383616795868a60c00160016004811061678257616781617b02565b5b602002013561749f90919063ffffffff16565b61749f90919063ffffffff16565b90506001878061014001906167b89190617e15565b9050111561696a578173ffffffffffffffffffffffffffffffffffffffff1663095ea7b3886000016004600681106167f3576167f2617b02565b5b60200201602081019061680691906179e4565b8960c00160006004811061681d5761681c617b02565b5b60200201356040518363ffffffff1660e01b815260040161683f929190617ddd565b6020604051808303816000875af115801561685e573d6000803e3d6000fd5b505050506040513d601f19601f820116820180604052508101906168829190617c32565b5060008760000160046006811061689c5761689b617b02565b5b6020020160208101906168af91906179e4565b90508073ffffffffffffffffffffffffffffffffffffffff16635ec9ef61838a60c0016000600481106168e5576168e4617b02565b5b60200201358b8061014001906168fb9190617e15565b30336040518763ffffffff1660e01b815260040161691e96959493929190618051565b60408051808303816000875af115801561693c573d6000803e3d6000fd5b505050506040513d601f19601f820116820180604052508101906169609190617d5b565b8097508193505050505b6000616991616982858761749f90919063ffffffff16565b8361753b90919063ffffffff16565b9050600073ffffffffffffffffffffffffffffffffffffffff16886000016002600681106169c2576169c1617b02565b5b6020020160208101906169d591906179e4565b73ffffffffffffffffffffffffffffffffffffffff1614616ba457616ad184600660008b600001600260068110616a0f57616a0e617b02565b5b602002016020810190616a2291906179e4565b73ffffffffffffffffffffffffffffffffffffffff1673ffffffffffffffffffffffffffffffffffffffff16815260200190815260200160002060008b600001600560068110616a7557616a74617b02565b5b602002016020810190616a8891906179e4565b73ffffffffffffffffffffffffffffffffffffffff1673ffffffffffffffffffffffffffffffffffffffff1681526020019081526020016000205461749f90919063ffffffff16565b600660008a600001600260068110616aec57616aeb617b02565b5b602002016020810190616aff91906179e4565b73ffffffffffffffffffffffffffffffffffffffff1673ffffffffffffffffffffffffffffffffffffffff16815260200190815260200160002060008a600001600560068110616b5257616b51617b02565b5b602002016020810190616b6591906179e4565b73ffffffffffffffffffffffffffffffffffffffff1673ffffffffffffffffffffffffffffffffffffffff168152602001908152602001600020819055505b87610160016020810190616bb89190617db0565b15616e2a5787806101400190616bce9190617e15565b60018a806101400190616be19190617e15565b9050616bed91906180dc565b818110616bfd57616bfc617b02565b5b9050602002016020810190616c1291906179e4565b73ffffffffffffffffffffffffffffffffffffffff1663095ea7b3600460009054906101000a900473ffffffffffffffffffffffffffffffffffffffff16836040518363ffffffff1660e01b8152600401616c6e929190617ddd565b6020604051808303816000875af1158015616c8d573d6000803e3d6000fd5b505050506040513d601f19601f82011682018060405250810190616cb19190617c32565b50600460009054906101000a900473ffffffffffffffffffffffffffffffffffffffff1673ffffffffffffffffffffffffffffffffffffffff1663495d204089806101400190616d019190617e15565b60018c806101400190616d149190617e15565b9050616d2091906180dc565b818110616d3057616d2f617b02565b5b9050602002016020810190616d4591906179e4565b8a600001600260068110616d5c57616d5b617b02565b5b602002016020810190616d6f91906179e4565b8b600001600060068110616d8657616d85617b02565b5b602002016020810190616d9991906179e4565b8c6101800135868e60c001600260048110616db757616db6617b02565b5b60200201356040518763ffffffff1660e01b8152600401616ddd9695949392919061815e565b60408051808303816000875af1158015616dfb573d6000803e3d6000fd5b505050506040513d601f19601f82011682018060405250810190616e1f9190617d5b565b9050809750506170b7565b87806101400190616e3b9190617e15565b60018a806101400190616e4e9190617e15565b9050616e5a91906180dc565b818110616e6a57616e69617b02565b5b9050602002016020810190616e7f91906179e4565b73ffffffffffffffffffffffffffffffffffffffff1663095ea7b3600560009054906101000a900473ffffffffffffffffffffffffffffffffffffffff16836040518363ffffffff1660e01b8152600401616edb929190617ddd565b6020604051808303816000875af1158015616efa573d6000803e3d6000fd5b505050506040513d601f19601f82011682018060405250810190616f1e9190617c32565b50600560009054906101000a900473ffffffffffffffffffffffffffffffffffffffff1673ffffffffffffffffffffffffffffffffffffffff16639614b9be89806101400190616f6e9190617e15565b60018c806101400190616f819190617e15565b9050616f8d91906180dc565b818110616f9d57616f9c617b02565b5b9050602002016020810190616fb291906179e4565b8a600001600160068110616fc957616fc8617b02565b5b602002016020810190616fdc91906179e4565b8b600001600260068110616ff357616ff2617b02565b5b60200201602081019061700691906179e4565b8c60000160006006811061701d5761701c617b02565b5b60200201602081019061703091906179e4565b868e60c00160026004811061704857617047617b02565b5b60200201356040518763ffffffff1660e01b815260040161706e96959493929190617f2d565b60408051808303816000875af115801561708c573d6000803e3d6000fd5b505050506040513d601f19601f820116820180604052508101906170b09190617d5b565b9050809750505b878061014001906170c89190617e15565b60008181106170da576170d9617b02565b5b90506020020160208101906170ef91906179e4565b73ffffffffffffffffffffffffffffffffffffffff16888061014001906171169190617e15565b60018b8061014001906171299190617e15565b905061713591906180dc565b81811061714557617144617b02565b5b905060200201602081019061715a91906179e4565b73ffffffffffffffffffffffffffffffffffffffff168960000160016006811061718757617186617b02565b5b60200201602081019061719a91906179e4565b73ffffffffffffffffffffffffffffffffffffffff167f932d60095b1063cee12b6204f81843280ebc9693af98c86452b031edb66be23c338c6000016002600681106171e9576171e8617b02565b5b6020020160208101906171fc91906179e4565b8d60c00160016004811061721357617212617b02565b5b602002013560405161722793929190617bc3565b60405180910390a450505060016000819055509193509193565b600160009054906101000a900473ffffffffffffffffffffffffffffffffffffffff1681565b6000600260005414156172af576040517f08c379a00000000000000000000000000000000000000000000000000000000081526004016172a690617ae2565b60405180910390fd5b60026000819055506000839050600660008473ffffffffffffffffffffffffffffffffffffffff1673ffffffffffffffffffffffffffffffffffffffff16815260200190815260200160002060008573ffffffffffffffffffffffffffffffffffffffff1673ffffffffffffffffffffffffffffffffffffffff1681526020019081526020016000205491506000821161737e576040517f08c379a000000000000000000000000000000000000000000000000000000000815260040161737590618371565b60405180910390fd5b6000600660008573ffffffffffffffffffffffffffffffffffffffff1673ffffffffffffffffffffffffffffffffffffffff16815260200190815260200160002060008673ffffffffffffffffffffffffffffffffffffffff1673ffffffffffffffffffffffffffffffffffffffff1681526020019081526020016000208190555061742b83838373ffffffffffffffffffffffffffffffffffffffff166174b59092919063ffffffff16565b8373ffffffffffffffffffffffffffffffffffffffff168373ffffffffffffffffffffffffffffffffffffffff167f4931b6b0ef1b80f8ca6e6b27159d606870fbf438438d14aa8f01abb25e79eb12846040516174889190617886565b60405180910390a350600160008190555092915050565b600081836174ad9190618391565b905092915050565b6175368363a9059cbb60e01b84846040516024016174d4929190617ddd565b604051602081830303815290604052907bffffffffffffffffffffffffffffffffffffffffffffffffffffffff19166020820180517bffffffffffffffffffffffffffffffffffffffffffffffffffffffff8381831617835250505050617551565b505050565b6000818361754991906180dc565b905092915050565b60006175b3826040518060400160405280602081526020017f5361666545524332303a206c6f772d6c6576656c2063616c6c206661696c65648152508573ffffffffffffffffffffffffffffffffffffffff166176189092919063ffffffff16565b905060008151111561761357808060200190518101906175d39190617c32565b617612576040517f08c379a000000000000000000000000000000000000000000000000000000000815260040161760990618459565b60405180910390fd5b5b505050565b60606176278484600085617630565b90509392505050565b606082471015617675576040517f08c379a000000000000000000000000000000000000000000000000000000000815260040161766c906184eb565b60405180910390fd5b61767e85617744565b6176bd576040517f08c379a00000000000000000000000000000000000000000000000000000000081526004016176b490618557565b60405180910390fd5b6000808673ffffffffffffffffffffffffffffffffffffffff1685876040516176e691906185be565b60006040518083038185875af1925050503d8060008114617723576040519150601f19603f3d011682016040523d82523d6000602084013e617728565b606091505b5091509150617738828286617757565b92505050949350505050565b600080823b905060008111915050919050565b60608315617767578290506177b7565b60008351111561777a5782518084602001fd5b816040517f08c379a00000000000000000000000000000000000000000000000000000000081526004016177ae919061793a565b60405180910390fd5b9392505050565b600080fd5b600080fd5b600080fd5b60006101a082840312156177e4576177e36177c8565b5b81905092915050565b600060208284031215617803576178026177be565b5b600082013567ffffffffffffffff811115617821576178206177c3565b5b61782d848285016177cd565b91505092915050565b6000819050919050565b61784981617836565b82525050565b60006060820190506178646000830186617840565b6178716020830185617840565b61787e6040830184617840565b949350505050565b600060208201905061789b6000830184617840565b92915050565b600081519050919050565b600082825260208201905092915050565b60005b838110156178db5780820151818401526020810190506178c0565b838111156178ea576000848401525b50505050565b6000601f19601f8301169050919050565b600061790c826178a1565b61791681856178ac565b93506179268185602086016178bd565b61792f816178f0565b840191505092915050565b600060208201905081810360008301526179548184617901565b905092915050565b600073ffffffffffffffffffffffffffffffffffffffff82169050919050565b60006179878261795c565b9050919050565b6179978161797c565b82525050565b60006020820190506179b2600083018461798e565b92915050565b6179c18161797c565b81146179cc57600080fd5b50565b6000813590506179de816179b8565b92915050565b6000602082840312156179fa576179f96177be565b5b6000617a08848285016179cf565b91505092915050565b6000608082019050617a266000830187617840565b617a336020830186617840565b617a406040830185617840565b617a4d6060830184617840565b95945050505050565b60008060408385031215617a6d57617a6c6177be565b5b6000617a7b858286016179cf565b9250506020617a8c858286016179cf565b9150509250929050565b7f5265656e7472616e637947756172643a207265656e7472616e742063616c6c00600082015250565b6000617acc601f836178ac565b9150617ad782617a96565b602082019050919050565b60006020820190508181036000830152617afb81617abf565b9050919050565b7f4e487b7100000000000000000000000000000000000000000000000000000000600052603260045260246000fd5b7f5472616465526f757465723a2044657374696e6174696f6e206164647265737360008201527f206e6f742070726f766964656400000000000000000000000000000000000000602082015250565b6000617b8d602d836178ac565b9150617b9882617b31565b604082019050919050565b60006020820190508181036000830152617bbc81617b80565b9050919050565b6000606082019050617bd8600083018661798e565b617be5602083018561798e565b617bf26040830184617840565b949350505050565b60008115159050919050565b617c0f81617bfa565b8114617c1a57600080fd5b50565b600081519050617c2c81617c06565b92915050565b600060208284031215617c4857617c476177be565b5b6000617c5684828501617c1d565b91505092915050565b7f5472616465526f757465723a2053656c662d7472616e7366657220546f6b656e60008201527f496e204661696c65640000000000000000000000000000000000000000000000602082015250565b6000617cbb6029836178ac565b9150617cc682617c5f565b604082019050919050565b60006020820190508181036000830152617cea81617cae565b9050919050565b6000606082019050617d066000830186617840565b8181036020830152617d188185617901565b9050617d276040830184617840565b949350505050565b617d3881617836565b8114617d4357600080fd5b50565b600081519050617d5581617d2f565b92915050565b60008060408385031215617d7257617d716177be565b5b6000617d8085828601617d46565b9250506020617d9185828601617d46565b9150509250929050565b600081359050617daa81617c06565b92915050565b600060208284031215617dc657617dc56177be565b5b6000617dd484828501617d9b565b91505092915050565b6000604082019050617df2600083018561798e565b617dff6020830184617840565b9392505050565b600080fd5b600080fd5b600080fd5b60008083356001602003843603038112617e3257617e31617e06565b5b80840192508235915067ffffffffffffffff821115617e5457617e53617e0b565b5b602083019250602082023603831315617e7057617e6f617e10565b5b509250929050565b6000819050919050565b617e8b81617e78565b82525050565b600060e082019050617ea6600083018a61798e565b617eb3602083018961798e565b617ec0604083018861798e565b617ecd606083018761798e565b617eda6080830186617e82565b617ee760a0830185617840565b617ef460c0830184617840565b98975050505050505050565b600060208284031215617f1657617f156177be565b5b6000617f2484828501617d46565b91505092915050565b600060c082019050617f42600083018961798e565b617f4f602083018861798e565b617f5c604083018761798e565b617f69606083018661798e565b617f766080830185617840565b617f8360a0830184617840565b979650505050505050565b600082825260208201905092915050565b6000819050919050565b617fb28161797c565b82525050565b6000617fc48383617fa9565b60208301905092915050565b6000617fdf60208401846179cf565b905092915050565b6000602082019050919050565b60006180008385617f8e565b935061800b82617f9f565b8060005b85811015618044576180218284617fd0565b61802b8882617fb8565b975061803683617fe7565b92505060018101905061800f565b5085925050509392505050565b600060a0820190506180666000830189617840565b6180736020830188617840565b8181036040830152618086818688617ff4565b9050618095606083018561798e565b6180a2608083018461798e565b979650505050505050565b7f4e487b7100000000000000000000000000000000000000000000000000000000600052601160045260246000fd5b60006180e782617836565b91506180f283617836565b925082821015618105576181046180ad565b5b828203905092915050565b60006080820190506181256000830188617840565b6181326020830187617840565b8181036040830152618145818587617ff4565b9050618154606083018461798e565b9695505050505050565b600060c082019050618173600083018961798e565b618180602083018861798e565b61818d604083018761798e565b61819a6060830186617e82565b6181a76080830185617840565b6181b460a0830184617840565b979650505050505050565b7f61646d696e206f6e6c7900000000000000000000000000000000000000000000600082015250565b60006181f5600a836178ac565b9150618200826181bf565b602082019050919050565b60006020820190508181036000830152618224816181e8565b9050919050565b7f43616c6c6572206d757374206265207468652070656e64696e672061646d696e600082015250565b60006182616020836178ac565b915061826c8261822b565b602082019050919050565b6000602082019050818103600083015261829081618254565b9050919050565b60006080820190506182ac6000830188617840565b81810360208301526182bf818688617ff4565b90506182ce604083018561798e565b6182db606083018461798e565b9695505050505050565b60006060820190506182fa6000830187617840565b818103602083015261830d818587617ff4565b905061831c604083018461798e565b95945050505050565b7f5374616b65526f757465723a204e6f20746f6b656e7320746f20636c61696d00600082015250565b600061835b601f836178ac565b915061836682618325565b602082019050919050565b6000602082019050818103600083015261838a8161834e565b9050919050565b600061839c82617836565b91506183a783617836565b9250827fffffffffffffffffffffffffffffffffffffffffffffffffffffffffffffffff038211156183dc576183db6180ad565b5b828201905092915050565b7f5361666545524332303a204552433230206f7065726174696f6e20646964206e60008201527f6f74207375636365656400000000000000000000000000000000000000000000602082015250565b6000618443602a836178ac565b915061844e826183e7565b604082019050919050565b6000602082019050818103600083015261847281618436565b9050919050565b7f416464726573733a20696e73756666696369656e742062616c616e636520666f60008201527f722063616c6c0000000000000000000000000000000000000000000000000000602082015250565b60006184d56026836178ac565b91506184e082618479565b604082019050919050565b60006020820190508181036000830152618504816184c8565b9050919050565b7f416464726573733a2063616c6c20746f206e6f6e2d636f6e7472616374000000600082015250565b6000618541601d836178ac565b915061854c8261850b565b602082019050919050565b6000602082019050818103600083015261857081618534565b9050919050565b600081519050919050565b600081905092915050565b600061859882618577565b6185a28185618582565b93506185b28185602086016178bd565b80840191505092915050565b60006185ca828461858d565b91508190509291505056fea26469706673582212202a12d8922397ccb717431c87c305731c744ea3eccb2a1249a6d66ca8668883b564736f6c634300080c0033",
  "linkReferences": {},
  "deployedLinkReferences": {}
}