{
  "_format": "hh-sol-artifact-1",
  "contractName": "TradeCalc",
  "sourceName": "contracts/defi/routers/TradeCalc.sol",
  "abi": [
    {
      "inputs": [
        {
          "internalType": "address",
          "name": "_freRouter",
          "type": "address"
        },
        {
          "internalType": "address",
          "name": "_feeCalc",
          "type": "address"
        }
      ],
      "stateMutability": "nonpayable",
      "type": "constructor"
    },
    {
      "inputs": [],
      "name": "BONE",
      "outputs": [
        {
          "internalType": "uint256",
          "name": "",
          "type": "uint256"
        }
      ],
      "stateMutability": "view",
      "type": "function"
    },
    {
      "inputs": [],
      "name": "MAX_INT",
      "outputs": [
        {
          "internalType": "uint256",
          "name": "",
          "type": "uint256"
        }
      ],
      "stateMutability": "view",
      "type": "function"
    },
    {
      "inputs": [],
      "name": "STAKE_FEE_TYPE",
      "outputs": [
        {
          "internalType": "string",
          "name": "",
          "type": "string"
        }
      ],
      "stateMutability": "view",
      "type": "function"
    },
    {
      "inputs": [],
      "name": "TRADE_FEE_TYPE",
      "outputs": [
        {
          "internalType": "string",
          "name": "",
          "type": "string"
        }
      ],
      "stateMutability": "view",
      "type": "function"
    },
    {
      "inputs": [],
      "name": "UNSTAKE_FEE_TYPE",
      "outputs": [
        {
          "internalType": "string",
          "name": "",
          "type": "string"
        }
      ],
      "stateMutability": "view",
      "type": "function"
    },
    {
      "inputs": [],
      "name": "ZERO_FEES",
      "outputs": [
        {
          "internalType": "uint256",
          "name": "",
          "type": "uint256"
        }
      ],
      "stateMutability": "view",
      "type": "function"
    },
    {
      "inputs": [
        {
          "components": [
            {
              "internalType": "address[6]",
              "name": "meta",
              "type": "address[6]"
            },
            {
              "internalType": "uint256[4]",
              "name": "uints",
              "type": "uint256[4]"
            },
            {
              "internalType": "address[]",
              "name": "path",
              "type": "address[]"
            },
            {
              "internalType": "bool",
              "name": "isFRE",
              "type": "bool"
            },
            {
              "internalType": "bytes32",
              "name": "exchangeId",
              "type": "bytes32"
            }
          ],
          "internalType": "struct TradeCalc.TradeInfo",
          "name": "info",
          "type": "tuple"
        }
      ],
      "name": "calcDatatokenInGivenTokenOut",
      "outputs": [
        {
          "internalType": "uint256",
          "name": "dtAmountIn",
          "type": "uint256"
        },
        {
          "internalType": "uint256",
          "name": "baseAmountNeeded",
          "type": "uint256"
        },
        {
          "internalType": "uint256",
          "name": "dataxFee",
          "type": "uint256"
        },
        {
          "internalType": "uint256",
          "name": "refFee",
          "type": "uint256"
        }
      ],
      "stateMutability": "view",
      "type": "function"
    },
    {
      "inputs": [
        {
          "components": [
            {
              "internalType": "address[6]",
              "name": "meta",
              "type": "address[6]"
            },
            {
              "internalType": "uint256[4]",
              "name": "uints",
              "type": "uint256[4]"
            },
            {
              "internalType": "address[]",
              "name": "path",
              "type": "address[]"
            },
            {
              "internalType": "bool",
              "name": "isFRE",
              "type": "bool"
            },
            {
              "internalType": "bytes32",
              "name": "exchangeId",
              "type": "bytes32"
            }
          ],
          "internalType": "struct TradeCalc.TradeInfo",
          "name": "info",
          "type": "tuple"
        }
      ],
      "name": "calcDatatokenOutGivenTokenIn",
      "outputs": [
        {
          "internalType": "uint256",
          "name": "dtAmountOut",
          "type": "uint256"
        },
        {
          "internalType": "uint256",
          "name": "baseAmountNeeded",
          "type": "uint256"
        },
        {
          "internalType": "uint256",
          "name": "dataxFee",
          "type": "uint256"
        },
        {
          "internalType": "uint256",
          "name": "refFee",
          "type": "uint256"
        }
      ],
      "stateMutability": "view",
      "type": "function"
    },
    {
      "inputs": [
        {
          "components": [
            {
              "internalType": "address[6]",
              "name": "meta",
              "type": "address[6]"
            },
            {
              "internalType": "uint256[4]",
              "name": "uints",
              "type": "uint256[4]"
            },
            {
              "internalType": "address[]",
              "name": "path",
              "type": "address[]"
            },
            {
              "internalType": "bool",
              "name": "isFRE",
              "type": "bool"
            },
            {
              "internalType": "bytes32",
              "name": "exchangeId",
              "type": "bytes32"
            }
          ],
          "internalType": "struct TradeCalc.TradeInfo",
          "name": "info",
          "type": "tuple"
        }
      ],
      "name": "calcTokenInGivenDatatokenOut",
      "outputs": [
        {
          "internalType": "uint256",
          "name": "tokenAmountIn",
          "type": "uint256"
        },
        {
          "internalType": "uint256",
          "name": "baseAmountNeeded",
          "type": "uint256"
        },
        {
          "internalType": "uint256",
          "name": "dataxFee",
          "type": "uint256"
        },
        {
          "internalType": "uint256",
          "name": "refFee",
          "type": "uint256"
        }
      ],
      "stateMutability": "view",
      "type": "function"
    },
    {
      "inputs": [
        {
          "components": [
            {
              "internalType": "address[6]",
              "name": "meta",
              "type": "address[6]"
            },
            {
              "internalType": "uint256[4]",
              "name": "uints",
              "type": "uint256[4]"
            },
            {
              "internalType": "address[]",
              "name": "path",
              "type": "address[]"
            },
            {
              "internalType": "bool",
              "name": "isFRE",
              "type": "bool"
            },
            {
              "internalType": "bytes32",
              "name": "exchangeId",
              "type": "bytes32"
            }
          ],
          "internalType": "struct TradeCalc.TradeInfo",
          "name": "info",
          "type": "tuple"
        }
      ],
      "name": "calcTokenOutGivenDatatokenIn",
      "outputs": [
        {
          "internalType": "uint256",
          "name": "tokenAmountOut",
          "type": "uint256"
        },
        {
          "internalType": "uint256",
          "name": "baseAmountNeeded",
          "type": "uint256"
        },
        {
          "internalType": "uint256",
          "name": "dataxFee",
          "type": "uint256"
        },
        {
          "internalType": "uint256",
          "name": "refFee",
          "type": "uint256"
        }
      ],
      "stateMutability": "view",
      "type": "function"
    }
  ],
  "bytecode": "0x60806040523480156200001157600080fd5b5060405162001efe38038062001efe83398181016040528101906200003791906200012a565b81600160006101000a81548173ffffffffffffffffffffffffffffffffffffffff021916908373ffffffffffffffffffffffffffffffffffffffff160217905550806000806101000a81548173ffffffffffffffffffffffffffffffffffffffff021916908373ffffffffffffffffffffffffffffffffffffffff160217905550505062000171565b600080fd5b600073ffffffffffffffffffffffffffffffffffffffff82169050919050565b6000620000f282620000c5565b9050919050565b6200010481620000e5565b81146200011057600080fd5b50565b6000815190506200012481620000f9565b92915050565b60008060408385031215620001445762000143620000c0565b5b6000620001548582860162000113565b9250506020620001678582860162000113565b9150509250929050565b611d7d80620001816000396000f3fe608060405234801561001057600080fd5b506004361061009e5760003560e01c80632d190678116100665780632d190678146101635780639cac5bc314610196578063c36596a6146101b4578063d09484c2146101d2578063e7c13c82146101f05761009e565b80630729747f146100a3578063098d3228146100d65780631159c736146100f4578063220ab80c146101275780632b6e01db14610145575b600080fd5b6100bd60048036038101906100b89190611504565b610223565b6040516100cd9493929190611566565b60405180910390f35b6100de610687565b6040516100eb91906115ab565b60405180910390f35b61010e60048036038101906101099190611504565b6106ab565b60405161011e9493929190611566565b60405180910390f35b61012f610b15565b60405161013c919061165f565b60405180910390f35b61014d610b4e565b60405161015a91906115ab565b60405180910390f35b61017d60048036038101906101789190611504565b610b53565b60405161018d9493929190611566565b60405180910390f35b61019e610fb1565b6040516101ab919061165f565b60405180910390f35b6101bc610fea565b6040516101c991906115ab565b60405180910390f35b6101da610ff6565b6040516101e7919061165f565b60405180910390f35b61020a60048036038101906102059190611504565b61102f565b60405161021a9493929190611566565b60405180910390f35b6000806000808460c0016002600481106102405761023f611681565b5b6020020135925060018580610140019061025a91906116bf565b905011156103625760008560000160046006811061027b5761027a611681565b5b60200201602081019061028e9190611780565b905060008173ffffffffffffffffffffffffffffffffffffffff16631f00ca748860c0016002600481106102c5576102c4611681565b5b6020020135898061014001906102db91906116bf565b6040518463ffffffff1660e01b81526004016102f993929190611870565b600060405180830381865afa158015610316573d6000803e3d6000fd5b505050506040513d6000823e3d601f19601f8201168201806040525081019061033f9190611a16565b90508060008151811061035557610354611681565b5b6020026020010151945050505b60008054906101000a900473ffffffffffffffffffffffffffffffffffffffff1673ffffffffffffffffffffffffffffffffffffffff1663f8702fe1846040518060400160405280600581526020017f54524144450000000000000000000000000000000000000000000000000000008152508860c0016003600481106103ec576103eb611681565b5b60200201356040518463ffffffff1660e01b815260040161040f93929190611a5f565b6040805180830381865afa15801561042b573d6000803e3d6000fd5b505050506040513d601f19601f8201168201806040525081019061044f9190611a9d565b8092508193505050600061047e61046f838561149f90919063ffffffff16565b8561149f90919063ffffffff16565b9050856101600160208101906104949190611b15565b1561056e57600160009054906101000a900473ffffffffffffffffffffffffffffffffffffffff1673ffffffffffffffffffffffffffffffffffffffff1663687676ab876000016000600681106104ee576104ed611681565b5b6020020160208101906105019190611780565b886101800135846040518463ffffffff1660e01b815260040161052693929190611b6a565b602060405180830381865afa158015610543573d6000803e3d6000fd5b505050506040513d601f19601f820116820180604052508101906105679190611ba1565b945061067f565b60008660000160006006811061058757610586611681565b5b60200201602081019061059a9190611780565b90508073ffffffffffffffffffffffffffffffffffffffff1663caa01148886000016001600681106105cf576105ce611681565b5b6020020160208101906105e29190611780565b896000016005600681106105f9576105f8611681565b5b60200201602081019061060c9190611780565b8560006040518563ffffffff1660e01b815260040161062e9493929190611bce565b60a060405180830381865afa15801561064b573d6000803e3d6000fd5b505050506040513d601f19601f8201168201806040525081019061066f9190611c13565b9091925090915090505080965050505b509193509193565b7fffffffffffffffffffffffffffffffffffffffffffffffffffffffffffffffff81565b600080600080846101600160208101906106c59190611b15565b156107ba57600160009054906101000a900473ffffffffffffffffffffffffffffffffffffffff1673ffffffffffffffffffffffffffffffffffffffff166398f7e7e58660000160006006811061071f5761071e611681565b5b6020020160208101906107329190611780565b8761018001358860c00160006004811061074f5761074e611681565b5b60200201356040518463ffffffff1660e01b815260040161077293929190611b6a565b602060405180830381865afa15801561078f573d6000803e3d6000fd5b505050506040513d601f19601f820116820180604052508101906107b39190611ba1565b92506108e6565b6000856000016000600681106107d3576107d2611681565b5b6020020160208101906107e69190611780565b90508073ffffffffffffffffffffffffffffffffffffffff16632eebd6ae8760000160016006811061081b5761081a611681565b5b60200201602081019061082e9190611780565b8860000160056006811061084557610844611681565b5b6020020160208101906108589190611780565b8960c00160006004811061086f5761086e611681565b5b602002013560006040518563ffffffff1660e01b81526004016108959493929190611bce565b60a060405180830381865afa1580156108b2573d6000803e3d6000fd5b505050506040513d601f19601f820116820180604052508101906108d69190611c13565b9091925090915090505080945050505b60008054906101000a900473ffffffffffffffffffffffffffffffffffffffff1673ffffffffffffffffffffffffffffffffffffffff1663f8702fe1846040518060400160405280600581526020017f54524144450000000000000000000000000000000000000000000000000000008152508860c0016003600481106109705761096f611681565b5b60200201356040518463ffffffff1660e01b815260040161099393929190611a5f565b6040805180830381865afa1580156109af573d6000803e3d6000fd5b505050506040513d601f19601f820116820180604052508101906109d39190611a9d565b8092508193505050610a006109f1828461149f90919063ffffffff16565b846114b590919063ffffffff16565b9350600185806101400190610a1591906116bf565b90501115610b0e57600085600001600460068110610a3657610a35611681565b5b602002016020810190610a499190611780565b905060008173ffffffffffffffffffffffffffffffffffffffff1663d06ca61f8789806101400190610a7b91906116bf565b6040518463ffffffff1660e01b8152600401610a9993929190611870565b600060405180830381865afa158015610ab6573d6000803e3d6000fd5b505050506040513d6000823e3d601f19601f82011682018060405250810190610adf9190611a16565b90508060018251610af09190611cbd565b81518110610b0157610b00611681565b5b6020026020010151955050505b9193509193565b6040518060400160405280600581526020017f5354414b4500000000000000000000000000000000000000000000000000000081525081565b600081565b60008060008084610160016020810190610b6d9190611b15565b15610c6257600160009054906101000a900473ffffffffffffffffffffffffffffffffffffffff1673ffffffffffffffffffffffffffffffffffffffff16631f05551c86600001600060068110610bc757610bc6611681565b5b602002016020810190610bda9190611780565b8761018001358860c001600260048110610bf757610bf6611681565b5b60200201356040518463ffffffff1660e01b8152600401610c1a93929190611b6a565b602060405180830381865afa158015610c37573d6000803e3d6000fd5b505050506040513d601f19601f82011682018060405250810190610c5b9190611ba1565b9250610d8e565b600085600001600060068110610c7b57610c7a611681565b5b602002016020810190610c8e9190611780565b90508073ffffffffffffffffffffffffffffffffffffffff1663caa0114887600001600560068110610cc357610cc2611681565b5b602002016020810190610cd69190611780565b88600001600160068110610ced57610cec611681565b5b602002016020810190610d009190611780565b8960c001600260048110610d1757610d16611681565b5b602002013560006040518563ffffffff1660e01b8152600401610d3d9493929190611bce565b60a060405180830381865afa158015610d5a573d6000803e3d6000fd5b505050506040513d601f19601f82011682018060405250810190610d7e9190611c13565b9091925090915090505080945050505b60008054906101000a900473ffffffffffffffffffffffffffffffffffffffff1673ffffffffffffffffffffffffffffffffffffffff1663f8702fe1846040518060400160405280600581526020017f54524144450000000000000000000000000000000000000000000000000000008152508860c001600360048110610e1857610e17611681565b5b60200201356040518463ffffffff1660e01b8152600401610e3b93929190611a5f565b6040805180830381865afa158015610e57573d6000803e3d6000fd5b505050506040513d601f19601f82011682018060405250810190610e7b9190611a9d565b8092508193505050610ea8610e99828461149f90919063ffffffff16565b8461149f90919063ffffffff16565b9350600185806101400190610ebd91906116bf565b90501115610faa57600085600001600460068110610ede57610edd611681565b5b602002016020810190610ef19190611780565b905060008173ffffffffffffffffffffffffffffffffffffffff16631f00ca748789806101400190610f2391906116bf565b6040518463ffffffff1660e01b8152600401610f4193929190611870565b600060405180830381865afa158015610f5e573d6000803e3d6000fd5b505050506040513d6000823e3d601f19601f82011682018060405250810190610f879190611a16565b905080600081518110610f9d57610f9c611681565b5b6020026020010151955050505b9193509193565b6040518060400160405280600581526020017f545241444500000000000000000000000000000000000000000000000000000081525081565b670de0b6b3a764000081565b6040518060400160405280600781526020017f554e5354414b450000000000000000000000000000000000000000000000000081525081565b6000806000808460c00160006004811061104c5761104b611681565b5b6020020135925060018580610140019061106691906116bf565b9050111561117a5760008560000160046006811061108757611086611681565b5b60200201602081019061109a9190611780565b905060008173ffffffffffffffffffffffffffffffffffffffff1663d06ca61f8860c0016000600481106110d1576110d0611681565b5b6020020135898061014001906110e791906116bf565b6040518463ffffffff1660e01b815260040161110593929190611870565b600060405180830381865afa158015611122573d6000803e3d6000fd5b505050506040513d6000823e3d601f19601f8201168201806040525081019061114b9190611a16565b9050806001825161115c9190611cbd565b8151811061116d5761116c611681565b5b6020026020010151945050505b60008054906101000a900473ffffffffffffffffffffffffffffffffffffffff1673ffffffffffffffffffffffffffffffffffffffff1663f8702fe1846040518060400160405280600581526020017f54524144450000000000000000000000000000000000000000000000000000008152508860c00160036004811061120457611203611681565b5b60200201356040518463ffffffff1660e01b815260040161122793929190611a5f565b6040805180830381865afa158015611243573d6000803e3d6000fd5b505050506040513d601f19601f820116820180604052508101906112679190611a9d565b80925081935050506000611296611287838561149f90919063ffffffff16565b856114b590919063ffffffff16565b9050856101600160208101906112ac9190611b15565b1561138657600160009054906101000a900473ffffffffffffffffffffffffffffffffffffffff1673ffffffffffffffffffffffffffffffffffffffff1663c909e40a8760000160006006811061130657611305611681565b5b6020020160208101906113199190611780565b886101800135846040518463ffffffff1660e01b815260040161133e93929190611b6a565b602060405180830381865afa15801561135b573d6000803e3d6000fd5b505050506040513d601f19601f8201168201806040525081019061137f9190611ba1565b9450611497565b60008660000160006006811061139f5761139e611681565b5b6020020160208101906113b29190611780565b90508073ffffffffffffffffffffffffffffffffffffffff16632eebd6ae886000016005600681106113e7576113e6611681565b5b6020020160208101906113fa9190611780565b8960000160016006811061141157611410611681565b5b6020020160208101906114249190611780565b8560006040518563ffffffff1660e01b81526004016114469493929190611bce565b60a060405180830381865afa158015611463573d6000803e3d6000fd5b505050506040513d601f19601f820116820180604052508101906114879190611c13565b9091925090915090505080965050505b509193509193565b600081836114ad9190611cf1565b905092915050565b600081836114c39190611cbd565b905092915050565b6000604051905090565b600080fd5b600080fd5b600080fd5b60006101a082840312156114fb576114fa6114df565b5b81905092915050565b60006020828403121561151a576115196114d5565b5b600082013567ffffffffffffffff811115611538576115376114da565b5b611544848285016114e4565b91505092915050565b6000819050919050565b6115608161154d565b82525050565b600060808201905061157b6000830187611557565b6115886020830186611557565b6115956040830185611557565b6115a26060830184611557565b95945050505050565b60006020820190506115c06000830184611557565b92915050565b600081519050919050565b600082825260208201905092915050565b60005b838110156116005780820151818401526020810190506115e5565b8381111561160f576000848401525b50505050565b6000601f19601f8301169050919050565b6000611631826115c6565b61163b81856115d1565b935061164b8185602086016115e2565b61165481611615565b840191505092915050565b600060208201905081810360008301526116798184611626565b905092915050565b7f4e487b7100000000000000000000000000000000000000000000000000000000600052603260045260246000fd5b600080fd5b600080fd5b600080fd5b600080833560016020038436030381126116dc576116db6116b0565b5b80840192508235915067ffffffffffffffff8211156116fe576116fd6116b5565b5b60208301925060208202360383131561171a576117196116ba565b5b509250929050565b600073ffffffffffffffffffffffffffffffffffffffff82169050919050565b600061174d82611722565b9050919050565b61175d81611742565b811461176857600080fd5b50565b60008135905061177a81611754565b92915050565b600060208284031215611796576117956114d5565b5b60006117a48482850161176b565b91505092915050565b600082825260208201905092915050565b6000819050919050565b6117d181611742565b82525050565b60006117e383836117c8565b60208301905092915050565b60006117fe602084018461176b565b905092915050565b6000602082019050919050565b600061181f83856117ad565b935061182a826117be565b8060005b858110156118635761184082846117ef565b61184a88826117d7565b975061185583611806565b92505060018101905061182e565b5085925050509392505050565b60006040820190506118856000830186611557565b8181036020830152611898818486611813565b9050949350505050565b600080fd5b7f4e487b7100000000000000000000000000000000000000000000000000000000600052604160045260246000fd5b6118df82611615565b810181811067ffffffffffffffff821117156118fe576118fd6118a7565b5b80604052505050565b60006119116114cb565b905061191d82826118d6565b919050565b600067ffffffffffffffff82111561193d5761193c6118a7565b5b602082029050602081019050919050565b600080fd5b61195c8161154d565b811461196757600080fd5b50565b60008151905061197981611953565b92915050565b600061199261198d84611922565b611907565b905080838252602082019050602084028301858111156119b5576119b461194e565b5b835b818110156119de57806119ca888261196a565b8452602084019350506020810190506119b7565b5050509392505050565b600082601f8301126119fd576119fc6118a2565b5b8151611a0d84826020860161197f565b91505092915050565b600060208284031215611a2c57611a2b6114d5565b5b600082015167ffffffffffffffff811115611a4a57611a496114da565b5b611a56848285016119e8565b91505092915050565b6000606082019050611a746000830186611557565b8181036020830152611a868185611626565b9050611a956040830184611557565b949350505050565b60008060408385031215611ab457611ab36114d5565b5b6000611ac28582860161196a565b9250506020611ad38582860161196a565b9150509250929050565b60008115159050919050565b611af281611add565b8114611afd57600080fd5b50565b600081359050611b0f81611ae9565b92915050565b600060208284031215611b2b57611b2a6114d5565b5b6000611b3984828501611b00565b91505092915050565b611b4b81611742565b82525050565b6000819050919050565b611b6481611b51565b82525050565b6000606082019050611b7f6000830186611b42565b611b8c6020830185611b5b565b611b996040830184611557565b949350505050565b600060208284031215611bb757611bb66114d5565b5b6000611bc58482850161196a565b91505092915050565b6000608082019050611be36000830187611b42565b611bf06020830186611b42565b611bfd6040830185611557565b611c0a6060830184611557565b95945050505050565b600080600080600060a08688031215611c2f57611c2e6114d5565b5b6000611c3d8882890161196a565b9550506020611c4e8882890161196a565b9450506040611c5f8882890161196a565b9350506060611c708882890161196a565b9250506080611c818882890161196a565b9150509295509295909350565b7f4e487b7100000000000000000000000000000000000000000000000000000000600052601160045260246000fd5b6000611cc88261154d565b9150611cd38361154d565b925082821015611ce657611ce5611c8e565b5b828203905092915050565b6000611cfc8261154d565b9150611d078361154d565b9250827fffffffffffffffffffffffffffffffffffffffffffffffffffffffffffffffff03821115611d3c57611d3b611c8e565b5b82820190509291505056fea264697066735822122035443d882d680a2debf534d7d1278288d29ee01e2296cf5a1c4e898d2a64e5dc64736f6c634300080c0033",
  "linkReferences": {},
  "deployedLinkReferences": {}
}