{
  "_format": "hh-sol-artifact-1",
  "contractName": "TradeCalc",
  "sourceName": "contracts/defi/routers/TradeCalc.sol",
  "abi": [
    {
      "inputs": [
        {
          "internalType": "address",
          "name": "_freRouter",
          "type": "address"
        },
        {
          "internalType": "address",
          "name": "_feeCalc",
          "type": "address"
        }
      ],
      "stateMutability": "nonpayable",
      "type": "constructor"
    },
    {
      "inputs": [],
      "name": "BONE",
      "outputs": [
        {
          "internalType": "uint256",
          "name": "",
          "type": "uint256"
        }
      ],
      "stateMutability": "view",
      "type": "function"
    },
    {
      "inputs": [],
      "name": "BPOW_PRECISION",
      "outputs": [
        {
          "internalType": "uint256",
          "name": "",
          "type": "uint256"
        }
      ],
      "stateMutability": "view",
      "type": "function"
    },
    {
      "inputs": [],
      "name": "MAX_BPOW_BASE",
      "outputs": [
        {
          "internalType": "uint256",
          "name": "",
          "type": "uint256"
        }
      ],
      "stateMutability": "view",
      "type": "function"
    },
    {
      "inputs": [],
      "name": "MAX_INT",
      "outputs": [
        {
          "internalType": "uint256",
          "name": "",
          "type": "uint256"
        }
      ],
      "stateMutability": "view",
      "type": "function"
    },
    {
      "inputs": [],
      "name": "MIN_BPOW_BASE",
      "outputs": [
        {
          "internalType": "uint256",
          "name": "",
          "type": "uint256"
        }
      ],
      "stateMutability": "view",
      "type": "function"
    },
    {
      "inputs": [],
      "name": "STAKE_FEE_TYPE",
      "outputs": [
        {
          "internalType": "string",
          "name": "",
          "type": "string"
        }
      ],
      "stateMutability": "view",
      "type": "function"
    },
    {
      "inputs": [],
      "name": "TRADE_FEE_TYPE",
      "outputs": [
        {
          "internalType": "string",
          "name": "",
          "type": "string"
        }
      ],
      "stateMutability": "view",
      "type": "function"
    },
    {
      "inputs": [],
      "name": "UNSTAKE_FEE_TYPE",
      "outputs": [
        {
          "internalType": "string",
          "name": "",
          "type": "string"
        }
      ],
      "stateMutability": "view",
      "type": "function"
    },
    {
      "inputs": [],
      "name": "ZERO_FEES",
      "outputs": [
        {
          "internalType": "uint256",
          "name": "",
          "type": "uint256"
        }
      ],
      "stateMutability": "view",
      "type": "function"
    },
    {
      "inputs": [
        {
          "components": [
            {
              "internalType": "address[6]",
              "name": "meta",
              "type": "address[6]"
            },
            {
              "internalType": "uint256[4]",
              "name": "uints",
              "type": "uint256[4]"
            },
            {
              "internalType": "address[]",
              "name": "path",
              "type": "address[]"
            },
            {
              "internalType": "bool",
              "name": "isFRE",
              "type": "bool"
            },
            {
              "internalType": "bytes32",
              "name": "exchangeId",
              "type": "bytes32"
            }
          ],
          "internalType": "struct TradeCalc.TradeInfo",
          "name": "info",
          "type": "tuple"
        }
      ],
      "name": "calcDatatokenInGivenTokenOut",
      "outputs": [
        {
          "internalType": "uint256",
          "name": "dtAmountIn",
          "type": "uint256"
        },
        {
          "internalType": "uint256",
          "name": "baseAmountNeeded",
          "type": "uint256"
        },
        {
          "internalType": "uint256",
          "name": "dataxFee",
          "type": "uint256"
        },
        {
          "internalType": "uint256",
          "name": "refFee",
          "type": "uint256"
        }
      ],
      "stateMutability": "view",
      "type": "function"
    },
    {
      "inputs": [
        {
          "components": [
            {
              "internalType": "address[6]",
              "name": "meta",
              "type": "address[6]"
            },
            {
              "internalType": "uint256[4]",
              "name": "uints",
              "type": "uint256[4]"
            },
            {
              "internalType": "address[]",
              "name": "path",
              "type": "address[]"
            },
            {
              "internalType": "bool",
              "name": "isFRE",
              "type": "bool"
            },
            {
              "internalType": "bytes32",
              "name": "exchangeId",
              "type": "bytes32"
            }
          ],
          "internalType": "struct TradeCalc.TradeInfo",
          "name": "info",
          "type": "tuple"
        }
      ],
      "name": "calcDatatokenOutGivenTokenIn",
      "outputs": [
        {
          "internalType": "uint256",
          "name": "dtAmountOut",
          "type": "uint256"
        },
        {
          "internalType": "uint256",
          "name": "baseAmountNeeded",
          "type": "uint256"
        },
        {
          "internalType": "uint256",
          "name": "dataxFee",
          "type": "uint256"
        },
        {
          "internalType": "uint256",
          "name": "refFee",
          "type": "uint256"
        }
      ],
      "stateMutability": "view",
      "type": "function"
    },
    {
      "inputs": [
        {
          "components": [
            {
              "internalType": "address[6]",
              "name": "meta",
              "type": "address[6]"
            },
            {
              "internalType": "uint256[4]",
              "name": "uints",
              "type": "uint256[4]"
            },
            {
              "internalType": "address[]",
              "name": "path",
              "type": "address[]"
            },
            {
              "internalType": "bool",
              "name": "isFRE",
              "type": "bool"
            },
            {
              "internalType": "bytes32",
              "name": "exchangeId",
              "type": "bytes32"
            }
          ],
          "internalType": "struct TradeCalc.TradeInfo",
          "name": "info",
          "type": "tuple"
        }
      ],
      "name": "calcTokenInGivenDatatokenOut",
      "outputs": [
        {
          "internalType": "uint256",
          "name": "tokenAmountIn",
          "type": "uint256"
        },
        {
          "internalType": "uint256",
          "name": "baseAmountNeeded",
          "type": "uint256"
        },
        {
          "internalType": "uint256",
          "name": "dataxFee",
          "type": "uint256"
        },
        {
          "internalType": "uint256",
          "name": "refFee",
          "type": "uint256"
        }
      ],
      "stateMutability": "view",
      "type": "function"
    },
    {
      "inputs": [
        {
          "components": [
            {
              "internalType": "address[6]",
              "name": "meta",
              "type": "address[6]"
            },
            {
              "internalType": "uint256[4]",
              "name": "uints",
              "type": "uint256[4]"
            },
            {
              "internalType": "address[]",
              "name": "path",
              "type": "address[]"
            },
            {
              "internalType": "bool",
              "name": "isFRE",
              "type": "bool"
            },
            {
              "internalType": "bytes32",
              "name": "exchangeId",
              "type": "bytes32"
            }
          ],
          "internalType": "struct TradeCalc.TradeInfo",
          "name": "info",
          "type": "tuple"
        }
      ],
      "name": "calcTokenOutGivenDatatokenIn",
      "outputs": [
        {
          "internalType": "uint256",
          "name": "tokenAmountOut",
          "type": "uint256"
        },
        {
          "internalType": "uint256",
          "name": "baseAmountNeeded",
          "type": "uint256"
        },
        {
          "internalType": "uint256",
          "name": "dataxFee",
          "type": "uint256"
        },
        {
          "internalType": "uint256",
          "name": "refFee",
          "type": "uint256"
        }
      ],
      "stateMutability": "view",
      "type": "function"
    }
  ],
  "bytecode": "0x60806040523480156200001157600080fd5b50604051620020883803806200208883398181016040528101906200003791906200012a565b81600160006101000a81548173ffffffffffffffffffffffffffffffffffffffff021916908373ffffffffffffffffffffffffffffffffffffffff160217905550806000806101000a81548173ffffffffffffffffffffffffffffffffffffffff021916908373ffffffffffffffffffffffffffffffffffffffff160217905550505062000171565b600080fd5b600073ffffffffffffffffffffffffffffffffffffffff82169050919050565b6000620000f282620000c5565b9050919050565b6200010481620000e5565b81146200011057600080fd5b50565b6000815190506200012481620000f9565b92915050565b60008060408385031215620001445762000143620000c0565b5b6000620001548582860162000113565b9250506020620001678582860162000113565b9150509250929050565b611f0780620001816000396000f3fe608060405234801561001057600080fd5b50600436106100cf5760003560e01c80632d1906781161008c578063bc694ea211610066578063bc694ea214610221578063c36596a61461023f578063d09484c21461025d578063e7c13c821461027b576100cf565b80632d190678146101b25780639cac5bc3146101e5578063ba019dab14610203576100cf565b80630729747f146100d4578063098d3228146101075780631159c73614610125578063189d00ca14610158578063220ab80c146101765780632b6e01db14610194575b600080fd5b6100ee60048036038101906100e991906115d4565b6102ae565b6040516100fe9493929190611636565b60405180910390f35b61010f610712565b60405161011c919061167b565b60405180910390f35b61013f600480360381019061013a91906115d4565b610736565b60405161014f9493929190611636565b60405180910390f35b610160610ba0565b60405161016d919061167b565b60405180910390f35b61017e610bbc565b60405161018b919061172f565b60405180910390f35b61019c610bf5565b6040516101a9919061167b565b60405180910390f35b6101cc60048036038101906101c791906115d4565b610bfa565b6040516101dc9493929190611636565b60405180910390f35b6101ed611058565b6040516101fa919061172f565b60405180910390f35b61020b611091565b604051610218919061167b565b60405180910390f35b610229611096565b604051610236919061167b565b60405180910390f35b6102476110ba565b604051610254919061167b565b60405180910390f35b6102656110c6565b604051610272919061172f565b60405180910390f35b610295600480360381019061029091906115d4565b6110ff565b6040516102a59493929190611636565b60405180910390f35b6000806000808460c0016002600481106102cb576102ca611751565b5b602002013592506001858061014001906102e5919061178f565b905011156103ed5760008560000160046006811061030657610305611751565b5b6020020160208101906103199190611850565b905060008173ffffffffffffffffffffffffffffffffffffffff16631f00ca748860c0016002600481106103505761034f611751565b5b602002013589806101400190610366919061178f565b6040518463ffffffff1660e01b815260040161038493929190611940565b600060405180830381865afa1580156103a1573d6000803e3d6000fd5b505050506040513d6000823e3d601f19601f820116820180604052508101906103ca9190611ae6565b9050806000815181106103e0576103df611751565b5b6020026020010151945050505b60008054906101000a900473ffffffffffffffffffffffffffffffffffffffff1673ffffffffffffffffffffffffffffffffffffffff1663f8702fe1846040518060400160405280600581526020017f54524144450000000000000000000000000000000000000000000000000000008152508860c00160036004811061047757610476611751565b5b60200201356040518463ffffffff1660e01b815260040161049a93929190611b2f565b6040805180830381865afa1580156104b6573d6000803e3d6000fd5b505050506040513d601f19601f820116820180604052508101906104da9190611b6d565b809250819350505060006105096104fa838561156f90919063ffffffff16565b8561156f90919063ffffffff16565b90508561016001602081019061051f9190611be5565b156105f957600160009054906101000a900473ffffffffffffffffffffffffffffffffffffffff1673ffffffffffffffffffffffffffffffffffffffff1663687676ab8760000160006006811061057957610578611751565b5b60200201602081019061058c9190611850565b886101800135846040518463ffffffff1660e01b81526004016105b193929190611c3a565b602060405180830381865afa1580156105ce573d6000803e3d6000fd5b505050506040513d601f19601f820116820180604052508101906105f29190611c71565b945061070a565b60008660000160006006811061061257610611611751565b5b6020020160208101906106259190611850565b90508073ffffffffffffffffffffffffffffffffffffffff1663caa011488860000160016006811061065a57610659611751565b5b60200201602081019061066d9190611850565b8960000160056006811061068457610683611751565b5b6020020160208101906106979190611850565b8560006040518563ffffffff1660e01b81526004016106b99493929190611c9e565b60a060405180830381865afa1580156106d6573d6000803e3d6000fd5b505050506040513d601f19601f820116820180604052508101906106fa9190611ce3565b9091925090915090505080965050505b509193509193565b7fffffffffffffffffffffffffffffffffffffffffffffffffffffffffffffffff81565b600080600080846101600160208101906107509190611be5565b1561084557600160009054906101000a900473ffffffffffffffffffffffffffffffffffffffff1673ffffffffffffffffffffffffffffffffffffffff166398f7e7e5866000016000600681106107aa576107a9611751565b5b6020020160208101906107bd9190611850565b8761018001358860c0016000600481106107da576107d9611751565b5b60200201356040518463ffffffff1660e01b81526004016107fd93929190611c3a565b602060405180830381865afa15801561081a573d6000803e3d6000fd5b505050506040513d601f19601f8201168201806040525081019061083e9190611c71565b9250610971565b60008560000160006006811061085e5761085d611751565b5b6020020160208101906108719190611850565b90508073ffffffffffffffffffffffffffffffffffffffff16632eebd6ae876000016001600681106108a6576108a5611751565b5b6020020160208101906108b99190611850565b886000016005600681106108d0576108cf611751565b5b6020020160208101906108e39190611850565b8960c0016000600481106108fa576108f9611751565b5b602002013560006040518563ffffffff1660e01b81526004016109209493929190611c9e565b60a060405180830381865afa15801561093d573d6000803e3d6000fd5b505050506040513d601f19601f820116820180604052508101906109619190611ce3565b9091925090915090505080945050505b60008054906101000a900473ffffffffffffffffffffffffffffffffffffffff1673ffffffffffffffffffffffffffffffffffffffff1663f8702fe1846040518060400160405280600581526020017f54524144450000000000000000000000000000000000000000000000000000008152508860c0016003600481106109fb576109fa611751565b5b60200201356040518463ffffffff1660e01b8152600401610a1e93929190611b2f565b6040805180830381865afa158015610a3a573d6000803e3d6000fd5b505050506040513d601f19601f82011682018060405250810190610a5e9190611b6d565b8092508193505050610a8b610a7c828461156f90919063ffffffff16565b8461158590919063ffffffff16565b9350600185806101400190610aa0919061178f565b90501115610b9957600085600001600460068110610ac157610ac0611751565b5b602002016020810190610ad49190611850565b905060008173ffffffffffffffffffffffffffffffffffffffff1663d06ca61f8789806101400190610b06919061178f565b6040518463ffffffff1660e01b8152600401610b2493929190611940565b600060405180830381865afa158015610b41573d6000803e3d6000fd5b505050506040513d6000823e3d601f19601f82011682018060405250810190610b6a9190611ae6565b90508060018251610b7b9190611d8d565b81518110610b8c57610b8b611751565b5b6020026020010151955050505b9193509193565b6402540be400670de0b6b3a7640000610bb99190611df0565b81565b6040518060400160405280600581526020017f5354414b4500000000000000000000000000000000000000000000000000000081525081565b600081565b60008060008084610160016020810190610c149190611be5565b15610d0957600160009054906101000a900473ffffffffffffffffffffffffffffffffffffffff1673ffffffffffffffffffffffffffffffffffffffff16631f05551c86600001600060068110610c6e57610c6d611751565b5b602002016020810190610c819190611850565b8761018001358860c001600260048110610c9e57610c9d611751565b5b60200201356040518463ffffffff1660e01b8152600401610cc193929190611c3a565b602060405180830381865afa158015610cde573d6000803e3d6000fd5b505050506040513d601f19601f82011682018060405250810190610d029190611c71565b9250610e35565b600085600001600060068110610d2257610d21611751565b5b602002016020810190610d359190611850565b90508073ffffffffffffffffffffffffffffffffffffffff1663caa0114887600001600560068110610d6a57610d69611751565b5b602002016020810190610d7d9190611850565b88600001600160068110610d9457610d93611751565b5b602002016020810190610da79190611850565b8960c001600260048110610dbe57610dbd611751565b5b602002013560006040518563ffffffff1660e01b8152600401610de49493929190611c9e565b60a060405180830381865afa158015610e01573d6000803e3d6000fd5b505050506040513d601f19601f82011682018060405250810190610e259190611ce3565b9091925090915090505080945050505b60008054906101000a900473ffffffffffffffffffffffffffffffffffffffff1673ffffffffffffffffffffffffffffffffffffffff1663f8702fe1846040518060400160405280600581526020017f54524144450000000000000000000000000000000000000000000000000000008152508860c001600360048110610ebf57610ebe611751565b5b60200201356040518463ffffffff1660e01b8152600401610ee293929190611b2f565b6040805180830381865afa158015610efe573d6000803e3d6000fd5b505050506040513d601f19601f82011682018060405250810190610f229190611b6d565b8092508193505050610f4f610f40828461156f90919063ffffffff16565b8461156f90919063ffffffff16565b9350600185806101400190610f64919061178f565b9050111561105157600085600001600460068110610f8557610f84611751565b5b602002016020810190610f989190611850565b905060008173ffffffffffffffffffffffffffffffffffffffff16631f00ca748789806101400190610fca919061178f565b6040518463ffffffff1660e01b8152600401610fe893929190611940565b600060405180830381865afa158015611005573d6000803e3d6000fd5b505050506040513d6000823e3d601f19601f8201168201806040525081019061102e9190611ae6565b90508060008151811061104457611043611751565b5b6020026020010151955050505b9193509193565b6040518060400160405280600581526020017f545241444500000000000000000000000000000000000000000000000000000081525081565b600181565b6001670de0b6b3a764000060026110ad9190611e21565b6110b79190611d8d565b81565b670de0b6b3a764000081565b6040518060400160405280600781526020017f554e5354414b450000000000000000000000000000000000000000000000000081525081565b6000806000808460c00160006004811061111c5761111b611751565b5b60200201359250600185806101400190611136919061178f565b9050111561124a5760008560000160046006811061115757611156611751565b5b60200201602081019061116a9190611850565b905060008173ffffffffffffffffffffffffffffffffffffffff1663d06ca61f8860c0016000600481106111a1576111a0611751565b5b6020020135898061014001906111b7919061178f565b6040518463ffffffff1660e01b81526004016111d593929190611940565b600060405180830381865afa1580156111f2573d6000803e3d6000fd5b505050506040513d6000823e3d601f19601f8201168201806040525081019061121b9190611ae6565b9050806001825161122c9190611d8d565b8151811061123d5761123c611751565b5b6020026020010151945050505b60008054906101000a900473ffffffffffffffffffffffffffffffffffffffff1673ffffffffffffffffffffffffffffffffffffffff1663f8702fe1846040518060400160405280600581526020017f54524144450000000000000000000000000000000000000000000000000000008152508860c0016003600481106112d4576112d3611751565b5b60200201356040518463ffffffff1660e01b81526004016112f793929190611b2f565b6040805180830381865afa158015611313573d6000803e3d6000fd5b505050506040513d601f19601f820116820180604052508101906113379190611b6d565b80925081935050506000611366611357838561156f90919063ffffffff16565b8561158590919063ffffffff16565b90508561016001602081019061137c9190611be5565b1561145657600160009054906101000a900473ffffffffffffffffffffffffffffffffffffffff1673ffffffffffffffffffffffffffffffffffffffff1663c909e40a876000016000600681106113d6576113d5611751565b5b6020020160208101906113e99190611850565b886101800135846040518463ffffffff1660e01b815260040161140e93929190611c3a565b602060405180830381865afa15801561142b573d6000803e3d6000fd5b505050506040513d601f19601f8201168201806040525081019061144f9190611c71565b9450611567565b60008660000160006006811061146f5761146e611751565b5b6020020160208101906114829190611850565b90508073ffffffffffffffffffffffffffffffffffffffff16632eebd6ae886000016005600681106114b7576114b6611751565b5b6020020160208101906114ca9190611850565b896000016001600681106114e1576114e0611751565b5b6020020160208101906114f49190611850565b8560006040518563ffffffff1660e01b81526004016115169493929190611c9e565b60a060405180830381865afa158015611533573d6000803e3d6000fd5b505050506040513d601f19601f820116820180604052508101906115579190611ce3565b9091925090915090505080965050505b509193509193565b6000818361157d9190611e7b565b905092915050565b600081836115939190611d8d565b905092915050565b6000604051905090565b600080fd5b600080fd5b600080fd5b60006101a082840312156115cb576115ca6115af565b5b81905092915050565b6000602082840312156115ea576115e96115a5565b5b600082013567ffffffffffffffff811115611608576116076115aa565b5b611614848285016115b4565b91505092915050565b6000819050919050565b6116308161161d565b82525050565b600060808201905061164b6000830187611627565b6116586020830186611627565b6116656040830185611627565b6116726060830184611627565b95945050505050565b60006020820190506116906000830184611627565b92915050565b600081519050919050565b600082825260208201905092915050565b60005b838110156116d05780820151818401526020810190506116b5565b838111156116df576000848401525b50505050565b6000601f19601f8301169050919050565b600061170182611696565b61170b81856116a1565b935061171b8185602086016116b2565b611724816116e5565b840191505092915050565b6000602082019050818103600083015261174981846116f6565b905092915050565b7f4e487b7100000000000000000000000000000000000000000000000000000000600052603260045260246000fd5b600080fd5b600080fd5b600080fd5b600080833560016020038436030381126117ac576117ab611780565b5b80840192508235915067ffffffffffffffff8211156117ce576117cd611785565b5b6020830192506020820236038313156117ea576117e961178a565b5b509250929050565b600073ffffffffffffffffffffffffffffffffffffffff82169050919050565b600061181d826117f2565b9050919050565b61182d81611812565b811461183857600080fd5b50565b60008135905061184a81611824565b92915050565b600060208284031215611866576118656115a5565b5b60006118748482850161183b565b91505092915050565b600082825260208201905092915050565b6000819050919050565b6118a181611812565b82525050565b60006118b38383611898565b60208301905092915050565b60006118ce602084018461183b565b905092915050565b6000602082019050919050565b60006118ef838561187d565b93506118fa8261188e565b8060005b858110156119335761191082846118bf565b61191a88826118a7565b9750611925836118d6565b9250506001810190506118fe565b5085925050509392505050565b60006040820190506119556000830186611627565b81810360208301526119688184866118e3565b9050949350505050565b600080fd5b7f4e487b7100000000000000000000000000000000000000000000000000000000600052604160045260246000fd5b6119af826116e5565b810181811067ffffffffffffffff821117156119ce576119cd611977565b5b80604052505050565b60006119e161159b565b90506119ed82826119a6565b919050565b600067ffffffffffffffff821115611a0d57611a0c611977565b5b602082029050602081019050919050565b600080fd5b611a2c8161161d565b8114611a3757600080fd5b50565b600081519050611a4981611a23565b92915050565b6000611a62611a5d846119f2565b6119d7565b90508083825260208201905060208402830185811115611a8557611a84611a1e565b5b835b81811015611aae5780611a9a8882611a3a565b845260208401935050602081019050611a87565b5050509392505050565b600082601f830112611acd57611acc611972565b5b8151611add848260208601611a4f565b91505092915050565b600060208284031215611afc57611afb6115a5565b5b600082015167ffffffffffffffff811115611b1a57611b196115aa565b5b611b2684828501611ab8565b91505092915050565b6000606082019050611b446000830186611627565b8181036020830152611b5681856116f6565b9050611b656040830184611627565b949350505050565b60008060408385031215611b8457611b836115a5565b5b6000611b9285828601611a3a565b9250506020611ba385828601611a3a565b9150509250929050565b60008115159050919050565b611bc281611bad565b8114611bcd57600080fd5b50565b600081359050611bdf81611bb9565b92915050565b600060208284031215611bfb57611bfa6115a5565b5b6000611c0984828501611bd0565b91505092915050565b611c1b81611812565b82525050565b6000819050919050565b611c3481611c21565b82525050565b6000606082019050611c4f6000830186611c12565b611c5c6020830185611c2b565b611c696040830184611627565b949350505050565b600060208284031215611c8757611c866115a5565b5b6000611c9584828501611a3a565b91505092915050565b6000608082019050611cb36000830187611c12565b611cc06020830186611c12565b611ccd6040830185611627565b611cda6060830184611627565b95945050505050565b600080600080600060a08688031215611cff57611cfe6115a5565b5b6000611d0d88828901611a3a565b9550506020611d1e88828901611a3a565b9450506040611d2f88828901611a3a565b9350506060611d4088828901611a3a565b9250506080611d5188828901611a3a565b9150509295509295909350565b7f4e487b7100000000000000000000000000000000000000000000000000000000600052601160045260246000fd5b6000611d988261161d565b9150611da38361161d565b925082821015611db657611db5611d5e565b5b828203905092915050565b7f4e487b7100000000000000000000000000000000000000000000000000000000600052601260045260246000fd5b6000611dfb8261161d565b9150611e068361161d565b925082611e1657611e15611dc1565b5b828204905092915050565b6000611e2c8261161d565b9150611e378361161d565b9250817fffffffffffffffffffffffffffffffffffffffffffffffffffffffffffffffff0483118215151615611e7057611e6f611d5e565b5b828202905092915050565b6000611e868261161d565b9150611e918361161d565b9250827fffffffffffffffffffffffffffffffffffffffffffffffffffffffffffffffff03821115611ec657611ec5611d5e565b5b82820190509291505056fea264697066735822122012c19546446c6d2a55de6a79180647ea1818ab53d1517b867556dee2bc37406164736f6c634300080c0033",
  "linkReferences": {},
  "deployedLinkReferences": {}
}