{
  "_format": "hh-sol-artifact-1",
  "contractName": "Const",
  "sourceName": "contracts/defi/utils/Const.sol",
  "abi": [
    {
      "inputs": [],
      "name": "BONE",
      "outputs": [
        {
          "internalType": "uint256",
          "name": "",
          "type": "uint256"
        }
      ],
      "stateMutability": "view",
      "type": "function"
    },
    {
      "inputs": [],
      "name": "MAX_INT",
      "outputs": [
        {
          "internalType": "uint256",
          "name": "",
          "type": "uint256"
        }
      ],
      "stateMutability": "view",
      "type": "function"
    },
    {
      "inputs": [],
      "name": "STAKE_FEE_TYPE",
      "outputs": [
        {
          "internalType": "string",
          "name": "",
          "type": "string"
        }
      ],
      "stateMutability": "view",
      "type": "function"
    },
    {
      "inputs": [],
      "name": "TRADE_FEE_TYPE",
      "outputs": [
        {
          "internalType": "string",
          "name": "",
          "type": "string"
        }
      ],
      "stateMutability": "view",
      "type": "function"
    },
    {
      "inputs": [],
      "name": "UNSTAKE_FEE_TYPE",
      "outputs": [
        {
          "internalType": "string",
          "name": "",
          "type": "string"
        }
      ],
      "stateMutability": "view",
      "type": "function"
    },
    {
      "inputs": [],
      "name": "ZERO_FEES",
      "outputs": [
        {
          "internalType": "uint256",
          "name": "",
          "type": "uint256"
        }
      ],
      "stateMutability": "view",
      "type": "function"
    }
  ],
  "bytecode": "0x608060405234801561001057600080fd5b50610320806100206000396000f3fe608060405234801561001057600080fd5b50600436106100625760003560e01c8063098d322814610067578063220ab80c146100855780632b6e01db146100a35780639cac5bc3146100c1578063c36596a6146100df578063d09484c2146100fd575b600080fd5b61006f61011b565b60405161007c9190610214565b60405180910390f35b61008d61013f565b60405161009a91906102c8565b60405180910390f35b6100ab610178565b6040516100b89190610214565b60405180910390f35b6100c961017d565b6040516100d691906102c8565b60405180910390f35b6100e76101b6565b6040516100f49190610214565b60405180910390f35b6101056101c2565b60405161011291906102c8565b60405180910390f35b7fffffffffffffffffffffffffffffffffffffffffffffffffffffffffffffffff81565b6040518060400160405280600581526020017f5354414b4500000000000000000000000000000000000000000000000000000081525081565b600081565b6040518060400160405280600581526020017f545241444500000000000000000000000000000000000000000000000000000081525081565b670de0b6b3a764000081565b6040518060400160405280600781526020017f554e5354414b450000000000000000000000000000000000000000000000000081525081565b6000819050919050565b61020e816101fb565b82525050565b60006020820190506102296000830184610205565b92915050565b600081519050919050565b600082825260208201905092915050565b60005b8381101561026957808201518184015260208101905061024e565b83811115610278576000848401525b50505050565b6000601f19601f8301169050919050565b600061029a8261022f565b6102a4818561023a565b93506102b481856020860161024b565b6102bd8161027e565b840191505092915050565b600060208201905081810360008301526102e2818461028f565b90509291505056fea26469706673582212205ab0f76d2b893f770704d6756b331d8514d7485ecdfecc925c3b4df8788cba2964736f6c634300080c0033",
  "linkReferences": {},
  "deployedLinkReferences": {}
}