{
  "_format": "hh-sol-artifact-1",
  "contractName": "Const",
  "sourceName": "contracts/defi/utils/Const.sol",
  "abi": [
    {
      "inputs": [],
      "name": "BONE",
      "outputs": [
        {
          "internalType": "uint256",
          "name": "",
          "type": "uint256"
        }
      ],
      "stateMutability": "view",
      "type": "function"
    },
    {
      "inputs": [],
      "name": "BPOW_PRECISION",
      "outputs": [
        {
          "internalType": "uint256",
          "name": "",
          "type": "uint256"
        }
      ],
      "stateMutability": "view",
      "type": "function"
    },
    {
      "inputs": [],
      "name": "MAX_BPOW_BASE",
      "outputs": [
        {
          "internalType": "uint256",
          "name": "",
          "type": "uint256"
        }
      ],
      "stateMutability": "view",
      "type": "function"
    },
    {
      "inputs": [],
      "name": "MAX_INT",
      "outputs": [
        {
          "internalType": "uint256",
          "name": "",
          "type": "uint256"
        }
      ],
      "stateMutability": "view",
      "type": "function"
    },
    {
      "inputs": [],
      "name": "MIN_BPOW_BASE",
      "outputs": [
        {
          "internalType": "uint256",
          "name": "",
          "type": "uint256"
        }
      ],
      "stateMutability": "view",
      "type": "function"
    },
    {
      "inputs": [],
      "name": "ZERO_FEES",
      "outputs": [
        {
          "internalType": "uint256",
          "name": "",
          "type": "uint256"
        }
      ],
      "stateMutability": "view",
      "type": "function"
    }
  ],
  "bytecode": "0x608060405234801561001057600080fd5b5061031c806100206000396000f3fe608060405234801561001057600080fd5b50600436106100625760003560e01c8063098d322814610067578063189d00ca146100855780632b6e01db146100a3578063ba019dab146100c1578063bc694ea2146100df578063c36596a6146100fd575b600080fd5b61006f61011b565b60405161007c91906101ae565b60405180910390f35b61008d61013f565b60405161009a91906101ae565b60405180910390f35b6100ab61015b565b6040516100b891906101ae565b60405180910390f35b6100c9610160565b6040516100d691906101ae565b60405180910390f35b6100e7610165565b6040516100f491906101ae565b60405180910390f35b610105610189565b60405161011291906101ae565b60405180910390f35b7fffffffffffffffffffffffffffffffffffffffffffffffffffffffffffffffff81565b6402540be400670de0b6b3a76400006101589190610227565b81565b600081565b600181565b6001670de0b6b3a7640000600261017c9190610258565b61018691906102b2565b81565b670de0b6b3a764000081565b6000819050919050565b6101a881610195565b82525050565b60006020820190506101c3600083018461019f565b92915050565b7f4e487b7100000000000000000000000000000000000000000000000000000000600052601260045260246000fd5b7f4e487b7100000000000000000000000000000000000000000000000000000000600052601160045260246000fd5b600061023282610195565b915061023d83610195565b92508261024d5761024c6101c9565b5b828204905092915050565b600061026382610195565b915061026e83610195565b9250817fffffffffffffffffffffffffffffffffffffffffffffffffffffffffffffffff04831182151516156102a7576102a66101f8565b5b828202905092915050565b60006102bd82610195565b91506102c883610195565b9250828210156102db576102da6101f8565b5b82820390509291505056fea2646970667358221220b5843fb27257c9722e2329bd2183943455f8efe482f0419d8c4cd0d024f0b71164736f6c634300080c0033",
  "linkReferences": {},
  "deployedLinkReferences": {}
}