{
  "_format": "hh-sol-artifact-1",
  "contractName": "FeeAdmin",
  "sourceName": "contracts/defi/utils/FeeAdmin.sol",
  "abi": [
    {
      "inputs": [],
      "name": "acceptPendingAdmin",
      "outputs": [],
      "stateMutability": "nonpayable",
      "type": "function"
    },
    {
      "inputs": [],
      "name": "admin",
      "outputs": [
        {
          "internalType": "address",
          "name": "",
          "type": "address"
        }
      ],
      "stateMutability": "view",
      "type": "function"
    },
    {
      "inputs": [
        {
          "internalType": "bytes32",
          "name": "",
          "type": "bytes32"
        }
      ],
      "name": "fees",
      "outputs": [
        {
          "internalType": "uint256",
          "name": "",
          "type": "uint256"
        }
      ],
      "stateMutability": "view",
      "type": "function"
    },
    {
      "inputs": [
        {
          "internalType": "string",
          "name": "key",
          "type": "string"
        }
      ],
      "name": "getFees",
      "outputs": [
        {
          "internalType": "uint256",
          "name": "",
          "type": "uint256"
        }
      ],
      "stateMutability": "view",
      "type": "function"
    },
    {
      "inputs": [],
      "name": "pendingAdmin",
      "outputs": [
        {
          "internalType": "address",
          "name": "",
          "type": "address"
        }
      ],
      "stateMutability": "view",
      "type": "function"
    },
    {
      "inputs": [
        {
          "internalType": "address",
          "name": "newAdmin",
          "type": "address"
        }
      ],
      "name": "setPendingAdmin",
      "outputs": [],
      "stateMutability": "nonpayable",
      "type": "function"
    },
    {
      "inputs": [
        {
          "internalType": "string",
          "name": "key",
          "type": "string"
        },
        {
          "internalType": "uint256",
          "name": "value",
          "type": "uint256"
        }
      ],
      "name": "updateFees",
      "outputs": [],
      "stateMutability": "nonpayable",
      "type": "function"
    }
  ],
  "bytecode": "0x608060405234801561001057600080fd5b50336000806101000a81548173ffffffffffffffffffffffffffffffffffffffff021916908373ffffffffffffffffffffffffffffffffffffffff1602179055506109c7806100606000396000f3fe608060405234801561001057600080fd5b506004361061007d5760003560e01c8063cdb5661f1161005b578063cdb5661f146100c6578063eb90b2bc146100f6578063f3dd696014610126578063f851a440146101425761007d565b806326782247146100825780634dd18bf5146100a0578063709920c1146100bc575b600080fd5b61008a610160565b6040516100979190610572565b60405180910390f35b6100ba60048036038101906100b591906105cd565b610186565b005b6100c4610258565b005b6100e060048036038101906100db9190610630565b6103e9565b6040516100ed9190610676565b60405180910390f35b610110600480360381019061010b91906107d7565b610401565b60405161011d9190610676565b60405180910390f35b610140600480360381019061013b919061084c565b61042b565b005b61014a6104e3565b6040516101579190610572565b60405180910390f35b600160009054906101000a900473ffffffffffffffffffffffffffffffffffffffff1681565b60008054906101000a900473ffffffffffffffffffffffffffffffffffffffff1673ffffffffffffffffffffffffffffffffffffffff163373ffffffffffffffffffffffffffffffffffffffff1614610214576040517f08c379a000000000000000000000000000000000000000000000000000000000815260040161020b90610905565b60405180910390fd5b80600160006101000a81548173ffffffffffffffffffffffffffffffffffffffff021916908373ffffffffffffffffffffffffffffffffffffffff16021790555050565b600160009054906101000a900473ffffffffffffffffffffffffffffffffffffffff1673ffffffffffffffffffffffffffffffffffffffff163373ffffffffffffffffffffffffffffffffffffffff161480156103045750600073ffffffffffffffffffffffffffffffffffffffff16600160009054906101000a900473ffffffffffffffffffffffffffffffffffffffff1673ffffffffffffffffffffffffffffffffffffffff1614155b610343576040517f08c379a000000000000000000000000000000000000000000000000000000000815260040161033a90610971565b60405180910390fd5b600160009054906101000a900473ffffffffffffffffffffffffffffffffffffffff166000806101000a81548173ffffffffffffffffffffffffffffffffffffffff021916908373ffffffffffffffffffffffffffffffffffffffff1602179055506000600160006101000a81548173ffffffffffffffffffffffffffffffffffffffff021916908373ffffffffffffffffffffffffffffffffffffffff160217905550565b60026020528060005260406000206000915090505481565b60008061040d83610507565b90506002600082815260200190815260200160002054915050919050565b60008054906101000a900473ffffffffffffffffffffffffffffffffffffffff1673ffffffffffffffffffffffffffffffffffffffff163373ffffffffffffffffffffffffffffffffffffffff16146104b9576040517f08c379a00000000000000000000000000000000000000000000000000000000081526004016104b090610905565b60405180910390fd5b60006104c483610507565b9050816002600083815260200190815260200160002081905550505050565b60008054906101000a900473ffffffffffffffffffffffffffffffffffffffff1681565b600080829050600081511415610523576000801b91505061052c565b60208301519150505b919050565b600073ffffffffffffffffffffffffffffffffffffffff82169050919050565b600061055c82610531565b9050919050565b61056c81610551565b82525050565b60006020820190506105876000830184610563565b92915050565b6000604051905090565b600080fd5b600080fd5b6105aa81610551565b81146105b557600080fd5b50565b6000813590506105c7816105a1565b92915050565b6000602082840312156105e3576105e2610597565b5b60006105f1848285016105b8565b91505092915050565b6000819050919050565b61060d816105fa565b811461061857600080fd5b50565b60008135905061062a81610604565b92915050565b60006020828403121561064657610645610597565b5b60006106548482850161061b565b91505092915050565b6000819050919050565b6106708161065d565b82525050565b600060208201905061068b6000830184610667565b92915050565b600080fd5b600080fd5b6000601f19601f8301169050919050565b7f4e487b7100000000000000000000000000000000000000000000000000000000600052604160045260246000fd5b6106e48261069b565b810181811067ffffffffffffffff82111715610703576107026106ac565b5b80604052505050565b600061071661058d565b905061072282826106db565b919050565b600067ffffffffffffffff821115610742576107416106ac565b5b61074b8261069b565b9050602081019050919050565b82818337600083830152505050565b600061077a61077584610727565b61070c565b90508281526020810184848401111561079657610795610696565b5b6107a1848285610758565b509392505050565b600082601f8301126107be576107bd610691565b5b81356107ce848260208601610767565b91505092915050565b6000602082840312156107ed576107ec610597565b5b600082013567ffffffffffffffff81111561080b5761080a61059c565b5b610817848285016107a9565b91505092915050565b6108298161065d565b811461083457600080fd5b50565b60008135905061084681610820565b92915050565b6000806040838503121561086357610862610597565b5b600083013567ffffffffffffffff8111156108815761088061059c565b5b61088d858286016107a9565b925050602061089e85828601610837565b9150509250929050565b600082825260208201905092915050565b7f61646d696e206f6e6c7900000000000000000000000000000000000000000000600082015250565b60006108ef600a836108a8565b91506108fa826108b9565b602082019050919050565b6000602082019050818103600083015261091e816108e2565b9050919050565b7f43616c6c6572206d757374206265207468652070656e64696e672061646d696e600082015250565b600061095b6020836108a8565b915061096682610925565b602082019050919050565b6000602082019050818103600083015261098a8161094e565b905091905056fea264697066735822122081f7e8f980efd2bb0b6ab0d118689ced62a3597f6a0374455669a4719968f2a164736f6c634300080c0033",
  "linkReferences": {},
  "deployedLinkReferences": {}
}