{
  "_format": "hh-sol-artifact-1",
  "contractName": "FRERouter",
  "sourceName": "contracts/defi/routers/FRERouter.sol",
  "abi": [
    {
      "inputs": [],
      "name": "BONE",
      "outputs": [
        {
          "internalType": "uint256",
          "name": "",
          "type": "uint256"
        }
      ],
      "stateMutability": "view",
      "type": "function"
    },
    {
      "inputs": [],
      "name": "BPOW_PRECISION",
      "outputs": [
        {
          "internalType": "uint256",
          "name": "",
          "type": "uint256"
        }
      ],
      "stateMutability": "view",
      "type": "function"
    },
    {
      "inputs": [],
      "name": "MAX_BPOW_BASE",
      "outputs": [
        {
          "internalType": "uint256",
          "name": "",
          "type": "uint256"
        }
      ],
      "stateMutability": "view",
      "type": "function"
    },
    {
      "inputs": [],
      "name": "MAX_INT",
      "outputs": [
        {
          "internalType": "uint256",
          "name": "",
          "type": "uint256"
        }
      ],
      "stateMutability": "view",
      "type": "function"
    },
    {
      "inputs": [],
      "name": "MIN_BPOW_BASE",
      "outputs": [
        {
          "internalType": "uint256",
          "name": "",
          "type": "uint256"
        }
      ],
      "stateMutability": "view",
      "type": "function"
    },
    {
      "inputs": [],
      "name": "STAKE_FEE_TYPE",
      "outputs": [
        {
          "internalType": "string",
          "name": "",
          "type": "string"
        }
      ],
      "stateMutability": "view",
      "type": "function"
    },
    {
      "inputs": [],
      "name": "TRADE_FEE_TYPE",
      "outputs": [
        {
          "internalType": "string",
          "name": "",
          "type": "string"
        }
      ],
      "stateMutability": "view",
      "type": "function"
    },
    {
      "inputs": [],
      "name": "UNSTAKE_FEE_TYPE",
      "outputs": [
        {
          "internalType": "string",
          "name": "",
          "type": "string"
        }
      ],
      "stateMutability": "view",
      "type": "function"
    },
    {
      "inputs": [],
      "name": "ZERO_FEES",
      "outputs": [
        {
          "internalType": "uint256",
          "name": "",
          "type": "uint256"
        }
      ],
      "stateMutability": "view",
      "type": "function"
    },
    {
      "inputs": [
        {
          "internalType": "address",
          "name": "exchange",
          "type": "address"
        },
        {
          "internalType": "bytes32",
          "name": "exchangeId",
          "type": "bytes32"
        },
        {
          "internalType": "uint256",
          "name": "dtAmountOut",
          "type": "uint256"
        }
      ],
      "name": "calcBaseTokenInGivenDatatokenOut",
      "outputs": [
        {
          "internalType": "uint256",
          "name": "baseAmountIn",
          "type": "uint256"
        }
      ],
      "stateMutability": "view",
      "type": "function"
    },
    {
      "inputs": [
        {
          "internalType": "address",
          "name": "exchangeAddress",
          "type": "address"
        },
        {
          "internalType": "bytes32",
          "name": "exchangeId",
          "type": "bytes32"
        },
        {
          "internalType": "uint256",
          "name": "dtAmountIn",
          "type": "uint256"
        }
      ],
      "name": "calcBaseTokenOutGivenDatatokenIn",
      "outputs": [
        {
          "internalType": "uint256",
          "name": "baseAmountOut",
          "type": "uint256"
        }
      ],
      "stateMutability": "view",
      "type": "function"
    },
    {
      "inputs": [
        {
          "internalType": "address",
          "name": "exchangeAddress",
          "type": "address"
        },
        {
          "internalType": "bytes32",
          "name": "exchangeId",
          "type": "bytes32"
        },
        {
          "internalType": "uint256",
          "name": "baseAmountOut",
          "type": "uint256"
        }
      ],
      "name": "calcDatatokenInGivenBaseTokenOut",
      "outputs": [
        {
          "internalType": "uint256",
          "name": "dtAmountIn",
          "type": "uint256"
        }
      ],
      "stateMutability": "view",
      "type": "function"
    },
    {
      "inputs": [
        {
          "internalType": "address",
          "name": "exchangeAddress",
          "type": "address"
        },
        {
          "internalType": "bytes32",
          "name": "exchangeId",
          "type": "bytes32"
        },
        {
          "internalType": "uint256",
          "name": "baseAmountIn",
          "type": "uint256"
        }
      ],
      "name": "calcDatatokenOutGivenBaseTokenIn",
      "outputs": [
        {
          "internalType": "uint256",
          "name": "dtAmountOut",
          "type": "uint256"
        }
      ],
      "stateMutability": "view",
      "type": "function"
    },
    {
      "inputs": [
        {
          "internalType": "address",
          "name": "baseTokenAddress",
          "type": "address"
        },
        {
          "internalType": "address",
          "name": "to",
          "type": "address"
        },
        {
          "internalType": "address",
          "name": "exchangeAddress",
          "type": "address"
        },
        {
          "internalType": "bytes32",
          "name": "exchangeId",
          "type": "bytes32"
        },
        {
          "internalType": "uint256",
          "name": "maxBaseAmountIn",
          "type": "uint256"
        },
        {
          "internalType": "uint256",
          "name": "dtAmountOut",
          "type": "uint256"
        }
      ],
      "name": "swapBaseTokenToExactDatatoken",
      "outputs": [
        {
          "internalType": "uint256",
          "name": "baseAmountIn",
          "type": "uint256"
        },
        {
          "internalType": "uint256",
          "name": "toRefund",
          "type": "uint256"
        }
      ],
      "stateMutability": "nonpayable",
      "type": "function"
    },
    {
      "inputs": [
        {
          "internalType": "address",
          "name": "baseTokenAddress",
          "type": "address"
        },
        {
          "internalType": "address",
          "name": "datatokenAddress",
          "type": "address"
        },
        {
          "internalType": "address",
          "name": "to",
          "type": "address"
        },
        {
          "internalType": "address",
          "name": "exchangeAddress",
          "type": "address"
        },
        {
          "internalType": "bytes32",
          "name": "exchangeId",
          "type": "bytes32"
        },
        {
          "internalType": "uint256",
          "name": "dtAmountIn",
          "type": "uint256"
        },
        {
          "internalType": "uint256",
          "name": "minBaseAmountOut",
          "type": "uint256"
        }
      ],
      "name": "swapExactDatatokenToBaseToken",
      "outputs": [
        {
          "internalType": "uint256",
          "name": "baseAmountOut",
          "type": "uint256"
        }
      ],
      "stateMutability": "nonpayable",
      "type": "function"
    }
  ],
  "bytecode": "0x608060405234801561001057600080fd5b5060016000819055506124ca806100286000396000f3fe608060405234801561001057600080fd5b50600436106100f55760003560e01c80637cbc8bfa11610097578063bc694ea211610066578063bc694ea21461029f578063c36596a6146102bd578063c909e40a146102db578063d09484c21461030b576100f5565b80637cbc8bfa1461020357806398f7e7e5146102335780639cac5bc314610263578063ba019dab14610281576100f5565b8063220ab80c116100d3578063220ab80c146101665780632b6e01db14610184578063495d2040146101a2578063687676ab146101d3576100f5565b8063098d3228146100fa578063189d00ca146101185780631f05551c14610136575b600080fd5b610102610329565b60405161010f9190611658565b60405180910390f35b61012061034d565b60405161012d9190611658565b60405180910390f35b610150600480360381019061014b9190611738565b610369565b60405161015d9190611658565b60405180910390f35b61016e610400565b60405161017b9190611824565b60405180910390f35b61018c610439565b6040516101999190611658565b60405180910390f35b6101bc60048036038101906101b79190611846565b61043e565b6040516101ca9291906118d3565b60405180910390f35b6101ed60048036038101906101e89190611738565b610a0e565b6040516101fa9190611658565b60405180910390f35b61021d600480360381019061021891906118fc565b610c48565b60405161022a9190611658565b60405180910390f35b61024d60048036038101906102489190611738565b611240565b60405161025a9190611658565b60405180910390f35b61026b6112d7565b6040516102789190611824565b60405180910390f35b610289611310565b6040516102969190611658565b60405180910390f35b6102a7611315565b6040516102b49190611658565b60405180910390f35b6102c5611339565b6040516102d29190611658565b60405180910390f35b6102f560048036038101906102f09190611738565b611345565b6040516103029190611658565b60405180910390f35b61031361157f565b6040516103209190611824565b60405180910390f35b7fffffffffffffffffffffffffffffffffffffffffffffffffffffffffffffffff81565b6402540be400670de0b6b3a764000061036691906119fc565b81565b6000808490508073ffffffffffffffffffffffffffffffffffffffff1663dd1bc96a858560006040518463ffffffff1660e01b81526004016103ad93929190611a3c565b608060405180830381865afa1580156103ca573d6000803e3d6000fd5b505050506040513d601f19601f820116820180604052508101906103ee9190611a88565b90915090505080925050509392505050565b6040518060400160405280600581526020017f5354414b4500000000000000000000000000000000000000000000000000000081525081565b600081565b60008060008690503073ffffffffffffffffffffffffffffffffffffffff168173ffffffffffffffffffffffffffffffffffffffff1663855058dd886040518263ffffffff1660e01b81526004016104969190611aef565b602060405180830381865afa1580156104b3573d6000803e3d6000fd5b505050506040513d601f19601f820116820180604052508101906104d79190611b1f565b73ffffffffffffffffffffffffffffffffffffffff161461052d576040517f08c379a000000000000000000000000000000000000000000000000000000000815260040161052490611bbe565b60405180910390fd5b6000899050858173ffffffffffffffffffffffffffffffffffffffff166370a08231336040518263ffffffff1660e01b815260040161056c9190611bed565b602060405180830381865afa158015610589573d6000803e3d6000fd5b505050506040513d601f19601f820116820180604052508101906105ad9190611c08565b10156105ee576040517f08c379a00000000000000000000000000000000000000000000000000000000081526004016105e590611ca7565b60405180910390fd5b3073ffffffffffffffffffffffffffffffffffffffff163373ffffffffffffffffffffffffffffffffffffffff16146106e1578073ffffffffffffffffffffffffffffffffffffffff166323b872dd3330896040518463ffffffff1660e01b815260040161065e93929190611cc7565b6020604051808303816000875af115801561067d573d6000803e3d6000fd5b505050506040513d601f19601f820116820180604052508101906106a19190611d36565b6106e0576040517f08c379a00000000000000000000000000000000000000000000000000000000081526004016106d790611dd5565b60405180910390fd5b5b8073ffffffffffffffffffffffffffffffffffffffff1663095ea7b389886040518363ffffffff1660e01b815260040161071c929190611df5565b6020604051808303816000875af115801561073b573d6000803e3d6000fd5b505050506040513d601f19601f8201168201806040525081019061075f9190611d36565b61079e576040517f08c379a000000000000000000000000000000000000000000000000000000000815260040161079590611e90565b60405180910390fd5b60008173ffffffffffffffffffffffffffffffffffffffff166370a08231306040518263ffffffff1660e01b81526004016107d99190611bed565b602060405180830381865afa1580156107f6573d6000803e3d6000fd5b505050506040513d601f19601f8201168201806040525081019061081a9190611c08565b90508273ffffffffffffffffffffffffffffffffffffffff166368c4b7e989888a6000806040518663ffffffff1660e01b815260040161085e959493929190611eb0565b600060405180830381600087803b15801561087857600080fd5b505af115801561088c573d6000803e3d6000fd5b5050505060008273ffffffffffffffffffffffffffffffffffffffff166370a08231306040518263ffffffff1660e01b81526004016108cb9190611bed565b602060405180830381865afa1580156108e8573d6000803e3d6000fd5b505050506040513d601f19601f8201168201806040525081019061090c9190611c08565b905061092181836115b890919063ffffffff16565b955061093686896115b890919063ffffffff16565b945060008511156109ff578273ffffffffffffffffffffffffffffffffffffffff1663a9059cbb8c876040518363ffffffff1660e01b815260040161097c929190611df5565b6020604051808303816000875af115801561099b573d6000803e3d6000fd5b505050506040513d601f19601f820116820180604052508101906109bf9190611d36565b6109fe576040517f08c379a00000000000000000000000000000000000000000000000000000000081526004016109f590611f75565b60405180910390fd5b5b50505050965096945050505050565b600080849050610a1c611610565b8173ffffffffffffffffffffffffffffffffffffffff1663b32b56f9866040518263ffffffff1660e01b8152600401610a559190611aef565b602060405180830381865afa158015610a72573d6000803e3d6000fd5b505050506040513d601f19601f82011682018060405250810190610a969190611c08565b8160400181815250508173ffffffffffffffffffffffffffffffffffffffff16630b3b430d866040518263ffffffff1660e01b8152600401610ad89190611aef565b60a060405180830381865afa158015610af5573d6000803e3d6000fd5b505050506040513d601f19601f82011682018060405250810190610b199190611f95565b909192509050508260600183608001828152508281525050506000610ba98260400151610b9b8460200151600a610b509190612143565b610b8d8660000151600a610b649190612143565b610b7f670de0b6b3a76400008c6115ce90919063ffffffff16565b6115ce90919063ffffffff16565b6115e490919063ffffffff16565b6115e490919063ffffffff16565b90506000610bde670de0b6b3a7640000610bd08560600151856115ce90919063ffffffff16565b6115e490919063ffffffff16565b90506000610c13670de0b6b3a7640000610c058660800151866115ce90919063ffffffff16565b6115e490919063ffffffff16565b9050610c3a610c2b82846115fa90919063ffffffff16565b846115fa90919063ffffffff16565b955050505050509392505050565b6000808590503073ffffffffffffffffffffffffffffffffffffffff168173ffffffffffffffffffffffffffffffffffffffff1663855058dd876040518263ffffffff1660e01b8152600401610c9e9190611aef565b602060405180830381865afa158015610cbb573d6000803e3d6000fd5b505050506040513d601f19601f82011682018060405250810190610cdf9190611b1f565b73ffffffffffffffffffffffffffffffffffffffff1614610d35576040517f08c379a0000000000000000000000000000000000000000000000000000000008152600401610d2c90611bbe565b60405180910390fd5b6000889050848173ffffffffffffffffffffffffffffffffffffffff166370a08231336040518263ffffffff1660e01b8152600401610d749190611bed565b602060405180830381865afa158015610d91573d6000803e3d6000fd5b505050506040513d601f19601f82011682018060405250810190610db59190611c08565b1015610df6576040517f08c379a0000000000000000000000000000000000000000000000000000000008152600401610ded90612200565b60405180910390fd5b60008a90503073ffffffffffffffffffffffffffffffffffffffff163373ffffffffffffffffffffffffffffffffffffffff1614610eee578173ffffffffffffffffffffffffffffffffffffffff166323b872dd3330896040518463ffffffff1660e01b8152600401610e6b93929190611cc7565b6020604051808303816000875af1158015610e8a573d6000803e3d6000fd5b505050506040513d601f19601f82011682018060405250810190610eae9190611d36565b610eed576040517f08c379a0000000000000000000000000000000000000000000000000000000008152600401610ee490612292565b60405180910390fd5b5b8173ffffffffffffffffffffffffffffffffffffffff1663095ea7b389886040518363ffffffff1660e01b8152600401610f29929190611df5565b6020604051808303816000875af1158015610f48573d6000803e3d6000fd5b505050506040513d601f19601f82011682018060405250810190610f6c9190611d36565b610fab576040517f08c379a0000000000000000000000000000000000000000000000000000000008152600401610fa290611e90565b60405180910390fd5b60008173ffffffffffffffffffffffffffffffffffffffff166370a08231306040518263ffffffff1660e01b8152600401610fe69190611bed565b602060405180830381865afa158015611003573d6000803e3d6000fd5b505050506040513d601f19601f820116820180604052508101906110279190611c08565b90508373ffffffffffffffffffffffffffffffffffffffff166350d571d58989896000806040518663ffffffff1660e01b815260040161106b959493929190611eb0565b600060405180830381600087803b15801561108557600080fd5b505af1158015611099573d6000803e3d6000fd5b5050505060008273ffffffffffffffffffffffffffffffffffffffff166370a08231306040518263ffffffff1660e01b81526004016110d89190611bed565b602060405180830381865afa1580156110f5573d6000803e3d6000fd5b505050506040513d601f19601f820116820180604052508101906111199190611c08565b905061112e82826115b890919063ffffffff16565b955085871115611173576040517f08c379a000000000000000000000000000000000000000000000000000000000815260040161116a906122fe565b60405180910390fd5b8273ffffffffffffffffffffffffffffffffffffffff1663a9059cbb8c886040518363ffffffff1660e01b81526004016111ae929190611df5565b6020604051808303816000875af11580156111cd573d6000803e3d6000fd5b505050506040513d601f19601f820116820180604052508101906111f19190611d36565b611230576040517f08c379a000000000000000000000000000000000000000000000000000000000815260040161122790612390565b60405180910390fd5b5050505050979650505050505050565b6000808490508073ffffffffffffffffffffffffffffffffffffffff1663c2c0d1ab858560006040518463ffffffff1660e01b815260040161128493929190611a3c565b608060405180830381865afa1580156112a1573d6000803e3d6000fd5b505050506040513d601f19601f820116820180604052508101906112c59190611a88565b90915090505080925050509392505050565b6040518060400160405280600581526020017f545241444500000000000000000000000000000000000000000000000000000081525081565b600181565b6001670de0b6b3a7640000600261132c91906123b0565b611336919061240a565b81565b670de0b6b3a764000081565b600080849050611353611610565b8173ffffffffffffffffffffffffffffffffffffffff1663b32b56f9866040518263ffffffff1660e01b815260040161138c9190611aef565b602060405180830381865afa1580156113a9573d6000803e3d6000fd5b505050506040513d601f19601f820116820180604052508101906113cd9190611c08565b8160400181815250508173ffffffffffffffffffffffffffffffffffffffff16630b3b430d866040518263ffffffff1660e01b815260040161140f9190611aef565b60a060405180830381865afa15801561142c573d6000803e3d6000fd5b505050506040513d601f19601f820116820180604052508101906114509190611f95565b9091925090505082606001836080018281525082815250505060006114e082604001516114d28460200151600a6114879190612143565b6114c48660000151600a61149b9190612143565b6114b6670de0b6b3a76400008c6115ce90919063ffffffff16565b6115ce90919063ffffffff16565b6115e490919063ffffffff16565b6115e490919063ffffffff16565b90506000611515670de0b6b3a76400006115078560600151856115ce90919063ffffffff16565b6115e490919063ffffffff16565b9050600061154a670de0b6b3a764000061153c8660800151866115ce90919063ffffffff16565b6115e490919063ffffffff16565b905061157161156282846115fa90919063ffffffff16565b846115b890919063ffffffff16565b955050505050509392505050565b6040518060400160405280600781526020017f554e5354414b450000000000000000000000000000000000000000000000000081525081565b600081836115c6919061240a565b905092915050565b600081836115dc91906123b0565b905092915050565b600081836115f291906119fc565b905092915050565b60008183611608919061243e565b905092915050565b6040518060a0016040528060008152602001600081526020016000815260200160008152602001600081525090565b6000819050919050565b6116528161163f565b82525050565b600060208201905061166d6000830184611649565b92915050565b600080fd5b600073ffffffffffffffffffffffffffffffffffffffff82169050919050565b60006116a382611678565b9050919050565b6116b381611698565b81146116be57600080fd5b50565b6000813590506116d0816116aa565b92915050565b6000819050919050565b6116e9816116d6565b81146116f457600080fd5b50565b600081359050611706816116e0565b92915050565b6117158161163f565b811461172057600080fd5b50565b6000813590506117328161170c565b92915050565b60008060006060848603121561175157611750611673565b5b600061175f868287016116c1565b9350506020611770868287016116f7565b925050604061178186828701611723565b9150509250925092565b600081519050919050565b600082825260208201905092915050565b60005b838110156117c55780820151818401526020810190506117aa565b838111156117d4576000848401525b50505050565b6000601f19601f8301169050919050565b60006117f68261178b565b6118008185611796565b93506118108185602086016117a7565b611819816117da565b840191505092915050565b6000602082019050818103600083015261183e81846117eb565b905092915050565b60008060008060008060c0878903121561186357611862611673565b5b600061187189828a016116c1565b965050602061188289828a016116c1565b955050604061189389828a016116c1565b94505060606118a489828a016116f7565b93505060806118b589828a01611723565b92505060a06118c689828a01611723565b9150509295509295509295565b60006040820190506118e86000830185611649565b6118f56020830184611649565b9392505050565b600080600080600080600060e0888a03121561191b5761191a611673565b5b60006119298a828b016116c1565b975050602061193a8a828b016116c1565b965050604061194b8a828b016116c1565b955050606061195c8a828b016116c1565b945050608061196d8a828b016116f7565b93505060a061197e8a828b01611723565b92505060c061198f8a828b01611723565b91505092959891949750929550565b7f4e487b7100000000000000000000000000000000000000000000000000000000600052601260045260246000fd5b7f4e487b7100000000000000000000000000000000000000000000000000000000600052601160045260246000fd5b6000611a078261163f565b9150611a128361163f565b925082611a2257611a2161199e565b5b828204905092915050565b611a36816116d6565b82525050565b6000606082019050611a516000830186611a2d565b611a5e6020830185611649565b611a6b6040830184611649565b949350505050565b600081519050611a828161170c565b92915050565b60008060008060808587031215611aa257611aa1611673565b5b6000611ab087828801611a73565b9450506020611ac187828801611a73565b9350506040611ad287828801611a73565b9250506060611ae387828801611a73565b91505092959194509250565b6000602082019050611b046000830184611a2d565b92915050565b600081519050611b19816116aa565b92915050565b600060208284031215611b3557611b34611673565b5b6000611b4384828501611b0a565b91505092915050565b7f5472616465526f757465723a204e6f7420616e20616c6c6f776564205377617060008201527f7065720000000000000000000000000000000000000000000000000000000000602082015250565b6000611ba8602383611796565b9150611bb382611b4c565b604082019050919050565b60006020820190508181036000830152611bd781611b9b565b9050919050565b611be781611698565b82525050565b6000602082019050611c026000830184611bde565b92915050565b600060208284031215611c1e57611c1d611673565b5b6000611c2c84828501611a73565b91505092915050565b7f5472616465526f757465723a204e6f7420656e6f7567682042617365546f6b6560008201527f6e00000000000000000000000000000000000000000000000000000000000000602082015250565b6000611c91602183611796565b9150611c9c82611c35565b604082019050919050565b60006020820190508181036000830152611cc081611c84565b9050919050565b6000606082019050611cdc6000830186611bde565b611ce96020830185611bde565b611cf66040830184611649565b949350505050565b60008115159050919050565b611d1381611cfe565b8114611d1e57600080fd5b50565b600081519050611d3081611d0a565b92915050565b600060208284031215611d4c57611d4b611673565b5b6000611d5a84828501611d21565b91505092915050565b7f5472616465526f757465723a2053656c662d7472616e7366657220426173657460008201527f6f6b656e204661696c6564000000000000000000000000000000000000000000602082015250565b6000611dbf602b83611796565b9150611dca82611d63565b604082019050919050565b60006020820190508181036000830152611dee81611db2565b9050919050565b6000604082019050611e0a6000830185611bde565b611e176020830184611649565b9392505050565b7f5472616465526f757465723a204661696c656420746f20617070726f7665204260008201527f617365746f6b656e206f6e204652450000000000000000000000000000000000602082015250565b6000611e7a602f83611796565b9150611e8582611e1e565b604082019050919050565b60006020820190508181036000830152611ea981611e6d565b9050919050565b600060a082019050611ec56000830188611a2d565b611ed26020830187611649565b611edf6040830186611649565b611eec6060830185611bde565b611ef96080830184611649565b9695505050505050565b7f5472616465526f757465723a2042617365746f6b656e20726566756e6420666160008201527f696c656400000000000000000000000000000000000000000000000000000000602082015250565b6000611f5f602483611796565b9150611f6a82611f03565b604082019050919050565b60006020820190508181036000830152611f8e81611f52565b9050919050565b600080600080600060a08688031215611fb157611fb0611673565b5b6000611fbf88828901611a73565b9550506020611fd088828901611b0a565b9450506040611fe188828901611a73565b9350506060611ff288828901611a73565b925050608061200388828901611a73565b9150509295509295909350565b60008160011c9050919050565b6000808291508390505b600185111561206757808604811115612043576120426119cd565b5b60018516156120525780820291505b808102905061206085612010565b9450612027565b94509492505050565b600082612080576001905061213c565b8161208e576000905061213c565b81600181146120a457600281146120ae576120dd565b600191505061213c565b60ff8411156120c0576120bf6119cd565b5b8360020a9150848211156120d7576120d66119cd565b5b5061213c565b5060208310610133831016604e8410600b84101617156121125782820a90508381111561210d5761210c6119cd565b5b61213c565b61211f848484600161201d565b92509050818404811115612136576121356119cd565b5b81810290505b9392505050565b600061214e8261163f565b91506121598361163f565b92506121867fffffffffffffffffffffffffffffffffffffffffffffffffffffffffffffffff8484612070565b905092915050565b7f5472616465526f757465723a204e6f7420656e6f7567682044617461746f6b6560008201527f6e00000000000000000000000000000000000000000000000000000000000000602082015250565b60006121ea602183611796565b91506121f58261218e565b604082019050919050565b60006020820190508181036000830152612219816121dd565b9050919050565b7f5472616465526f757465723a2053656c662d7472616e7366657220446174617460008201527f6f6b656e204661696c6564000000000000000000000000000000000000000000602082015250565b600061227c602b83611796565b915061228782612220565b604082019050919050565b600060208201905081810360008301526122ab8161226f565b9050919050565b7f5472616465526f757465723a202042617365416d6f756e7420746f6f206c6f77600082015250565b60006122e8602083611796565b91506122f3826122b2565b602082019050919050565b60006020820190508181036000830152612317816122db565b9050919050565b7f5472616465526f757465723a2042617365746f6b656e207472616e736665722060008201527f6661696c65640000000000000000000000000000000000000000000000000000602082015250565b600061237a602683611796565b91506123858261231e565b604082019050919050565b600060208201905081810360008301526123a98161236d565b9050919050565b60006123bb8261163f565b91506123c68361163f565b9250817fffffffffffffffffffffffffffffffffffffffffffffffffffffffffffffffff04831182151516156123ff576123fe6119cd565b5b828202905092915050565b60006124158261163f565b91506124208361163f565b925082821015612433576124326119cd565b5b828203905092915050565b60006124498261163f565b91506124548361163f565b9250827fffffffffffffffffffffffffffffffffffffffffffffffffffffffffffffffff03821115612489576124886119cd565b5b82820190509291505056fea26469706673582212201bceecf5c1d2c45e12e9a11ce181bd5f970c3dd2778a05680f698a4033f1122064736f6c634300080c0033",
  "linkReferences": {},
  "deployedLinkReferences": {}
}