{
  "_format": "hh-sol-artifact-1",
  "contractName": "FRERouter",
  "sourceName": "contracts/defi/routers/FRERouter.sol",
  "abi": [
    {
      "inputs": [],
      "name": "BONE",
      "outputs": [
        {
          "internalType": "uint256",
          "name": "",
          "type": "uint256"
        }
      ],
      "stateMutability": "view",
      "type": "function"
    },
    {
      "inputs": [],
      "name": "MAX_INT",
      "outputs": [
        {
          "internalType": "uint256",
          "name": "",
          "type": "uint256"
        }
      ],
      "stateMutability": "view",
      "type": "function"
    },
    {
      "inputs": [],
      "name": "STAKE_FEE_TYPE",
      "outputs": [
        {
          "internalType": "string",
          "name": "",
          "type": "string"
        }
      ],
      "stateMutability": "view",
      "type": "function"
    },
    {
      "inputs": [],
      "name": "TRADE_FEE_TYPE",
      "outputs": [
        {
          "internalType": "string",
          "name": "",
          "type": "string"
        }
      ],
      "stateMutability": "view",
      "type": "function"
    },
    {
      "inputs": [],
      "name": "UNSTAKE_FEE_TYPE",
      "outputs": [
        {
          "internalType": "string",
          "name": "",
          "type": "string"
        }
      ],
      "stateMutability": "view",
      "type": "function"
    },
    {
      "inputs": [],
      "name": "ZERO_FEES",
      "outputs": [
        {
          "internalType": "uint256",
          "name": "",
          "type": "uint256"
        }
      ],
      "stateMutability": "view",
      "type": "function"
    },
    {
      "inputs": [
        {
          "internalType": "address",
          "name": "exchange",
          "type": "address"
        },
        {
          "internalType": "bytes32",
          "name": "exchangeId",
          "type": "bytes32"
        },
        {
          "internalType": "uint256",
          "name": "dtAmountOut",
          "type": "uint256"
        }
      ],
      "name": "calcBaseTokenInGivenDatatokenOut",
      "outputs": [
        {
          "internalType": "uint256",
          "name": "baseAmountIn",
          "type": "uint256"
        }
      ],
      "stateMutability": "view",
      "type": "function"
    },
    {
      "inputs": [
        {
          "internalType": "address",
          "name": "exchangeAddress",
          "type": "address"
        },
        {
          "internalType": "bytes32",
          "name": "exchangeId",
          "type": "bytes32"
        },
        {
          "internalType": "uint256",
          "name": "dtAmountIn",
          "type": "uint256"
        }
      ],
      "name": "calcBaseTokenOutGivenDatatokenIn",
      "outputs": [
        {
          "internalType": "uint256",
          "name": "baseAmountOut",
          "type": "uint256"
        }
      ],
      "stateMutability": "view",
      "type": "function"
    },
    {
      "inputs": [
        {
          "internalType": "address",
          "name": "exchangeAddress",
          "type": "address"
        },
        {
          "internalType": "bytes32",
          "name": "exchangeId",
          "type": "bytes32"
        },
        {
          "internalType": "uint256",
          "name": "baseAmountOut",
          "type": "uint256"
        }
      ],
      "name": "calcDatatokenInGivenBaseTokenOut",
      "outputs": [
        {
          "internalType": "uint256",
          "name": "dtAmountIn",
          "type": "uint256"
        }
      ],
      "stateMutability": "view",
      "type": "function"
    },
    {
      "inputs": [
        {
          "internalType": "address",
          "name": "exchangeAddress",
          "type": "address"
        },
        {
          "internalType": "bytes32",
          "name": "exchangeId",
          "type": "bytes32"
        },
        {
          "internalType": "uint256",
          "name": "baseAmountIn",
          "type": "uint256"
        }
      ],
      "name": "calcDatatokenOutGivenBaseTokenIn",
      "outputs": [
        {
          "internalType": "uint256",
          "name": "dtAmountOut",
          "type": "uint256"
        }
      ],
      "stateMutability": "view",
      "type": "function"
    },
    {
      "inputs": [
        {
          "internalType": "address",
          "name": "baseTokenAddress",
          "type": "address"
        },
        {
          "internalType": "address",
          "name": "to",
          "type": "address"
        },
        {
          "internalType": "address",
          "name": "exchangeAddress",
          "type": "address"
        },
        {
          "internalType": "bytes32",
          "name": "exchangeId",
          "type": "bytes32"
        },
        {
          "internalType": "uint256",
          "name": "maxBaseAmountIn",
          "type": "uint256"
        },
        {
          "internalType": "uint256",
          "name": "dtAmountOut",
          "type": "uint256"
        }
      ],
      "name": "swapBaseTokenToExactDatatoken",
      "outputs": [
        {
          "internalType": "uint256",
          "name": "baseAmountIn",
          "type": "uint256"
        },
        {
          "internalType": "uint256",
          "name": "toRefund",
          "type": "uint256"
        }
      ],
      "stateMutability": "nonpayable",
      "type": "function"
    },
    {
      "inputs": [
        {
          "internalType": "address",
          "name": "baseTokenAddress",
          "type": "address"
        },
        {
          "internalType": "address",
          "name": "datatokenAddress",
          "type": "address"
        },
        {
          "internalType": "address",
          "name": "to",
          "type": "address"
        },
        {
          "internalType": "address",
          "name": "exchangeAddress",
          "type": "address"
        },
        {
          "internalType": "bytes32",
          "name": "exchangeId",
          "type": "bytes32"
        },
        {
          "internalType": "uint256",
          "name": "dtAmountIn",
          "type": "uint256"
        },
        {
          "internalType": "uint256",
          "name": "minBaseAmountOut",
          "type": "uint256"
        }
      ],
      "name": "swapExactDatatokenToBaseToken",
      "outputs": [
        {
          "internalType": "uint256",
          "name": "baseAmountOut",
          "type": "uint256"
        }
      ],
      "stateMutability": "nonpayable",
      "type": "function"
    }
  ],
  "bytecode": "0x608060405234801561001057600080fd5b5060016000819055506123ea806100286000396000f3fe608060405234801561001057600080fd5b50600436106100b45760003560e01c80637cbc8bfa116100715780637cbc8bfa146101a457806398f7e7e5146101d45780639cac5bc314610204578063c36596a614610222578063c909e40a14610240578063d09484c214610270576100b4565b8063098d3228146100b95780631f05551c146100d7578063220ab80c146101075780632b6e01db14610125578063495d204014610143578063687676ab14610174575b600080fd5b6100c161028e565b6040516100ce9190611578565b60405180910390f35b6100f160048036038101906100ec9190611658565b6102b2565b6040516100fe9190611578565b60405180910390f35b61010f610349565b60405161011c9190611744565b60405180910390f35b61012d610382565b60405161013a9190611578565b60405180910390f35b61015d60048036038101906101589190611766565b610387565b60405161016b9291906117f3565b60405180910390f35b61018e60048036038101906101899190611658565b610957565b60405161019b9190611578565b60405180910390f35b6101be60048036038101906101b9919061181c565b610b91565b6040516101cb9190611578565b60405180910390f35b6101ee60048036038101906101e99190611658565b611189565b6040516101fb9190611578565b60405180910390f35b61020c611220565b6040516102199190611744565b60405180910390f35b61022a611259565b6040516102379190611578565b60405180910390f35b61025a60048036038101906102559190611658565b611265565b6040516102679190611578565b60405180910390f35b61027861149f565b6040516102859190611744565b60405180910390f35b7fffffffffffffffffffffffffffffffffffffffffffffffffffffffffffffffff81565b6000808490508073ffffffffffffffffffffffffffffffffffffffff1663dd1bc96a858560006040518463ffffffff1660e01b81526004016102f6939291906118cd565b608060405180830381865afa158015610313573d6000803e3d6000fd5b505050506040513d601f19601f820116820180604052508101906103379190611919565b90915090505080925050509392505050565b6040518060400160405280600581526020017f5354414b4500000000000000000000000000000000000000000000000000000081525081565b600081565b60008060008690503073ffffffffffffffffffffffffffffffffffffffff168173ffffffffffffffffffffffffffffffffffffffff1663855058dd886040518263ffffffff1660e01b81526004016103df9190611980565b602060405180830381865afa1580156103fc573d6000803e3d6000fd5b505050506040513d601f19601f8201168201806040525081019061042091906119b0565b73ffffffffffffffffffffffffffffffffffffffff1614610476576040517f08c379a000000000000000000000000000000000000000000000000000000000815260040161046d90611a4f565b60405180910390fd5b6000899050858173ffffffffffffffffffffffffffffffffffffffff166370a08231336040518263ffffffff1660e01b81526004016104b59190611a7e565b602060405180830381865afa1580156104d2573d6000803e3d6000fd5b505050506040513d601f19601f820116820180604052508101906104f69190611a99565b1015610537576040517f08c379a000000000000000000000000000000000000000000000000000000000815260040161052e90611b38565b60405180910390fd5b3073ffffffffffffffffffffffffffffffffffffffff163373ffffffffffffffffffffffffffffffffffffffff161461062a578073ffffffffffffffffffffffffffffffffffffffff166323b872dd3330896040518463ffffffff1660e01b81526004016105a793929190611b58565b6020604051808303816000875af11580156105c6573d6000803e3d6000fd5b505050506040513d601f19601f820116820180604052508101906105ea9190611bc7565b610629576040517f08c379a000000000000000000000000000000000000000000000000000000000815260040161062090611c66565b60405180910390fd5b5b8073ffffffffffffffffffffffffffffffffffffffff1663095ea7b389886040518363ffffffff1660e01b8152600401610665929190611c86565b6020604051808303816000875af1158015610684573d6000803e3d6000fd5b505050506040513d601f19601f820116820180604052508101906106a89190611bc7565b6106e7576040517f08c379a00000000000000000000000000000000000000000000000000000000081526004016106de90611d21565b60405180910390fd5b60008173ffffffffffffffffffffffffffffffffffffffff166370a08231306040518263ffffffff1660e01b81526004016107229190611a7e565b602060405180830381865afa15801561073f573d6000803e3d6000fd5b505050506040513d601f19601f820116820180604052508101906107639190611a99565b90508273ffffffffffffffffffffffffffffffffffffffff166368c4b7e989888a6000806040518663ffffffff1660e01b81526004016107a7959493929190611d41565b600060405180830381600087803b1580156107c157600080fd5b505af11580156107d5573d6000803e3d6000fd5b5050505060008273ffffffffffffffffffffffffffffffffffffffff166370a08231306040518263ffffffff1660e01b81526004016108149190611a7e565b602060405180830381865afa158015610831573d6000803e3d6000fd5b505050506040513d601f19601f820116820180604052508101906108559190611a99565b905061086a81836114d890919063ffffffff16565b955061087f86896114d890919063ffffffff16565b94506000851115610948578273ffffffffffffffffffffffffffffffffffffffff1663a9059cbb8c876040518363ffffffff1660e01b81526004016108c5929190611c86565b6020604051808303816000875af11580156108e4573d6000803e3d6000fd5b505050506040513d601f19601f820116820180604052508101906109089190611bc7565b610947576040517f08c379a000000000000000000000000000000000000000000000000000000000815260040161093e90611e06565b60405180910390fd5b5b50505050965096945050505050565b600080849050610965611530565b8173ffffffffffffffffffffffffffffffffffffffff1663b32b56f9866040518263ffffffff1660e01b815260040161099e9190611980565b602060405180830381865afa1580156109bb573d6000803e3d6000fd5b505050506040513d601f19601f820116820180604052508101906109df9190611a99565b8160400181815250508173ffffffffffffffffffffffffffffffffffffffff16630b3b430d866040518263ffffffff1660e01b8152600401610a219190611980565b60a060405180830381865afa158015610a3e573d6000803e3d6000fd5b505050506040513d601f19601f82011682018060405250810190610a629190611e26565b909192509050508260600183608001828152508281525050506000610af28260400151610ae48460200151600a610a999190612003565b610ad68660000151600a610aad9190612003565b610ac8670de0b6b3a76400008c6114ee90919063ffffffff16565b6114ee90919063ffffffff16565b61150490919063ffffffff16565b61150490919063ffffffff16565b90506000610b27670de0b6b3a7640000610b198560600151856114ee90919063ffffffff16565b61150490919063ffffffff16565b90506000610b5c670de0b6b3a7640000610b4e8660800151866114ee90919063ffffffff16565b61150490919063ffffffff16565b9050610b83610b74828461151a90919063ffffffff16565b8461151a90919063ffffffff16565b955050505050509392505050565b6000808590503073ffffffffffffffffffffffffffffffffffffffff168173ffffffffffffffffffffffffffffffffffffffff1663855058dd876040518263ffffffff1660e01b8152600401610be79190611980565b602060405180830381865afa158015610c04573d6000803e3d6000fd5b505050506040513d601f19601f82011682018060405250810190610c2891906119b0565b73ffffffffffffffffffffffffffffffffffffffff1614610c7e576040517f08c379a0000000000000000000000000000000000000000000000000000000008152600401610c7590611a4f565b60405180910390fd5b6000889050848173ffffffffffffffffffffffffffffffffffffffff166370a08231336040518263ffffffff1660e01b8152600401610cbd9190611a7e565b602060405180830381865afa158015610cda573d6000803e3d6000fd5b505050506040513d601f19601f82011682018060405250810190610cfe9190611a99565b1015610d3f576040517f08c379a0000000000000000000000000000000000000000000000000000000008152600401610d36906120c0565b60405180910390fd5b60008a90503073ffffffffffffffffffffffffffffffffffffffff163373ffffffffffffffffffffffffffffffffffffffff1614610e37578173ffffffffffffffffffffffffffffffffffffffff166323b872dd3330896040518463ffffffff1660e01b8152600401610db493929190611b58565b6020604051808303816000875af1158015610dd3573d6000803e3d6000fd5b505050506040513d601f19601f82011682018060405250810190610df79190611bc7565b610e36576040517f08c379a0000000000000000000000000000000000000000000000000000000008152600401610e2d90612152565b60405180910390fd5b5b8173ffffffffffffffffffffffffffffffffffffffff1663095ea7b389886040518363ffffffff1660e01b8152600401610e72929190611c86565b6020604051808303816000875af1158015610e91573d6000803e3d6000fd5b505050506040513d601f19601f82011682018060405250810190610eb59190611bc7565b610ef4576040517f08c379a0000000000000000000000000000000000000000000000000000000008152600401610eeb90611d21565b60405180910390fd5b60008173ffffffffffffffffffffffffffffffffffffffff166370a08231306040518263ffffffff1660e01b8152600401610f2f9190611a7e565b602060405180830381865afa158015610f4c573d6000803e3d6000fd5b505050506040513d601f19601f82011682018060405250810190610f709190611a99565b90508373ffffffffffffffffffffffffffffffffffffffff166350d571d58989896000806040518663ffffffff1660e01b8152600401610fb4959493929190611d41565b600060405180830381600087803b158015610fce57600080fd5b505af1158015610fe2573d6000803e3d6000fd5b5050505060008273ffffffffffffffffffffffffffffffffffffffff166370a08231306040518263ffffffff1660e01b81526004016110219190611a7e565b602060405180830381865afa15801561103e573d6000803e3d6000fd5b505050506040513d601f19601f820116820180604052508101906110629190611a99565b905061107782826114d890919063ffffffff16565b9550858711156110bc576040517f08c379a00000000000000000000000000000000000000000000000000000000081526004016110b3906121be565b60405180910390fd5b8273ffffffffffffffffffffffffffffffffffffffff1663a9059cbb8c886040518363ffffffff1660e01b81526004016110f7929190611c86565b6020604051808303816000875af1158015611116573d6000803e3d6000fd5b505050506040513d601f19601f8201168201806040525081019061113a9190611bc7565b611179576040517f08c379a000000000000000000000000000000000000000000000000000000000815260040161117090612250565b60405180910390fd5b5050505050979650505050505050565b6000808490508073ffffffffffffffffffffffffffffffffffffffff1663c2c0d1ab858560006040518463ffffffff1660e01b81526004016111cd939291906118cd565b608060405180830381865afa1580156111ea573d6000803e3d6000fd5b505050506040513d601f19601f8201168201806040525081019061120e9190611919565b90915090505080925050509392505050565b6040518060400160405280600581526020017f545241444500000000000000000000000000000000000000000000000000000081525081565b670de0b6b3a764000081565b600080849050611273611530565b8173ffffffffffffffffffffffffffffffffffffffff1663b32b56f9866040518263ffffffff1660e01b81526004016112ac9190611980565b602060405180830381865afa1580156112c9573d6000803e3d6000fd5b505050506040513d601f19601f820116820180604052508101906112ed9190611a99565b8160400181815250508173ffffffffffffffffffffffffffffffffffffffff16630b3b430d866040518263ffffffff1660e01b815260040161132f9190611980565b60a060405180830381865afa15801561134c573d6000803e3d6000fd5b505050506040513d601f19601f820116820180604052508101906113709190611e26565b90919250905050826060018360800182815250828152505050600061140082604001516113f28460200151600a6113a79190612003565b6113e48660000151600a6113bb9190612003565b6113d6670de0b6b3a76400008c6114ee90919063ffffffff16565b6114ee90919063ffffffff16565b61150490919063ffffffff16565b61150490919063ffffffff16565b90506000611435670de0b6b3a76400006114278560600151856114ee90919063ffffffff16565b61150490919063ffffffff16565b9050600061146a670de0b6b3a764000061145c8660800151866114ee90919063ffffffff16565b61150490919063ffffffff16565b9050611491611482828461151a90919063ffffffff16565b846114d890919063ffffffff16565b955050505050509392505050565b6040518060400160405280600781526020017f554e5354414b450000000000000000000000000000000000000000000000000081525081565b600081836114e69190612270565b905092915050565b600081836114fc91906122a4565b905092915050565b60008183611512919061232d565b905092915050565b60008183611528919061235e565b905092915050565b6040518060a0016040528060008152602001600081526020016000815260200160008152602001600081525090565b6000819050919050565b6115728161155f565b82525050565b600060208201905061158d6000830184611569565b92915050565b600080fd5b600073ffffffffffffffffffffffffffffffffffffffff82169050919050565b60006115c382611598565b9050919050565b6115d3816115b8565b81146115de57600080fd5b50565b6000813590506115f0816115ca565b92915050565b6000819050919050565b611609816115f6565b811461161457600080fd5b50565b60008135905061162681611600565b92915050565b6116358161155f565b811461164057600080fd5b50565b6000813590506116528161162c565b92915050565b60008060006060848603121561167157611670611593565b5b600061167f868287016115e1565b935050602061169086828701611617565b92505060406116a186828701611643565b9150509250925092565b600081519050919050565b600082825260208201905092915050565b60005b838110156116e55780820151818401526020810190506116ca565b838111156116f4576000848401525b50505050565b6000601f19601f8301169050919050565b6000611716826116ab565b61172081856116b6565b93506117308185602086016116c7565b611739816116fa565b840191505092915050565b6000602082019050818103600083015261175e818461170b565b905092915050565b60008060008060008060c0878903121561178357611782611593565b5b600061179189828a016115e1565b96505060206117a289828a016115e1565b95505060406117b389828a016115e1565b94505060606117c489828a01611617565b93505060806117d589828a01611643565b92505060a06117e689828a01611643565b9150509295509295509295565b60006040820190506118086000830185611569565b6118156020830184611569565b9392505050565b600080600080600080600060e0888a03121561183b5761183a611593565b5b60006118498a828b016115e1565b975050602061185a8a828b016115e1565b965050604061186b8a828b016115e1565b955050606061187c8a828b016115e1565b945050608061188d8a828b01611617565b93505060a061189e8a828b01611643565b92505060c06118af8a828b01611643565b91505092959891949750929550565b6118c7816115f6565b82525050565b60006060820190506118e260008301866118be565b6118ef6020830185611569565b6118fc6040830184611569565b949350505050565b6000815190506119138161162c565b92915050565b6000806000806080858703121561193357611932611593565b5b600061194187828801611904565b945050602061195287828801611904565b935050604061196387828801611904565b925050606061197487828801611904565b91505092959194509250565b600060208201905061199560008301846118be565b92915050565b6000815190506119aa816115ca565b92915050565b6000602082840312156119c6576119c5611593565b5b60006119d48482850161199b565b91505092915050565b7f5472616465526f757465723a204e6f7420616e20616c6c6f776564205377617060008201527f7065720000000000000000000000000000000000000000000000000000000000602082015250565b6000611a396023836116b6565b9150611a44826119dd565b604082019050919050565b60006020820190508181036000830152611a6881611a2c565b9050919050565b611a78816115b8565b82525050565b6000602082019050611a936000830184611a6f565b92915050565b600060208284031215611aaf57611aae611593565b5b6000611abd84828501611904565b91505092915050565b7f5472616465526f757465723a204e6f7420656e6f7567682042617365546f6b6560008201527f6e00000000000000000000000000000000000000000000000000000000000000602082015250565b6000611b226021836116b6565b9150611b2d82611ac6565b604082019050919050565b60006020820190508181036000830152611b5181611b15565b9050919050565b6000606082019050611b6d6000830186611a6f565b611b7a6020830185611a6f565b611b876040830184611569565b949350505050565b60008115159050919050565b611ba481611b8f565b8114611baf57600080fd5b50565b600081519050611bc181611b9b565b92915050565b600060208284031215611bdd57611bdc611593565b5b6000611beb84828501611bb2565b91505092915050565b7f5472616465526f757465723a2053656c662d7472616e7366657220426173657460008201527f6f6b656e204661696c6564000000000000000000000000000000000000000000602082015250565b6000611c50602b836116b6565b9150611c5b82611bf4565b604082019050919050565b60006020820190508181036000830152611c7f81611c43565b9050919050565b6000604082019050611c9b6000830185611a6f565b611ca86020830184611569565b9392505050565b7f5472616465526f757465723a204661696c656420746f20617070726f7665204260008201527f617365746f6b656e206f6e204652450000000000000000000000000000000000602082015250565b6000611d0b602f836116b6565b9150611d1682611caf565b604082019050919050565b60006020820190508181036000830152611d3a81611cfe565b9050919050565b600060a082019050611d5660008301886118be565b611d636020830187611569565b611d706040830186611569565b611d7d6060830185611a6f565b611d8a6080830184611569565b9695505050505050565b7f5472616465526f757465723a2042617365746f6b656e20726566756e6420666160008201527f696c656400000000000000000000000000000000000000000000000000000000602082015250565b6000611df06024836116b6565b9150611dfb82611d94565b604082019050919050565b60006020820190508181036000830152611e1f81611de3565b9050919050565b600080600080600060a08688031215611e4257611e41611593565b5b6000611e5088828901611904565b9550506020611e618882890161199b565b9450506040611e7288828901611904565b9350506060611e8388828901611904565b9250506080611e9488828901611904565b9150509295509295909350565b7f4e487b7100000000000000000000000000000000000000000000000000000000600052601160045260246000fd5b60008160011c9050919050565b6000808291508390505b6001851115611f2757808604811115611f0357611f02611ea1565b5b6001851615611f125780820291505b8081029050611f2085611ed0565b9450611ee7565b94509492505050565b600082611f405760019050611ffc565b81611f4e5760009050611ffc565b8160018114611f645760028114611f6e57611f9d565b6001915050611ffc565b60ff841115611f8057611f7f611ea1565b5b8360020a915084821115611f9757611f96611ea1565b5b50611ffc565b5060208310610133831016604e8410600b8410161715611fd25782820a905083811115611fcd57611fcc611ea1565b5b611ffc565b611fdf8484846001611edd565b92509050818404811115611ff657611ff5611ea1565b5b81810290505b9392505050565b600061200e8261155f565b91506120198361155f565b92506120467fffffffffffffffffffffffffffffffffffffffffffffffffffffffffffffffff8484611f30565b905092915050565b7f5472616465526f757465723a204e6f7420656e6f7567682044617461746f6b6560008201527f6e00000000000000000000000000000000000000000000000000000000000000602082015250565b60006120aa6021836116b6565b91506120b58261204e565b604082019050919050565b600060208201905081810360008301526120d98161209d565b9050919050565b7f5472616465526f757465723a2053656c662d7472616e7366657220446174617460008201527f6f6b656e204661696c6564000000000000000000000000000000000000000000602082015250565b600061213c602b836116b6565b9150612147826120e0565b604082019050919050565b6000602082019050818103600083015261216b8161212f565b9050919050565b7f5472616465526f757465723a202042617365416d6f756e7420746f6f206c6f77600082015250565b60006121a86020836116b6565b91506121b382612172565b602082019050919050565b600060208201905081810360008301526121d78161219b565b9050919050565b7f5472616465526f757465723a2042617365746f6b656e207472616e736665722060008201527f6661696c65640000000000000000000000000000000000000000000000000000602082015250565b600061223a6026836116b6565b9150612245826121de565b604082019050919050565b600060208201905081810360008301526122698161222d565b9050919050565b600061227b8261155f565b91506122868361155f565b92508282101561229957612298611ea1565b5b828203905092915050565b60006122af8261155f565b91506122ba8361155f565b9250817fffffffffffffffffffffffffffffffffffffffffffffffffffffffffffffffff04831182151516156122f3576122f2611ea1565b5b828202905092915050565b7f4e487b7100000000000000000000000000000000000000000000000000000000600052601260045260246000fd5b60006123388261155f565b91506123438361155f565b925082612353576123526122fe565b5b828204905092915050565b60006123698261155f565b91506123748361155f565b9250827fffffffffffffffffffffffffffffffffffffffffffffffffffffffffffffffff038211156123a9576123a8611ea1565b5b82820190509291505056fea2646970667358221220797be0a2ed1b7c68ec59461edb1f6f115ba6b98ebcc212cd8b628f2c1081897764736f6c634300080c0033",
  "linkReferences": {},
  "deployedLinkReferences": {}
}