{
  "_format": "hh-sol-artifact-1",
  "contractName": "FRERouter",
  "sourceName": "contracts/defi/routers/FRERouter.sol",
  "abi": [
    {
      "inputs": [],
      "stateMutability": "nonpayable",
      "type": "constructor"
    },
    {
      "inputs": [],
      "name": "BONE",
      "outputs": [
        {
          "internalType": "uint256",
          "name": "",
          "type": "uint256"
        }
      ],
      "stateMutability": "view",
      "type": "function"
    },
    {
      "inputs": [],
      "name": "BPOW_PRECISION",
      "outputs": [
        {
          "internalType": "uint256",
          "name": "",
          "type": "uint256"
        }
      ],
      "stateMutability": "view",
      "type": "function"
    },
    {
      "inputs": [],
      "name": "MAX_BPOW_BASE",
      "outputs": [
        {
          "internalType": "uint256",
          "name": "",
          "type": "uint256"
        }
      ],
      "stateMutability": "view",
      "type": "function"
    },
    {
      "inputs": [],
      "name": "MAX_INT",
      "outputs": [
        {
          "internalType": "uint256",
          "name": "",
          "type": "uint256"
        }
      ],
      "stateMutability": "view",
      "type": "function"
    },
    {
      "inputs": [],
      "name": "MIN_BPOW_BASE",
      "outputs": [
        {
          "internalType": "uint256",
          "name": "",
          "type": "uint256"
        }
      ],
      "stateMutability": "view",
      "type": "function"
    },
    {
      "inputs": [],
      "name": "ZERO_FEES",
      "outputs": [
        {
          "internalType": "uint256",
          "name": "",
          "type": "uint256"
        }
      ],
      "stateMutability": "view",
      "type": "function"
    },
    {
      "inputs": [
        {
          "internalType": "address",
          "name": "exchange",
          "type": "address"
        },
        {
          "internalType": "bytes32",
          "name": "exchangeId",
          "type": "bytes32"
        },
        {
          "internalType": "uint256",
          "name": "dtAmountOut",
          "type": "uint256"
        }
      ],
      "name": "calcBaseTokenInGivenDatatokenOut",
      "outputs": [
        {
          "internalType": "uint256",
          "name": "baseAmountIn",
          "type": "uint256"
        }
      ],
      "stateMutability": "view",
      "type": "function"
    },
    {
      "inputs": [
        {
          "internalType": "address",
          "name": "exchangeAddress",
          "type": "address"
        },
        {
          "internalType": "bytes32",
          "name": "exchangeId",
          "type": "bytes32"
        },
        {
          "internalType": "uint256",
          "name": "dtAmountIn",
          "type": "uint256"
        }
      ],
      "name": "calcBaseTokenOutGivenDatatokenIn",
      "outputs": [
        {
          "internalType": "uint256",
          "name": "baseAmountOut",
          "type": "uint256"
        }
      ],
      "stateMutability": "view",
      "type": "function"
    },
    {
      "inputs": [
        {
          "internalType": "address",
          "name": "exchangeAddress",
          "type": "address"
        },
        {
          "internalType": "bytes32",
          "name": "exchangeId",
          "type": "bytes32"
        },
        {
          "internalType": "uint256",
          "name": "baseAmountOut",
          "type": "uint256"
        }
      ],
      "name": "calcDatatokenInGivenBaseTokenOut",
      "outputs": [
        {
          "internalType": "uint256",
          "name": "dtAmountIn",
          "type": "uint256"
        }
      ],
      "stateMutability": "view",
      "type": "function"
    },
    {
      "inputs": [
        {
          "internalType": "address",
          "name": "exchangeAddress",
          "type": "address"
        },
        {
          "internalType": "bytes32",
          "name": "exchangeId",
          "type": "bytes32"
        },
        {
          "internalType": "uint256",
          "name": "baseAmountIn",
          "type": "uint256"
        }
      ],
      "name": "calcDatatokenOutGivenBaseTokenIn",
      "outputs": [
        {
          "internalType": "uint256",
          "name": "dtAmountOut",
          "type": "uint256"
        }
      ],
      "stateMutability": "view",
      "type": "function"
    },
    {
      "inputs": [
        {
          "internalType": "address",
          "name": "baseTokenAddress",
          "type": "address"
        },
        {
          "internalType": "address",
          "name": "to",
          "type": "address"
        },
        {
          "internalType": "address",
          "name": "exchangeAddress",
          "type": "address"
        },
        {
          "internalType": "bytes32",
          "name": "exchangeId",
          "type": "bytes32"
        },
        {
          "internalType": "uint256",
          "name": "maxBaseAmountIn",
          "type": "uint256"
        },
        {
          "internalType": "uint256",
          "name": "dtAmountOut",
          "type": "uint256"
        }
      ],
      "name": "swapBaseTokenToExactDatatoken",
      "outputs": [
        {
          "internalType": "uint256",
          "name": "baseAmountIn",
          "type": "uint256"
        },
        {
          "internalType": "uint256",
          "name": "toRefund",
          "type": "uint256"
        }
      ],
      "stateMutability": "nonpayable",
      "type": "function"
    },
    {
      "inputs": [
        {
          "internalType": "address",
          "name": "baseTokenAddress",
          "type": "address"
        },
        {
          "internalType": "address",
          "name": "datatokenAddress",
          "type": "address"
        },
        {
          "internalType": "address",
          "name": "to",
          "type": "address"
        },
        {
          "internalType": "address",
          "name": "exchangeAddress",
          "type": "address"
        },
        {
          "internalType": "bytes32",
          "name": "exchangeId",
          "type": "bytes32"
        },
        {
          "internalType": "uint256",
          "name": "dtAmountIn",
          "type": "uint256"
        },
        {
          "internalType": "uint256",
          "name": "minBaseAmountOut",
          "type": "uint256"
        }
      ],
      "name": "swapExactDatatokenToBaseToken",
      "outputs": [
        {
          "internalType": "uint256",
          "name": "baseAmountOut",
          "type": "uint256"
        }
      ],
      "stateMutability": "nonpayable",
      "type": "function"
    }
  ],
  "bytecode": "0x608060405234801561001057600080fd5b506001600081905550612527806100286000396000f3fe608060405234801561001057600080fd5b50600436106100b45760003560e01c80637cbc8bfa116100715780637cbc8bfa146101a457806398f7e7e5146101d4578063ba019dab14610204578063bc694ea214610222578063c36596a614610240578063c909e40a1461025e576100b4565b8063098d3228146100b9578063189d00ca146100d75780631f05551c146100f55780632b6e01db14610125578063495d204014610143578063687676ab14610174575b600080fd5b6100c161028e565b6040516100ce91906116b5565b60405180910390f35b6100df6102b2565b6040516100ec91906116b5565b60405180910390f35b61010f600480360381019061010a9190611795565b6102ce565b60405161011c91906116b5565b60405180910390f35b61012d610365565b60405161013a91906116b5565b60405180910390f35b61015d600480360381019061015891906117e8565b61036a565b60405161016b929190611875565b60405180910390f35b61018e60048036038101906101899190611795565b61093a565b60405161019b91906116b5565b60405180910390f35b6101be60048036038101906101b9919061189e565b610b74565b6040516101cb91906116b5565b60405180910390f35b6101ee60048036038101906101e99190611795565b61116c565b6040516101fb91906116b5565b60405180910390f35b61020c61124b565b60405161021991906116b5565b60405180910390f35b61022a611250565b60405161023791906116b5565b60405180910390f35b610248611274565b60405161025591906116b5565b60405180910390f35b61027860048036038101906102739190611795565b611280565b60405161028591906116b5565b60405180910390f35b7fffffffffffffffffffffffffffffffffffffffffffffffffffffffffffffffff81565b6402540be400670de0b6b3a76400006102cb919061199e565b81565b6000808490508073ffffffffffffffffffffffffffffffffffffffff1663dd1bc96a858560006040518463ffffffff1660e01b8152600401610312939291906119de565b608060405180830381865afa15801561032f573d6000803e3d6000fd5b505050506040513d601f19601f820116820180604052508101906103539190611a2a565b90915090505080925050509392505050565b600081565b60008060008690503073ffffffffffffffffffffffffffffffffffffffff168173ffffffffffffffffffffffffffffffffffffffff1663855058dd886040518263ffffffff1660e01b81526004016103c29190611a91565b602060405180830381865afa1580156103df573d6000803e3d6000fd5b505050506040513d601f19601f820116820180604052508101906104039190611ac1565b73ffffffffffffffffffffffffffffffffffffffff1614610459576040517f08c379a000000000000000000000000000000000000000000000000000000000815260040161045090611b71565b60405180910390fd5b6000899050858173ffffffffffffffffffffffffffffffffffffffff166370a08231336040518263ffffffff1660e01b81526004016104989190611ba0565b602060405180830381865afa1580156104b5573d6000803e3d6000fd5b505050506040513d601f19601f820116820180604052508101906104d99190611bbb565b101561051a576040517f08c379a000000000000000000000000000000000000000000000000000000000815260040161051190611c5a565b60405180910390fd5b3073ffffffffffffffffffffffffffffffffffffffff163373ffffffffffffffffffffffffffffffffffffffff161461060d578073ffffffffffffffffffffffffffffffffffffffff166323b872dd3330896040518463ffffffff1660e01b815260040161058a93929190611c7a565b6020604051808303816000875af11580156105a9573d6000803e3d6000fd5b505050506040513d601f19601f820116820180604052508101906105cd9190611ce9565b61060c576040517f08c379a000000000000000000000000000000000000000000000000000000000815260040161060390611d88565b60405180910390fd5b5b8073ffffffffffffffffffffffffffffffffffffffff1663095ea7b389886040518363ffffffff1660e01b8152600401610648929190611da8565b6020604051808303816000875af1158015610667573d6000803e3d6000fd5b505050506040513d601f19601f8201168201806040525081019061068b9190611ce9565b6106ca576040517f08c379a00000000000000000000000000000000000000000000000000000000081526004016106c190611e43565b60405180910390fd5b60008173ffffffffffffffffffffffffffffffffffffffff166370a08231306040518263ffffffff1660e01b81526004016107059190611ba0565b602060405180830381865afa158015610722573d6000803e3d6000fd5b505050506040513d601f19601f820116820180604052508101906107469190611bbb565b90508273ffffffffffffffffffffffffffffffffffffffff166368c4b7e989888a6000806040518663ffffffff1660e01b815260040161078a959493929190611e63565b600060405180830381600087803b1580156107a457600080fd5b505af11580156107b8573d6000803e3d6000fd5b5050505060008273ffffffffffffffffffffffffffffffffffffffff166370a08231306040518263ffffffff1660e01b81526004016107f79190611ba0565b602060405180830381865afa158015610814573d6000803e3d6000fd5b505050506040513d601f19601f820116820180604052508101906108389190611bbb565b905061084d81836114ba90919063ffffffff16565b955061086286896114ba90919063ffffffff16565b9450600085111561092b578273ffffffffffffffffffffffffffffffffffffffff1663a9059cbb8c876040518363ffffffff1660e01b81526004016108a8929190611da8565b6020604051808303816000875af11580156108c7573d6000803e3d6000fd5b505050506040513d601f19601f820116820180604052508101906108eb9190611ce9565b61092a576040517f08c379a000000000000000000000000000000000000000000000000000000000815260040161092190611f28565b60405180910390fd5b5b50505050965096945050505050565b60008084905061094861166d565b8173ffffffffffffffffffffffffffffffffffffffff1663b32b56f9866040518263ffffffff1660e01b81526004016109819190611a91565b602060405180830381865afa15801561099e573d6000803e3d6000fd5b505050506040513d601f19601f820116820180604052508101906109c29190611bbb565b8160400181815250508173ffffffffffffffffffffffffffffffffffffffff16630b3b430d866040518263ffffffff1660e01b8152600401610a049190611a91565b60a060405180830381865afa158015610a21573d6000803e3d6000fd5b505050506040513d601f19601f82011682018060405250810190610a459190611f48565b909192509050508260600183608001828152508281525050506000610ad58260400151610ac78460200151600a610a7c91906120f6565b610ab98660000151600a610a9091906120f6565b610aab670de0b6b3a76400008c6114d090919063ffffffff16565b6114d090919063ffffffff16565b6114e690919063ffffffff16565b6114e690919063ffffffff16565b90506000610b0a670de0b6b3a7640000610afc8560600151856114d090919063ffffffff16565b6114e690919063ffffffff16565b90506000610b3f670de0b6b3a7640000610b318660800151866114d090919063ffffffff16565b6114e690919063ffffffff16565b9050610b66610b5782846114fc90919063ffffffff16565b846114fc90919063ffffffff16565b955050505050509392505050565b6000808590503073ffffffffffffffffffffffffffffffffffffffff168173ffffffffffffffffffffffffffffffffffffffff1663855058dd876040518263ffffffff1660e01b8152600401610bca9190611a91565b602060405180830381865afa158015610be7573d6000803e3d6000fd5b505050506040513d601f19601f82011682018060405250810190610c0b9190611ac1565b73ffffffffffffffffffffffffffffffffffffffff1614610c61576040517f08c379a0000000000000000000000000000000000000000000000000000000008152600401610c5890611b71565b60405180910390fd5b6000889050848173ffffffffffffffffffffffffffffffffffffffff166370a08231336040518263ffffffff1660e01b8152600401610ca09190611ba0565b602060405180830381865afa158015610cbd573d6000803e3d6000fd5b505050506040513d601f19601f82011682018060405250810190610ce19190611bbb565b1015610d22576040517f08c379a0000000000000000000000000000000000000000000000000000000008152600401610d19906121b3565b60405180910390fd5b60008a90503073ffffffffffffffffffffffffffffffffffffffff163373ffffffffffffffffffffffffffffffffffffffff1614610e1a578173ffffffffffffffffffffffffffffffffffffffff166323b872dd3330896040518463ffffffff1660e01b8152600401610d9793929190611c7a565b6020604051808303816000875af1158015610db6573d6000803e3d6000fd5b505050506040513d601f19601f82011682018060405250810190610dda9190611ce9565b610e19576040517f08c379a0000000000000000000000000000000000000000000000000000000008152600401610e1090612245565b60405180910390fd5b5b8173ffffffffffffffffffffffffffffffffffffffff1663095ea7b389886040518363ffffffff1660e01b8152600401610e55929190611da8565b6020604051808303816000875af1158015610e74573d6000803e3d6000fd5b505050506040513d601f19601f82011682018060405250810190610e989190611ce9565b610ed7576040517f08c379a0000000000000000000000000000000000000000000000000000000008152600401610ece90611e43565b60405180910390fd5b60008173ffffffffffffffffffffffffffffffffffffffff166370a08231306040518263ffffffff1660e01b8152600401610f129190611ba0565b602060405180830381865afa158015610f2f573d6000803e3d6000fd5b505050506040513d601f19601f82011682018060405250810190610f539190611bbb565b90508373ffffffffffffffffffffffffffffffffffffffff166350d571d58989896000806040518663ffffffff1660e01b8152600401610f97959493929190611e63565b600060405180830381600087803b158015610fb157600080fd5b505af1158015610fc5573d6000803e3d6000fd5b5050505060008273ffffffffffffffffffffffffffffffffffffffff166370a08231306040518263ffffffff1660e01b81526004016110049190611ba0565b602060405180830381865afa158015611021573d6000803e3d6000fd5b505050506040513d601f19601f820116820180604052508101906110459190611bbb565b905061105a82826114ba90919063ffffffff16565b95508587111561109f576040517f08c379a0000000000000000000000000000000000000000000000000000000008152600401611096906122b1565b60405180910390fd5b8273ffffffffffffffffffffffffffffffffffffffff1663a9059cbb8c886040518363ffffffff1660e01b81526004016110da929190611da8565b6020604051808303816000875af11580156110f9573d6000803e3d6000fd5b505050506040513d601f19601f8201168201806040525081019061111d9190611ce9565b61115c576040517f08c379a000000000000000000000000000000000000000000000000000000000815260040161115390612343565b60405180910390fd5b5050505050979650505050505050565b60006111ac6040518060400160405280601081526020017f4652452045786368616e67652049442000000000000000000000000000000000815250611512565b6111b5836115ab565b60008490508073ffffffffffffffffffffffffffffffffffffffff1663c2c0d1ab858560006040518463ffffffff1660e01b81526004016111f8939291906119de565b608060405180830381865afa158015611215573d6000803e3d6000fd5b505050506040513d601f19601f820116820180604052508101906112399190611a2a565b90915090505080925050509392505050565b600181565b6001670de0b6b3a764000060026112679190612363565b61127191906123bd565b81565b670de0b6b3a764000081565b60008084905061128e61166d565b8173ffffffffffffffffffffffffffffffffffffffff1663b32b56f9866040518263ffffffff1660e01b81526004016112c79190611a91565b602060405180830381865afa1580156112e4573d6000803e3d6000fd5b505050506040513d601f19601f820116820180604052508101906113089190611bbb565b8160400181815250508173ffffffffffffffffffffffffffffffffffffffff16630b3b430d866040518263ffffffff1660e01b815260040161134a9190611a91565b60a060405180830381865afa158015611367573d6000803e3d6000fd5b505050506040513d601f19601f8201168201806040525081019061138b9190611f48565b90919250905050826060018360800182815250828152505050600061141b826040015161140d8460200151600a6113c291906120f6565b6113ff8660000151600a6113d691906120f6565b6113f1670de0b6b3a76400008c6114d090919063ffffffff16565b6114d090919063ffffffff16565b6114e690919063ffffffff16565b6114e690919063ffffffff16565b90506000611450670de0b6b3a76400006114428560600151856114d090919063ffffffff16565b6114e690919063ffffffff16565b90506000611485670de0b6b3a76400006114778660800151866114d090919063ffffffff16565b6114e690919063ffffffff16565b90506114ac61149d82846114fc90919063ffffffff16565b846114ba90919063ffffffff16565b955050505050509392505050565b600081836114c891906123bd565b905092915050565b600081836114de9190612363565b905092915050565b600081836114f4919061199e565b905092915050565b6000818361150a91906123f1565b905092915050565b6115a88160405160240161152691906124cf565b6040516020818303038152906040527f41304fac000000000000000000000000000000000000000000000000000000007bffffffffffffffffffffffffffffffffffffffffffffffffffffffff19166020820180517bffffffffffffffffffffffffffffffffffffffffffffffffffffffff8381831617835250505050611644565b50565b611641816040516024016115bf9190611a91565b6040516020818303038152906040527f27b7cf85000000000000000000000000000000000000000000000000000000007bffffffffffffffffffffffffffffffffffffffffffffffffffffffff19166020820180517bffffffffffffffffffffffffffffffffffffffffffffffffffffffff8381831617835250505050611644565b50565b60008151905060006a636f6e736f6c652e6c6f679050602083016000808483855afa5050505050565b6040518060a0016040528060008152602001600081526020016000815260200160008152602001600081525090565b6000819050919050565b6116af8161169c565b82525050565b60006020820190506116ca60008301846116a6565b92915050565b600080fd5b600073ffffffffffffffffffffffffffffffffffffffff82169050919050565b6000611700826116d5565b9050919050565b611710816116f5565b811461171b57600080fd5b50565b60008135905061172d81611707565b92915050565b6000819050919050565b61174681611733565b811461175157600080fd5b50565b6000813590506117638161173d565b92915050565b6117728161169c565b811461177d57600080fd5b50565b60008135905061178f81611769565b92915050565b6000806000606084860312156117ae576117ad6116d0565b5b60006117bc8682870161171e565b93505060206117cd86828701611754565b92505060406117de86828701611780565b9150509250925092565b60008060008060008060c08789031215611805576118046116d0565b5b600061181389828a0161171e565b965050602061182489828a0161171e565b955050604061183589828a0161171e565b945050606061184689828a01611754565b935050608061185789828a01611780565b92505060a061186889828a01611780565b9150509295509295509295565b600060408201905061188a60008301856116a6565b61189760208301846116a6565b9392505050565b600080600080600080600060e0888a0312156118bd576118bc6116d0565b5b60006118cb8a828b0161171e565b97505060206118dc8a828b0161171e565b96505060406118ed8a828b0161171e565b95505060606118fe8a828b0161171e565b945050608061190f8a828b01611754565b93505060a06119208a828b01611780565b92505060c06119318a828b01611780565b91505092959891949750929550565b7f4e487b7100000000000000000000000000000000000000000000000000000000600052601260045260246000fd5b7f4e487b7100000000000000000000000000000000000000000000000000000000600052601160045260246000fd5b60006119a98261169c565b91506119b48361169c565b9250826119c4576119c3611940565b5b828204905092915050565b6119d881611733565b82525050565b60006060820190506119f360008301866119cf565b611a0060208301856116a6565b611a0d60408301846116a6565b949350505050565b600081519050611a2481611769565b92915050565b60008060008060808587031215611a4457611a436116d0565b5b6000611a5287828801611a15565b9450506020611a6387828801611a15565b9350506040611a7487828801611a15565b9250506060611a8587828801611a15565b91505092959194509250565b6000602082019050611aa660008301846119cf565b92915050565b600081519050611abb81611707565b92915050565b600060208284031215611ad757611ad66116d0565b5b6000611ae584828501611aac565b91505092915050565b600082825260208201905092915050565b7f5472616465526f757465723a204e6f7420616e20616c6c6f776564205377617060008201527f7065720000000000000000000000000000000000000000000000000000000000602082015250565b6000611b5b602383611aee565b9150611b6682611aff565b604082019050919050565b60006020820190508181036000830152611b8a81611b4e565b9050919050565b611b9a816116f5565b82525050565b6000602082019050611bb56000830184611b91565b92915050565b600060208284031215611bd157611bd06116d0565b5b6000611bdf84828501611a15565b91505092915050565b7f5472616465526f757465723a204e6f7420656e6f7567682042617365546f6b6560008201527f6e00000000000000000000000000000000000000000000000000000000000000602082015250565b6000611c44602183611aee565b9150611c4f82611be8565b604082019050919050565b60006020820190508181036000830152611c7381611c37565b9050919050565b6000606082019050611c8f6000830186611b91565b611c9c6020830185611b91565b611ca960408301846116a6565b949350505050565b60008115159050919050565b611cc681611cb1565b8114611cd157600080fd5b50565b600081519050611ce381611cbd565b92915050565b600060208284031215611cff57611cfe6116d0565b5b6000611d0d84828501611cd4565b91505092915050565b7f5472616465526f757465723a2053656c662d7472616e7366657220426173657460008201527f6f6b656e204661696c6564000000000000000000000000000000000000000000602082015250565b6000611d72602b83611aee565b9150611d7d82611d16565b604082019050919050565b60006020820190508181036000830152611da181611d65565b9050919050565b6000604082019050611dbd6000830185611b91565b611dca60208301846116a6565b9392505050565b7f5472616465526f757465723a204661696c656420746f20617070726f7665204260008201527f617365746f6b656e206f6e204652450000000000000000000000000000000000602082015250565b6000611e2d602f83611aee565b9150611e3882611dd1565b604082019050919050565b60006020820190508181036000830152611e5c81611e20565b9050919050565b600060a082019050611e7860008301886119cf565b611e8560208301876116a6565b611e9260408301866116a6565b611e9f6060830185611b91565b611eac60808301846116a6565b9695505050505050565b7f5472616465526f757465723a2042617365746f6b656e20726566756e6420666160008201527f696c656400000000000000000000000000000000000000000000000000000000602082015250565b6000611f12602483611aee565b9150611f1d82611eb6565b604082019050919050565b60006020820190508181036000830152611f4181611f05565b9050919050565b600080600080600060a08688031215611f6457611f636116d0565b5b6000611f7288828901611a15565b9550506020611f8388828901611aac565b9450506040611f9488828901611a15565b9350506060611fa588828901611a15565b9250506080611fb688828901611a15565b9150509295509295909350565b60008160011c9050919050565b6000808291508390505b600185111561201a57808604811115611ff657611ff561196f565b5b60018516156120055780820291505b808102905061201385611fc3565b9450611fda565b94509492505050565b60008261203357600190506120ef565b8161204157600090506120ef565b8160018114612057576002811461206157612090565b60019150506120ef565b60ff8411156120735761207261196f565b5b8360020a91508482111561208a5761208961196f565b5b506120ef565b5060208310610133831016604e8410600b84101617156120c55782820a9050838111156120c0576120bf61196f565b5b6120ef565b6120d28484846001611fd0565b925090508184048111156120e9576120e861196f565b5b81810290505b9392505050565b60006121018261169c565b915061210c8361169c565b92506121397fffffffffffffffffffffffffffffffffffffffffffffffffffffffffffffffff8484612023565b905092915050565b7f5472616465526f757465723a204e6f7420656e6f7567682044617461746f6b6560008201527f6e00000000000000000000000000000000000000000000000000000000000000602082015250565b600061219d602183611aee565b91506121a882612141565b604082019050919050565b600060208201905081810360008301526121cc81612190565b9050919050565b7f5472616465526f757465723a2053656c662d7472616e7366657220446174617460008201527f6f6b656e204661696c6564000000000000000000000000000000000000000000602082015250565b600061222f602b83611aee565b915061223a826121d3565b604082019050919050565b6000602082019050818103600083015261225e81612222565b9050919050565b7f5472616465526f757465723a202042617365416d6f756e7420746f6f206c6f77600082015250565b600061229b602083611aee565b91506122a682612265565b602082019050919050565b600060208201905081810360008301526122ca8161228e565b9050919050565b7f5472616465526f757465723a2042617365746f6b656e207472616e736665722060008201527f6661696c65640000000000000000000000000000000000000000000000000000602082015250565b600061232d602683611aee565b9150612338826122d1565b604082019050919050565b6000602082019050818103600083015261235c81612320565b9050919050565b600061236e8261169c565b91506123798361169c565b9250817fffffffffffffffffffffffffffffffffffffffffffffffffffffffffffffffff04831182151516156123b2576123b161196f565b5b828202905092915050565b60006123c88261169c565b91506123d38361169c565b9250828210156123e6576123e561196f565b5b828203905092915050565b60006123fc8261169c565b91506124078361169c565b9250827fffffffffffffffffffffffffffffffffffffffffffffffffffffffffffffffff0382111561243c5761243b61196f565b5b828201905092915050565b600081519050919050565b60005b83811015612470578082015181840152602081019050612455565b8381111561247f576000848401525b50505050565b6000601f19601f8301169050919050565b60006124a182612447565b6124ab8185611aee565b93506124bb818560208601612452565b6124c481612485565b840191505092915050565b600060208201905081810360008301526124e98184612496565b90509291505056fea2646970667358221220c2105c02e279d83b38d4e7fe2145b86e51327c28be5e03e2cabe68f7f9130ac064736f6c634300080c0033",
  "linkReferences": {},
  "deployedLinkReferences": {}
}