{
  "_format": "hh-sol-artifact-1",
  "contractName": "DataXOGNFT",
  "sourceName": "contracts/nfts/DataXOGNFT.sol",
  "abi": [
    {
      "inputs": [
        {
          "internalType": "string",
          "name": "baseURI",
          "type": "string"
        }
      ],
      "stateMutability": "nonpayable",
      "type": "constructor"
    },
    {
      "anonymous": false,
      "inputs": [
        {
          "indexed": true,
          "internalType": "address",
          "name": "owner",
          "type": "address"
        },
        {
          "indexed": true,
          "internalType": "address",
          "name": "approved",
          "type": "address"
        },
        {
          "indexed": true,
          "internalType": "uint256",
          "name": "tokenId",
          "type": "uint256"
        }
      ],
      "name": "Approval",
      "type": "event"
    },
    {
      "anonymous": false,
      "inputs": [
        {
          "indexed": true,
          "internalType": "address",
          "name": "owner",
          "type": "address"
        },
        {
          "indexed": true,
          "internalType": "address",
          "name": "operator",
          "type": "address"
        },
        {
          "indexed": false,
          "internalType": "bool",
          "name": "approved",
          "type": "bool"
        }
      ],
      "name": "ApprovalForAll",
      "type": "event"
    },
    {
      "anonymous": false,
      "inputs": [
        {
          "indexed": true,
          "internalType": "uint256",
          "name": "id",
          "type": "uint256"
        },
        {
          "indexed": true,
          "internalType": "address",
          "name": "to",
          "type": "address"
        }
      ],
      "name": "NewMint",
      "type": "event"
    },
    {
      "anonymous": false,
      "inputs": [
        {
          "indexed": true,
          "internalType": "address",
          "name": "previousOwner",
          "type": "address"
        },
        {
          "indexed": true,
          "internalType": "address",
          "name": "newOwner",
          "type": "address"
        }
      ],
      "name": "OwnershipTransferred",
      "type": "event"
    },
    {
      "anonymous": false,
      "inputs": [
        {
          "indexed": true,
          "internalType": "address",
          "name": "from",
          "type": "address"
        },
        {
          "indexed": true,
          "internalType": "address",
          "name": "to",
          "type": "address"
        },
        {
          "indexed": true,
          "internalType": "uint256",
          "name": "tokenId",
          "type": "uint256"
        }
      ],
      "name": "Transfer",
      "type": "event"
    },
    {
      "inputs": [],
      "name": "MAX_BY_MINT",
      "outputs": [
        {
          "internalType": "uint256",
          "name": "",
          "type": "uint256"
        }
      ],
      "stateMutability": "view",
      "type": "function"
    },
    {
      "inputs": [],
      "name": "MAX_ELEMENTS",
      "outputs": [
        {
          "internalType": "uint256",
          "name": "",
          "type": "uint256"
        }
      ],
      "stateMutability": "view",
      "type": "function"
    },
    {
      "inputs": [],
      "name": "START_AT",
      "outputs": [
        {
          "internalType": "uint256",
          "name": "",
          "type": "uint256"
        }
      ],
      "stateMutability": "view",
      "type": "function"
    },
    {
      "inputs": [],
      "name": "adminAddress",
      "outputs": [
        {
          "internalType": "address",
          "name": "",
          "type": "address"
        }
      ],
      "stateMutability": "view",
      "type": "function"
    },
    {
      "inputs": [
        {
          "internalType": "address",
          "name": "to",
          "type": "address"
        },
        {
          "internalType": "uint256",
          "name": "tokenId",
          "type": "uint256"
        }
      ],
      "name": "approve",
      "outputs": [],
      "stateMutability": "nonpayable",
      "type": "function"
    },
    {
      "inputs": [
        {
          "internalType": "address",
          "name": "owner",
          "type": "address"
        }
      ],
      "name": "balanceOf",
      "outputs": [
        {
          "internalType": "uint256",
          "name": "",
          "type": "uint256"
        }
      ],
      "stateMutability": "view",
      "type": "function"
    },
    {
      "inputs": [],
      "name": "baseTokenURI",
      "outputs": [
        {
          "internalType": "string",
          "name": "",
          "type": "string"
        }
      ],
      "stateMutability": "view",
      "type": "function"
    },
    {
      "inputs": [
        {
          "internalType": "uint256",
          "name": "tokenId",
          "type": "uint256"
        }
      ],
      "name": "getApproved",
      "outputs": [
        {
          "internalType": "address",
          "name": "",
          "type": "address"
        }
      ],
      "stateMutability": "view",
      "type": "function"
    },
    {
      "inputs": [
        {
          "internalType": "address",
          "name": "owner",
          "type": "address"
        },
        {
          "internalType": "address",
          "name": "operator",
          "type": "address"
        }
      ],
      "name": "isApprovedForAll",
      "outputs": [
        {
          "internalType": "bool",
          "name": "",
          "type": "bool"
        }
      ],
      "stateMutability": "view",
      "type": "function"
    },
    {
      "inputs": [
        {
          "internalType": "address",
          "name": "_to",
          "type": "address"
        }
      ],
      "name": "mint",
      "outputs": [],
      "stateMutability": "nonpayable",
      "type": "function"
    },
    {
      "inputs": [],
      "name": "name",
      "outputs": [
        {
          "internalType": "string",
          "name": "",
          "type": "string"
        }
      ],
      "stateMutability": "view",
      "type": "function"
    },
    {
      "inputs": [],
      "name": "owner",
      "outputs": [
        {
          "internalType": "address",
          "name": "",
          "type": "address"
        }
      ],
      "stateMutability": "view",
      "type": "function"
    },
    {
      "inputs": [
        {
          "internalType": "uint256",
          "name": "tokenId",
          "type": "uint256"
        }
      ],
      "name": "ownerOf",
      "outputs": [
        {
          "internalType": "address",
          "name": "",
          "type": "address"
        }
      ],
      "stateMutability": "view",
      "type": "function"
    },
    {
      "inputs": [],
      "name": "renounceOwnership",
      "outputs": [],
      "stateMutability": "nonpayable",
      "type": "function"
    },
    {
      "inputs": [
        {
          "internalType": "address",
          "name": "from",
          "type": "address"
        },
        {
          "internalType": "address",
          "name": "to",
          "type": "address"
        },
        {
          "internalType": "uint256",
          "name": "tokenId",
          "type": "uint256"
        }
      ],
      "name": "safeTransferFrom",
      "outputs": [],
      "stateMutability": "nonpayable",
      "type": "function"
    },
    {
      "inputs": [
        {
          "internalType": "address",
          "name": "from",
          "type": "address"
        },
        {
          "internalType": "address",
          "name": "to",
          "type": "address"
        },
        {
          "internalType": "uint256",
          "name": "tokenId",
          "type": "uint256"
        },
        {
          "internalType": "bytes",
          "name": "_data",
          "type": "bytes"
        }
      ],
      "name": "safeTransferFrom",
      "outputs": [],
      "stateMutability": "nonpayable",
      "type": "function"
    },
    {
      "inputs": [
        {
          "internalType": "address",
          "name": "operator",
          "type": "address"
        },
        {
          "internalType": "bool",
          "name": "approved",
          "type": "bool"
        }
      ],
      "name": "setApprovalForAll",
      "outputs": [],
      "stateMutability": "nonpayable",
      "type": "function"
    },
    {
      "inputs": [
        {
          "internalType": "string",
          "name": "baseURI",
          "type": "string"
        }
      ],
      "name": "setBaseURI",
      "outputs": [],
      "stateMutability": "nonpayable",
      "type": "function"
    },
    {
      "inputs": [
        {
          "internalType": "bytes4",
          "name": "interfaceId",
          "type": "bytes4"
        }
      ],
      "name": "supportsInterface",
      "outputs": [
        {
          "internalType": "bool",
          "name": "",
          "type": "bool"
        }
      ],
      "stateMutability": "view",
      "type": "function"
    },
    {
      "inputs": [],
      "name": "symbol",
      "outputs": [
        {
          "internalType": "string",
          "name": "",
          "type": "string"
        }
      ],
      "stateMutability": "view",
      "type": "function"
    },
    {
      "inputs": [
        {
          "internalType": "uint256",
          "name": "tokenId",
          "type": "uint256"
        }
      ],
      "name": "tokenURI",
      "outputs": [
        {
          "internalType": "string",
          "name": "",
          "type": "string"
        }
      ],
      "stateMutability": "view",
      "type": "function"
    },
    {
      "inputs": [],
      "name": "totalMint",
      "outputs": [
        {
          "internalType": "uint256",
          "name": "",
          "type": "uint256"
        }
      ],
      "stateMutability": "view",
      "type": "function"
    },
    {
      "inputs": [
        {
          "internalType": "address",
          "name": "from",
          "type": "address"
        },
        {
          "internalType": "address",
          "name": "to",
          "type": "address"
        },
        {
          "internalType": "uint256",
          "name": "tokenId",
          "type": "uint256"
        }
      ],
      "name": "transferFrom",
      "outputs": [],
      "stateMutability": "nonpayable",
      "type": "function"
    },
    {
      "inputs": [
        {
          "internalType": "address",
          "name": "newOwner",
          "type": "address"
        }
      ],
      "name": "transferOwnership",
      "outputs": [],
      "stateMutability": "nonpayable",
      "type": "function"
    },
    {
      "inputs": [],
      "name": "withdrawETH",
      "outputs": [],
      "stateMutability": "payable",
      "type": "function"
    },
    {
      "inputs": [
        {
          "internalType": "address",
          "name": "tokenAddress",
          "type": "address"
        }
      ],
      "name": "withdrawToken",
      "outputs": [],
      "stateMutability": "nonpayable",
      "type": "function"
    },
    {
      "stateMutability": "payable",
      "type": "receive"
    }
  ],
  "bytecode": "0x60806040523480156200001157600080fd5b5060405162003df938038062003df98339818101604052810190620000379190620004ff565b6040518060400160405280600881526020017f4461746158204f470000000000000000000000000000000000000000000000008152506040518060400160405280600781526020017f44415441584f47000000000000000000000000000000000000000000000000008152508160009080519060200190620000bb929190620002b2565b508060019080519060200190620000d4929190620002b2565b505050620000f7620000eb6200010f60201b60201c565b6200011760201b60201c565b6200010881620001dd60201b60201c565b5062000638565b600033905090565b6000600660009054906101000a900473ffffffffffffffffffffffffffffffffffffffff16905081600660006101000a81548173ffffffffffffffffffffffffffffffffffffffff021916908373ffffffffffffffffffffffffffffffffffffffff1602179055508173ffffffffffffffffffffffffffffffffffffffff168173ffffffffffffffffffffffffffffffffffffffff167f8be0079c531659141344cd1fd0a4f28419497f9722a3daafe3b4186f6b6457e060405160405180910390a35050565b620001ed6200010f60201b60201c565b73ffffffffffffffffffffffffffffffffffffffff16620002136200028860201b60201c565b73ffffffffffffffffffffffffffffffffffffffff16146200026c576040517f08c379a00000000000000000000000000000000000000000000000000000000081526004016200026390620005b1565b60405180910390fd5b806009908051906020019062000284929190620002b2565b5050565b6000600660009054906101000a900473ffffffffffffffffffffffffffffffffffffffff16905090565b828054620002c09062000602565b90600052602060002090601f016020900481019282620002e4576000855562000330565b82601f10620002ff57805160ff191683800117855562000330565b8280016001018555821562000330579182015b828111156200032f57825182559160200191906001019062000312565b5b5090506200033f919062000343565b5090565b5b808211156200035e57600081600090555060010162000344565b5090565b6000604051905090565b600080fd5b600080fd5b600080fd5b600080fd5b6000601f19601f8301169050919050565b7f4e487b7100000000000000000000000000000000000000000000000000000000600052604160045260246000fd5b620003cb8262000380565b810181811067ffffffffffffffff82111715620003ed57620003ec62000391565b5b80604052505050565b60006200040262000362565b9050620004108282620003c0565b919050565b600067ffffffffffffffff82111562000433576200043262000391565b5b6200043e8262000380565b9050602081019050919050565b60005b838110156200046b5780820151818401526020810190506200044e565b838111156200047b576000848401525b50505050565b600062000498620004928462000415565b620003f6565b905082815260208101848484011115620004b757620004b66200037b565b5b620004c48482856200044b565b509392505050565b600082601f830112620004e457620004e362000376565b5b8151620004f684826020860162000481565b91505092915050565b6000602082840312156200051857620005176200036c565b5b600082015167ffffffffffffffff81111562000539576200053862000371565b5b6200054784828501620004cc565b91505092915050565b600082825260208201905092915050565b7f4f776e61626c653a2063616c6c6572206973206e6f7420746865206f776e6572600082015250565b60006200059960208362000550565b9150620005a68262000561565b602082019050919050565b60006020820190508181036000830152620005cc816200058a565b9050919050565b7f4e487b7100000000000000000000000000000000000000000000000000000000600052602260045260246000fd5b600060028204905060018216806200061b57607f821691505b60208210811415620006325762000631620005d3565b5b50919050565b6137b180620006486000396000f3fe6080604052600436106101855760003560e01c806389476069116100d1578063bf7b766d1161008a578063e086e5ec11610064578063e086e5ec14610579578063e985e9c514610583578063f2fde38b146105c0578063fc6f9468146105e95761018c565b8063bf7b766d146104e6578063c87b56dd14610511578063d547cfb71461054e5761018c565b806389476069146103ea5780638ad5de28146104135780638da5cb5b1461043e57806395d89b4114610469578063a22cb46514610494578063b88d4fde146104bd5761018c565b806342842e0e1161013e5780636352211e116101185780636352211e146103305780636a6278421461036d57806370a0823114610396578063715018a6146103d35761018c565b806342842e0e146102b357806355f804b3146102dc57806359a7715a146103055761018c565b806301ffc9a71461019157806306fdde03146101ce578063081812fc146101f9578063095ea7b31461023657806323b872dd1461025f5780633502a716146102885761018c565b3661018c57005b600080fd5b34801561019d57600080fd5b506101b860048036038101906101b39190612335565b610614565b6040516101c5919061237d565b60405180910390f35b3480156101da57600080fd5b506101e36106f6565b6040516101f09190612431565b60405180910390f35b34801561020557600080fd5b50610220600480360381019061021b9190612489565b610788565b60405161022d91906124f7565b60405180910390f35b34801561024257600080fd5b5061025d6004803603810190610258919061253e565b61080d565b005b34801561026b57600080fd5b506102866004803603810190610281919061257e565b610925565b005b34801561029457600080fd5b5061029d610985565b6040516102aa91906125e0565b60405180910390f35b3480156102bf57600080fd5b506102da60048036038101906102d5919061257e565b61098b565b005b3480156102e857600080fd5b5061030360048036038101906102fe9190612730565b6109ab565b005b34801561031157600080fd5b5061031a610a41565b60405161032791906125e0565b60405180910390f35b34801561033c57600080fd5b5061035760048036038101906103529190612489565b610a50565b60405161036491906124f7565b60405180910390f35b34801561037957600080fd5b50610394600480360381019061038f9190612779565b610b02565b005b3480156103a257600080fd5b506103bd60048036038101906103b89190612779565b610bdc565b6040516103ca91906125e0565b60405180910390f35b3480156103df57600080fd5b506103e8610c94565b005b3480156103f657600080fd5b50610411600480360381019061040c9190612779565b610d1c565b005b34801561041f57600080fd5b50610428610f4e565b60405161043591906125e0565b60405180910390f35b34801561044a57600080fd5b50610453610f53565b60405161046091906124f7565b60405180910390f35b34801561047557600080fd5b5061047e610f7d565b60405161048b9190612431565b60405180910390f35b3480156104a057600080fd5b506104bb60048036038101906104b691906127d2565b61100f565b005b3480156104c957600080fd5b506104e460048036038101906104df91906128b3565b611190565b005b3480156104f257600080fd5b506104fb6111f2565b60405161050891906125e0565b60405180910390f35b34801561051d57600080fd5b5061053860048036038101906105339190612489565b6111f7565b6040516105459190612431565b60405180910390f35b34801561055a57600080fd5b5061056361129e565b6040516105709190612431565b60405180910390f35b61058161132c565b005b34801561058f57600080fd5b506105aa60048036038101906105a59190612936565b6113fe565b6040516105b7919061237d565b60405180910390f35b3480156105cc57600080fd5b506105e760048036038101906105e29190612779565b611492565b005b3480156105f557600080fd5b506105fe61158a565b60405161060b91906124f7565b60405180910390f35b60007f80ac58cd000000000000000000000000000000000000000000000000000000007bffffffffffffffffffffffffffffffffffffffffffffffffffffffff1916827bffffffffffffffffffffffffffffffffffffffffffffffffffffffff191614806106df57507f5b5e139f000000000000000000000000000000000000000000000000000000007bffffffffffffffffffffffffffffffffffffffffffffffffffffffff1916827bffffffffffffffffffffffffffffffffffffffffffffffffffffffff1916145b806106ef57506106ee826115b0565b5b9050919050565b606060008054610705906129a5565b80601f0160208091040260200160405190810160405280929190818152602001828054610731906129a5565b801561077e5780601f106107535761010080835404028352916020019161077e565b820191906000526020600020905b81548152906001019060200180831161076157829003601f168201915b5050505050905090565b60006107938261161a565b6107d2576040517f08c379a00000000000000000000000000000000000000000000000000000000081526004016107c990612a49565b60405180910390fd5b6004600083815260200190815260200160002060009054906101000a900473ffffffffffffffffffffffffffffffffffffffff169050919050565b600061081882610a50565b90508073ffffffffffffffffffffffffffffffffffffffff168373ffffffffffffffffffffffffffffffffffffffff161415610889576040517f08c379a000000000000000000000000000000000000000000000000000000000815260040161088090612adb565b60405180910390fd5b8073ffffffffffffffffffffffffffffffffffffffff166108a8611686565b73ffffffffffffffffffffffffffffffffffffffff1614806108d757506108d6816108d1611686565b6113fe565b5b610916576040517f08c379a000000000000000000000000000000000000000000000000000000000815260040161090d90612b6d565b60405180910390fd5b610920838361168e565b505050565b610936610930611686565b82611747565b610975576040517f08c379a000000000000000000000000000000000000000000000000000000000815260040161096c90612bff565b60405180910390fd5b610980838383611825565b505050565b6101f481565b6109a683838360405180602001604052806000815250611190565b505050565b6109b3611686565b73ffffffffffffffffffffffffffffffffffffffff166109d1610f53565b73ffffffffffffffffffffffffffffffffffffffff1614610a27576040517f08c379a0000000000000000000000000000000000000000000000000000000008152600401610a1e90612c6b565b60405180910390fd5b8060099080519060200190610a3d929190612226565b5050565b6000610a4b611a81565b905090565b6000806002600084815260200190815260200160002060009054906101000a900473ffffffffffffffffffffffffffffffffffffffff169050600073ffffffffffffffffffffffffffffffffffffffff168173ffffffffffffffffffffffffffffffffffffffff161415610af9576040517f08c379a0000000000000000000000000000000000000000000000000000000008152600401610af090612cfd565b60405180910390fd5b80915050919050565b610b0a611686565b73ffffffffffffffffffffffffffffffffffffffff16610b28610f53565b73ffffffffffffffffffffffffffffffffffffffff1614610b7e576040517f08c379a0000000000000000000000000000000000000000000000000000000008152600401610b7590612c6b565b60405180910390fd5b6000610b88611a81565b90506101f4811115610bcf576040517f08c379a0000000000000000000000000000000000000000000000000000000008152600401610bc690612d69565b60405180910390fd5b610bd882611a92565b5050565b60008073ffffffffffffffffffffffffffffffffffffffff168273ffffffffffffffffffffffffffffffffffffffff161415610c4d576040517f08c379a0000000000000000000000000000000000000000000000000000000008152600401610c4490612dfb565b60405180910390fd5b600360008373ffffffffffffffffffffffffffffffffffffffff1673ffffffffffffffffffffffffffffffffffffffff168152602001908152602001600020549050919050565b610c9c611686565b73ffffffffffffffffffffffffffffffffffffffff16610cba610f53565b73ffffffffffffffffffffffffffffffffffffffff1614610d10576040517f08c379a0000000000000000000000000000000000000000000000000000000008152600401610d0790612c6b565b60405180910390fd5b610d1a6000611b06565b565b610d24611686565b73ffffffffffffffffffffffffffffffffffffffff16610d42610f53565b73ffffffffffffffffffffffffffffffffffffffff1614610d98576040517f08c379a0000000000000000000000000000000000000000000000000000000008152600401610d8f90612c6b565b60405180910390fd5b600073ffffffffffffffffffffffffffffffffffffffff168173ffffffffffffffffffffffffffffffffffffffff161415610e08576040517f08c379a0000000000000000000000000000000000000000000000000000000008152600401610dff90612e8d565b60405180910390fd5b6000610e12610f53565b90508173ffffffffffffffffffffffffffffffffffffffff1663a9059cbb828473ffffffffffffffffffffffffffffffffffffffff166370a08231306040518263ffffffff1660e01b8152600401610e6a91906124f7565b602060405180830381865afa158015610e87573d6000803e3d6000fd5b505050506040513d601f19601f82011682018060405250810190610eab9190612ec2565b6040518363ffffffff1660e01b8152600401610ec8929190612eef565b6020604051808303816000875af1158015610ee7573d6000803e3d6000fd5b505050506040513d601f19601f82011682018060405250810190610f0b9190612f2d565b610f4a576040517f08c379a0000000000000000000000000000000000000000000000000000000008152600401610f4190612fa6565b60405180910390fd5b5050565b600181565b6000600660009054906101000a900473ffffffffffffffffffffffffffffffffffffffff16905090565b606060018054610f8c906129a5565b80601f0160208091040260200160405190810160405280929190818152602001828054610fb8906129a5565b80156110055780601f10610fda57610100808354040283529160200191611005565b820191906000526020600020905b815481529060010190602001808311610fe857829003601f168201915b5050505050905090565b611017611686565b73ffffffffffffffffffffffffffffffffffffffff168273ffffffffffffffffffffffffffffffffffffffff161415611085576040517f08c379a000000000000000000000000000000000000000000000000000000000815260040161107c90613012565b60405180910390fd5b8060056000611092611686565b73ffffffffffffffffffffffffffffffffffffffff1673ffffffffffffffffffffffffffffffffffffffff16815260200190815260200160002060008473ffffffffffffffffffffffffffffffffffffffff1673ffffffffffffffffffffffffffffffffffffffff16815260200190815260200160002060006101000a81548160ff0219169083151502179055508173ffffffffffffffffffffffffffffffffffffffff1661113f611686565b73ffffffffffffffffffffffffffffffffffffffff167f17307eab39ab6107e8899845ad3d59bd9653f200f220920489ca2b5937696c3183604051611184919061237d565b60405180910390a35050565b6111a161119b611686565b83611747565b6111e0576040517f08c379a00000000000000000000000000000000000000000000000000000000081526004016111d790612bff565b60405180910390fd5b6111ec84848484611bcc565b50505050565b600181565b60606112028261161a565b611241576040517f08c379a0000000000000000000000000000000000000000000000000000000008152600401611238906130a4565b60405180910390fd5b600061124b611c28565b9050600081511161126b5760405180602001604052806000815250611296565b8061127584611cba565b604051602001611286929190613100565b6040516020818303038152906040525b915050919050565b600980546112ab906129a5565b80601f01602080910402602001604051908101604052809291908181526020018280546112d7906129a5565b80156113245780601f106112f957610100808354040283529160200191611324565b820191906000526020600020905b81548152906001019060200180831161130757829003601f168201915b505050505081565b611334611686565b73ffffffffffffffffffffffffffffffffffffffff16611352610f53565b73ffffffffffffffffffffffffffffffffffffffff16146113a8576040517f08c379a000000000000000000000000000000000000000000000000000000000815260040161139f90612c6b565b60405180910390fd5b60006113b2610f53565b90508073ffffffffffffffffffffffffffffffffffffffff166108fc479081150290604051600060405180830381858888f193505050501580156113fa573d6000803e3d6000fd5b5050565b6000600560008473ffffffffffffffffffffffffffffffffffffffff1673ffffffffffffffffffffffffffffffffffffffff16815260200190815260200160002060008373ffffffffffffffffffffffffffffffffffffffff1673ffffffffffffffffffffffffffffffffffffffff16815260200190815260200160002060009054906101000a900460ff16905092915050565b61149a611686565b73ffffffffffffffffffffffffffffffffffffffff166114b8610f53565b73ffffffffffffffffffffffffffffffffffffffff161461150e576040517f08c379a000000000000000000000000000000000000000000000000000000000815260040161150590612c6b565b60405180910390fd5b600073ffffffffffffffffffffffffffffffffffffffff168173ffffffffffffffffffffffffffffffffffffffff16141561157e576040517f08c379a000000000000000000000000000000000000000000000000000000000815260040161157590613196565b60405180910390fd5b61158781611b06565b50565b600860009054906101000a900473ffffffffffffffffffffffffffffffffffffffff1681565b60007f01ffc9a7000000000000000000000000000000000000000000000000000000007bffffffffffffffffffffffffffffffffffffffffffffffffffffffff1916827bffffffffffffffffffffffffffffffffffffffffffffffffffffffff1916149050919050565b60008073ffffffffffffffffffffffffffffffffffffffff166002600084815260200190815260200160002060009054906101000a900473ffffffffffffffffffffffffffffffffffffffff1673ffffffffffffffffffffffffffffffffffffffff1614159050919050565b600033905090565b816004600083815260200190815260200160002060006101000a81548173ffffffffffffffffffffffffffffffffffffffff021916908373ffffffffffffffffffffffffffffffffffffffff160217905550808273ffffffffffffffffffffffffffffffffffffffff1661170183610a50565b73ffffffffffffffffffffffffffffffffffffffff167f8c5be1e5ebec7d5bd14f71427d1e84f3dd0314c0f7b2291e5b200ac8c7c3b92560405160405180910390a45050565b60006117528261161a565b611791576040517f08c379a000000000000000000000000000000000000000000000000000000000815260040161178890613228565b60405180910390fd5b600061179c83610a50565b90508073ffffffffffffffffffffffffffffffffffffffff168473ffffffffffffffffffffffffffffffffffffffff16148061180b57508373ffffffffffffffffffffffffffffffffffffffff166117f384610788565b73ffffffffffffffffffffffffffffffffffffffff16145b8061181c575061181b81856113fe565b5b91505092915050565b8273ffffffffffffffffffffffffffffffffffffffff1661184582610a50565b73ffffffffffffffffffffffffffffffffffffffff161461189b576040517f08c379a0000000000000000000000000000000000000000000000000000000008152600401611892906132ba565b60405180910390fd5b600073ffffffffffffffffffffffffffffffffffffffff168273ffffffffffffffffffffffffffffffffffffffff16141561190b576040517f08c379a00000000000000000000000000000000000000000000000000000000081526004016119029061334c565b60405180910390fd5b611916838383611e1b565b61192160008261168e565b6001600360008573ffffffffffffffffffffffffffffffffffffffff1673ffffffffffffffffffffffffffffffffffffffff1681526020019081526020016000206000828254611971919061339b565b925050819055506001600360008473ffffffffffffffffffffffffffffffffffffffff1673ffffffffffffffffffffffffffffffffffffffff16815260200190815260200160002060008282546119c891906133cf565b92505081905550816002600083815260200190815260200160002060006101000a81548173ffffffffffffffffffffffffffffffffffffffff021916908373ffffffffffffffffffffffffffffffffffffffff160217905550808273ffffffffffffffffffffffffffffffffffffffff168473ffffffffffffffffffffffffffffffffffffffff167fddf252ad1be2c89b69c2b068fc378daa952ba7f163c4a11628f55a4df523b3ef60405160405180910390a4505050565b6000611a8d6007611e20565b905090565b60006001611a9e611a81565b611aa891906133cf565b9050611ab46007611e2e565b611abe8282611e44565b8173ffffffffffffffffffffffffffffffffffffffff16817f291d3f6c3ecab98acd02709c8abf1e57e33ba0c761ff7f68bcbe5af06b346fed60405160405180910390a35050565b6000600660009054906101000a900473ffffffffffffffffffffffffffffffffffffffff16905081600660006101000a81548173ffffffffffffffffffffffffffffffffffffffff021916908373ffffffffffffffffffffffffffffffffffffffff1602179055508173ffffffffffffffffffffffffffffffffffffffff168173ffffffffffffffffffffffffffffffffffffffff167f8be0079c531659141344cd1fd0a4f28419497f9722a3daafe3b4186f6b6457e060405160405180910390a35050565b611bd7848484611825565b611be384848484611e62565b611c22576040517f08c379a0000000000000000000000000000000000000000000000000000000008152600401611c1990613497565b60405180910390fd5b50505050565b606060098054611c37906129a5565b80601f0160208091040260200160405190810160405280929190818152602001828054611c63906129a5565b8015611cb05780601f10611c8557610100808354040283529160200191611cb0565b820191906000526020600020905b815481529060010190602001808311611c9357829003601f168201915b5050505050905090565b60606000821415611d02576040518060400160405280600181526020017f30000000000000000000000000000000000000000000000000000000000000008152509050611e16565b600082905060005b60008214611d34578080611d1d906134b7565b915050600a82611d2d919061352f565b9150611d0a565b60008167ffffffffffffffff811115611d5057611d4f612605565b5b6040519080825280601f01601f191660200182016040528015611d825781602001600182028036833780820191505090505b5090505b60008514611e0f57600182611d9b919061339b565b9150600a85611daa9190613560565b6030611db691906133cf565b60f81b818381518110611dcc57611dcb613591565b5b60200101907effffffffffffffffffffffffffffffffffffffffffffffffffffffffffffff1916908160001a905350600a85611e08919061352f565b9450611d86565b8093505050505b919050565b505050565b600081600001549050919050565b6001816000016000828254019250508190555050565b611e5e828260405180602001604052806000815250611fea565b5050565b6000611e838473ffffffffffffffffffffffffffffffffffffffff16612045565b15611fdd578373ffffffffffffffffffffffffffffffffffffffff1663150b7a02611eac611686565b8786866040518563ffffffff1660e01b8152600401611ece9493929190613615565b6020604051808303816000875af1925050508015611f0a57506040513d601f19601f82011682018060405250810190611f079190613676565b60015b611f8d573d8060008114611f3a576040519150601f19603f3d011682016040523d82523d6000602084013e611f3f565b606091505b50600081511415611f85576040517f08c379a0000000000000000000000000000000000000000000000000000000008152600401611f7c90613497565b60405180910390fd5b805181602001fd5b63150b7a0260e01b7bffffffffffffffffffffffffffffffffffffffffffffffffffffffff1916817bffffffffffffffffffffffffffffffffffffffffffffffffffffffff191614915050611fe2565b600190505b949350505050565b611ff48383612058565b6120016000848484611e62565b612040576040517f08c379a000000000000000000000000000000000000000000000000000000000815260040161203790613497565b60405180910390fd5b505050565b600080823b905060008111915050919050565b600073ffffffffffffffffffffffffffffffffffffffff168273ffffffffffffffffffffffffffffffffffffffff1614156120c8576040517f08c379a00000000000000000000000000000000000000000000000000000000081526004016120bf906136ef565b60405180910390fd5b6120d18161161a565b15612111576040517f08c379a00000000000000000000000000000000000000000000000000000000081526004016121089061375b565b60405180910390fd5b61211d60008383611e1b565b6001600360008473ffffffffffffffffffffffffffffffffffffffff1673ffffffffffffffffffffffffffffffffffffffff168152602001908152602001600020600082825461216d91906133cf565b92505081905550816002600083815260200190815260200160002060006101000a81548173ffffffffffffffffffffffffffffffffffffffff021916908373ffffffffffffffffffffffffffffffffffffffff160217905550808273ffffffffffffffffffffffffffffffffffffffff16600073ffffffffffffffffffffffffffffffffffffffff167fddf252ad1be2c89b69c2b068fc378daa952ba7f163c4a11628f55a4df523b3ef60405160405180910390a45050565b828054612232906129a5565b90600052602060002090601f016020900481019282612254576000855561229b565b82601f1061226d57805160ff191683800117855561229b565b8280016001018555821561229b579182015b8281111561229a57825182559160200191906001019061227f565b5b5090506122a891906122ac565b5090565b5b808211156122c55760008160009055506001016122ad565b5090565b6000604051905090565b600080fd5b600080fd5b60007fffffffff0000000000000000000000000000000000000000000000000000000082169050919050565b612312816122dd565b811461231d57600080fd5b50565b60008135905061232f81612309565b92915050565b60006020828403121561234b5761234a6122d3565b5b600061235984828501612320565b91505092915050565b60008115159050919050565b61237781612362565b82525050565b6000602082019050612392600083018461236e565b92915050565b600081519050919050565b600082825260208201905092915050565b60005b838110156123d25780820151818401526020810190506123b7565b838111156123e1576000848401525b50505050565b6000601f19601f8301169050919050565b600061240382612398565b61240d81856123a3565b935061241d8185602086016123b4565b612426816123e7565b840191505092915050565b6000602082019050818103600083015261244b81846123f8565b905092915050565b6000819050919050565b61246681612453565b811461247157600080fd5b50565b6000813590506124838161245d565b92915050565b60006020828403121561249f5761249e6122d3565b5b60006124ad84828501612474565b91505092915050565b600073ffffffffffffffffffffffffffffffffffffffff82169050919050565b60006124e1826124b6565b9050919050565b6124f1816124d6565b82525050565b600060208201905061250c60008301846124e8565b92915050565b61251b816124d6565b811461252657600080fd5b50565b60008135905061253881612512565b92915050565b60008060408385031215612555576125546122d3565b5b600061256385828601612529565b925050602061257485828601612474565b9150509250929050565b600080600060608486031215612597576125966122d3565b5b60006125a586828701612529565b93505060206125b686828701612529565b92505060406125c786828701612474565b9150509250925092565b6125da81612453565b82525050565b60006020820190506125f560008301846125d1565b92915050565b600080fd5b600080fd5b7f4e487b7100000000000000000000000000000000000000000000000000000000600052604160045260246000fd5b61263d826123e7565b810181811067ffffffffffffffff8211171561265c5761265b612605565b5b80604052505050565b600061266f6122c9565b905061267b8282612634565b919050565b600067ffffffffffffffff82111561269b5761269a612605565b5b6126a4826123e7565b9050602081019050919050565b82818337600083830152505050565b60006126d36126ce84612680565b612665565b9050828152602081018484840111156126ef576126ee612600565b5b6126fa8482856126b1565b509392505050565b600082601f830112612717576127166125fb565b5b81356127278482602086016126c0565b91505092915050565b600060208284031215612746576127456122d3565b5b600082013567ffffffffffffffff811115612764576127636122d8565b5b61277084828501612702565b91505092915050565b60006020828403121561278f5761278e6122d3565b5b600061279d84828501612529565b91505092915050565b6127af81612362565b81146127ba57600080fd5b50565b6000813590506127cc816127a6565b92915050565b600080604083850312156127e9576127e86122d3565b5b60006127f785828601612529565b9250506020612808858286016127bd565b9150509250929050565b600067ffffffffffffffff82111561282d5761282c612605565b5b612836826123e7565b9050602081019050919050565b600061285661285184612812565b612665565b90508281526020810184848401111561287257612871612600565b5b61287d8482856126b1565b509392505050565b600082601f83011261289a576128996125fb565b5b81356128aa848260208601612843565b91505092915050565b600080600080608085870312156128cd576128cc6122d3565b5b60006128db87828801612529565b94505060206128ec87828801612529565b93505060406128fd87828801612474565b925050606085013567ffffffffffffffff81111561291e5761291d6122d8565b5b61292a87828801612885565b91505092959194509250565b6000806040838503121561294d5761294c6122d3565b5b600061295b85828601612529565b925050602061296c85828601612529565b9150509250929050565b7f4e487b7100000000000000000000000000000000000000000000000000000000600052602260045260246000fd5b600060028204905060018216806129bd57607f821691505b602082108114156129d1576129d0612976565b5b50919050565b7f4552433732313a20617070726f76656420717565727920666f72206e6f6e657860008201527f697374656e7420746f6b656e0000000000000000000000000000000000000000602082015250565b6000612a33602c836123a3565b9150612a3e826129d7565b604082019050919050565b60006020820190508181036000830152612a6281612a26565b9050919050565b7f4552433732313a20617070726f76616c20746f2063757272656e74206f776e6560008201527f7200000000000000000000000000000000000000000000000000000000000000602082015250565b6000612ac56021836123a3565b9150612ad082612a69565b604082019050919050565b60006020820190508181036000830152612af481612ab8565b9050919050565b7f4552433732313a20617070726f76652063616c6c6572206973206e6f74206f7760008201527f6e6572206e6f7220617070726f76656420666f7220616c6c0000000000000000602082015250565b6000612b576038836123a3565b9150612b6282612afb565b604082019050919050565b60006020820190508181036000830152612b8681612b4a565b9050919050565b7f4552433732313a207472616e736665722063616c6c6572206973206e6f74206f60008201527f776e6572206e6f7220617070726f766564000000000000000000000000000000602082015250565b6000612be96031836123a3565b9150612bf482612b8d565b604082019050919050565b60006020820190508181036000830152612c1881612bdc565b9050919050565b7f4f776e61626c653a2063616c6c6572206973206e6f7420746865206f776e6572600082015250565b6000612c556020836123a3565b9150612c6082612c1f565b602082019050919050565b60006020820190508181036000830152612c8481612c48565b9050919050565b7f4552433732313a206f776e657220717565727920666f72206e6f6e657869737460008201527f656e7420746f6b656e0000000000000000000000000000000000000000000000602082015250565b6000612ce76029836123a3565b9150612cf282612c8b565b604082019050919050565b60006020820190508181036000830152612d1681612cda565b9050919050565b7f4572726f723a204d6178206c696d697400000000000000000000000000000000600082015250565b6000612d536010836123a3565b9150612d5e82612d1d565b602082019050919050565b60006020820190508181036000830152612d8281612d46565b9050919050565b7f4552433732313a2062616c616e636520717565727920666f7220746865207a6560008201527f726f206164647265737300000000000000000000000000000000000000000000602082015250565b6000612de5602a836123a3565b9150612df082612d89565b604082019050919050565b60006020820190508181036000830152612e1481612dd8565b9050919050565b7f4572726f723a20496e76616c696420746f6b656e20636f6e747261637420616460008201527f6472657373000000000000000000000000000000000000000000000000000000602082015250565b6000612e776025836123a3565b9150612e8282612e1b565b604082019050919050565b60006020820190508181036000830152612ea681612e6a565b9050919050565b600081519050612ebc8161245d565b92915050565b600060208284031215612ed857612ed76122d3565b5b6000612ee684828501612ead565b91505092915050565b6000604082019050612f0460008301856124e8565b612f1160208301846125d1565b9392505050565b600081519050612f27816127a6565b92915050565b600060208284031215612f4357612f426122d3565b5b6000612f5184828501612f18565b91505092915050565b7f4572726f723a204661696c656420746f20776974686472617720746f6b656e73600082015250565b6000612f906020836123a3565b9150612f9b82612f5a565b602082019050919050565b60006020820190508181036000830152612fbf81612f83565b9050919050565b7f4552433732313a20617070726f766520746f2063616c6c657200000000000000600082015250565b6000612ffc6019836123a3565b915061300782612fc6565b602082019050919050565b6000602082019050818103600083015261302b81612fef565b9050919050565b7f4552433732314d657461646174613a2055524920717565727920666f72206e6f60008201527f6e6578697374656e7420746f6b656e0000000000000000000000000000000000602082015250565b600061308e602f836123a3565b915061309982613032565b604082019050919050565b600060208201905081810360008301526130bd81613081565b9050919050565b600081905092915050565b60006130da82612398565b6130e481856130c4565b93506130f48185602086016123b4565b80840191505092915050565b600061310c82856130cf565b915061311882846130cf565b91508190509392505050565b7f4f776e61626c653a206e6577206f776e657220697320746865207a65726f206160008201527f6464726573730000000000000000000000000000000000000000000000000000602082015250565b60006131806026836123a3565b915061318b82613124565b604082019050919050565b600060208201905081810360008301526131af81613173565b9050919050565b7f4552433732313a206f70657261746f7220717565727920666f72206e6f6e657860008201527f697374656e7420746f6b656e0000000000000000000000000000000000000000602082015250565b6000613212602c836123a3565b915061321d826131b6565b604082019050919050565b6000602082019050818103600083015261324181613205565b9050919050565b7f4552433732313a207472616e73666572206f6620746f6b656e2074686174206960008201527f73206e6f74206f776e0000000000000000000000000000000000000000000000602082015250565b60006132a46029836123a3565b91506132af82613248565b604082019050919050565b600060208201905081810360008301526132d381613297565b9050919050565b7f4552433732313a207472616e7366657220746f20746865207a65726f2061646460008201527f7265737300000000000000000000000000000000000000000000000000000000602082015250565b60006133366024836123a3565b9150613341826132da565b604082019050919050565b6000602082019050818103600083015261336581613329565b9050919050565b7f4e487b7100000000000000000000000000000000000000000000000000000000600052601160045260246000fd5b60006133a682612453565b91506133b183612453565b9250828210156133c4576133c361336c565b5b828203905092915050565b60006133da82612453565b91506133e583612453565b9250827fffffffffffffffffffffffffffffffffffffffffffffffffffffffffffffffff0382111561341a5761341961336c565b5b828201905092915050565b7f4552433732313a207472616e7366657220746f206e6f6e20455243373231526560008201527f63656976657220696d706c656d656e7465720000000000000000000000000000602082015250565b60006134816032836123a3565b915061348c82613425565b604082019050919050565b600060208201905081810360008301526134b081613474565b9050919050565b60006134c282612453565b91507fffffffffffffffffffffffffffffffffffffffffffffffffffffffffffffffff8214156134f5576134f461336c565b5b600182019050919050565b7f4e487b7100000000000000000000000000000000000000000000000000000000600052601260045260246000fd5b600061353a82612453565b915061354583612453565b92508261355557613554613500565b5b828204905092915050565b600061356b82612453565b915061357683612453565b92508261358657613585613500565b5b828206905092915050565b7f4e487b7100000000000000000000000000000000000000000000000000000000600052603260045260246000fd5b600081519050919050565b600082825260208201905092915050565b60006135e7826135c0565b6135f181856135cb565b93506136018185602086016123b4565b61360a816123e7565b840191505092915050565b600060808201905061362a60008301876124e8565b61363760208301866124e8565b61364460408301856125d1565b818103606083015261365681846135dc565b905095945050505050565b60008151905061367081612309565b92915050565b60006020828403121561368c5761368b6122d3565b5b600061369a84828501613661565b91505092915050565b7f4552433732313a206d696e7420746f20746865207a65726f2061646472657373600082015250565b60006136d96020836123a3565b91506136e4826136a3565b602082019050919050565b60006020820190508181036000830152613708816136cc565b9050919050565b7f4552433732313a20746f6b656e20616c7265616479206d696e74656400000000600082015250565b6000613745601c836123a3565b91506137508261370f565b602082019050919050565b6000602082019050818103600083015261377481613738565b905091905056fea264697066735822122086d8f35dcad460b3f19328ca7db9cb4b724addae131277333d4f6ba495ee5eca64736f6c634300080c0033",
  "linkReferences": {},
  "deployedLinkReferences": {}
}